{
  "_format": "hh-sol-artifact-1",
  "contractName": "NFT1155Upgradeable",
  "sourceName": "contracts/token/erc1155/NFT1155Upgradeable.sol",
  "abi": [
    {
      "anonymous": false,
      "inputs": [
        {
          "indexed": true,
          "internalType": "address",
          "name": "account",
          "type": "address"
        },
        {
          "indexed": true,
          "internalType": "address",
          "name": "operator",
          "type": "address"
        },
        {
          "indexed": false,
          "internalType": "bool",
          "name": "approved",
          "type": "bool"
        }
      ],
      "name": "ApprovalForAll",
      "type": "event"
    },
    {
      "anonymous": false,
      "inputs": [
        {
          "indexed": false,
          "internalType": "uint8",
          "name": "version",
          "type": "uint8"
        }
      ],
      "name": "Initialized",
      "type": "event"
    },
    {
      "anonymous": false,
      "inputs": [
        {
          "indexed": true,
          "internalType": "address",
          "name": "_newAddress",
          "type": "address"
        },
        {
          "indexed": true,
          "internalType": "address",
          "name": "_fromAddress",
          "type": "address"
        },
        {
          "indexed": false,
          "internalType": "uint256",
          "name": "_ercType",
          "type": "uint256"
        }
      ],
      "name": "NFTCloned",
      "type": "event"
    },
    {
      "anonymous": false,
      "inputs": [
        {
          "indexed": true,
          "internalType": "address",
          "name": "previousOwner",
          "type": "address"
        },
        {
          "indexed": true,
          "internalType": "address",
          "name": "newOwner",
          "type": "address"
        }
      ],
      "name": "OwnershipTransferred",
      "type": "event"
    },
    {
      "anonymous": false,
      "inputs": [
        {
          "indexed": false,
          "internalType": "address",
          "name": "sender",
          "type": "address"
        },
        {
          "indexed": false,
          "internalType": "address",
          "name": "operator",
          "type": "address"
        },
        {
          "indexed": false,
          "internalType": "bool",
          "name": "approved",
          "type": "bool"
        }
      ],
      "name": "ProxyApproval",
      "type": "event"
    },
    {
      "anonymous": false,
      "inputs": [
        {
          "indexed": true,
          "internalType": "bytes32",
          "name": "role",
          "type": "bytes32"
        },
        {
          "indexed": true,
          "internalType": "bytes32",
          "name": "previousAdminRole",
          "type": "bytes32"
        },
        {
          "indexed": true,
          "internalType": "bytes32",
          "name": "newAdminRole",
          "type": "bytes32"
        }
      ],
      "name": "RoleAdminChanged",
      "type": "event"
    },
    {
      "anonymous": false,
      "inputs": [
        {
          "indexed": true,
          "internalType": "bytes32",
          "name": "role",
          "type": "bytes32"
        },
        {
          "indexed": true,
          "internalType": "address",
          "name": "account",
          "type": "address"
        },
        {
          "indexed": true,
          "internalType": "address",
          "name": "sender",
          "type": "address"
        }
      ],
      "name": "RoleGranted",
      "type": "event"
    },
    {
      "anonymous": false,
      "inputs": [
        {
          "indexed": true,
          "internalType": "bytes32",
          "name": "role",
          "type": "bytes32"
        },
        {
          "indexed": true,
          "internalType": "address",
          "name": "account",
          "type": "address"
        },
        {
          "indexed": true,
          "internalType": "address",
          "name": "sender",
          "type": "address"
        }
      ],
      "name": "RoleRevoked",
      "type": "event"
    },
    {
      "anonymous": false,
      "inputs": [
        {
          "indexed": true,
          "internalType": "address",
          "name": "operator",
          "type": "address"
        },
        {
          "indexed": true,
          "internalType": "address",
          "name": "from",
          "type": "address"
        },
        {
          "indexed": true,
          "internalType": "address",
          "name": "to",
          "type": "address"
        },
        {
          "indexed": false,
          "internalType": "uint256[]",
          "name": "ids",
          "type": "uint256[]"
        },
        {
          "indexed": false,
          "internalType": "uint256[]",
          "name": "values",
          "type": "uint256[]"
        }
      ],
      "name": "TransferBatch",
      "type": "event"
    },
    {
      "anonymous": false,
      "inputs": [
        {
          "indexed": true,
          "internalType": "address",
          "name": "operator",
          "type": "address"
        },
        {
          "indexed": true,
          "internalType": "address",
          "name": "from",
          "type": "address"
        },
        {
          "indexed": true,
          "internalType": "address",
          "name": "to",
          "type": "address"
        },
        {
          "indexed": false,
          "internalType": "uint256",
          "name": "id",
          "type": "uint256"
        },
        {
          "indexed": false,
          "internalType": "uint256",
          "name": "value",
          "type": "uint256"
        }
      ],
      "name": "TransferSingle",
      "type": "event"
    },
    {
      "anonymous": false,
      "inputs": [
        {
          "indexed": false,
          "internalType": "string",
          "name": "value",
          "type": "string"
        },
        {
          "indexed": true,
          "internalType": "uint256",
          "name": "id",
          "type": "uint256"
        }
      ],
      "name": "URI",
      "type": "event"
    },
    {
      "inputs": [],
      "name": "DEFAULT_ADMIN_ROLE",
      "outputs": [
        {
          "internalType": "bytes32",
          "name": "",
          "type": "bytes32"
        }
      ],
      "stateMutability": "view",
      "type": "function"
    },
    {
      "inputs": [],
      "name": "MINTER_ROLE",
      "outputs": [
        {
          "internalType": "bytes32",
          "name": "",
          "type": "bytes32"
        }
      ],
      "stateMutability": "view",
      "type": "function"
    },
    {
      "inputs": [
        {
          "internalType": "address",
          "name": "account",
          "type": "address"
        }
      ],
      "name": "addMinter",
      "outputs": [],
      "stateMutability": "nonpayable",
      "type": "function"
    },
    {
      "inputs": [
        {
          "internalType": "address",
          "name": "_addr",
          "type": "address"
        }
      ],
      "name": "addressToBytes32",
      "outputs": [
        {
          "internalType": "bytes32",
          "name": "",
          "type": "bytes32"
        }
      ],
      "stateMutability": "pure",
      "type": "function"
    },
    {
      "inputs": [
        {
          "internalType": "address",
          "name": "account",
          "type": "address"
        },
        {
          "internalType": "uint256",
          "name": "id",
          "type": "uint256"
        }
      ],
      "name": "balanceOf",
      "outputs": [
        {
          "internalType": "uint256",
          "name": "",
          "type": "uint256"
        }
      ],
      "stateMutability": "view",
      "type": "function"
    },
    {
      "inputs": [
        {
          "internalType": "address[]",
          "name": "accounts",
          "type": "address[]"
        },
        {
          "internalType": "uint256[]",
          "name": "ids",
          "type": "uint256[]"
        }
      ],
      "name": "balanceOfBatch",
      "outputs": [
        {
          "internalType": "uint256[]",
          "name": "",
          "type": "uint256[]"
        }
      ],
      "stateMutability": "view",
      "type": "function"
    },
    {
      "inputs": [
        {
          "internalType": "address",
          "name": "to",
          "type": "address"
        },
        {
          "internalType": "uint256",
          "name": "id",
          "type": "uint256"
        },
        {
          "internalType": "uint256",
          "name": "amount",
          "type": "uint256"
        }
      ],
      "name": "burn",
      "outputs": [],
      "stateMutability": "nonpayable",
      "type": "function"
    },
    {
      "inputs": [
        {
          "internalType": "bytes32",
          "name": "_b32",
          "type": "bytes32"
        }
      ],
      "name": "bytes32ToAddress",
      "outputs": [
        {
          "internalType": "address",
          "name": "",
          "type": "address"
        }
      ],
      "stateMutability": "pure",
      "type": "function"
    },
    {
      "inputs": [
        {
          "internalType": "uint256[]",
          "name": "_amounts",
          "type": "uint256[]"
        }
      ],
      "name": "calculateTotalAmount",
      "outputs": [
        {
          "internalType": "uint256",
          "name": "",
          "type": "uint256"
        }
      ],
      "stateMutability": "pure",
      "type": "function"
    },
    {
      "inputs": [],
      "name": "contractURI",
      "outputs": [
        {
          "internalType": "string",
          "name": "",
          "type": "string"
        }
      ],
      "stateMutability": "view",
      "type": "function"
    },
    {
      "inputs": [
        {
          "internalType": "string",
          "name": "_name",
          "type": "string"
        },
        {
          "internalType": "string",
          "name": "_symbol",
          "type": "string"
        },
        {
          "internalType": "string",
          "name": "_uri",
          "type": "string"
        }
      ],
      "name": "createClone",
      "outputs": [
        {
          "internalType": "address",
          "name": "",
          "type": "address"
        }
      ],
      "stateMutability": "nonpayable",
      "type": "function"
    },
    {
      "inputs": [],
      "name": "getCurrentBlockNumber",
      "outputs": [
        {
          "internalType": "uint256",
          "name": "",
          "type": "uint256"
        }
      ],
      "stateMutability": "view",
      "type": "function"
    },
    {
      "inputs": [],
      "name": "getNvmConfigAddress",
      "outputs": [
        {
          "internalType": "address",
          "name": "",
          "type": "address"
        }
      ],
      "stateMutability": "view",
      "type": "function"
    },
    {
      "inputs": [
        {
          "internalType": "bytes32",
          "name": "role",
          "type": "bytes32"
        }
      ],
      "name": "getRoleAdmin",
      "outputs": [
        {
          "internalType": "bytes32",
          "name": "",
          "type": "bytes32"
        }
      ],
      "stateMutability": "view",
      "type": "function"
    },
    {
      "inputs": [],
      "name": "getTrustedForwarder",
      "outputs": [
        {
          "internalType": "address",
          "name": "",
          "type": "address"
        }
      ],
      "stateMutability": "view",
      "type": "function"
    },
    {
      "inputs": [
        {
          "internalType": "bytes32",
          "name": "role",
          "type": "bytes32"
        },
        {
          "internalType": "address",
          "name": "account",
          "type": "address"
        }
      ],
      "name": "grantRole",
      "outputs": [],
      "stateMutability": "nonpayable",
      "type": "function"
    },
    {
      "inputs": [
        {
          "internalType": "bytes32",
          "name": "role",
          "type": "bytes32"
        },
        {
          "internalType": "address",
          "name": "account",
          "type": "address"
        }
      ],
      "name": "hasRole",
      "outputs": [
        {
          "internalType": "bool",
          "name": "",
          "type": "bool"
        }
      ],
      "stateMutability": "view",
      "type": "function"
    },
    {
      "inputs": [
        {
          "internalType": "string",
          "name": "uri_",
          "type": "string"
        }
      ],
      "name": "initialize",
      "outputs": [],
      "stateMutability": "nonpayable",
      "type": "function"
    },
    {
      "inputs": [
        {
          "internalType": "string",
          "name": "name_",
          "type": "string"
        },
        {
          "internalType": "string",
          "name": "symbol_",
          "type": "string"
        },
        {
          "internalType": "string",
          "name": "uri_",
          "type": "string"
        }
      ],
      "name": "initializeWithName",
      "outputs": [],
      "stateMutability": "nonpayable",
      "type": "function"
    },
    {
      "inputs": [
        {
          "internalType": "address",
          "name": "account",
          "type": "address"
        },
        {
          "internalType": "address",
          "name": "operator",
          "type": "address"
        }
      ],
      "name": "isApprovedForAll",
      "outputs": [
        {
          "internalType": "bool",
          "name": "",
          "type": "bool"
        }
      ],
      "stateMutability": "view",
      "type": "function"
    },
    {
      "inputs": [
        {
          "internalType": "address",
          "name": "operator",
          "type": "address"
        }
      ],
      "name": "isApprovedProxy",
      "outputs": [
        {
          "internalType": "bool",
          "name": "",
          "type": "bool"
        }
      ],
      "stateMutability": "nonpayable",
      "type": "function"
    },
    {
      "inputs": [
        {
          "internalType": "address",
          "name": "addr",
          "type": "address"
        }
      ],
      "name": "isContract",
      "outputs": [
        {
          "internalType": "bool",
          "name": "",
          "type": "bool"
        }
      ],
      "stateMutability": "view",
      "type": "function"
    },
    {
      "inputs": [
        {
          "internalType": "address",
          "name": "forwarder",
          "type": "address"
        }
      ],
      "name": "isTrustedForwarder",
      "outputs": [
        {
          "internalType": "bool",
          "name": "",
          "type": "bool"
        }
      ],
      "stateMutability": "view",
      "type": "function"
    },
    {
      "inputs": [
        {
          "internalType": "address",
          "name": "to",
          "type": "address"
        },
        {
          "internalType": "uint256",
          "name": "id",
          "type": "uint256"
        },
        {
          "internalType": "uint256",
          "name": "amount",
          "type": "uint256"
        },
        {
          "internalType": "bytes",
          "name": "data",
          "type": "bytes"
        }
      ],
      "name": "mint",
      "outputs": [],
      "stateMutability": "nonpayable",
      "type": "function"
    },
    {
      "inputs": [],
      "name": "name",
      "outputs": [
        {
          "internalType": "string",
          "name": "",
          "type": "string"
        }
      ],
      "stateMutability": "view",
      "type": "function"
    },
    {
      "inputs": [],
      "name": "nvmConfig",
      "outputs": [
        {
          "internalType": "address",
          "name": "",
          "type": "address"
        }
      ],
      "stateMutability": "view",
      "type": "function"
    },
    {
      "inputs": [],
      "name": "owner",
      "outputs": [
        {
          "internalType": "address",
          "name": "",
          "type": "address"
        }
      ],
      "stateMutability": "view",
      "type": "function"
    },
    {
      "inputs": [],
      "name": "renounceOwnership",
      "outputs": [],
      "stateMutability": "nonpayable",
      "type": "function"
    },
    {
      "inputs": [
        {
          "internalType": "bytes32",
          "name": "role",
          "type": "bytes32"
        },
        {
          "internalType": "address",
          "name": "account",
          "type": "address"
        }
      ],
      "name": "renounceRole",
      "outputs": [],
      "stateMutability": "nonpayable",
      "type": "function"
    },
    {
      "inputs": [
        {
          "internalType": "address",
          "name": "account",
          "type": "address"
        }
      ],
      "name": "revokeMinter",
      "outputs": [],
      "stateMutability": "nonpayable",
      "type": "function"
    },
    {
      "inputs": [
        {
          "internalType": "bytes32",
          "name": "role",
          "type": "bytes32"
        },
        {
          "internalType": "address",
          "name": "account",
          "type": "address"
        }
      ],
      "name": "revokeRole",
      "outputs": [],
      "stateMutability": "nonpayable",
      "type": "function"
    },
    {
      "inputs": [
        {
          "internalType": "uint256",
          "name": "tokenId",
          "type": "uint256"
        },
        {
          "internalType": "uint256",
          "name": "value",
          "type": "uint256"
        }
      ],
      "name": "royaltyInfo",
      "outputs": [
        {
          "internalType": "address",
          "name": "receiver",
          "type": "address"
        },
        {
          "internalType": "uint256",
          "name": "royaltyAmount",
          "type": "uint256"
        }
      ],
      "stateMutability": "view",
      "type": "function"
    },
    {
      "inputs": [
        {
          "internalType": "address",
          "name": "from",
          "type": "address"
        },
        {
          "internalType": "address",
          "name": "to",
          "type": "address"
        },
        {
          "internalType": "uint256[]",
          "name": "ids",
          "type": "uint256[]"
        },
        {
          "internalType": "uint256[]",
          "name": "amounts",
          "type": "uint256[]"
        },
        {
          "internalType": "bytes",
          "name": "data",
          "type": "bytes"
        }
      ],
      "name": "safeBatchTransferFrom",
      "outputs": [],
      "stateMutability": "nonpayable",
      "type": "function"
    },
    {
      "inputs": [
        {
          "internalType": "address",
          "name": "from",
          "type": "address"
        },
        {
          "internalType": "address",
          "name": "to",
          "type": "address"
        },
        {
          "internalType": "uint256",
          "name": "id",
          "type": "uint256"
        },
        {
          "internalType": "uint256",
          "name": "amount",
          "type": "uint256"
        },
        {
          "internalType": "bytes",
          "name": "data",
          "type": "bytes"
        }
      ],
      "name": "safeTransferFrom",
      "outputs": [],
      "stateMutability": "nonpayable",
      "type": "function"
    },
    {
      "inputs": [
        {
          "internalType": "address",
          "name": "operator",
          "type": "address"
        },
        {
          "internalType": "bool",
          "name": "approved",
          "type": "bool"
        }
      ],
      "name": "setApprovalForAll",
      "outputs": [],
      "stateMutability": "nonpayable",
      "type": "function"
    },
    {
      "inputs": [
        {
          "internalType": "string",
          "name": "_uri",
          "type": "string"
        }
      ],
      "name": "setContractMetadataUri",
      "outputs": [],
      "stateMutability": "nonpayable",
      "type": "function"
    },
    {
      "inputs": [
        {
          "internalType": "uint256",
          "name": "tokenId",
          "type": "uint256"
        },
        {
          "internalType": "string",
          "name": "nftURI",
          "type": "string"
        }
      ],
      "name": "setNFTMetadata",
      "outputs": [],
      "stateMutability": "nonpayable",
      "type": "function"
    },
    {
      "inputs": [
        {
          "internalType": "address",
          "name": "_addr",
          "type": "address"
        }
      ],
      "name": "setNvmConfigAddress",
      "outputs": [],
      "stateMutability": "nonpayable",
      "type": "function"
    },
    {
      "inputs": [
        {
          "internalType": "address",
          "name": "operator",
          "type": "address"
        },
        {
          "internalType": "bool",
          "name": "approved",
          "type": "bool"
        }
      ],
      "name": "setProxyApproval",
      "outputs": [],
      "stateMutability": "nonpayable",
      "type": "function"
    },
    {
      "inputs": [
        {
          "internalType": "uint256",
          "name": "tokenId",
          "type": "uint256"
        },
        {
          "internalType": "address",
          "name": "receiver",
          "type": "address"
        },
        {
          "internalType": "uint256",
          "name": "royaltyAmount",
          "type": "uint256"
        }
      ],
      "name": "setTokenRoyalty",
      "outputs": [],
      "stateMutability": "nonpayable",
      "type": "function"
    },
    {
      "inputs": [
        {
          "internalType": "bytes4",
          "name": "interfaceId",
          "type": "bytes4"
        }
      ],
      "name": "supportsInterface",
      "outputs": [
        {
          "internalType": "bool",
          "name": "",
          "type": "bool"
        }
      ],
      "stateMutability": "view",
      "type": "function"
    },
    {
      "inputs": [],
      "name": "symbol",
      "outputs": [
        {
          "internalType": "string",
          "name": "",
          "type": "string"
        }
      ],
      "stateMutability": "view",
      "type": "function"
    },
    {
      "inputs": [
        {
          "internalType": "address",
          "name": "newOwner",
          "type": "address"
        }
      ],
      "name": "transferOwnership",
      "outputs": [],
      "stateMutability": "nonpayable",
      "type": "function"
    },
    {
      "inputs": [
        {
          "internalType": "uint256",
          "name": "tokenId",
          "type": "uint256"
        }
      ],
      "name": "uri",
      "outputs": [
        {
          "internalType": "string",
          "name": "",
          "type": "string"
        }
      ],
      "stateMutability": "view",
      "type": "function"
    }
  ],
  "bytecode": "0x608060405234801561001057600080fd5b506131f2806100206000396000f3fe608060405234801561001057600080fd5b50600436106102035760003560e01c8062fdd58e1461020857806301ffc9a71461022e57806302acb9a61461025157806306fdde03146102665780630e89341c1461027b5780631187bc521461028e57806316279055146102a1578063237c4919146102b5578063248a9ca3146102c85780632a55205a146102db5780632eb2c2d61461030d5780632f2ff15d1461032057806336568abe146103335780633d54c447146103465780634e1273f414610372578063572b6c05146103925780635ced058e146103a55780635ea3ab85146103ce57806360ce69f5146103e15780636fd902e1146103f4578063715018a6146103fa578063731133e91461040257806382c947b7146104155780638da5cb5b1461042f57806391d148541461043757806395d89b411461044a5780639713c80714610452578063983b2d5614610465578063a217fddf14610478578063a22cb46514610480578063ab9de23014610493578063ce1b815f1461049b578063cfbd4885146104a3578063d2423105146104b6578063d416a27d146104c9578063d5391393146104dc578063d547741f146104f1578063e8a3d48514610504578063e985e9c51461050c578063e9c1e0451461051f578063f242432a14610533578063f2fde38b14610546578063f5298aca14610559578063f62d18881461056c575b600080fd5b61021b6102163660046123d2565b61057f565b6040519081526020015b60405180910390f35b61024161023c366004612414565b61061a565b6040519015158152602001610225565b61026461025f366004612431565b610654565b005b61026e61067f565b604051610225919061249e565b61026e6102893660046124b1565b61070e565b61026461029c36600461257f565b6107b0565b6102416102af366004612431565b3b151590565b6102646102c3366004612606565b6108d0565b61021b6102d63660046124b1565b610914565b6102ee6102e9366004612642565b610929565b604080516001600160a01b039093168352602083019190915201610225565b61026461031b3660046126f8565b61097f565b61026461032e3660046127a5565b6109dd565b6102646103413660046127a5565b6109fe565b610241610354366004612431565b6001600160a01b0316600090815260fb602052604090205460ff1690565b6103856103803660046127d5565b610a88565b60405161022591906128d2565b6102416103a0366004612431565b610bb1565b6103b66103b33660046124b1565b90565b6040516001600160a01b039091168152602001610225565b61021b6103dc3660046128e5565b610bd6565b6103b66103ef36600461257f565b610c25565b4361021b565b610264610d23565b610264610410366004612921565b610d37565b61021b610423366004612431565b6001600160a01b031690565b6103b6610da0565b6102416104453660046127a5565b610daf565b61026e610dda565b610264610460366004612983565b610de8565b610264610473366004612431565b610e29565b61021b600081565b61026461048e3660046129bb565b610e4c565b6103b6610e5e565b6103b6610e6e565b6102646104b1366004612431565b610ef9565b6102646104c43660046129ee565b610f19565b6102646104d73660046129bb565b610f2d565b61021b60008051602061319d83398151915281565b6102646104ff3660046127a5565b610fb2565b61026e610fce565b61024161051a366004612a22565b611060565b610100546103b6906001600160a01b031681565b610264610541366004612a50565b6110b5565b610264610554366004612431565b61110c565b610264610567366004612ab8565b611182565b61026461057a3660046129ee565b611263565b60006001600160a01b0383166105ef5760405162461bcd60e51b815260206004820152602a60248201527f455243313135353a2061646472657373207a65726f206973206e6f742061207660448201526930b634b21037bbb732b960b11b60648201526084015b60405180910390fd5b5060008181526097602090815260408083206001600160a01b03861684529091529020545b92915050565b6000610625826113c9565b806106345750610634826113ea565b8061061457506001600160e01b0319821663152a902d60e11b1492915050565b61065c61143a565b61010080546001600160a01b0319166001600160a01b0392909216919091179055565b610101805461068d90612aed565b80601f01602080910402602001604051908101604052809291908181526020018280546106b990612aed565b80156107065780601f106106db57610100808354040283529160200191610706565b820191906000526020600020905b8154815290600101906020018083116106e957829003601f168201915b505050505081565b600081815260fd6020526040902080546060919061072b90612aed565b80601f016020809104026020016040519081016040528092919081815260200182805461075790612aed565b80156107a45780601f10610779576101008083540402835291602001916107a4565b820191906000526020600020905b81548152906001019060200180831161078757829003601f168201915b50505050509050919050565b600054610100900460ff16158080156107d05750600054600160ff909116105b806107f157506107df306114a9565b1580156107f1575060005460ff166001145b61080d5760405162461bcd60e51b81526004016105e690612b27565b6000805460ff191660011790558015610830576000805461ff0019166101001790555b6108386114b8565b6108406114b8565b610849826114df565b61085161150f565b6108596114b8565b61087160008051602061319d83398151915233611546565b61087a82610f19565b6101016108878582612bbb565b506101026108958482612bbb565b5080156108ca576000805461ff00191690556040516001815260008051602061317d8339815191529060200160405180910390a15b50505050565b6108ea60008051602061319d833981519152610445611550565b6109065760405162461bcd60e51b81526004016105e690612c7a565b610910828261155f565b5050565b600090815260c9602052604090206001015490565b600082815260fc60209081526040808320815180830190925280546001600160a01b0316808352600190910154928201839052929160649061096b9086612cb5565b6109759190612ccc565b9150509250929050565b610987611550565b6001600160a01b0316856001600160a01b031614806109ad57506109ad8561051a611550565b6109c95760405162461bcd60e51b81526004016105e690612cee565b6109d68585858585611589565b5050505050565b6109e682610914565b6109ef81611782565b6109f98383611793565b505050565b610a06611550565b6001600160a01b0316816001600160a01b031614610a7e5760405162461bcd60e51b815260206004820152602f60248201527f416363657373436f6e74726f6c3a2063616e206f6e6c792072656e6f756e636560448201526e103937b632b9903337b91039b2b63360891b60648201526084016105e6565b610910828261181a565b60608151835114610aed5760405162461bcd60e51b815260206004820152602960248201527f455243313135353a206163636f756e747320616e6420696473206c656e677468604482015268040dad2e6dac2e8c6d60bb1b60648201526084016105e6565b600083516001600160401b03811115610b0857610b086124ca565b604051908082528060200260200182016040528015610b31578160200160208202803683370190505b50905060005b8451811015610ba957610b7c858281518110610b5557610b55612d3c565b6020026020010151858381518110610b6f57610b6f612d3c565b602002602001015161057f565b828281518110610b8e57610b8e612d3c565b6020908102919091010152610ba281612d52565b9050610b37565b509392505050565b6000610bbb610e6e565b6001600160a01b0316826001600160a01b0316149050919050565b60008060005b8351811015610c1e57838181518110610bf757610bf7612d3c565b602002602001015182610c0a9190612d6b565b915080610c1681612d52565b915050610bdc565b5092915050565b7f360894a13ba1a3210667c828492db98dca3e2076cc3735a920a3ca505d382bbc546000906001600160a01b031680610c5b5750305b6000610c668261189f565b6040516308c3de2960e11b81529091506001600160a01b03821690631187bc5290610c9990899089908990600401612d7e565b600060405180830381600087803b158015610cb357600080fd5b505af1158015610cc7573d6000803e3d6000fd5b50505050816001600160a01b0316816001600160a01b03167f60b02f0439b830955522ba890ebaeed1012ac175aba5742b6032a7b79d0cd734610483604051610d1291815260200190565b60405180910390a395945050505050565b610d2b61143a565b610d356000611939565b565b610d5160008051602061319d833981519152610445611550565b610d945760405162461bcd60e51b81526020600482015260146024820152731bdb9b1e481b5a5b9d195c8818d85b881b5a5b9d60621b60448201526064016105e6565b6108ca8484848461198b565b6033546001600160a01b031690565b600091825260c9602090815260408084206001600160a01b0393909316845291905290205460ff1690565b610102805461068d90612aed565b610e0260008051602061319d833981519152610445611550565b610e1e5760405162461bcd60e51b81526004016105e690612c7a565b6109f9838383611aa9565b610e3161143a565b610e4960008051602061319d83398151915282611546565b50565b610910610e57611550565b8383611b41565b610100546001600160a01b031690565b600080610e79610e5e565b90506001600160a01b038116610e9157600091505090565b806001600160a01b031663ce1b815f6040518163ffffffff1660e01b8152600401602060405180830381865afa158015610ecf573d6000803e3d6000fd5b505050506040513d601f19601f82011682018060405250810190610ef39190612dc1565b91505090565b610f0161143a565b610e4960008051602061319d8339815191528261181a565b610f2161143a565b60ff6109108282612bbb565b610f3561143a565b6001600160a01b038216600090815260fb60205260409020805460ff19168215151790557f54a2d072b66160727a2315e14c742bbb303a32e6dee78d245f1fccf8c94cc419610f82611550565b604080516001600160a01b0392831681529185166020830152831515908201526060015b60405180910390a15050565b610fbb82610914565b610fc481611782565b6109f9838361181a565b606060ff8054610fdd90612aed565b80601f016020809104026020016040519081016040528092919081815260200182805461100990612aed565b80156110565780601f1061102b57610100808354040283529160200191611056565b820191906000526020600020905b81548152906001019060200180831161103957829003601f168201915b5050505050905090565b6001600160a01b03808316600090815260986020908152604080832093851683529290529081205460ff16806110ae57506001600160a01b038216600090815260fb602052604090205460ff165b9392505050565b6110bd611550565b6001600160a01b0316856001600160a01b031614806110e357506110e38561051a611550565b6110ff5760405162461bcd60e51b81526004016105e690612cee565b6109d68585858585611c21565b61111461143a565b6001600160a01b0381166111795760405162461bcd60e51b815260206004820152602660248201527f4f776e61626c653a206e6577206f776e657220697320746865207a65726f206160448201526564647265737360d01b60648201526084016105e6565b610e4981611939565b8061118d848461057f565b10156111ab5760405162461bcd60e51b81526004016105e690612dde565b6111c560008051602061319d833981519152610445611550565b806111e857506111d3611550565b6001600160a01b0316836001600160a01b0316145b806111fa57506111fa8361051a611550565b6112585760405162461bcd60e51b815260206004820152602960248201527f455243313135353a2063616c6c6572206973206e6f74206f776e6572206e6f7260448201526808185c1c1c9bdd995960ba1b60648201526084016105e6565b6109f9838383611d56565b600054610100900460ff16158080156112835750600054600160ff909116105b806112a45750611292306114a9565b1580156112a4575060005460ff166001145b6112c05760405162461bcd60e51b81526004016105e690612b27565b6000805460ff1916600117905580156112e3576000805461ff0019166101001790555b6112eb6114b8565b6112f36114b8565b6112fc826114df565b61130461150f565b61130c6114b8565b61132b60008051602061319d833981519152611326611550565b611546565b61133482610f19565b6040805180820190915260128152714e657665726d696e6564204552433131353560701b60208201526101019061136b9082612bbb565b506040805180820190915260078152664e564d3131353560c81b6020820152610102906113989082612bbb565b508015610910576000805461ff00191690556040516001815260008051602061317d83398151915290602001610fa6565b60006001600160e01b03198216637965db0b60e01b14806106145750610614825b60006001600160e01b03198216636cdb3d1360e11b148061141b57506001600160e01b031982166303a24d0760e21b145b8061061457506301ffc9a760e01b6001600160e01b0319831614610614565b611442611550565b6001600160a01b0316611453610da0565b6001600160a01b031614610d355760405162461bcd60e51b815260206004820181905260248201527f4f776e61626c653a2063616c6c6572206973206e6f7420746865206f776e657260448201526064016105e6565b6001600160a01b03163b151590565b600054610100900460ff16610d355760405162461bcd60e51b81526004016105e690612e22565b600054610100900460ff166115065760405162461bcd60e51b81526004016105e690612e22565b610e4981611ea7565b600054610100900460ff166115365760405162461bcd60e51b81526004016105e690612e22565b610d35611541611550565b611939565b6109108282611793565b600061155a611eb3565b905090565b6040805160208082018352838252600085815260fd90915291909120815181906109d69082612bbb565b81518351146115eb5760405162461bcd60e51b815260206004820152602860248201527f455243313135353a2069647320616e6420616d6f756e7473206c656e677468206044820152670dad2e6dac2e8c6d60c31b60648201526084016105e6565b6001600160a01b0384166116115760405162461bcd60e51b81526004016105e690612e6d565b600061161b611550565b905061162b818787878787611ee1565b60005b845181101561171457600085828151811061164b5761164b612d3c565b60200260200101519050600085838151811061166957611669612d3c565b60209081029190910181015160008481526097835260408082206001600160a01b038e1683529093529190912054909150818110156116ba5760405162461bcd60e51b81526004016105e690612eb2565b60008381526097602090815260408083206001600160a01b038e8116855292528083208585039055908b168252812080548492906116f9908490612d6b565b925050819055505050508061170d90612d52565b905061162e565b50846001600160a01b0316866001600160a01b0316826001600160a01b03167f4a39dc06d4c0dbc64b70af90fd698a233a518aa5d07e595d983b8c0526c8f7fb8787604051611764929190612efc565b60405180910390a461177a818787878787611f48565b505050505050565b610e498161178e611550565b6120aa565b61179d8282610daf565b61091057600082815260c9602090815260408083206001600160a01b03851684529091529020805460ff191660011790556117d6611550565b6001600160a01b0316816001600160a01b0316837f2f8788117e7eff1d82e926ec794901d17c78024a50270940304540a733656f0d60405160405180910390a45050565b6118248282610daf565b1561091057600082815260c9602090815260408083206001600160a01b03851684529091529020805460ff1916905561185b611550565b6001600160a01b0316816001600160a01b0316837ff6391f5c32d9c69d2a47ea670b442974b53935d1edc7fd64eb21e047a839171b60405160405180910390a45050565b6000763d602d80600a3d3981f3363d3d373d3d3d363d730000008260601b60e81c176000526e5af43d82803e903d91602b57fd5bf38260781b17602052603760096000f090506001600160a01b0381166119345760405162461bcd60e51b8152602060048201526016602482015275115490cc4c4d8dce8818dc99585d194819985a5b195960521b60448201526064016105e6565b919050565b603380546001600160a01b038381166001600160a01b0319831681179093556040519116919082907f8be0079c531659141344cd1fd0a4f28419497f9722a3daafe3b4186f6b6457e090600090a35050565b6001600160a01b0384166119eb5760405162461bcd60e51b815260206004820152602160248201527f455243313135353a206d696e7420746f20746865207a65726f206164647265736044820152607360f81b60648201526084016105e6565b60006119f5611550565b90506000611a0285612103565b90506000611a0f85612103565b9050611a2083600089858589611ee1565b60008681526097602090815260408083206001600160a01b038b16845290915281208054879290611a52908490612d6b565b909155505060408051878152602081018790526001600160a01b03808a16926000929187169160008051602061315d833981519152910160405180910390a4611aa08360008989898961214e565b50505050505050565b620f4240811115611af95760405162461bcd60e51b815260206004820152601a60248201527908aa48664727062a4def2c2d8e8d2cae67440a8dede40d0d2ced60331b60448201526064016105e6565b6040805180820182526001600160a01b0393841681526020808201938452600095865260fc90529320925183546001600160a01b031916921691909117825551600190910155565b816001600160a01b0316836001600160a01b031603611bb45760405162461bcd60e51b815260206004820152602960248201527f455243313135353a2073657474696e6720617070726f76616c20737461747573604482015268103337b91039b2b63360b91b60648201526084016105e6565b6001600160a01b03838116600081815260986020908152604080832094871680845294825291829020805460ff191686151590811790915591519182527f17307eab39ab6107e8899845ad3d59bd9653f200f220920489ca2b5937696c31910160405180910390a3505050565b6001600160a01b038416611c475760405162461bcd60e51b81526004016105e690612e6d565b6000611c51611550565b90506000611c5e85612103565b90506000611c6b85612103565b9050611c7b838989858589611ee1565b60008681526097602090815260408083206001600160a01b038c16845290915290205485811015611cbe5760405162461bcd60e51b81526004016105e690612eb2565b60008781526097602090815260408083206001600160a01b038d8116855292528083208985039055908a16825281208054889290611cfd908490612d6b565b909155505060408051888152602081018890526001600160a01b03808b16928c8216929188169160008051602061315d833981519152910160405180910390a4611d4b848a8a8a8a8a61214e565b505050505050505050565b6001600160a01b038316611db85760405162461bcd60e51b815260206004820152602360248201527f455243313135353a206275726e2066726f6d20746865207a65726f206164647260448201526265737360e81b60648201526084016105e6565b6000611dc2611550565b90506000611dcf84612103565b90506000611ddc84612103565b9050611dfc83876000858560405180602001604052806000815250611ee1565b60008581526097602090815260408083206001600160a01b038a16845290915290205484811015611e3f5760405162461bcd60e51b81526004016105e690612dde565b60008681526097602090815260408083206001600160a01b038b81168086529184528285208a8703905582518b81529384018a905290929088169160008051602061315d833981519152910160405180910390a4604080516020810190915260009052611aa0565b60996109108282612bbb565b600060143610801590611eca5750611eca33610bb1565b15611edc575060131936013560601c90565b503390565b6001600160a01b0385161580611efe57506001600160a01b038416155b80611f0f5750611f0f610354611550565b61177a5760405162461bcd60e51b815260206004820152600a6024820152696f6e6c792070726f787960b01b60448201526064016105e6565b611f5a846001600160a01b03166114a9565b1561177a5760405163bc197c8160e01b81526001600160a01b0385169063bc197c8190611f939089908990889088908890600401612f2a565b6020604051808303816000875af1925050508015611fce575060408051601f3d908101601f19168201909252611fcb91810190612f88565b60015b61207a57611fda612fa5565b806308c379a0036120135750611fee612fc0565b80611ff95750612015565b8060405162461bcd60e51b81526004016105e6919061249e565b505b60405162461bcd60e51b815260206004820152603460248201527f455243313135353a207472616e7366657220746f206e6f6e2d455243313135356044820152732932b1b2b4bb32b91034b6b83632b6b2b73a32b960611b60648201526084016105e6565b6001600160e01b0319811663bc197c8160e01b14611aa05760405162461bcd60e51b81526004016105e690613049565b6120b48282610daf565b610910576120c181612210565b6120cc836020612222565b6040516020016120dd929190613091565b60408051601f198184030181529082905262461bcd60e51b82526105e69160040161249e565b6040805160018082528183019092526060916000919060208083019080368337019050509050828160008151811061213d5761213d612d3c565b602090810291909101015292915050565b612160846001600160a01b03166114a9565b1561177a5760405163f23a6e6160e01b81526001600160a01b0385169063f23a6e61906121999089908990889088908890600401613100565b6020604051808303816000875af19250505080156121d4575060408051601f3d908101601f191682019092526121d191810190612f88565b60015b6121e057611fda612fa5565b6001600160e01b0319811663f23a6e6160e01b14611aa05760405162461bcd60e51b81526004016105e690613049565b60606106146001600160a01b03831660145b60606000612231836002612cb5565b61223c906002612d6b565b6001600160401b03811115612253576122536124ca565b6040519080825280601f01601f19166020018201604052801561227d576020820181803683370190505b509050600360fc1b8160008151811061229857612298612d3c565b60200101906001600160f81b031916908160001a905350600f60fb1b816001815181106122c7576122c7612d3c565b60200101906001600160f81b031916908160001a90535060006122eb846002612cb5565b6122f6906001612d6b565b90505b600181111561236e576f181899199a1a9b1b9c1cb0b131b232b360811b85600f166010811061232a5761232a612d3c565b1a60f81b82828151811061234057612340612d3c565b60200101906001600160f81b031916908160001a90535060049490941c9361236781613145565b90506122f9565b5083156110ae5760405162461bcd60e51b815260206004820181905260248201527f537472696e67733a20686578206c656e67746820696e73756666696369656e7460448201526064016105e6565b6001600160a01b0381168114610e4957600080fd5b600080604083850312156123e557600080fd5b82356123f0816123bd565b946020939093013593505050565b6001600160e01b031981168114610e4957600080fd5b60006020828403121561242657600080fd5b81356110ae816123fe565b60006020828403121561244357600080fd5b81356110ae816123bd565b60005b83811015612469578181015183820152602001612451565b50506000910152565b6000815180845261248a81602086016020860161244e565b601f01601f19169290920160200192915050565b6020815260006110ae6020830184612472565b6000602082840312156124c357600080fd5b5035919050565b634e487b7160e01b600052604160045260246000fd5b601f8201601f191681016001600160401b0381118282101715612505576125056124ca565b6040525050565b600082601f83011261251d57600080fd5b81356001600160401b03811115612536576125366124ca565b60405161254d601f8301601f1916602001826124e0565b81815284602083860101111561256257600080fd5b816020850160208301376000918101602001919091529392505050565b60008060006060848603121561259457600080fd5b83356001600160401b03808211156125ab57600080fd5b6125b78783880161250c565b945060208601359150808211156125cd57600080fd5b6125d98783880161250c565b935060408601359150808211156125ef57600080fd5b506125fc8682870161250c565b9150509250925092565b6000806040838503121561261957600080fd5b8235915060208301356001600160401b0381111561263657600080fd5b6109758582860161250c565b6000806040838503121561265557600080fd5b50508035926020909101359150565b60006001600160401b0382111561267d5761267d6124ca565b5060051b60200190565b600082601f83011261269857600080fd5b813560206126a582612664565b6040516126b282826124e0565b83815260059390931b85018201928281019150868411156126d257600080fd5b8286015b848110156126ed57803583529183019183016126d6565b509695505050505050565b600080600080600060a0868803121561271057600080fd5b853561271b816123bd565b9450602086013561272b816123bd565b935060408601356001600160401b038082111561274757600080fd5b61275389838a01612687565b9450606088013591508082111561276957600080fd5b61277589838a01612687565b9350608088013591508082111561278b57600080fd5b506127988882890161250c565b9150509295509295909350565b600080604083850312156127b857600080fd5b8235915060208301356127ca816123bd565b809150509250929050565b600080604083850312156127e857600080fd5b82356001600160401b03808211156127ff57600080fd5b818501915085601f83011261281357600080fd5b8135602061282082612664565b60405161282d82826124e0565b83815260059390931b850182019282810191508984111561284d57600080fd5b948201945b83861015612874578535612865816123bd565b82529482019490820190612852565b9650508601359250508082111561288a57600080fd5b5061097585828601612687565b600081518084526020808501945080840160005b838110156128c7578151875295820195908201906001016128ab565b509495945050505050565b6020815260006110ae6020830184612897565b6000602082840312156128f757600080fd5b81356001600160401b0381111561290d57600080fd5b61291984828501612687565b949350505050565b6000806000806080858703121561293757600080fd5b8435612942816123bd565b9350602085013592506040850135915060608501356001600160401b0381111561296b57600080fd5b6129778782880161250c565b91505092959194509250565b60008060006060848603121561299857600080fd5b8335925060208401356129aa816123bd565b929592945050506040919091013590565b600080604083850312156129ce57600080fd5b82356129d9816123bd565b9150602083013580151581146127ca57600080fd5b600060208284031215612a0057600080fd5b81356001600160401b03811115612a1657600080fd5b6129198482850161250c565b60008060408385031215612a3557600080fd5b8235612a40816123bd565b915060208301356127ca816123bd565b600080600080600060a08688031215612a6857600080fd5b8535612a73816123bd565b94506020860135612a83816123bd565b9350604086013592506060860135915060808601356001600160401b03811115612aac57600080fd5b6127988882890161250c565b600080600060608486031215612acd57600080fd5b8335612ad8816123bd565b95602085013595506040909401359392505050565b600181811c90821680612b0157607f821691505b602082108103612b2157634e487b7160e01b600052602260045260246000fd5b50919050565b6020808252602e908201527f496e697469616c697a61626c653a20636f6e747261637420697320616c72656160408201526d191e481a5b9a5d1a585b1a5e995960921b606082015260800190565b601f8211156109f957600081815260208120601f850160051c81016020861015612b9c5750805b601f850160051c820191505b8181101561177a57828155600101612ba8565b81516001600160401b03811115612bd457612bd46124ca565b612be881612be28454612aed565b84612b75565b602080601f831160018114612c1d5760008415612c055750858301515b600019600386901b1c1916600185901b17855561177a565b600085815260208120601f198616915b82811015612c4c57888601518255948401946001909101908401612c2d565b5085821015612c6a5787850151600019600388901b60f8161c191681555b5050505050600190811b01905550565b6020808252600b908201526a37b7363c9036b4b73a32b960a91b604082015260600190565b634e487b7160e01b600052601160045260246000fd5b808202811582820484141761061457610614612c9f565b600082612ce957634e487b7160e01b600052601260045260246000fd5b500490565b6020808252602e908201527f455243313135353a2063616c6c6572206973206e6f7420746f6b656e206f776e60408201526d195c881bdc88185c1c1c9bdd995960921b606082015260800190565b634e487b7160e01b600052603260045260246000fd5b600060018201612d6457612d64612c9f565b5060010190565b8082018082111561061457610614612c9f565b606081526000612d916060830186612472565b8281036020840152612da38186612472565b90508281036040840152612db78185612472565b9695505050505050565b600060208284031215612dd357600080fd5b81516110ae816123bd565b60208082526024908201527f455243313135353a206275726e20616d6f756e7420657863656564732062616c604082015263616e636560e01b606082015260800190565b6020808252602b908201527f496e697469616c697a61626c653a20636f6e7472616374206973206e6f74206960408201526a6e697469616c697a696e6760a81b606082015260800190565b60208082526025908201527f455243313135353a207472616e7366657220746f20746865207a65726f206164604082015264647265737360d81b606082015260800190565b6020808252602a908201527f455243313135353a20696e73756666696369656e742062616c616e636520666f60408201526939103a3930b739b332b960b11b606082015260800190565b604081526000612f0f6040830185612897565b8281036020840152612f218185612897565b95945050505050565b6001600160a01b0386811682528516602082015260a060408201819052600090612f5690830186612897565b8281036060840152612f688186612897565b90508281036080840152612f7c8185612472565b98975050505050505050565b600060208284031215612f9a57600080fd5b81516110ae816123fe565b600060033d11156103b35760046000803e5060005160e01c90565b600060443d1015612fce5790565b6040516003193d81016004833e81513d6001600160401b038083116024840183101715612ffd57505050505090565b82850191508151818111156130155750505050505090565b843d870101602082850101111561302f5750505050505090565b61303e602082860101876124e0565b509095945050505050565b60208082526028908201527f455243313135353a204552433131353552656365697665722072656a656374656040820152676420746f6b656e7360c01b606082015260800190565b76020b1b1b2b9b9a1b7b73a3937b61d1030b1b1b7bab73a1604d1b8152600083516130c381601785016020880161244e565b7001034b99036b4b9b9b4b733903937b6329607d1b60179184019182015283516130f481602884016020880161244e565b01602801949350505050565b6001600160a01b03868116825285166020820152604081018490526060810183905260a06080820181905260009061313a90830184612472565b979650505050505050565b60008161315457613154612c9f565b50600019019056fec3d58168c5ae7397731d063d5bbf3d657854427343f4c083240f7aacaa2d0f627f26b83ff96e1f2b6a682f133852f6798a09c465da95921460cefb38474024989f2df0fed2c77648de5860a4cc508cd0818c85b8b8a1ab4ceeef8d981c8956a6a26469706673582212208fe7c4dfeb6be9724dcff3383c3f3c7f993ee9a43d480dd5cf5c5b3a5e2a85c164736f6c63430008110033",
  "linkReferences": {},
  "deployedLinkReferences": {}
}