{
  "_format": "hh-sol-artifact-1",
  "contractName": "NFT721Upgradeable",
  "sourceName": "contracts/token/erc721/NFT721Upgradeable.sol",
  "abi": [
    {
      "anonymous": false,
      "inputs": [
        {
          "indexed": true,
          "internalType": "address",
          "name": "owner",
          "type": "address"
        },
        {
          "indexed": true,
          "internalType": "address",
          "name": "approved",
          "type": "address"
        },
        {
          "indexed": true,
          "internalType": "uint256",
          "name": "tokenId",
          "type": "uint256"
        }
      ],
      "name": "Approval",
      "type": "event"
    },
    {
      "anonymous": false,
      "inputs": [
        {
          "indexed": true,
          "internalType": "address",
          "name": "owner",
          "type": "address"
        },
        {
          "indexed": true,
          "internalType": "address",
          "name": "operator",
          "type": "address"
        },
        {
          "indexed": false,
          "internalType": "bool",
          "name": "approved",
          "type": "bool"
        }
      ],
      "name": "ApprovalForAll",
      "type": "event"
    },
    {
      "anonymous": false,
      "inputs": [
        {
          "indexed": false,
          "internalType": "uint8",
          "name": "version",
          "type": "uint8"
        }
      ],
      "name": "Initialized",
      "type": "event"
    },
    {
      "anonymous": false,
      "inputs": [
        {
          "indexed": true,
          "internalType": "address",
          "name": "_newAddress",
          "type": "address"
        },
        {
          "indexed": true,
          "internalType": "address",
          "name": "_fromAddress",
          "type": "address"
        },
        {
          "indexed": false,
          "internalType": "uint256",
          "name": "_ercType",
          "type": "uint256"
        }
      ],
      "name": "NFTCloned",
      "type": "event"
    },
    {
      "anonymous": false,
      "inputs": [
        {
          "indexed": true,
          "internalType": "address",
          "name": "previousOwner",
          "type": "address"
        },
        {
          "indexed": true,
          "internalType": "address",
          "name": "newOwner",
          "type": "address"
        }
      ],
      "name": "OwnershipTransferred",
      "type": "event"
    },
    {
      "anonymous": false,
      "inputs": [
        {
          "indexed": false,
          "internalType": "address",
          "name": "sender",
          "type": "address"
        },
        {
          "indexed": false,
          "internalType": "address",
          "name": "operator",
          "type": "address"
        },
        {
          "indexed": false,
          "internalType": "bool",
          "name": "approved",
          "type": "bool"
        }
      ],
      "name": "ProxyApproval",
      "type": "event"
    },
    {
      "anonymous": false,
      "inputs": [
        {
          "indexed": true,
          "internalType": "bytes32",
          "name": "role",
          "type": "bytes32"
        },
        {
          "indexed": true,
          "internalType": "bytes32",
          "name": "previousAdminRole",
          "type": "bytes32"
        },
        {
          "indexed": true,
          "internalType": "bytes32",
          "name": "newAdminRole",
          "type": "bytes32"
        }
      ],
      "name": "RoleAdminChanged",
      "type": "event"
    },
    {
      "anonymous": false,
      "inputs": [
        {
          "indexed": true,
          "internalType": "bytes32",
          "name": "role",
          "type": "bytes32"
        },
        {
          "indexed": true,
          "internalType": "address",
          "name": "account",
          "type": "address"
        },
        {
          "indexed": true,
          "internalType": "address",
          "name": "sender",
          "type": "address"
        }
      ],
      "name": "RoleGranted",
      "type": "event"
    },
    {
      "anonymous": false,
      "inputs": [
        {
          "indexed": true,
          "internalType": "bytes32",
          "name": "role",
          "type": "bytes32"
        },
        {
          "indexed": true,
          "internalType": "address",
          "name": "account",
          "type": "address"
        },
        {
          "indexed": true,
          "internalType": "address",
          "name": "sender",
          "type": "address"
        }
      ],
      "name": "RoleRevoked",
      "type": "event"
    },
    {
      "anonymous": false,
      "inputs": [
        {
          "indexed": true,
          "internalType": "address",
          "name": "from",
          "type": "address"
        },
        {
          "indexed": true,
          "internalType": "address",
          "name": "to",
          "type": "address"
        },
        {
          "indexed": true,
          "internalType": "uint256",
          "name": "tokenId",
          "type": "uint256"
        }
      ],
      "name": "Transfer",
      "type": "event"
    },
    {
      "inputs": [],
      "name": "DEFAULT_ADMIN_ROLE",
      "outputs": [
        {
          "internalType": "bytes32",
          "name": "",
          "type": "bytes32"
        }
      ],
      "stateMutability": "view",
      "type": "function"
    },
    {
      "inputs": [],
      "name": "MINTER_ROLE",
      "outputs": [
        {
          "internalType": "bytes32",
          "name": "",
          "type": "bytes32"
        }
      ],
      "stateMutability": "view",
      "type": "function"
    },
    {
      "inputs": [
        {
          "internalType": "address",
          "name": "account",
          "type": "address"
        }
      ],
      "name": "addMinter",
      "outputs": [],
      "stateMutability": "nonpayable",
      "type": "function"
    },
    {
      "inputs": [
        {
          "internalType": "address",
          "name": "_addr",
          "type": "address"
        }
      ],
      "name": "addressToBytes32",
      "outputs": [
        {
          "internalType": "bytes32",
          "name": "",
          "type": "bytes32"
        }
      ],
      "stateMutability": "pure",
      "type": "function"
    },
    {
      "inputs": [
        {
          "internalType": "address",
          "name": "to",
          "type": "address"
        },
        {
          "internalType": "uint256",
          "name": "tokenId",
          "type": "uint256"
        }
      ],
      "name": "approve",
      "outputs": [],
      "stateMutability": "nonpayable",
      "type": "function"
    },
    {
      "inputs": [
        {
          "internalType": "address",
          "name": "owner",
          "type": "address"
        }
      ],
      "name": "balanceOf",
      "outputs": [
        {
          "internalType": "uint256",
          "name": "",
          "type": "uint256"
        }
      ],
      "stateMutability": "view",
      "type": "function"
    },
    {
      "inputs": [
        {
          "internalType": "uint256",
          "name": "tokenId",
          "type": "uint256"
        }
      ],
      "name": "burn",
      "outputs": [],
      "stateMutability": "nonpayable",
      "type": "function"
    },
    {
      "inputs": [
        {
          "internalType": "bytes32",
          "name": "_b32",
          "type": "bytes32"
        }
      ],
      "name": "bytes32ToAddress",
      "outputs": [
        {
          "internalType": "address",
          "name": "",
          "type": "address"
        }
      ],
      "stateMutability": "pure",
      "type": "function"
    },
    {
      "inputs": [
        {
          "internalType": "uint256[]",
          "name": "_amounts",
          "type": "uint256[]"
        }
      ],
      "name": "calculateTotalAmount",
      "outputs": [
        {
          "internalType": "uint256",
          "name": "",
          "type": "uint256"
        }
      ],
      "stateMutability": "pure",
      "type": "function"
    },
    {
      "inputs": [],
      "name": "contractURI",
      "outputs": [
        {
          "internalType": "string",
          "name": "",
          "type": "string"
        }
      ],
      "stateMutability": "view",
      "type": "function"
    },
    {
      "inputs": [
        {
          "internalType": "address",
          "name": "implementation",
          "type": "address"
        },
        {
          "internalType": "string",
          "name": "name",
          "type": "string"
        },
        {
          "internalType": "string",
          "name": "symbol",
          "type": "string"
        },
        {
          "internalType": "string",
          "name": "uri",
          "type": "string"
        },
        {
          "internalType": "uint256",
          "name": "cap",
          "type": "uint256"
        }
      ],
      "name": "createClone",
      "outputs": [
        {
          "internalType": "address",
          "name": "",
          "type": "address"
        }
      ],
      "stateMutability": "nonpayable",
      "type": "function"
    },
    {
      "inputs": [
        {
          "internalType": "uint256",
          "name": "tokenId",
          "type": "uint256"
        }
      ],
      "name": "getApproved",
      "outputs": [
        {
          "internalType": "address",
          "name": "",
          "type": "address"
        }
      ],
      "stateMutability": "view",
      "type": "function"
    },
    {
      "inputs": [],
      "name": "getCurrentBlockNumber",
      "outputs": [
        {
          "internalType": "uint256",
          "name": "",
          "type": "uint256"
        }
      ],
      "stateMutability": "view",
      "type": "function"
    },
    {
      "inputs": [],
      "name": "getHowManyMinted",
      "outputs": [
        {
          "internalType": "uint256",
          "name": "",
          "type": "uint256"
        }
      ],
      "stateMutability": "view",
      "type": "function"
    },
    {
      "inputs": [],
      "name": "getNvmConfigAddress",
      "outputs": [
        {
          "internalType": "address",
          "name": "",
          "type": "address"
        }
      ],
      "stateMutability": "view",
      "type": "function"
    },
    {
      "inputs": [
        {
          "internalType": "bytes32",
          "name": "role",
          "type": "bytes32"
        }
      ],
      "name": "getRoleAdmin",
      "outputs": [
        {
          "internalType": "bytes32",
          "name": "",
          "type": "bytes32"
        }
      ],
      "stateMutability": "view",
      "type": "function"
    },
    {
      "inputs": [],
      "name": "getTrustedForwarder",
      "outputs": [
        {
          "internalType": "address",
          "name": "",
          "type": "address"
        }
      ],
      "stateMutability": "view",
      "type": "function"
    },
    {
      "inputs": [
        {
          "internalType": "bytes32",
          "name": "role",
          "type": "bytes32"
        },
        {
          "internalType": "address",
          "name": "account",
          "type": "address"
        }
      ],
      "name": "grantRole",
      "outputs": [],
      "stateMutability": "nonpayable",
      "type": "function"
    },
    {
      "inputs": [
        {
          "internalType": "bytes32",
          "name": "role",
          "type": "bytes32"
        },
        {
          "internalType": "address",
          "name": "account",
          "type": "address"
        }
      ],
      "name": "hasRole",
      "outputs": [
        {
          "internalType": "bool",
          "name": "",
          "type": "bool"
        }
      ],
      "stateMutability": "view",
      "type": "function"
    },
    {
      "inputs": [],
      "name": "initialize",
      "outputs": [],
      "stateMutability": "nonpayable",
      "type": "function"
    },
    {
      "inputs": [
        {
          "internalType": "string",
          "name": "name",
          "type": "string"
        },
        {
          "internalType": "string",
          "name": "symbol",
          "type": "string"
        },
        {
          "internalType": "string",
          "name": "uri",
          "type": "string"
        },
        {
          "internalType": "uint256",
          "name": "cap",
          "type": "uint256"
        }
      ],
      "name": "initializeWithAttributes",
      "outputs": [],
      "stateMutability": "nonpayable",
      "type": "function"
    },
    {
      "inputs": [
        {
          "internalType": "string",
          "name": "name",
          "type": "string"
        },
        {
          "internalType": "string",
          "name": "symbol",
          "type": "string"
        }
      ],
      "name": "initializeWithName",
      "outputs": [],
      "stateMutability": "nonpayable",
      "type": "function"
    },
    {
      "inputs": [
        {
          "internalType": "address",
          "name": "account",
          "type": "address"
        },
        {
          "internalType": "address",
          "name": "operator",
          "type": "address"
        }
      ],
      "name": "isApprovedForAll",
      "outputs": [
        {
          "internalType": "bool",
          "name": "",
          "type": "bool"
        }
      ],
      "stateMutability": "view",
      "type": "function"
    },
    {
      "inputs": [
        {
          "internalType": "address",
          "name": "operator",
          "type": "address"
        }
      ],
      "name": "isApprovedProxy",
      "outputs": [
        {
          "internalType": "bool",
          "name": "",
          "type": "bool"
        }
      ],
      "stateMutability": "nonpayable",
      "type": "function"
    },
    {
      "inputs": [
        {
          "internalType": "address",
          "name": "addr",
          "type": "address"
        }
      ],
      "name": "isContract",
      "outputs": [
        {
          "internalType": "bool",
          "name": "",
          "type": "bool"
        }
      ],
      "stateMutability": "view",
      "type": "function"
    },
    {
      "inputs": [
        {
          "internalType": "address",
          "name": "forwarder",
          "type": "address"
        }
      ],
      "name": "isTrustedForwarder",
      "outputs": [
        {
          "internalType": "bool",
          "name": "",
          "type": "bool"
        }
      ],
      "stateMutability": "view",
      "type": "function"
    },
    {
      "inputs": [
        {
          "internalType": "address",
          "name": "to",
          "type": "address"
        },
        {
          "internalType": "uint256",
          "name": "tokenId",
          "type": "uint256"
        }
      ],
      "name": "mint",
      "outputs": [],
      "stateMutability": "nonpayable",
      "type": "function"
    },
    {
      "inputs": [
        {
          "internalType": "uint256",
          "name": "tokenId",
          "type": "uint256"
        }
      ],
      "name": "mint",
      "outputs": [],
      "stateMutability": "nonpayable",
      "type": "function"
    },
    {
      "inputs": [],
      "name": "name",
      "outputs": [
        {
          "internalType": "string",
          "name": "",
          "type": "string"
        }
      ],
      "stateMutability": "view",
      "type": "function"
    },
    {
      "inputs": [],
      "name": "nvmConfig",
      "outputs": [
        {
          "internalType": "address",
          "name": "",
          "type": "address"
        }
      ],
      "stateMutability": "view",
      "type": "function"
    },
    {
      "inputs": [],
      "name": "owner",
      "outputs": [
        {
          "internalType": "address",
          "name": "",
          "type": "address"
        }
      ],
      "stateMutability": "view",
      "type": "function"
    },
    {
      "inputs": [
        {
          "internalType": "uint256",
          "name": "tokenId",
          "type": "uint256"
        }
      ],
      "name": "ownerOf",
      "outputs": [
        {
          "internalType": "address",
          "name": "",
          "type": "address"
        }
      ],
      "stateMutability": "view",
      "type": "function"
    },
    {
      "inputs": [],
      "name": "renounceOwnership",
      "outputs": [],
      "stateMutability": "nonpayable",
      "type": "function"
    },
    {
      "inputs": [
        {
          "internalType": "bytes32",
          "name": "role",
          "type": "bytes32"
        },
        {
          "internalType": "address",
          "name": "account",
          "type": "address"
        }
      ],
      "name": "renounceRole",
      "outputs": [],
      "stateMutability": "nonpayable",
      "type": "function"
    },
    {
      "inputs": [
        {
          "internalType": "address",
          "name": "account",
          "type": "address"
        }
      ],
      "name": "revokeMinter",
      "outputs": [],
      "stateMutability": "nonpayable",
      "type": "function"
    },
    {
      "inputs": [
        {
          "internalType": "bytes32",
          "name": "role",
          "type": "bytes32"
        },
        {
          "internalType": "address",
          "name": "account",
          "type": "address"
        }
      ],
      "name": "revokeRole",
      "outputs": [],
      "stateMutability": "nonpayable",
      "type": "function"
    },
    {
      "inputs": [
        {
          "internalType": "uint256",
          "name": "tokenId",
          "type": "uint256"
        },
        {
          "internalType": "uint256",
          "name": "value",
          "type": "uint256"
        }
      ],
      "name": "royaltyInfo",
      "outputs": [
        {
          "internalType": "address",
          "name": "receiver",
          "type": "address"
        },
        {
          "internalType": "uint256",
          "name": "royaltyAmount",
          "type": "uint256"
        }
      ],
      "stateMutability": "view",
      "type": "function"
    },
    {
      "inputs": [
        {
          "internalType": "address",
          "name": "from",
          "type": "address"
        },
        {
          "internalType": "address",
          "name": "to",
          "type": "address"
        },
        {
          "internalType": "uint256",
          "name": "tokenId",
          "type": "uint256"
        }
      ],
      "name": "safeTransferFrom",
      "outputs": [],
      "stateMutability": "nonpayable",
      "type": "function"
    },
    {
      "inputs": [
        {
          "internalType": "address",
          "name": "from",
          "type": "address"
        },
        {
          "internalType": "address",
          "name": "to",
          "type": "address"
        },
        {
          "internalType": "uint256",
          "name": "tokenId",
          "type": "uint256"
        },
        {
          "internalType": "bytes",
          "name": "data",
          "type": "bytes"
        }
      ],
      "name": "safeTransferFrom",
      "outputs": [],
      "stateMutability": "nonpayable",
      "type": "function"
    },
    {
      "inputs": [
        {
          "internalType": "address",
          "name": "operator",
          "type": "address"
        },
        {
          "internalType": "bool",
          "name": "approved",
          "type": "bool"
        }
      ],
      "name": "setApprovalForAll",
      "outputs": [],
      "stateMutability": "nonpayable",
      "type": "function"
    },
    {
      "inputs": [
        {
          "internalType": "string",
          "name": "_uri",
          "type": "string"
        }
      ],
      "name": "setContractMetadataUri",
      "outputs": [],
      "stateMutability": "nonpayable",
      "type": "function"
    },
    {
      "inputs": [
        {
          "internalType": "uint256",
          "name": "tokenId",
          "type": "uint256"
        },
        {
          "internalType": "string",
          "name": "nftURI",
          "type": "string"
        }
      ],
      "name": "setNFTMetadata",
      "outputs": [],
      "stateMutability": "nonpayable",
      "type": "function"
    },
    {
      "inputs": [
        {
          "internalType": "address",
          "name": "_addr",
          "type": "address"
        }
      ],
      "name": "setNvmConfigAddress",
      "outputs": [],
      "stateMutability": "nonpayable",
      "type": "function"
    },
    {
      "inputs": [
        {
          "internalType": "address",
          "name": "operator",
          "type": "address"
        },
        {
          "internalType": "bool",
          "name": "approved",
          "type": "bool"
        }
      ],
      "name": "setProxyApproval",
      "outputs": [],
      "stateMutability": "nonpayable",
      "type": "function"
    },
    {
      "inputs": [
        {
          "internalType": "uint256",
          "name": "tokenId",
          "type": "uint256"
        },
        {
          "internalType": "address",
          "name": "receiver",
          "type": "address"
        },
        {
          "internalType": "uint256",
          "name": "royaltyAmount",
          "type": "uint256"
        }
      ],
      "name": "setTokenRoyalty",
      "outputs": [],
      "stateMutability": "nonpayable",
      "type": "function"
    },
    {
      "inputs": [
        {
          "internalType": "bytes4",
          "name": "interfaceId",
          "type": "bytes4"
        }
      ],
      "name": "supportsInterface",
      "outputs": [
        {
          "internalType": "bool",
          "name": "",
          "type": "bool"
        }
      ],
      "stateMutability": "view",
      "type": "function"
    },
    {
      "inputs": [],
      "name": "symbol",
      "outputs": [
        {
          "internalType": "string",
          "name": "",
          "type": "string"
        }
      ],
      "stateMutability": "view",
      "type": "function"
    },
    {
      "inputs": [
        {
          "internalType": "uint256",
          "name": "tokenId",
          "type": "uint256"
        }
      ],
      "name": "tokenURI",
      "outputs": [
        {
          "internalType": "string",
          "name": "",
          "type": "string"
        }
      ],
      "stateMutability": "view",
      "type": "function"
    },
    {
      "inputs": [
        {
          "internalType": "address",
          "name": "from",
          "type": "address"
        },
        {
          "internalType": "address",
          "name": "to",
          "type": "address"
        },
        {
          "internalType": "uint256",
          "name": "tokenId",
          "type": "uint256"
        }
      ],
      "name": "transferFrom",
      "outputs": [],
      "stateMutability": "nonpayable",
      "type": "function"
    },
    {
      "inputs": [
        {
          "internalType": "address",
          "name": "newOwner",
          "type": "address"
        }
      ],
      "name": "transferOwnership",
      "outputs": [],
      "stateMutability": "nonpayable",
      "type": "function"
    }
  ],
  "bytecode": "0x608060405234801561001057600080fd5b50612f97806100206000396000f3fe608060405234801561001057600080fd5b50600436106102465760003560e01c806301ffc9a71461024b57806302acb9a61461027357806306fdde0314610288578063081812fc1461029d578063095ea7b3146102c857806316279055146102db57806322e8e1e0146102ef578063237c49191461030557806323b872dd14610318578063248a9ca31461032b5780632a55205a1461033e5780632f2ff15d1461037057806336568abe146103835780633d54c4471461039657806340c10f19146103c257806342842e0e146103d557806342966c68146103e8578063572b6c05146103fb5780635ced058e1461040e5780635ea3ab851461041f5780636352211e146104325780636e428b83146104455780636fd902e11461045857806370a082311461045e578063715018a6146104715780638129fc1c1461047957806382c947b7146104815780638da5cb5b1461049b57806391d14854146104a357806394010f8c146104b657806395d89b41146104c95780639713c807146104d1578063983b2d56146104e4578063a0712d68146104f7578063a217fddf1461050a578063a22cb46514610512578063a8a5a6bb14610525578063ab9de23014610538578063b88d4fde14610540578063c87b56dd14610553578063ce1b815f14610566578063cfbd48851461056e578063d242310514610581578063d416a27d14610594578063d5391393146105a7578063d547741f146105bc578063e8a3d485146105cf578063e985e9c5146105d7578063e9c1e045146105ea578063f2fde38b146105fe575b600080fd5b61025e610259366004612392565b610611565b60405190151581526020015b60405180910390f35b6102866102813660046123c4565b61064c565b005b610290610677565b60405161026a9190612431565b6102b06102ab366004612444565b610709565b6040516001600160a01b03909116815260200161026a565b6102866102d636600461245d565b610730565b61025e6102e93660046123c4565b3b151590565b6102f761085c565b60405190815260200161026a565b610286610313366004612546565b61086d565b610286610326366004612582565b6108b1565b6102f7610339366004612444565b6108e9565b61035161034c3660046125c3565b6108fe565b604080516001600160a01b03909316835260208301919091520161026a565b61028661037e3660046125e5565b610954565b6102866103913660046125e5565b610970565b61025e6103a43660046123c4565b6001600160a01b0316600090815260fb602052604090205460ff1690565b6102866103d036600461245d565b6109fa565b6102866103e3366004612582565b610ac6565b6102866103f6366004612444565b610ae1565b61025e6104093660046123c4565b610b80565b6102b061041c366004612444565b90565b6102f761042d366004612615565b610ba5565b6102b0610440366004612444565b610bf4565b6102866104533660046126ba565b610c28565b436102f7565b6102f761046c3660046123c4565b610d29565b610286610daf565b610286610dc3565b6102f761048f3660046123c4565b6001600160a01b031690565b6102b0610f04565b61025e6104b13660046125e5565b610f13565b6102b06104c4366004612713565b610f3e565b61029061105b565b6102866104df3660046127b5565b61106a565b6102866104f23660046123c4565b6110ab565b610286610505366004612444565b6110cb565b6102f7600081565b6102866105203660046127dc565b6110dc565b61028661053336600461280f565b6110ee565b6102b06111fc565b61028661054e36600461289e565b61120c565b610290610561366004612444565b61124b565b6102b06112ec565b61028661057c3660046123c4565b611377565b61028661058f36600461291d565b611397565b6102866105a23660046127dc565b6113ab565b6102f7600080516020612f2283398151915281565b6102866105ca3660046125e5565b61142f565b61029061144b565b61025e6105e5366004612951565b61145a565b610100546102b0906001600160a01b031681565b61028661060c3660046123c4565b6114ac565b600061061c82611522565b8061062b575061062b82611543565b8061064657506001600160e01b0319821663152a902d60e11b145b92915050565b610654611593565b61010080546001600160a01b0319166001600160a01b0392909216919091179055565b6060609780546106869061297f565b80601f01602080910402602001604051908101604052809291908181526020018280546106b29061297f565b80156106ff5780601f106106d4576101008083540402835291602001916106ff565b820191906000526020600020905b8154815290600101906020018083116106e257829003601f168201915b5050505050905090565b600061071482611602565b506000908152609b60205260409020546001600160a01b031690565b600061073b82610bf4565b9050806001600160a01b0316836001600160a01b0316036107ad5760405162461bcd60e51b815260206004820152602160248201527f4552433732313a20617070726f76616c20746f2063757272656e74206f776e656044820152603960f91b60648201526084015b60405180910390fd5b806001600160a01b03166107bf611627565b6001600160a01b031614806107db57506107db816105e5611627565b61084d5760405162461bcd60e51b815260206004820152603d60248201527f4552433732313a20617070726f76652063616c6c6572206973206e6f7420746f60448201527f6b656e206f776e6572206f7220617070726f76656420666f7220616c6c00000060648201526084016107a4565b6108578383611631565b505050565b60006108686101025490565b905090565b610887600080516020612f228339815191526104b1611627565b6108a35760405162461bcd60e51b81526004016107a4906129b3565b6108ad828261169f565b5050565b6108c26108bc611627565b826116c9565b6108de5760405162461bcd60e51b81526004016107a4906129d8565b610857838383611728565b600090815260c9602052604090206001015490565b600082815260fc60209081526040808320815180830190925280546001600160a01b031680835260019091015492820183905292916064906109409086612a3b565b61094a9190612a52565b9150509250929050565b61095d826108e9565b61096681611887565b6108578383611898565b610978611627565b6001600160a01b0316816001600160a01b0316146109f05760405162461bcd60e51b815260206004820152602f60248201527f416363657373436f6e74726f6c3a2063616e206f6e6c792072656e6f756e636560448201526e103937b632b9903337b91039b2b63360891b60648201526084016107a4565b6108ad828261191f565b610a14600080516020612f228339815191526104b1611627565b610a575760405162461bcd60e51b81526020600482015260146024820152731bdb9b1e481b5a5b9d195c8818d85b881b5a5b9d60621b60448201526064016107a4565b610101541580610a6c57506101015461010254105b610aad5760405162461bcd60e51b8152602060048201526012602482015271115490cdcc8c4e8810d85c08195e18d9595960721b60448201526064016107a4565b610abc61010280546001019055565b6108ad82826119a4565b6108578383836040518060200160405280600081525061120c565b610afb600080516020612f228339815191526104b1611627565b80610b1057506000610b0e61046c611627565b115b610b745760405162461bcd60e51b815260206004820152602f60248201527f4552433732313a2063616c6c6572206973206e6f74206f776e6572206f72206e60448201526e6f7420686176652062616c616e636560881b60648201526084016107a4565b610b7d81611aad565b50565b6000610b8a6112ec565b6001600160a01b0316826001600160a01b0316149050919050565b60008060005b8351811015610bed57838181518110610bc657610bc6612a74565b602002602001015182610bd99190612a8a565b915080610be581612a9d565b915050610bab565b5092915050565b600080610c0083611b3e565b90506001600160a01b0381166106465760405162461bcd60e51b81526004016107a490612ab6565b600054610100900460ff1615808015610c485750600054600160ff909116105b80610c695750610c5730611b59565b158015610c69575060005460ff166001145b610c855760405162461bcd60e51b81526004016107a490612ae8565b6000805460ff191660011790558015610ca8576000805461ff0019166101001790555b610cb0611b68565b610cb8611b68565b610cc28383611b8f565b610cca611bcf565b610cd2611b68565b610cf1600080516020612f22833981519152610cec611627565b611c06565b8015610857576000805461ff001916905560405160018152600080516020612f028339815191529060200160405180910390a1505050565b60006001600160a01b038216610d935760405162461bcd60e51b815260206004820152602960248201527f4552433732313a2061646472657373207a65726f206973206e6f7420612076616044820152683634b21037bbb732b960b91b60648201526084016107a4565b506001600160a01b03166000908152609a602052604090205490565b610db7611593565b610dc16000611c10565b565b600054610100900460ff1615808015610de35750600054600160ff909116105b80610e045750610df230611b59565b158015610e04575060005460ff166001145b610e205760405162461bcd60e51b81526004016107a490612ae8565b6000805460ff191660011790558015610e43576000805461ff0019166101001790555b610e4b611b68565b610e53611b68565b610ea4604051806040016040528060118152602001704e657665726d696e65642045524337323160781b815250604051806040016040528060068152602001654e564d37323160d01b815250611b8f565b610eac611bcf565b610eb4611b68565b610ece600080516020612f22833981519152610cec611627565b8015610b7d576000805461ff001916905560405160018152600080516020612f028339815191529060200160405180910390a150565b6033546001600160a01b031690565b600091825260c9602090815260408084206001600160a01b0393909316845291905290205460ff1690565b6000610f4986611b59565b610f905760405162461bcd60e51b8152602060048201526018602482015277496e76616c696420636f6e7472616374206164647265737360401b60448201526064016107a4565b6000610f9b87611c62565b60405163a8a5a6bb60e01b81529091506001600160a01b0382169063a8a5a6bb90610fd0908990899089908990600401612b36565b600060405180830381600087803b158015610fea57600080fd5b505af1158015610ffe573d6000803e3d6000fd5b50505050866001600160a01b0316816001600160a01b03167f60b02f0439b830955522ba890ebaeed1012ac175aba5742b6032a7b79d0cd7346102d160405161104991815260200190565b60405180910390a39695505050505050565b6060609880546106869061297f565b611084600080516020612f228339815191526104b1611627565b6110a05760405162461bcd60e51b81526004016107a4906129b3565b610857838383611cfc565b6110b3611593565b610b7d600080516020612f2283398151915282611c06565b610b7d6110d6611627565b826109fa565b6108ad6110e7611627565b8383611d94565b600054610100900460ff161580801561110e5750600054600160ff909116105b8061112f575061111d30611b59565b15801561112f575060005460ff166001145b61114b5760405162461bcd60e51b81526004016107a490612ae8565b6000805460ff19166001179055801561116e576000805461ff0019166101001790555b611176611b68565b61117e611b68565b6111888585611b8f565b611190611bcf565b611198611b68565b6111b2600080516020612f22833981519152610cec611627565b6111bb83611397565b61010182905580156111f5576000805461ff001916905560405160018152600080516020612f028339815191529060200160405180910390a15b5050505050565b610100546001600160a01b031690565b61121d611217611627565b836116c9565b6112395760405162461bcd60e51b81526004016107a4906129d8565b61124584848484611e5e565b50505050565b60606000611257611e91565b905061126283611e9b565b156112b757600081511161128557604051806020016040528060008152506112b0565b8061128f84611eb8565b6040516020016112a0929190612b81565b6040516020818303038152906040525b9392505050565b60008151116112d557604051806020016040528060008152506112b0565b806040516020016112a09190612bb0565b50919050565b6000806112f76111fc565b90506001600160a01b03811661130f57600091505090565b806001600160a01b031663ce1b815f6040518163ffffffff1660e01b8152600401602060405180830381865afa15801561134d573d6000803e3d6000fd5b505050506040513d601f19601f820116820180604052508101906113719190612bcc565b91505090565b61137f611593565b610b7d600080516020612f228339815191528261191f565b61139f611593565b60ff6108ad8282612c37565b6113b3611593565b6001600160a01b038216600090815260fb60205260409020805460ff19168215151790557f54a2d072b66160727a2315e14c742bbb303a32e6dee78d245f1fccf8c94cc419611400611627565b604080516001600160a01b03928316815291851660208301528315159082015260600160405180910390a15050565b611438826108e9565b61144181611887565b610857838361191f565b606060ff80546106869061297f565b6001600160a01b038083166000908152609c6020908152604080832093851683529290529081205460ff16806112b05750506001600160a01b0316600090815260fb602052604090205460ff16919050565b6114b4611593565b6001600160a01b0381166115195760405162461bcd60e51b815260206004820152602660248201527f4f776e61626c653a206e6577206f776e657220697320746865207a65726f206160448201526564647265737360d01b60648201526084016107a4565b610b7d81611c10565b60006001600160e01b03198216637965db0b60e01b14806106465750610646825b60006001600160e01b031982166380ac58cd60e01b148061157457506001600160e01b03198216635b5e139f60e01b145b8061064657506301ffc9a760e01b6001600160e01b0319831614610646565b61159b611627565b6001600160a01b03166115ac610f04565b6001600160a01b031614610dc15760405162461bcd60e51b815260206004820181905260248201527f4f776e61626c653a2063616c6c6572206973206e6f7420746865206f776e657260448201526064016107a4565b61160b81611e9b565b610b7d5760405162461bcd60e51b81526004016107a490612ab6565b6000610868611ecf565b6000818152609b6020526040902080546001600160a01b0319166001600160a01b038416908117909155819061166682610bf4565b6001600160a01b03167f8c5be1e5ebec7d5bd14f71427d1e84f3dd0314c0f7b2291e5b200ac8c7c3b92560405160405180910390a45050565b6040805160208082018352838252600085815260fd90915291909120815181906111f59082612c37565b6000806116d583610bf4565b9050806001600160a01b0316846001600160a01b031614806116fc57506116fc818561145a565b806117205750836001600160a01b031661171584610709565b6001600160a01b0316145b949350505050565b826001600160a01b031661173b82610bf4565b6001600160a01b0316146117615760405162461bcd60e51b81526004016107a490612cf6565b6001600160a01b0382166117c35760405162461bcd60e51b8152602060048201526024808201527f4552433732313a207472616e7366657220746f20746865207a65726f206164646044820152637265737360e01b60648201526084016107a4565b6117d08383836001611efd565b826001600160a01b03166117e382610bf4565b6001600160a01b0316146118095760405162461bcd60e51b81526004016107a490612cf6565b6000818152609b6020908152604080832080546001600160a01b03199081169091556001600160a01b03878116808652609a855283862080546000190190559087168086528386208054600101905586865260999094528285208054909216841790915590518493600080516020612f4283398151915291a4505050565b610b7d81611893611627565b611f71565b6118a28282610f13565b6108ad57600082815260c9602090815260408083206001600160a01b03851684529091529020805460ff191660011790556118db611627565b6001600160a01b0316816001600160a01b0316837f2f8788117e7eff1d82e926ec794901d17c78024a50270940304540a733656f0d60405160405180910390a45050565b6119298282610f13565b156108ad57600082815260c9602090815260408083206001600160a01b03851684529091529020805460ff19169055611960611627565b6001600160a01b0316816001600160a01b0316837ff6391f5c32d9c69d2a47ea670b442974b53935d1edc7fd64eb21e047a839171b60405160405180910390a45050565b6001600160a01b0382166119fa5760405162461bcd60e51b815260206004820181905260248201527f4552433732313a206d696e7420746f20746865207a65726f206164647265737360448201526064016107a4565b611a0381611e9b565b15611a205760405162461bcd60e51b81526004016107a490612d3b565b611a2e600083836001611efd565b611a3781611e9b565b15611a545760405162461bcd60e51b81526004016107a490612d3b565b6001600160a01b0382166000818152609a6020908152604080832080546001019055848352609990915280822080546001600160a01b031916841790555183929190600080516020612f42833981519152908290a45050565b6000611ab882610bf4565b9050611ac8816000846001611efd565b611ad182610bf4565b6000838152609b6020908152604080832080546001600160a01b03199081169091556001600160a01b038516808552609a84528285208054600019019055878552609990935281842080549091169055519293508492600080516020612f42833981519152908390a45050565b6000908152609960205260409020546001600160a01b031690565b6001600160a01b03163b151590565b600054610100900460ff16610dc15760405162461bcd60e51b81526004016107a490612d71565b600054610100900460ff16611bb65760405162461bcd60e51b81526004016107a490612d71565b6097611bc28382612c37565b5060986108578282612c37565b600054610100900460ff16611bf65760405162461bcd60e51b81526004016107a490612d71565b610dc1611c01611627565b611c10565b6108ad8282611898565b603380546001600160a01b038381166001600160a01b0319831681179093556040519116919082907f8be0079c531659141344cd1fd0a4f28419497f9722a3daafe3b4186f6b6457e090600090a35050565b6000763d602d80600a3d3981f3363d3d373d3d3d363d730000008260601b60e81c176000526e5af43d82803e903d91602b57fd5bf38260781b17602052603760096000f090506001600160a01b038116611cf75760405162461bcd60e51b8152602060048201526016602482015275115490cc4c4d8dce8818dc99585d194819985a5b195960521b60448201526064016107a4565b919050565b620f4240811115611d4c5760405162461bcd60e51b815260206004820152601a60248201527908aa48664727062a4def2c2d8e8d2cae67440a8dede40d0d2ced60331b60448201526064016107a4565b6040805180820182526001600160a01b0393841681526020808201938452600095865260fc90529320925183546001600160a01b031916921691909117825551600190910155565b816001600160a01b0316836001600160a01b031603611df15760405162461bcd60e51b815260206004820152601960248201527822a9219b99189d1030b8383937bb32903a379031b0b63632b960391b60448201526064016107a4565b6001600160a01b038381166000818152609c6020908152604080832094871680845294825291829020805460ff191686151590811790915591519182527f17307eab39ab6107e8899845ad3d59bd9653f200f220920489ca2b5937696c31910160405180910390a3505050565b611e69848484611728565b611e7584848484611fca565b6112455760405162461bcd60e51b81526004016107a490612dbc565b606061086861144b565b600080611ea783611b3e565b6001600160a01b0316141592915050565b606061064682611ec7846120d9565b600101612143565b600060143610801590611ee65750611ee633610b80565b15611ef8575060131936013560601c90565b503390565b6001600160a01b0384161580611f1a57506001600160a01b038316155b80611f2b5750611f2b6103a4611627565b611f645760405162461bcd60e51b815260206004820152600a6024820152696f6e6c792070726f787960b01b60448201526064016107a4565b61124584846000846122de565b611f7b8282610f13565b6108ad57611f8881612366565b611f93836020612143565b604051602001611fa4929190612e0e565b60408051601f198184030181529082905262461bcd60e51b82526107a491600401612431565b6000611fde846001600160a01b0316611b59565b156120ce57836001600160a01b031663150b7a02611ffa611627565b8786866040518563ffffffff1660e01b815260040161201c9493929190612e7d565b6020604051808303816000875af1925050508015612057575060408051601f3d908101601f1916820190925261205491810190612eba565b60015b6120b4573d808015612085576040519150601f19603f3d011682016040523d82523d6000602084013e61208a565b606091505b5080516000036120ac5760405162461bcd60e51b81526004016107a490612dbc565b805181602001fd5b6001600160e01b031916630a85bd0160e11b149050611720565b506001949350505050565b600080608083901c156120f15760809290921c916010015b604083901c156121065760409290921c916008015b602083901c1561211b5760209290921c916004015b601083901c156121305760109290921c916002015b600883901c156106465760010192915050565b60606000612152836002612a3b565b61215d906002612a8a565b6001600160401b0381111561217457612174612489565b6040519080825280601f01601f19166020018201604052801561219e576020820181803683370190505b509050600360fc1b816000815181106121b9576121b9612a74565b60200101906001600160f81b031916908160001a905350600f60fb1b816001815181106121e8576121e8612a74565b60200101906001600160f81b031916908160001a905350600061220c846002612a3b565b612217906001612a8a565b90505b600181111561228f576f181899199a1a9b1b9c1cb0b131b232b360811b85600f166010811061224b5761224b612a74565b1a60f81b82828151811061226157612261612a74565b60200101906001600160f81b031916908160001a90535060049490941c9361228881612ed7565b905061221a565b5083156112b05760405162461bcd60e51b815260206004820181905260248201527f537472696e67733a20686578206c656e67746820696e73756666696369656e7460448201526064016107a4565b6001811115611245576001600160a01b03841615612324576001600160a01b0384166000908152609a60205260408120805483929061231e908490612eee565b90915550505b6001600160a01b03831615611245576001600160a01b0383166000908152609a60205260408120805483929061235b908490612a8a565b909155505050505050565b60606106466001600160a01b0383166014612143565b6001600160e01b031981168114610b7d57600080fd5b6000602082840312156123a457600080fd5b81356112b08161237c565b6001600160a01b0381168114610b7d57600080fd5b6000602082840312156123d657600080fd5b81356112b0816123af565b60005b838110156123fc5781810151838201526020016123e4565b50506000910152565b6000815180845261241d8160208601602086016123e1565b601f01601f19169290920160200192915050565b6020815260006112b06020830184612405565b60006020828403121561245657600080fd5b5035919050565b6000806040838503121561247057600080fd5b823561247b816123af565b946020939093013593505050565b634e487b7160e01b600052604160045260246000fd5b604051601f8201601f191681016001600160401b03811182821017156124c7576124c7612489565b604052919050565b60006001600160401b038311156124e8576124e8612489565b6124fb601f8401601f191660200161249f565b905082815283838301111561250f57600080fd5b828260208301376000602084830101529392505050565b600082601f83011261253757600080fd5b6112b0838335602085016124cf565b6000806040838503121561255957600080fd5b8235915060208301356001600160401b0381111561257657600080fd5b61094a85828601612526565b60008060006060848603121561259757600080fd5b83356125a2816123af565b925060208401356125b2816123af565b929592945050506040919091013590565b600080604083850312156125d657600080fd5b50508035926020909101359150565b600080604083850312156125f857600080fd5b82359150602083013561260a816123af565b809150509250929050565b6000602080838503121561262857600080fd5b82356001600160401b038082111561263f57600080fd5b818501915085601f83011261265357600080fd5b81358181111561266557612665612489565b8060051b915061267684830161249f565b818152918301840191848101908884111561269057600080fd5b938501935b838510156126ae57843582529385019390850190612695565b98975050505050505050565b600080604083850312156126cd57600080fd5b82356001600160401b03808211156126e457600080fd5b6126f086838701612526565b9350602085013591508082111561270657600080fd5b5061094a85828601612526565b600080600080600060a0868803121561272b57600080fd5b8535612736816123af565b945060208601356001600160401b038082111561275257600080fd5b61275e89838a01612526565b9550604088013591508082111561277457600080fd5b61278089838a01612526565b9450606088013591508082111561279657600080fd5b506127a388828901612526565b95989497509295608001359392505050565b6000806000606084860312156127ca57600080fd5b8335925060208401356125b2816123af565b600080604083850312156127ef57600080fd5b82356127fa816123af565b91506020830135801515811461260a57600080fd5b6000806000806080858703121561282557600080fd5b84356001600160401b038082111561283c57600080fd5b61284888838901612526565b9550602087013591508082111561285e57600080fd5b61286a88838901612526565b9450604087013591508082111561288057600080fd5b5061288d87828801612526565b949793965093946060013593505050565b600080600080608085870312156128b457600080fd5b84356128bf816123af565b935060208501356128cf816123af565b92506040850135915060608501356001600160401b038111156128f157600080fd5b8501601f8101871361290257600080fd5b612911878235602084016124cf565b91505092959194509250565b60006020828403121561292f57600080fd5b81356001600160401b0381111561294557600080fd5b61172084828501612526565b6000806040838503121561296457600080fd5b823561296f816123af565b9150602083013561260a816123af565b600181811c9082168061299357607f821691505b6020821081036112e657634e487b7160e01b600052602260045260246000fd5b6020808252600b908201526a37b7363c9036b4b73a32b960a91b604082015260600190565b6020808252602d908201527f4552433732313a2063616c6c6572206973206e6f7420746f6b656e206f776e6560408201526c1c881bdc88185c1c1c9bdd9959609a1b606082015260800190565b634e487b7160e01b600052601160045260246000fd5b808202811582820484141761064657610646612a25565b600082612a6f57634e487b7160e01b600052601260045260246000fd5b500490565b634e487b7160e01b600052603260045260246000fd5b8082018082111561064657610646612a25565b600060018201612aaf57612aaf612a25565b5060010190565b602080825260189082015277115490cdcc8c4e881a5b9d985b1a59081d1bdad95b88125160421b604082015260600190565b6020808252602e908201527f496e697469616c697a61626c653a20636f6e747261637420697320616c72656160408201526d191e481a5b9a5d1a585b1a5e995960921b606082015260800190565b608081526000612b496080830187612405565b8281036020840152612b5b8187612405565b90508281036040840152612b6f8186612405565b91505082606083015295945050505050565b60008351612b938184602088016123e1565b835190830190612ba78183602088016123e1565b01949350505050565b60008251612bc28184602087016123e1565b9190910192915050565b600060208284031215612bde57600080fd5b81516112b0816123af565b601f82111561085757600081815260208120601f850160051c81016020861015612c105750805b601f850160051c820191505b81811015612c2f57828155600101612c1c565b505050505050565b81516001600160401b03811115612c5057612c50612489565b612c6481612c5e845461297f565b84612be9565b602080601f831160018114612c995760008415612c815750858301515b600019600386901b1c1916600185901b178555612c2f565b600085815260208120601f198616915b82811015612cc857888601518255948401946001909101908401612ca9565b5085821015612ce65787850151600019600388901b60f8161c191681555b5050505050600190811b01905550565b60208082526025908201527f4552433732313a207472616e736665722066726f6d20696e636f72726563742060408201526437bbb732b960d91b606082015260800190565b6020808252601c908201527b115490cdcc8c4e881d1bdad95b88185b1c9958591e481b5a5b9d195960221b604082015260600190565b6020808252602b908201527f496e697469616c697a61626c653a20636f6e7472616374206973206e6f74206960408201526a6e697469616c697a696e6760a81b606082015260800190565b60208082526032908201527f4552433732313a207472616e7366657220746f206e6f6e20455243373231526560408201527131b2b4bb32b91034b6b83632b6b2b73a32b960711b606082015260800190565b76020b1b1b2b9b9a1b7b73a3937b61d1030b1b1b7bab73a1604d1b815260008351612e408160178501602088016123e1565b7001034b99036b4b9b9b4b733903937b6329607d1b6017918401918201528351612e718160288401602088016123e1565b01602801949350505050565b6001600160a01b0385811682528416602082015260408101839052608060608201819052600090612eb090830184612405565b9695505050505050565b600060208284031215612ecc57600080fd5b81516112b08161237c565b600081612ee657612ee6612a25565b506000190190565b8181038181111561064657610646612a2556fe7f26b83ff96e1f2b6a682f133852f6798a09c465da95921460cefb38474024989f2df0fed2c77648de5860a4cc508cd0818c85b8b8a1ab4ceeef8d981c8956a6ddf252ad1be2c89b69c2b068fc378daa952ba7f163c4a11628f55a4df523b3efa26469706673582212204be0497e80ee27ee1d71e17ffa383456513c591d7d7812bfd6967c051c78077864736f6c63430008110033",
  "linkReferences": {},
  "deployedLinkReferences": {}
}