{
  "_format": "hh-sol-artifact-1",
  "contractName": "NFT721Upgradeable",
  "sourceName": "contracts/token/erc721/NFT721Upgradeable.sol",
  "abi": [
    {
      "anonymous": false,
      "inputs": [
        {
          "indexed": true,
          "internalType": "address",
          "name": "owner",
          "type": "address"
        },
        {
          "indexed": true,
          "internalType": "address",
          "name": "approved",
          "type": "address"
        },
        {
          "indexed": true,
          "internalType": "uint256",
          "name": "tokenId",
          "type": "uint256"
        }
      ],
      "name": "Approval",
      "type": "event"
    },
    {
      "anonymous": false,
      "inputs": [
        {
          "indexed": true,
          "internalType": "address",
          "name": "owner",
          "type": "address"
        },
        {
          "indexed": true,
          "internalType": "address",
          "name": "operator",
          "type": "address"
        },
        {
          "indexed": false,
          "internalType": "bool",
          "name": "approved",
          "type": "bool"
        }
      ],
      "name": "ApprovalForAll",
      "type": "event"
    },
    {
      "anonymous": false,
      "inputs": [
        {
          "indexed": false,
          "internalType": "uint8",
          "name": "version",
          "type": "uint8"
        }
      ],
      "name": "Initialized",
      "type": "event"
    },
    {
      "anonymous": false,
      "inputs": [
        {
          "indexed": true,
          "internalType": "address",
          "name": "_newAddress",
          "type": "address"
        },
        {
          "indexed": true,
          "internalType": "address",
          "name": "_fromAddress",
          "type": "address"
        },
        {
          "indexed": false,
          "internalType": "uint256",
          "name": "_ercType",
          "type": "uint256"
        }
      ],
      "name": "NFTCloned",
      "type": "event"
    },
    {
      "anonymous": false,
      "inputs": [
        {
          "indexed": true,
          "internalType": "address",
          "name": "previousOwner",
          "type": "address"
        },
        {
          "indexed": true,
          "internalType": "address",
          "name": "newOwner",
          "type": "address"
        }
      ],
      "name": "OwnershipTransferred",
      "type": "event"
    },
    {
      "anonymous": false,
      "inputs": [
        {
          "indexed": false,
          "internalType": "address",
          "name": "sender",
          "type": "address"
        },
        {
          "indexed": false,
          "internalType": "address",
          "name": "operator",
          "type": "address"
        },
        {
          "indexed": false,
          "internalType": "bool",
          "name": "approved",
          "type": "bool"
        }
      ],
      "name": "ProxyApproval",
      "type": "event"
    },
    {
      "anonymous": false,
      "inputs": [
        {
          "indexed": true,
          "internalType": "bytes32",
          "name": "role",
          "type": "bytes32"
        },
        {
          "indexed": true,
          "internalType": "bytes32",
          "name": "previousAdminRole",
          "type": "bytes32"
        },
        {
          "indexed": true,
          "internalType": "bytes32",
          "name": "newAdminRole",
          "type": "bytes32"
        }
      ],
      "name": "RoleAdminChanged",
      "type": "event"
    },
    {
      "anonymous": false,
      "inputs": [
        {
          "indexed": true,
          "internalType": "bytes32",
          "name": "role",
          "type": "bytes32"
        },
        {
          "indexed": true,
          "internalType": "address",
          "name": "account",
          "type": "address"
        },
        {
          "indexed": true,
          "internalType": "address",
          "name": "sender",
          "type": "address"
        }
      ],
      "name": "RoleGranted",
      "type": "event"
    },
    {
      "anonymous": false,
      "inputs": [
        {
          "indexed": true,
          "internalType": "bytes32",
          "name": "role",
          "type": "bytes32"
        },
        {
          "indexed": true,
          "internalType": "address",
          "name": "account",
          "type": "address"
        },
        {
          "indexed": true,
          "internalType": "address",
          "name": "sender",
          "type": "address"
        }
      ],
      "name": "RoleRevoked",
      "type": "event"
    },
    {
      "anonymous": false,
      "inputs": [
        {
          "indexed": true,
          "internalType": "address",
          "name": "from",
          "type": "address"
        },
        {
          "indexed": true,
          "internalType": "address",
          "name": "to",
          "type": "address"
        },
        {
          "indexed": true,
          "internalType": "uint256",
          "name": "tokenId",
          "type": "uint256"
        }
      ],
      "name": "Transfer",
      "type": "event"
    },
    {
      "inputs": [],
      "name": "DEFAULT_ADMIN_ROLE",
      "outputs": [
        {
          "internalType": "bytes32",
          "name": "",
          "type": "bytes32"
        }
      ],
      "stateMutability": "view",
      "type": "function"
    },
    {
      "inputs": [],
      "name": "MINTER_ROLE",
      "outputs": [
        {
          "internalType": "bytes32",
          "name": "",
          "type": "bytes32"
        }
      ],
      "stateMutability": "view",
      "type": "function"
    },
    {
      "inputs": [
        {
          "internalType": "address",
          "name": "account",
          "type": "address"
        }
      ],
      "name": "addMinter",
      "outputs": [],
      "stateMutability": "nonpayable",
      "type": "function"
    },
    {
      "inputs": [
        {
          "internalType": "address",
          "name": "_addr",
          "type": "address"
        }
      ],
      "name": "addressToBytes32",
      "outputs": [
        {
          "internalType": "bytes32",
          "name": "",
          "type": "bytes32"
        }
      ],
      "stateMutability": "pure",
      "type": "function"
    },
    {
      "inputs": [
        {
          "internalType": "address",
          "name": "to",
          "type": "address"
        },
        {
          "internalType": "uint256",
          "name": "tokenId",
          "type": "uint256"
        }
      ],
      "name": "approve",
      "outputs": [],
      "stateMutability": "nonpayable",
      "type": "function"
    },
    {
      "inputs": [
        {
          "internalType": "address",
          "name": "owner",
          "type": "address"
        }
      ],
      "name": "balanceOf",
      "outputs": [
        {
          "internalType": "uint256",
          "name": "",
          "type": "uint256"
        }
      ],
      "stateMutability": "view",
      "type": "function"
    },
    {
      "inputs": [
        {
          "internalType": "uint256",
          "name": "tokenId",
          "type": "uint256"
        }
      ],
      "name": "burn",
      "outputs": [],
      "stateMutability": "nonpayable",
      "type": "function"
    },
    {
      "inputs": [
        {
          "internalType": "bytes32",
          "name": "_b32",
          "type": "bytes32"
        }
      ],
      "name": "bytes32ToAddress",
      "outputs": [
        {
          "internalType": "address",
          "name": "",
          "type": "address"
        }
      ],
      "stateMutability": "pure",
      "type": "function"
    },
    {
      "inputs": [
        {
          "internalType": "uint256[]",
          "name": "_amounts",
          "type": "uint256[]"
        }
      ],
      "name": "calculateTotalAmount",
      "outputs": [
        {
          "internalType": "uint256",
          "name": "",
          "type": "uint256"
        }
      ],
      "stateMutability": "pure",
      "type": "function"
    },
    {
      "inputs": [],
      "name": "contractURI",
      "outputs": [
        {
          "internalType": "string",
          "name": "",
          "type": "string"
        }
      ],
      "stateMutability": "view",
      "type": "function"
    },
    {
      "inputs": [
        {
          "internalType": "string",
          "name": "name",
          "type": "string"
        },
        {
          "internalType": "string",
          "name": "symbol",
          "type": "string"
        },
        {
          "internalType": "string",
          "name": "uri",
          "type": "string"
        },
        {
          "internalType": "uint256",
          "name": "cap",
          "type": "uint256"
        }
      ],
      "name": "createClone",
      "outputs": [
        {
          "internalType": "address",
          "name": "",
          "type": "address"
        }
      ],
      "stateMutability": "nonpayable",
      "type": "function"
    },
    {
      "inputs": [
        {
          "internalType": "uint256",
          "name": "tokenId",
          "type": "uint256"
        }
      ],
      "name": "getApproved",
      "outputs": [
        {
          "internalType": "address",
          "name": "",
          "type": "address"
        }
      ],
      "stateMutability": "view",
      "type": "function"
    },
    {
      "inputs": [],
      "name": "getCurrentBlockNumber",
      "outputs": [
        {
          "internalType": "uint256",
          "name": "",
          "type": "uint256"
        }
      ],
      "stateMutability": "view",
      "type": "function"
    },
    {
      "inputs": [],
      "name": "getHowManyMinted",
      "outputs": [
        {
          "internalType": "uint256",
          "name": "",
          "type": "uint256"
        }
      ],
      "stateMutability": "view",
      "type": "function"
    },
    {
      "inputs": [],
      "name": "getNvmConfigAddress",
      "outputs": [
        {
          "internalType": "address",
          "name": "",
          "type": "address"
        }
      ],
      "stateMutability": "view",
      "type": "function"
    },
    {
      "inputs": [
        {
          "internalType": "bytes32",
          "name": "role",
          "type": "bytes32"
        }
      ],
      "name": "getRoleAdmin",
      "outputs": [
        {
          "internalType": "bytes32",
          "name": "",
          "type": "bytes32"
        }
      ],
      "stateMutability": "view",
      "type": "function"
    },
    {
      "inputs": [],
      "name": "getTrustedForwarder",
      "outputs": [
        {
          "internalType": "address",
          "name": "",
          "type": "address"
        }
      ],
      "stateMutability": "view",
      "type": "function"
    },
    {
      "inputs": [
        {
          "internalType": "bytes32",
          "name": "role",
          "type": "bytes32"
        },
        {
          "internalType": "address",
          "name": "account",
          "type": "address"
        }
      ],
      "name": "grantRole",
      "outputs": [],
      "stateMutability": "nonpayable",
      "type": "function"
    },
    {
      "inputs": [
        {
          "internalType": "bytes32",
          "name": "role",
          "type": "bytes32"
        },
        {
          "internalType": "address",
          "name": "account",
          "type": "address"
        }
      ],
      "name": "hasRole",
      "outputs": [
        {
          "internalType": "bool",
          "name": "",
          "type": "bool"
        }
      ],
      "stateMutability": "view",
      "type": "function"
    },
    {
      "inputs": [],
      "name": "initialize",
      "outputs": [],
      "stateMutability": "nonpayable",
      "type": "function"
    },
    {
      "inputs": [
        {
          "internalType": "string",
          "name": "name",
          "type": "string"
        },
        {
          "internalType": "string",
          "name": "symbol",
          "type": "string"
        },
        {
          "internalType": "string",
          "name": "uri",
          "type": "string"
        },
        {
          "internalType": "uint256",
          "name": "cap",
          "type": "uint256"
        }
      ],
      "name": "initializeWithAttributes",
      "outputs": [],
      "stateMutability": "nonpayable",
      "type": "function"
    },
    {
      "inputs": [
        {
          "internalType": "string",
          "name": "name",
          "type": "string"
        },
        {
          "internalType": "string",
          "name": "symbol",
          "type": "string"
        }
      ],
      "name": "initializeWithName",
      "outputs": [],
      "stateMutability": "nonpayable",
      "type": "function"
    },
    {
      "inputs": [
        {
          "internalType": "address",
          "name": "account",
          "type": "address"
        },
        {
          "internalType": "address",
          "name": "operator",
          "type": "address"
        }
      ],
      "name": "isApprovedForAll",
      "outputs": [
        {
          "internalType": "bool",
          "name": "",
          "type": "bool"
        }
      ],
      "stateMutability": "view",
      "type": "function"
    },
    {
      "inputs": [
        {
          "internalType": "address",
          "name": "operator",
          "type": "address"
        }
      ],
      "name": "isApprovedProxy",
      "outputs": [
        {
          "internalType": "bool",
          "name": "",
          "type": "bool"
        }
      ],
      "stateMutability": "nonpayable",
      "type": "function"
    },
    {
      "inputs": [
        {
          "internalType": "address",
          "name": "addr",
          "type": "address"
        }
      ],
      "name": "isContract",
      "outputs": [
        {
          "internalType": "bool",
          "name": "",
          "type": "bool"
        }
      ],
      "stateMutability": "view",
      "type": "function"
    },
    {
      "inputs": [
        {
          "internalType": "address",
          "name": "forwarder",
          "type": "address"
        }
      ],
      "name": "isTrustedForwarder",
      "outputs": [
        {
          "internalType": "bool",
          "name": "",
          "type": "bool"
        }
      ],
      "stateMutability": "view",
      "type": "function"
    },
    {
      "inputs": [
        {
          "internalType": "address",
          "name": "to",
          "type": "address"
        },
        {
          "internalType": "uint256",
          "name": "tokenId",
          "type": "uint256"
        }
      ],
      "name": "mint",
      "outputs": [],
      "stateMutability": "nonpayable",
      "type": "function"
    },
    {
      "inputs": [
        {
          "internalType": "uint256",
          "name": "tokenId",
          "type": "uint256"
        }
      ],
      "name": "mint",
      "outputs": [],
      "stateMutability": "nonpayable",
      "type": "function"
    },
    {
      "inputs": [],
      "name": "name",
      "outputs": [
        {
          "internalType": "string",
          "name": "",
          "type": "string"
        }
      ],
      "stateMutability": "view",
      "type": "function"
    },
    {
      "inputs": [],
      "name": "nvmConfig",
      "outputs": [
        {
          "internalType": "address",
          "name": "",
          "type": "address"
        }
      ],
      "stateMutability": "view",
      "type": "function"
    },
    {
      "inputs": [],
      "name": "owner",
      "outputs": [
        {
          "internalType": "address",
          "name": "",
          "type": "address"
        }
      ],
      "stateMutability": "view",
      "type": "function"
    },
    {
      "inputs": [
        {
          "internalType": "uint256",
          "name": "tokenId",
          "type": "uint256"
        }
      ],
      "name": "ownerOf",
      "outputs": [
        {
          "internalType": "address",
          "name": "",
          "type": "address"
        }
      ],
      "stateMutability": "view",
      "type": "function"
    },
    {
      "inputs": [],
      "name": "renounceOwnership",
      "outputs": [],
      "stateMutability": "nonpayable",
      "type": "function"
    },
    {
      "inputs": [
        {
          "internalType": "bytes32",
          "name": "role",
          "type": "bytes32"
        },
        {
          "internalType": "address",
          "name": "account",
          "type": "address"
        }
      ],
      "name": "renounceRole",
      "outputs": [],
      "stateMutability": "nonpayable",
      "type": "function"
    },
    {
      "inputs": [
        {
          "internalType": "address",
          "name": "account",
          "type": "address"
        }
      ],
      "name": "revokeMinter",
      "outputs": [],
      "stateMutability": "nonpayable",
      "type": "function"
    },
    {
      "inputs": [
        {
          "internalType": "bytes32",
          "name": "role",
          "type": "bytes32"
        },
        {
          "internalType": "address",
          "name": "account",
          "type": "address"
        }
      ],
      "name": "revokeRole",
      "outputs": [],
      "stateMutability": "nonpayable",
      "type": "function"
    },
    {
      "inputs": [
        {
          "internalType": "uint256",
          "name": "tokenId",
          "type": "uint256"
        },
        {
          "internalType": "uint256",
          "name": "value",
          "type": "uint256"
        }
      ],
      "name": "royaltyInfo",
      "outputs": [
        {
          "internalType": "address",
          "name": "receiver",
          "type": "address"
        },
        {
          "internalType": "uint256",
          "name": "royaltyAmount",
          "type": "uint256"
        }
      ],
      "stateMutability": "view",
      "type": "function"
    },
    {
      "inputs": [
        {
          "internalType": "address",
          "name": "from",
          "type": "address"
        },
        {
          "internalType": "address",
          "name": "to",
          "type": "address"
        },
        {
          "internalType": "uint256",
          "name": "tokenId",
          "type": "uint256"
        }
      ],
      "name": "safeTransferFrom",
      "outputs": [],
      "stateMutability": "nonpayable",
      "type": "function"
    },
    {
      "inputs": [
        {
          "internalType": "address",
          "name": "from",
          "type": "address"
        },
        {
          "internalType": "address",
          "name": "to",
          "type": "address"
        },
        {
          "internalType": "uint256",
          "name": "tokenId",
          "type": "uint256"
        },
        {
          "internalType": "bytes",
          "name": "data",
          "type": "bytes"
        }
      ],
      "name": "safeTransferFrom",
      "outputs": [],
      "stateMutability": "nonpayable",
      "type": "function"
    },
    {
      "inputs": [
        {
          "internalType": "address",
          "name": "operator",
          "type": "address"
        },
        {
          "internalType": "bool",
          "name": "approved",
          "type": "bool"
        }
      ],
      "name": "setApprovalForAll",
      "outputs": [],
      "stateMutability": "nonpayable",
      "type": "function"
    },
    {
      "inputs": [
        {
          "internalType": "string",
          "name": "_uri",
          "type": "string"
        }
      ],
      "name": "setContractMetadataUri",
      "outputs": [],
      "stateMutability": "nonpayable",
      "type": "function"
    },
    {
      "inputs": [
        {
          "internalType": "uint256",
          "name": "tokenId",
          "type": "uint256"
        },
        {
          "internalType": "string",
          "name": "nftURI",
          "type": "string"
        }
      ],
      "name": "setNFTMetadata",
      "outputs": [],
      "stateMutability": "nonpayable",
      "type": "function"
    },
    {
      "inputs": [
        {
          "internalType": "address",
          "name": "_addr",
          "type": "address"
        }
      ],
      "name": "setNvmConfigAddress",
      "outputs": [],
      "stateMutability": "nonpayable",
      "type": "function"
    },
    {
      "inputs": [
        {
          "internalType": "address",
          "name": "operator",
          "type": "address"
        },
        {
          "internalType": "bool",
          "name": "approved",
          "type": "bool"
        }
      ],
      "name": "setProxyApproval",
      "outputs": [],
      "stateMutability": "nonpayable",
      "type": "function"
    },
    {
      "inputs": [
        {
          "internalType": "uint256",
          "name": "tokenId",
          "type": "uint256"
        },
        {
          "internalType": "address",
          "name": "receiver",
          "type": "address"
        },
        {
          "internalType": "uint256",
          "name": "royaltyAmount",
          "type": "uint256"
        }
      ],
      "name": "setTokenRoyalty",
      "outputs": [],
      "stateMutability": "nonpayable",
      "type": "function"
    },
    {
      "inputs": [
        {
          "internalType": "bytes4",
          "name": "interfaceId",
          "type": "bytes4"
        }
      ],
      "name": "supportsInterface",
      "outputs": [
        {
          "internalType": "bool",
          "name": "",
          "type": "bool"
        }
      ],
      "stateMutability": "view",
      "type": "function"
    },
    {
      "inputs": [],
      "name": "symbol",
      "outputs": [
        {
          "internalType": "string",
          "name": "",
          "type": "string"
        }
      ],
      "stateMutability": "view",
      "type": "function"
    },
    {
      "inputs": [
        {
          "internalType": "uint256",
          "name": "tokenId",
          "type": "uint256"
        }
      ],
      "name": "tokenURI",
      "outputs": [
        {
          "internalType": "string",
          "name": "",
          "type": "string"
        }
      ],
      "stateMutability": "view",
      "type": "function"
    },
    {
      "inputs": [
        {
          "internalType": "address",
          "name": "from",
          "type": "address"
        },
        {
          "internalType": "address",
          "name": "to",
          "type": "address"
        },
        {
          "internalType": "uint256",
          "name": "tokenId",
          "type": "uint256"
        }
      ],
      "name": "transferFrom",
      "outputs": [],
      "stateMutability": "nonpayable",
      "type": "function"
    },
    {
      "inputs": [
        {
          "internalType": "address",
          "name": "newOwner",
          "type": "address"
        }
      ],
      "name": "transferOwnership",
      "outputs": [],
      "stateMutability": "nonpayable",
      "type": "function"
    }
  ],
  "bytecode": "0x608060405234801561001057600080fd5b50612ed7806100206000396000f3fe608060405234801561001057600080fd5b50600436106102465760003560e01c806301ffc9a71461024b57806302acb9a61461027357806306fdde0314610288578063081812fc1461029d578063095ea7b3146102c857806316279055146102db57806322e8e1e0146102ef578063237c49191461030557806323b872dd14610318578063248a9ca31461032b5780632a55205a1461033e5780632f2ff15d1461037057806336568abe146103835780633d54c4471461039657806340c10f19146103c257806342842e0e146103d557806342966c68146103e8578063572b6c05146103fb5780635ced058e1461040e5780635ea3ab851461041f5780636352211e146104325780636e428b83146104455780636fd902e11461045857806370a082311461045e578063715018a6146104715780638129fc1c1461047957806382c947b7146104815780638da5cb5b1461049b57806391d14854146104a357806395d89b41146104b65780639713c807146104be578063983b2d56146104d1578063a0712d68146104e4578063a217fddf146104f7578063a22cb465146104ff578063a8a5a6bb14610512578063ab9de23014610525578063b628b0fc1461052d578063b88d4fde14610540578063c87b56dd14610553578063ce1b815f14610566578063cfbd48851461056e578063d242310514610581578063d416a27d14610594578063d5391393146105a7578063d547741f146105bc578063e8a3d485146105cf578063e985e9c5146105d7578063e9c1e045146105ea578063f2fde38b146105fe575b600080fd5b61025e610259366004612374565b610611565b60405190151581526020015b60405180910390f35b6102866102813660046123a6565b61064c565b005b610290610677565b60405161026a9190612413565b6102b06102ab366004612426565b610709565b6040516001600160a01b03909116815260200161026a565b6102866102d636600461243f565b610730565b61025e6102e93660046123a6565b3b151590565b6102f761085c565b60405190815260200161026a565b610286610313366004612528565b61086d565b610286610326366004612564565b6108b1565b6102f7610339366004612426565b6108e9565b61035161034c3660046125a5565b6108fe565b604080516001600160a01b03909316835260208301919091520161026a565b61028661037e3660046125c7565b610954565b6102866103913660046125c7565b610970565b61025e6103a43660046123a6565b6001600160a01b0316600090815260fb602052604090205460ff1690565b6102866103d036600461243f565b6109fa565b6102866103e3366004612564565b610ac6565b6102866103f6366004612426565b610ae1565b61025e6104093660046123a6565b610b80565b6102b061041c366004612426565b90565b6102f761042d3660046125f7565b610ba5565b6102b0610440366004612426565b610bf4565b61028661045336600461269c565b610c28565b436102f7565b6102f761046c3660046123a6565b610d29565b610286610daf565b610286610dc3565b6102f761048f3660046123a6565b6001600160a01b031690565b6102b0610f04565b61025e6104b13660046125c7565b610f13565b610290610f3e565b6102866104cc3660046126f5565b610f4d565b6102866104df3660046123a6565b610f8e565b6102866104f2366004612426565b610fae565b6102f7600081565b61028661050d36600461271c565b610fbf565b61028661052036600461274f565b610fd1565b6102b06110df565b6102b061053b36600461274f565b6110ef565b61028661054e3660046127de565b6111f2565b610290610561366004612426565b611231565b6102b06112d2565b61028661057c3660046123a6565b61135d565b61028661058f36600461285d565b61137d565b6102866105a236600461271c565b611391565b6102f7600080516020612e6283398151915281565b6102866105ca3660046125c7565b611415565b610290611431565b61025e6105e5366004612891565b611440565b610100546102b0906001600160a01b031681565b61028661060c3660046123a6565b611492565b600061061c82611508565b8061062b575061062b82611529565b8061064657506001600160e01b0319821663152a902d60e11b145b92915050565b610654611579565b61010080546001600160a01b0319166001600160a01b0392909216919091179055565b606060978054610686906128bf565b80601f01602080910402602001604051908101604052809291908181526020018280546106b2906128bf565b80156106ff5780601f106106d4576101008083540402835291602001916106ff565b820191906000526020600020905b8154815290600101906020018083116106e257829003601f168201915b5050505050905090565b6000610714826115e8565b506000908152609b60205260409020546001600160a01b031690565b600061073b82610bf4565b9050806001600160a01b0316836001600160a01b0316036107ad5760405162461bcd60e51b815260206004820152602160248201527f4552433732313a20617070726f76616c20746f2063757272656e74206f776e656044820152603960f91b60648201526084015b60405180910390fd5b806001600160a01b03166107bf61160d565b6001600160a01b031614806107db57506107db816105e561160d565b61084d5760405162461bcd60e51b815260206004820152603d60248201527f4552433732313a20617070726f76652063616c6c6572206973206e6f7420746f60448201527f6b656e206f776e6572206f7220617070726f76656420666f7220616c6c00000060648201526084016107a4565b6108578383611617565b505050565b60006108686101025490565b905090565b610887600080516020612e628339815191526104b161160d565b6108a35760405162461bcd60e51b81526004016107a4906128f3565b6108ad8282611685565b5050565b6108c26108bc61160d565b826116af565b6108de5760405162461bcd60e51b81526004016107a490612918565b61085783838361170d565b600090815260c9602052604090206001015490565b600082815260fc60209081526040808320815180830190925280546001600160a01b03168083526001909101549282018390529291606490610940908661297b565b61094a9190612992565b9150509250929050565b61095d826108e9565b6109668161186c565b610857838361187d565b61097861160d565b6001600160a01b0316816001600160a01b0316146109f05760405162461bcd60e51b815260206004820152602f60248201527f416363657373436f6e74726f6c3a2063616e206f6e6c792072656e6f756e636560448201526e103937b632b9903337b91039b2b63360891b60648201526084016107a4565b6108ad8282611904565b610a14600080516020612e628339815191526104b161160d565b610a575760405162461bcd60e51b81526020600482015260146024820152731bdb9b1e481b5a5b9d195c8818d85b881b5a5b9d60621b60448201526064016107a4565b610101541580610a6c57506101015461010254105b610aad5760405162461bcd60e51b8152602060048201526012602482015271115490cdcc8c4e8810d85c08195e18d9595960721b60448201526064016107a4565b610abc61010280546001019055565b6108ad8282611989565b610857838383604051806020016040528060008152506111f2565b610afb600080516020612e628339815191526104b161160d565b80610b1057506000610b0e61046c61160d565b115b610b745760405162461bcd60e51b815260206004820152602f60248201527f4552433732313a2063616c6c6572206973206e6f74206f776e6572206f72206e60448201526e6f7420686176652062616c616e636560881b60648201526084016107a4565b610b7d81611a92565b50565b6000610b8a6112d2565b6001600160a01b0316826001600160a01b0316149050919050565b60008060005b8351811015610bed57838181518110610bc657610bc66129b4565b602002602001015182610bd991906129ca565b915080610be5816129dd565b915050610bab565b5092915050565b600080610c0083611b23565b90506001600160a01b0381166106465760405162461bcd60e51b81526004016107a4906129f6565b600054610100900460ff1615808015610c485750600054600160ff909116105b80610c695750610c5730611b3e565b158015610c69575060005460ff166001145b610c855760405162461bcd60e51b81526004016107a490612a28565b6000805460ff191660011790558015610ca8576000805461ff0019166101001790555b610cb0611b4d565b610cb8611b4d565b610cc28383611b74565b610cca611bb4565b610cd2611b4d565b610cf1600080516020612e62833981519152610cec61160d565b611beb565b8015610857576000805461ff001916905560405160018152600080516020612e428339815191529060200160405180910390a1505050565b60006001600160a01b038216610d935760405162461bcd60e51b815260206004820152602960248201527f4552433732313a2061646472657373207a65726f206973206e6f7420612076616044820152683634b21037bbb732b960b91b60648201526084016107a4565b506001600160a01b03166000908152609a602052604090205490565b610db7611579565b610dc16000611bf5565b565b600054610100900460ff1615808015610de35750600054600160ff909116105b80610e045750610df230611b3e565b158015610e04575060005460ff166001145b610e205760405162461bcd60e51b81526004016107a490612a28565b6000805460ff191660011790558015610e43576000805461ff0019166101001790555b610e4b611b4d565b610e53611b4d565b610ea4604051806040016040528060118152602001704e657665726d696e65642045524337323160781b815250604051806040016040528060068152602001654e564d37323160d01b815250611b74565b610eac611bb4565b610eb4611b4d565b610ece600080516020612e62833981519152610cec61160d565b8015610b7d576000805461ff001916905560405160018152600080516020612e428339815191529060200160405180910390a150565b6033546001600160a01b031690565b600091825260c9602090815260408084206001600160a01b0393909316845291905290205460ff1690565b606060988054610686906128bf565b610f67600080516020612e628339815191526104b161160d565b610f835760405162461bcd60e51b81526004016107a4906128f3565b610857838383611c47565b610f96611579565b610b7d600080516020612e6283398151915282611beb565b610b7d610fb961160d565b826109fa565b6108ad610fca61160d565b8383611cdf565b600054610100900460ff1615808015610ff15750600054600160ff909116105b80611012575061100030611b3e565b158015611012575060005460ff166001145b61102e5760405162461bcd60e51b81526004016107a490612a28565b6000805460ff191660011790558015611051576000805461ff0019166101001790555b611059611b4d565b611061611b4d565b61106b8585611b74565b611073611bb4565b61107b611b4d565b611095600080516020612e62833981519152610cec61160d565b61109e8361137d565b61010182905580156110d8576000805461ff001916905560405160018152600080516020612e428339815191529060200160405180910390a15b5050505050565b610100546001600160a01b031690565b7f360894a13ba1a3210667c828492db98dca3e2076cc3735a920a3ca505d382bbc546000906001600160a01b0316806111255750305b600061113082611da9565b60405163a8a5a6bb60e01b81529091506001600160a01b0382169063a8a5a6bb90611165908a908a908a908a90600401612a76565b600060405180830381600087803b15801561117f57600080fd5b505af1158015611193573d6000803e3d6000fd5b50505050816001600160a01b0316816001600160a01b03167f60b02f0439b830955522ba890ebaeed1012ac175aba5742b6032a7b79d0cd7346102d16040516111de91815260200190565b60405180910390a39150505b949350505050565b6112036111fd61160d565b836116af565b61121f5760405162461bcd60e51b81526004016107a490612918565b61122b84848484611e43565b50505050565b6060600061123d611e76565b905061124883611e80565b1561129d57600081511161126b5760405180602001604052806000815250611296565b8061127584611e9d565b604051602001611286929190612ac1565b6040516020818303038152906040525b9392505050565b60008151116112bb5760405180602001604052806000815250611296565b806040516020016112869190612af0565b50919050565b6000806112dd6110df565b90506001600160a01b0381166112f557600091505090565b806001600160a01b031663ce1b815f6040518163ffffffff1660e01b8152600401602060405180830381865afa158015611333573d6000803e3d6000fd5b505050506040513d601f19601f820116820180604052508101906113579190612b0c565b91505090565b611365611579565b610b7d600080516020612e6283398151915282611904565b611385611579565b60ff6108ad8282612b77565b611399611579565b6001600160a01b038216600090815260fb60205260409020805460ff19168215151790557f54a2d072b66160727a2315e14c742bbb303a32e6dee78d245f1fccf8c94cc4196113e661160d565b604080516001600160a01b03928316815291851660208301528315159082015260600160405180910390a15050565b61141e826108e9565b6114278161186c565b6108578383611904565b606060ff8054610686906128bf565b6001600160a01b038083166000908152609c6020908152604080832093851683529290529081205460ff16806112965750506001600160a01b0316600090815260fb602052604090205460ff16919050565b61149a611579565b6001600160a01b0381166114ff5760405162461bcd60e51b815260206004820152602660248201527f4f776e61626c653a206e6577206f776e657220697320746865207a65726f206160448201526564647265737360d01b60648201526084016107a4565b610b7d81611bf5565b60006001600160e01b03198216637965db0b60e01b14806106465750610646825b60006001600160e01b031982166380ac58cd60e01b148061155a57506001600160e01b03198216635b5e139f60e01b145b8061064657506301ffc9a760e01b6001600160e01b0319831614610646565b61158161160d565b6001600160a01b0316611592610f04565b6001600160a01b031614610dc15760405162461bcd60e51b815260206004820181905260248201527f4f776e61626c653a2063616c6c6572206973206e6f7420746865206f776e657260448201526064016107a4565b6115f181611e80565b610b7d5760405162461bcd60e51b81526004016107a4906129f6565b6000610868611eb4565b6000818152609b6020526040902080546001600160a01b0319166001600160a01b038416908117909155819061164c82610bf4565b6001600160a01b03167f8c5be1e5ebec7d5bd14f71427d1e84f3dd0314c0f7b2291e5b200ac8c7c3b92560405160405180910390a45050565b6040805160208082018352838252600085815260fd90915291909120815181906110d89082612b77565b6000806116bb83610bf4565b9050806001600160a01b0316846001600160a01b031614806116e257506116e28185611440565b806111ea5750836001600160a01b03166116fb84610709565b6001600160a01b031614949350505050565b826001600160a01b031661172082610bf4565b6001600160a01b0316146117465760405162461bcd60e51b81526004016107a490612c36565b6001600160a01b0382166117a85760405162461bcd60e51b8152602060048201526024808201527f4552433732313a207472616e7366657220746f20746865207a65726f206164646044820152637265737360e01b60648201526084016107a4565b6117b58383836001611ee2565b826001600160a01b03166117c882610bf4565b6001600160a01b0316146117ee5760405162461bcd60e51b81526004016107a490612c36565b6000818152609b6020908152604080832080546001600160a01b03199081169091556001600160a01b03878116808652609a855283862080546000190190559087168086528386208054600101905586865260999094528285208054909216841790915590518493600080516020612e8283398151915291a4505050565b610b7d8161187861160d565b611f56565b6118878282610f13565b6108ad57600082815260c9602090815260408083206001600160a01b03851684529091529020805460ff191660011790556118c061160d565b6001600160a01b0316816001600160a01b0316837f2f8788117e7eff1d82e926ec794901d17c78024a50270940304540a733656f0d60405160405180910390a45050565b61190e8282610f13565b156108ad57600082815260c9602090815260408083206001600160a01b03851684529091529020805460ff1916905561194561160d565b6001600160a01b0316816001600160a01b0316837ff6391f5c32d9c69d2a47ea670b442974b53935d1edc7fd64eb21e047a839171b60405160405180910390a45050565b6001600160a01b0382166119df5760405162461bcd60e51b815260206004820181905260248201527f4552433732313a206d696e7420746f20746865207a65726f206164647265737360448201526064016107a4565b6119e881611e80565b15611a055760405162461bcd60e51b81526004016107a490612c7b565b611a13600083836001611ee2565b611a1c81611e80565b15611a395760405162461bcd60e51b81526004016107a490612c7b565b6001600160a01b0382166000818152609a6020908152604080832080546001019055848352609990915280822080546001600160a01b031916841790555183929190600080516020612e82833981519152908290a45050565b6000611a9d82610bf4565b9050611aad816000846001611ee2565b611ab682610bf4565b6000838152609b6020908152604080832080546001600160a01b03199081169091556001600160a01b038516808552609a84528285208054600019019055878552609990935281842080549091169055519293508492600080516020612e82833981519152908390a45050565b6000908152609960205260409020546001600160a01b031690565b6001600160a01b03163b151590565b600054610100900460ff16610dc15760405162461bcd60e51b81526004016107a490612cb1565b600054610100900460ff16611b9b5760405162461bcd60e51b81526004016107a490612cb1565b6097611ba78382612b77565b5060986108578282612b77565b600054610100900460ff16611bdb5760405162461bcd60e51b81526004016107a490612cb1565b610dc1611be661160d565b611bf5565b6108ad828261187d565b603380546001600160a01b038381166001600160a01b0319831681179093556040519116919082907f8be0079c531659141344cd1fd0a4f28419497f9722a3daafe3b4186f6b6457e090600090a35050565b620f4240811115611c975760405162461bcd60e51b815260206004820152601a60248201527908aa48664727062a4def2c2d8e8d2cae67440a8dede40d0d2ced60331b60448201526064016107a4565b6040805180820182526001600160a01b0393841681526020808201938452600095865260fc90529320925183546001600160a01b031916921691909117825551600190910155565b816001600160a01b0316836001600160a01b031603611d3c5760405162461bcd60e51b815260206004820152601960248201527822a9219b99189d1030b8383937bb32903a379031b0b63632b960391b60448201526064016107a4565b6001600160a01b038381166000818152609c6020908152604080832094871680845294825291829020805460ff191686151590811790915591519182527f17307eab39ab6107e8899845ad3d59bd9653f200f220920489ca2b5937696c31910160405180910390a3505050565b6000763d602d80600a3d3981f3363d3d373d3d3d363d730000008260601b60e81c176000526e5af43d82803e903d91602b57fd5bf38260781b17602052603760096000f090506001600160a01b038116611e3e5760405162461bcd60e51b8152602060048201526016602482015275115490cc4c4d8dce8818dc99585d194819985a5b195960521b60448201526064016107a4565b919050565b611e4e84848461170d565b611e5a84848484611faf565b61122b5760405162461bcd60e51b81526004016107a490612cfc565b6060610868611431565b600080611e8c83611b23565b6001600160a01b0316141592915050565b606061064682611eac846120bb565b600101612125565b600060143610801590611ecb5750611ecb33610b80565b15611edd575060131936013560601c90565b503390565b6001600160a01b0384161580611eff57506001600160a01b038316155b80611f105750611f106103a461160d565b611f495760405162461bcd60e51b815260206004820152600a6024820152696f6e6c792070726f787960b01b60448201526064016107a4565b61122b84846000846122c0565b611f608282610f13565b6108ad57611f6d81612348565b611f78836020612125565b604051602001611f89929190612d4e565b60408051601f198184030181529082905262461bcd60e51b82526107a491600401612413565b6000611fc3846001600160a01b0316611b3e565b156120b357836001600160a01b031663150b7a02611fdf61160d565b8786866040518563ffffffff1660e01b81526004016120019493929190612dbd565b6020604051808303816000875af192505050801561203c575060408051601f3d908101601f1916820190925261203991810190612dfa565b60015b612099573d80801561206a576040519150601f19603f3d011682016040523d82523d6000602084013e61206f565b606091505b5080516000036120915760405162461bcd60e51b81526004016107a490612cfc565b805181602001fd5b6001600160e01b031916630a85bd0160e11b1490506111ea565b5060016111ea565b600080608083901c156120d35760809290921c916010015b604083901c156120e85760409290921c916008015b602083901c156120fd5760209290921c916004015b601083901c156121125760109290921c916002015b600883901c156106465760010192915050565b6060600061213483600261297b565b61213f9060026129ca565b6001600160401b038111156121565761215661246b565b6040519080825280601f01601f191660200182016040528015612180576020820181803683370190505b509050600360fc1b8160008151811061219b5761219b6129b4565b60200101906001600160f81b031916908160001a905350600f60fb1b816001815181106121ca576121ca6129b4565b60200101906001600160f81b031916908160001a90535060006121ee84600261297b565b6121f99060016129ca565b90505b6001811115612271576f181899199a1a9b1b9c1cb0b131b232b360811b85600f166010811061222d5761222d6129b4565b1a60f81b828281518110612243576122436129b4565b60200101906001600160f81b031916908160001a90535060049490941c9361226a81612e17565b90506121fc565b5083156112965760405162461bcd60e51b815260206004820181905260248201527f537472696e67733a20686578206c656e67746820696e73756666696369656e7460448201526064016107a4565b600181111561122b576001600160a01b03841615612306576001600160a01b0384166000908152609a602052604081208054839290612300908490612e2e565b90915550505b6001600160a01b0383161561122b576001600160a01b0383166000908152609a60205260408120805483929061233d9084906129ca565b909155505050505050565b60606106466001600160a01b0383166014612125565b6001600160e01b031981168114610b7d57600080fd5b60006020828403121561238657600080fd5b81356112968161235e565b6001600160a01b0381168114610b7d57600080fd5b6000602082840312156123b857600080fd5b813561129681612391565b60005b838110156123de5781810151838201526020016123c6565b50506000910152565b600081518084526123ff8160208601602086016123c3565b601f01601f19169290920160200192915050565b60208152600061129660208301846123e7565b60006020828403121561243857600080fd5b5035919050565b6000806040838503121561245257600080fd5b823561245d81612391565b946020939093013593505050565b634e487b7160e01b600052604160045260246000fd5b604051601f8201601f191681016001600160401b03811182821017156124a9576124a961246b565b604052919050565b60006001600160401b038311156124ca576124ca61246b565b6124dd601f8401601f1916602001612481565b90508281528383830111156124f157600080fd5b828260208301376000602084830101529392505050565b600082601f83011261251957600080fd5b611296838335602085016124b1565b6000806040838503121561253b57600080fd5b8235915060208301356001600160401b0381111561255857600080fd5b61094a85828601612508565b60008060006060848603121561257957600080fd5b833561258481612391565b9250602084013561259481612391565b929592945050506040919091013590565b600080604083850312156125b857600080fd5b50508035926020909101359150565b600080604083850312156125da57600080fd5b8235915060208301356125ec81612391565b809150509250929050565b6000602080838503121561260a57600080fd5b82356001600160401b038082111561262157600080fd5b818501915085601f83011261263557600080fd5b8135818111156126475761264761246b565b8060051b9150612658848301612481565b818152918301840191848101908884111561267257600080fd5b938501935b8385101561269057843582529385019390850190612677565b98975050505050505050565b600080604083850312156126af57600080fd5b82356001600160401b03808211156126c657600080fd5b6126d286838701612508565b935060208501359150808211156126e857600080fd5b5061094a85828601612508565b60008060006060848603121561270a57600080fd5b83359250602084013561259481612391565b6000806040838503121561272f57600080fd5b823561273a81612391565b9150602083013580151581146125ec57600080fd5b6000806000806080858703121561276557600080fd5b84356001600160401b038082111561277c57600080fd5b61278888838901612508565b9550602087013591508082111561279e57600080fd5b6127aa88838901612508565b945060408701359150808211156127c057600080fd5b506127cd87828801612508565b949793965093946060013593505050565b600080600080608085870312156127f457600080fd5b84356127ff81612391565b9350602085013561280f81612391565b92506040850135915060608501356001600160401b0381111561283157600080fd5b8501601f8101871361284257600080fd5b612851878235602084016124b1565b91505092959194509250565b60006020828403121561286f57600080fd5b81356001600160401b0381111561288557600080fd5b6111ea84828501612508565b600080604083850312156128a457600080fd5b82356128af81612391565b915060208301356125ec81612391565b600181811c908216806128d357607f821691505b6020821081036112cc57634e487b7160e01b600052602260045260246000fd5b6020808252600b908201526a37b7363c9036b4b73a32b960a91b604082015260600190565b6020808252602d908201527f4552433732313a2063616c6c6572206973206e6f7420746f6b656e206f776e6560408201526c1c881bdc88185c1c1c9bdd9959609a1b606082015260800190565b634e487b7160e01b600052601160045260246000fd5b808202811582820484141761064657610646612965565b6000826129af57634e487b7160e01b600052601260045260246000fd5b500490565b634e487b7160e01b600052603260045260246000fd5b8082018082111561064657610646612965565b6000600182016129ef576129ef612965565b5060010190565b602080825260189082015277115490cdcc8c4e881a5b9d985b1a59081d1bdad95b88125160421b604082015260600190565b6020808252602e908201527f496e697469616c697a61626c653a20636f6e747261637420697320616c72656160408201526d191e481a5b9a5d1a585b1a5e995960921b606082015260800190565b608081526000612a8960808301876123e7565b8281036020840152612a9b81876123e7565b90508281036040840152612aaf81866123e7565b91505082606083015295945050505050565b60008351612ad38184602088016123c3565b835190830190612ae78183602088016123c3565b01949350505050565b60008251612b028184602087016123c3565b9190910192915050565b600060208284031215612b1e57600080fd5b815161129681612391565b601f82111561085757600081815260208120601f850160051c81016020861015612b505750805b601f850160051c820191505b81811015612b6f57828155600101612b5c565b505050505050565b81516001600160401b03811115612b9057612b9061246b565b612ba481612b9e84546128bf565b84612b29565b602080601f831160018114612bd95760008415612bc15750858301515b600019600386901b1c1916600185901b178555612b6f565b600085815260208120601f198616915b82811015612c0857888601518255948401946001909101908401612be9565b5085821015612c265787850151600019600388901b60f8161c191681555b5050505050600190811b01905550565b60208082526025908201527f4552433732313a207472616e736665722066726f6d20696e636f72726563742060408201526437bbb732b960d91b606082015260800190565b6020808252601c908201527b115490cdcc8c4e881d1bdad95b88185b1c9958591e481b5a5b9d195960221b604082015260600190565b6020808252602b908201527f496e697469616c697a61626c653a20636f6e7472616374206973206e6f74206960408201526a6e697469616c697a696e6760a81b606082015260800190565b60208082526032908201527f4552433732313a207472616e7366657220746f206e6f6e20455243373231526560408201527131b2b4bb32b91034b6b83632b6b2b73a32b960711b606082015260800190565b76020b1b1b2b9b9a1b7b73a3937b61d1030b1b1b7bab73a1604d1b815260008351612d808160178501602088016123c3565b7001034b99036b4b9b9b4b733903937b6329607d1b6017918401918201528351612db18160288401602088016123c3565b01602801949350505050565b6001600160a01b0385811682528416602082015260408101839052608060608201819052600090612df0908301846123e7565b9695505050505050565b600060208284031215612e0c57600080fd5b81516112968161235e565b600081612e2657612e26612965565b506000190190565b818103818111156106465761064661296556fe7f26b83ff96e1f2b6a682f133852f6798a09c465da95921460cefb38474024989f2df0fed2c77648de5860a4cc508cd0818c85b8b8a1ab4ceeef8d981c8956a6ddf252ad1be2c89b69c2b068fc378daa952ba7f163c4a11628f55a4df523b3efa264697066735822122004ef4125c84a15f8b9b514e5d335bf261bbf52b7ea59f0d42ee8ecb6fa73f4a664736f6c63430008110033",
  "linkReferences": {},
  "deployedLinkReferences": {}
}