{
  "_format": "hh-sol-artifact-1",
  "contractName": "POAPUpgradeable",
  "sourceName": "contracts/token/erc721/POAPUpgradeable.sol",
  "abi": [
    {
      "anonymous": false,
      "inputs": [
        {
          "indexed": true,
          "internalType": "address",
          "name": "owner",
          "type": "address"
        },
        {
          "indexed": true,
          "internalType": "address",
          "name": "approved",
          "type": "address"
        },
        {
          "indexed": true,
          "internalType": "uint256",
          "name": "tokenId",
          "type": "uint256"
        }
      ],
      "name": "Approval",
      "type": "event"
    },
    {
      "anonymous": false,
      "inputs": [
        {
          "indexed": true,
          "internalType": "address",
          "name": "owner",
          "type": "address"
        },
        {
          "indexed": true,
          "internalType": "address",
          "name": "operator",
          "type": "address"
        },
        {
          "indexed": false,
          "internalType": "bool",
          "name": "approved",
          "type": "bool"
        }
      ],
      "name": "ApprovalForAll",
      "type": "event"
    },
    {
      "anonymous": false,
      "inputs": [
        {
          "indexed": false,
          "internalType": "uint8",
          "name": "version",
          "type": "uint8"
        }
      ],
      "name": "Initialized",
      "type": "event"
    },
    {
      "anonymous": false,
      "inputs": [
        {
          "indexed": true,
          "internalType": "address",
          "name": "previousOwner",
          "type": "address"
        },
        {
          "indexed": true,
          "internalType": "address",
          "name": "newOwner",
          "type": "address"
        }
      ],
      "name": "OwnershipTransferred",
      "type": "event"
    },
    {
      "anonymous": false,
      "inputs": [
        {
          "indexed": false,
          "internalType": "address",
          "name": "sender",
          "type": "address"
        },
        {
          "indexed": false,
          "internalType": "address",
          "name": "operator",
          "type": "address"
        },
        {
          "indexed": false,
          "internalType": "bool",
          "name": "approved",
          "type": "bool"
        }
      ],
      "name": "ProxyApproval",
      "type": "event"
    },
    {
      "anonymous": false,
      "inputs": [
        {
          "indexed": true,
          "internalType": "bytes32",
          "name": "role",
          "type": "bytes32"
        },
        {
          "indexed": true,
          "internalType": "bytes32",
          "name": "previousAdminRole",
          "type": "bytes32"
        },
        {
          "indexed": true,
          "internalType": "bytes32",
          "name": "newAdminRole",
          "type": "bytes32"
        }
      ],
      "name": "RoleAdminChanged",
      "type": "event"
    },
    {
      "anonymous": false,
      "inputs": [
        {
          "indexed": true,
          "internalType": "bytes32",
          "name": "role",
          "type": "bytes32"
        },
        {
          "indexed": true,
          "internalType": "address",
          "name": "account",
          "type": "address"
        },
        {
          "indexed": true,
          "internalType": "address",
          "name": "sender",
          "type": "address"
        }
      ],
      "name": "RoleGranted",
      "type": "event"
    },
    {
      "anonymous": false,
      "inputs": [
        {
          "indexed": true,
          "internalType": "bytes32",
          "name": "role",
          "type": "bytes32"
        },
        {
          "indexed": true,
          "internalType": "address",
          "name": "account",
          "type": "address"
        },
        {
          "indexed": true,
          "internalType": "address",
          "name": "sender",
          "type": "address"
        }
      ],
      "name": "RoleRevoked",
      "type": "event"
    },
    {
      "anonymous": false,
      "inputs": [
        {
          "indexed": true,
          "internalType": "address",
          "name": "from",
          "type": "address"
        },
        {
          "indexed": true,
          "internalType": "address",
          "name": "to",
          "type": "address"
        },
        {
          "indexed": true,
          "internalType": "uint256",
          "name": "tokenId",
          "type": "uint256"
        }
      ],
      "name": "Transfer",
      "type": "event"
    },
    {
      "inputs": [],
      "name": "DEFAULT_ADMIN_ROLE",
      "outputs": [
        {
          "internalType": "bytes32",
          "name": "",
          "type": "bytes32"
        }
      ],
      "stateMutability": "view",
      "type": "function"
    },
    {
      "inputs": [],
      "name": "MINTER_ROLE",
      "outputs": [
        {
          "internalType": "bytes32",
          "name": "",
          "type": "bytes32"
        }
      ],
      "stateMutability": "view",
      "type": "function"
    },
    {
      "inputs": [
        {
          "internalType": "address",
          "name": "account",
          "type": "address"
        }
      ],
      "name": "addMinter",
      "outputs": [],
      "stateMutability": "nonpayable",
      "type": "function"
    },
    {
      "inputs": [
        {
          "internalType": "address",
          "name": "_addr",
          "type": "address"
        }
      ],
      "name": "addressToBytes32",
      "outputs": [
        {
          "internalType": "bytes32",
          "name": "",
          "type": "bytes32"
        }
      ],
      "stateMutability": "pure",
      "type": "function"
    },
    {
      "inputs": [
        {
          "internalType": "address",
          "name": "to",
          "type": "address"
        },
        {
          "internalType": "uint256",
          "name": "tokenId",
          "type": "uint256"
        }
      ],
      "name": "approve",
      "outputs": [],
      "stateMutability": "nonpayable",
      "type": "function"
    },
    {
      "inputs": [
        {
          "internalType": "address",
          "name": "owner",
          "type": "address"
        }
      ],
      "name": "balanceOf",
      "outputs": [
        {
          "internalType": "uint256",
          "name": "",
          "type": "uint256"
        }
      ],
      "stateMutability": "view",
      "type": "function"
    },
    {
      "inputs": [
        {
          "internalType": "uint256",
          "name": "id",
          "type": "uint256"
        }
      ],
      "name": "burn",
      "outputs": [],
      "stateMutability": "nonpayable",
      "type": "function"
    },
    {
      "inputs": [
        {
          "internalType": "bytes32",
          "name": "_b32",
          "type": "bytes32"
        }
      ],
      "name": "bytes32ToAddress",
      "outputs": [
        {
          "internalType": "address",
          "name": "",
          "type": "address"
        }
      ],
      "stateMutability": "pure",
      "type": "function"
    },
    {
      "inputs": [
        {
          "internalType": "uint256[]",
          "name": "_amounts",
          "type": "uint256[]"
        }
      ],
      "name": "calculateTotalAmount",
      "outputs": [
        {
          "internalType": "uint256",
          "name": "",
          "type": "uint256"
        }
      ],
      "stateMutability": "pure",
      "type": "function"
    },
    {
      "inputs": [],
      "name": "contractURI",
      "outputs": [
        {
          "internalType": "string",
          "name": "",
          "type": "string"
        }
      ],
      "stateMutability": "view",
      "type": "function"
    },
    {
      "inputs": [
        {
          "internalType": "uint256",
          "name": "tokenId",
          "type": "uint256"
        }
      ],
      "name": "getApproved",
      "outputs": [
        {
          "internalType": "address",
          "name": "",
          "type": "address"
        }
      ],
      "stateMutability": "view",
      "type": "function"
    },
    {
      "inputs": [],
      "name": "getCurrentBlockNumber",
      "outputs": [
        {
          "internalType": "uint256",
          "name": "",
          "type": "uint256"
        }
      ],
      "stateMutability": "view",
      "type": "function"
    },
    {
      "inputs": [],
      "name": "getNvmConfigAddress",
      "outputs": [
        {
          "internalType": "address",
          "name": "",
          "type": "address"
        }
      ],
      "stateMutability": "view",
      "type": "function"
    },
    {
      "inputs": [
        {
          "internalType": "bytes32",
          "name": "role",
          "type": "bytes32"
        }
      ],
      "name": "getRoleAdmin",
      "outputs": [
        {
          "internalType": "bytes32",
          "name": "",
          "type": "bytes32"
        }
      ],
      "stateMutability": "view",
      "type": "function"
    },
    {
      "inputs": [],
      "name": "getTrustedForwarder",
      "outputs": [
        {
          "internalType": "address",
          "name": "",
          "type": "address"
        }
      ],
      "stateMutability": "view",
      "type": "function"
    },
    {
      "inputs": [
        {
          "internalType": "bytes32",
          "name": "role",
          "type": "bytes32"
        },
        {
          "internalType": "address",
          "name": "account",
          "type": "address"
        }
      ],
      "name": "grantRole",
      "outputs": [],
      "stateMutability": "nonpayable",
      "type": "function"
    },
    {
      "inputs": [
        {
          "internalType": "bytes32",
          "name": "role",
          "type": "bytes32"
        },
        {
          "internalType": "address",
          "name": "account",
          "type": "address"
        }
      ],
      "name": "hasRole",
      "outputs": [
        {
          "internalType": "bool",
          "name": "",
          "type": "bool"
        }
      ],
      "stateMutability": "view",
      "type": "function"
    },
    {
      "inputs": [],
      "name": "initialize",
      "outputs": [],
      "stateMutability": "nonpayable",
      "type": "function"
    },
    {
      "inputs": [
        {
          "internalType": "string",
          "name": "name",
          "type": "string"
        },
        {
          "internalType": "string",
          "name": "symbol",
          "type": "string"
        },
        {
          "internalType": "string",
          "name": "uri",
          "type": "string"
        }
      ],
      "name": "initializeWithName",
      "outputs": [],
      "stateMutability": "nonpayable",
      "type": "function"
    },
    {
      "inputs": [
        {
          "internalType": "address",
          "name": "account",
          "type": "address"
        },
        {
          "internalType": "address",
          "name": "operator",
          "type": "address"
        }
      ],
      "name": "isApprovedForAll",
      "outputs": [
        {
          "internalType": "bool",
          "name": "",
          "type": "bool"
        }
      ],
      "stateMutability": "view",
      "type": "function"
    },
    {
      "inputs": [
        {
          "internalType": "address",
          "name": "addr",
          "type": "address"
        }
      ],
      "name": "isContract",
      "outputs": [
        {
          "internalType": "bool",
          "name": "",
          "type": "bool"
        }
      ],
      "stateMutability": "view",
      "type": "function"
    },
    {
      "inputs": [
        {
          "internalType": "address",
          "name": "forwarder",
          "type": "address"
        }
      ],
      "name": "isTrustedForwarder",
      "outputs": [
        {
          "internalType": "bool",
          "name": "",
          "type": "bool"
        }
      ],
      "stateMutability": "view",
      "type": "function"
    },
    {
      "inputs": [
        {
          "internalType": "address",
          "name": "to",
          "type": "address"
        },
        {
          "internalType": "uint256",
          "name": "id",
          "type": "uint256"
        }
      ],
      "name": "mint",
      "outputs": [],
      "stateMutability": "nonpayable",
      "type": "function"
    },
    {
      "inputs": [
        {
          "internalType": "address",
          "name": "to",
          "type": "address"
        },
        {
          "internalType": "string",
          "name": "uri",
          "type": "string"
        },
        {
          "internalType": "uint256",
          "name": "eventId",
          "type": "uint256"
        }
      ],
      "name": "mint",
      "outputs": [],
      "stateMutability": "nonpayable",
      "type": "function"
    },
    {
      "inputs": [],
      "name": "name",
      "outputs": [
        {
          "internalType": "string",
          "name": "",
          "type": "string"
        }
      ],
      "stateMutability": "view",
      "type": "function"
    },
    {
      "inputs": [],
      "name": "nvmConfig",
      "outputs": [
        {
          "internalType": "address",
          "name": "",
          "type": "address"
        }
      ],
      "stateMutability": "view",
      "type": "function"
    },
    {
      "inputs": [],
      "name": "owner",
      "outputs": [
        {
          "internalType": "address",
          "name": "",
          "type": "address"
        }
      ],
      "stateMutability": "view",
      "type": "function"
    },
    {
      "inputs": [
        {
          "internalType": "uint256",
          "name": "tokenId",
          "type": "uint256"
        }
      ],
      "name": "ownerOf",
      "outputs": [
        {
          "internalType": "address",
          "name": "",
          "type": "address"
        }
      ],
      "stateMutability": "view",
      "type": "function"
    },
    {
      "inputs": [
        {
          "internalType": "address",
          "name": "_agentId",
          "type": "address"
        },
        {
          "internalType": "bytes32",
          "name": "_hash",
          "type": "bytes32"
        },
        {
          "internalType": "bytes",
          "name": "_signature",
          "type": "bytes"
        }
      ],
      "name": "provenanceSignatureIsCorrect",
      "outputs": [
        {
          "internalType": "bool",
          "name": "",
          "type": "bool"
        }
      ],
      "stateMutability": "pure",
      "type": "function"
    },
    {
      "inputs": [],
      "name": "renounceOwnership",
      "outputs": [],
      "stateMutability": "nonpayable",
      "type": "function"
    },
    {
      "inputs": [
        {
          "internalType": "bytes32",
          "name": "role",
          "type": "bytes32"
        },
        {
          "internalType": "address",
          "name": "account",
          "type": "address"
        }
      ],
      "name": "renounceRole",
      "outputs": [],
      "stateMutability": "nonpayable",
      "type": "function"
    },
    {
      "inputs": [
        {
          "internalType": "bytes32",
          "name": "role",
          "type": "bytes32"
        },
        {
          "internalType": "address",
          "name": "account",
          "type": "address"
        }
      ],
      "name": "revokeRole",
      "outputs": [],
      "stateMutability": "nonpayable",
      "type": "function"
    },
    {
      "inputs": [
        {
          "internalType": "uint256",
          "name": "tokenId",
          "type": "uint256"
        },
        {
          "internalType": "uint256",
          "name": "value",
          "type": "uint256"
        }
      ],
      "name": "royaltyInfo",
      "outputs": [
        {
          "internalType": "address",
          "name": "receiver",
          "type": "address"
        },
        {
          "internalType": "uint256",
          "name": "royaltyAmount",
          "type": "uint256"
        }
      ],
      "stateMutability": "view",
      "type": "function"
    },
    {
      "inputs": [
        {
          "internalType": "address",
          "name": "from",
          "type": "address"
        },
        {
          "internalType": "address",
          "name": "to",
          "type": "address"
        },
        {
          "internalType": "uint256",
          "name": "tokenId",
          "type": "uint256"
        }
      ],
      "name": "safeTransferFrom",
      "outputs": [],
      "stateMutability": "nonpayable",
      "type": "function"
    },
    {
      "inputs": [
        {
          "internalType": "address",
          "name": "from",
          "type": "address"
        },
        {
          "internalType": "address",
          "name": "to",
          "type": "address"
        },
        {
          "internalType": "uint256",
          "name": "tokenId",
          "type": "uint256"
        },
        {
          "internalType": "bytes",
          "name": "data",
          "type": "bytes"
        }
      ],
      "name": "safeTransferFrom",
      "outputs": [],
      "stateMutability": "nonpayable",
      "type": "function"
    },
    {
      "inputs": [
        {
          "internalType": "address",
          "name": "operator",
          "type": "address"
        },
        {
          "internalType": "bool",
          "name": "approved",
          "type": "bool"
        }
      ],
      "name": "setApprovalForAll",
      "outputs": [],
      "stateMutability": "nonpayable",
      "type": "function"
    },
    {
      "inputs": [
        {
          "internalType": "string",
          "name": "_uri",
          "type": "string"
        }
      ],
      "name": "setContractMetadataUri",
      "outputs": [],
      "stateMutability": "nonpayable",
      "type": "function"
    },
    {
      "inputs": [
        {
          "internalType": "uint256",
          "name": "tokenId",
          "type": "uint256"
        },
        {
          "internalType": "string",
          "name": "nftURI",
          "type": "string"
        }
      ],
      "name": "setNFTMetadata",
      "outputs": [],
      "stateMutability": "nonpayable",
      "type": "function"
    },
    {
      "inputs": [
        {
          "internalType": "address",
          "name": "_addr",
          "type": "address"
        }
      ],
      "name": "setNvmConfigAddress",
      "outputs": [],
      "stateMutability": "nonpayable",
      "type": "function"
    },
    {
      "inputs": [
        {
          "internalType": "address",
          "name": "operator",
          "type": "address"
        },
        {
          "internalType": "bool",
          "name": "approved",
          "type": "bool"
        }
      ],
      "name": "setProxyApproval",
      "outputs": [],
      "stateMutability": "nonpayable",
      "type": "function"
    },
    {
      "inputs": [
        {
          "internalType": "uint256",
          "name": "tokenId",
          "type": "uint256"
        },
        {
          "internalType": "address",
          "name": "receiver",
          "type": "address"
        },
        {
          "internalType": "uint256",
          "name": "royaltyAmount",
          "type": "uint256"
        }
      ],
      "name": "setTokenRoyalty",
      "outputs": [],
      "stateMutability": "nonpayable",
      "type": "function"
    },
    {
      "inputs": [
        {
          "internalType": "bytes4",
          "name": "interfaceId",
          "type": "bytes4"
        }
      ],
      "name": "supportsInterface",
      "outputs": [
        {
          "internalType": "bool",
          "name": "",
          "type": "bool"
        }
      ],
      "stateMutability": "view",
      "type": "function"
    },
    {
      "inputs": [],
      "name": "symbol",
      "outputs": [
        {
          "internalType": "string",
          "name": "",
          "type": "string"
        }
      ],
      "stateMutability": "view",
      "type": "function"
    },
    {
      "inputs": [
        {
          "internalType": "uint256",
          "name": "index",
          "type": "uint256"
        }
      ],
      "name": "tokenByIndex",
      "outputs": [
        {
          "internalType": "uint256",
          "name": "",
          "type": "uint256"
        }
      ],
      "stateMutability": "view",
      "type": "function"
    },
    {
      "inputs": [
        {
          "internalType": "address",
          "name": "owner",
          "type": "address"
        }
      ],
      "name": "tokenDetailsOfOwner",
      "outputs": [
        {
          "internalType": "uint256[]",
          "name": "tokenIds",
          "type": "uint256[]"
        },
        {
          "internalType": "uint256[]",
          "name": "eventIds",
          "type": "uint256[]"
        }
      ],
      "stateMutability": "view",
      "type": "function"
    },
    {
      "inputs": [
        {
          "internalType": "uint256",
          "name": "tokenId",
          "type": "uint256"
        }
      ],
      "name": "tokenEvent",
      "outputs": [
        {
          "internalType": "uint256",
          "name": "",
          "type": "uint256"
        }
      ],
      "stateMutability": "view",
      "type": "function"
    },
    {
      "inputs": [
        {
          "internalType": "address",
          "name": "owner",
          "type": "address"
        },
        {
          "internalType": "uint256",
          "name": "index",
          "type": "uint256"
        }
      ],
      "name": "tokenOfOwnerByIndex",
      "outputs": [
        {
          "internalType": "uint256",
          "name": "",
          "type": "uint256"
        }
      ],
      "stateMutability": "view",
      "type": "function"
    },
    {
      "inputs": [
        {
          "internalType": "uint256",
          "name": "tokenId",
          "type": "uint256"
        }
      ],
      "name": "tokenURI",
      "outputs": [
        {
          "internalType": "string",
          "name": "",
          "type": "string"
        }
      ],
      "stateMutability": "view",
      "type": "function"
    },
    {
      "inputs": [],
      "name": "totalSupply",
      "outputs": [
        {
          "internalType": "uint256",
          "name": "",
          "type": "uint256"
        }
      ],
      "stateMutability": "view",
      "type": "function"
    },
    {
      "inputs": [
        {
          "internalType": "address",
          "name": "from",
          "type": "address"
        },
        {
          "internalType": "address",
          "name": "to",
          "type": "address"
        },
        {
          "internalType": "uint256",
          "name": "tokenId",
          "type": "uint256"
        }
      ],
      "name": "transferFrom",
      "outputs": [],
      "stateMutability": "nonpayable",
      "type": "function"
    },
    {
      "inputs": [
        {
          "internalType": "address",
          "name": "newOwner",
          "type": "address"
        }
      ],
      "name": "transferOwnership",
      "outputs": [],
      "stateMutability": "nonpayable",
      "type": "function"
    }
  ],
  "bytecode": "0x608060405234801561001057600080fd5b5061351c806100206000396000f3fe608060405234801561001057600080fd5b50600436106102515760003560e01c806301ffc9a71461025657806302acb9a61461027e57806306fdde0314610293578063081812fc146102a8578063095ea7b3146102d35780631187bc52146102e6578063127a5298146102f9578063162790551461032857806318160ddd1461033c578063237c49191461034557806323b872dd14610358578063248a9ca31461036b5780632a55205a1461037e5780632f2ff15d146103b05780632f745c59146103c357806336568abe146103d657806340c10f19146103e957806342842e0e146103fc57806342966c681461040f5780634f5e32e4146104225780634f6ccce714610443578063572b6c05146104565780635ced058e146104695780635ea3ab851461047a5780636352211e1461048d5780636fd902e1146104a057806370a08231146104a6578063715018a6146104b95780638129fc1c146104c157806382c947b7146104c95780638da5cb5b146104e357806391d14854146104eb57806395d89b41146104fe5780639713c80714610506578063983b2d5614610519578063a190aff41461052c578063a217fddf1461053f578063a22cb46514610547578063ab9de2301461055a578063b88d4fde14610562578063ba7aef4314610575578063c87b56dd14610588578063ce1b815f1461059b578063d2423105146105a3578063d416a27d146105b6578063d5391393146105c9578063d547741f146105de578063e8a3d485146105f1578063e985e9c5146105f9578063e9c1e0451461060c578063f2fde38b14610620575b600080fd5b610269610264366004612ac7565b610633565b60405190151581526020015b60405180910390f35b61029161028c366004612af9565b610644565b005b61029b61066f565b6040516102759190612b6e565b6102bb6102b6366004612b81565b610701565b6040516001600160a01b039091168152602001610275565b6102916102e1366004612b9a565b610728565b6102916102f4366004612c7b565b610855565b61031a610307366004612b81565b6000908152610166602052604090205490565b604051908152602001610275565b610269610336366004612af9565b3b151590565b6101355461031a565b610291610353366004612d02565b610971565b610291610366366004612d3e565b6109b5565b61031a610379366004612b81565b6109ed565b61039161038c366004612d7f565b610a02565b604080516001600160a01b039093168352602083019190915201610275565b6102916103be366004612da1565b610a58565b61031a6103d1366004612b9a565b610a74565b6102916103e4366004612da1565b610b0b565b6102916103f7366004612b9a565b610b95565b61029161040a366004612d3e565b610baf565b61029161041d366004612b81565b610bca565b610435610430366004612af9565b610c69565b604051610275929190612e0c565b61031a610451366004612b81565b610da3565b610269610464366004612af9565b610e38565b6102bb610477366004612b81565b90565b61031a610488366004612e3a565b610e5d565b6102bb61049b366004612b81565b610eac565b4361031a565b61031a6104b4366004612af9565b610ee1565b610291610f67565b610291610f7b565b61031a6104d7366004612af9565b6001600160a01b031690565b6102bb6110a3565b6102696104f9366004612da1565b6110b2565b61029b6110dd565b610291610514366004612edf565b6110ec565b610291610527366004612af9565b61112d565b61026961053a366004612f06565b61114d565b61031a600081565b610291610555366004612f54565b611175565b6102bb611187565b610291610570366004612f87565b611197565b610291610583366004612ff2565b6111d0565b61029b610596366004612b81565b611272565b6102bb61127d565b6102916105b136600461304a565b611317565b6102916105c4366004612f54565b611332565b61031a6000805160206134a783398151915281565b6102916105ec366004612da1565b6113b6565b61029b6113d2565b61026961060736600461307e565b6113e1565b610100546102bb906001600160a01b031681565b61029161062e366004612af9565b6113f4565b600061063e8261146a565b92915050565b61064c61148f565b61010080546001600160a01b0319166001600160a01b0392909216919091179055565b60606097805461067e906130ac565b80601f01602080910402602001604051908101604052809291908181526020018280546106aa906130ac565b80156106f75780601f106106cc576101008083540402835291602001916106f7565b820191906000526020600020905b8154815290600101906020018083116106da57829003601f168201915b5050505050905090565b600061070c826114fe565b506000908152609b60205260409020546001600160a01b031690565b600061073382610eac565b9050806001600160a01b0316836001600160a01b031614156107a65760405162461bcd60e51b815260206004820152602160248201527f4552433732313a20617070726f76616c20746f2063757272656e74206f776e656044820152603960f91b60648201526084015b60405180910390fd5b806001600160a01b03166107b8611523565b6001600160a01b031614806107d457506107d481610607611523565b6108465760405162461bcd60e51b815260206004820152603e60248201527f4552433732313a20617070726f76652063616c6c6572206973206e6f7420746f60448201527f6b656e206f776e6572206e6f7220617070726f76656420666f7220616c6c0000606482015260840161079d565b6108508383611532565b505050565b600054610100900460ff16158080156108755750600054600160ff909116105b806108965750610884306115a0565b158015610896575060005460ff166001145b6108b25760405162461bcd60e51b815260040161079d906130e7565b6000805460ff1916600117905580156108d5576000805461ff0019166101001790555b6108dd6115af565b6108e56115af565b6108ef84846115d6565b6108f76115af565b6108ff6115af565b610907611624565b61090f6115af565b61092e6000805160206134a7833981519152610929611523565b61165b565b61093782611317565b801561096b576000805461ff0019169055604051600181526000805160206134878339815191529060200160405180910390a15b50505050565b61098b6000805160206134a78339815191526104f9611523565b6109a75760405162461bcd60e51b815260040161079d90613135565b6109b18282611665565b5050565b6109c66109c0611523565b8261169c565b6109e25760405162461bcd60e51b815260040161079d9061315a565b6108508383836116f0565b600090815260c9602052604090206001015490565b600082815260fc60209081526040808320815180830190925280546001600160a01b03168083526001909101549282018390529291606490610a4490866131be565b610a4e91906131dd565b9150509250929050565b610a61826109ed565b610a6a81611885565b6108508383611896565b6000610a7f83610ee1565b8210610ae15760405162461bcd60e51b815260206004820152602b60248201527f455243373231456e756d657261626c653a206f776e657220696e646578206f7560448201526a74206f6620626f756e647360a81b606482015260840161079d565b506001600160a01b0391909116600090815261013360209081526040808320938352929052205490565b610b13611523565b6001600160a01b0316816001600160a01b031614610b8b5760405162461bcd60e51b815260206004820152602f60248201527f416363657373436f6e74726f6c3a2063616e206f6e6c792072656e6f756e636560448201526e103937b632b9903337b91039b2b63360891b606482015260840161079d565b6109b1828261191d565b6109b18260405180602001604052806000815250836111d0565b61085083838360405180602001604052806000815250611197565b610be46000805160206134a78339815191526104f9611523565b80610bf957506000610bf76104b4611523565b115b610c5d5760405162461bcd60e51b815260206004820152602f60248201527f4552433732313a2063616c6c6572206973206e6f74206f776e6572206f72206e60448201526e6f7420686176652062616c616e636560881b606482015260840161079d565b610c66816119a2565b50565b6060806000610c7784610ee1565b90506000816001600160401b03811115610c9357610c93612bc6565b604051908082528060200260200182016040528015610cbc578160200160208202803683370190505b5090506000826001600160401b03811115610cd957610cd9612bc6565b604051908082528060200260200182016040528015610d02578160200160208202803683370190505b50905060005b83811015610d9757610d1a8782610a74565b838281518110610d2c57610d2c6131ff565b602002602001018181525050610d68838281518110610d4d57610d4d6131ff565b60200260200101516000908152610166602052604090205490565b828281518110610d7a57610d7a6131ff565b602090810291909101015280610d8f81613215565b915050610d08565b50909590945092505050565b6000610daf6101355490565b8210610e125760405162461bcd60e51b815260206004820152602c60248201527f455243373231456e756d657261626c653a20676c6f62616c20696e646578206f60448201526b7574206f6620626f756e647360a01b606482015260840161079d565b6101358281548110610e2657610e266131ff565b90600052602060002001549050919050565b6000610e4261127d565b6001600160a01b0316826001600160a01b0316149050919050565b60008060005b8351811015610ea557838181518110610e7e57610e7e6131ff565b602002602001015182610e919190613230565b915080610e9d81613215565b915050610e63565b5092915050565b6000818152609960205260408120546001600160a01b03168061063e5760405162461bcd60e51b815260040161079d90613248565b60006001600160a01b038216610f4b5760405162461bcd60e51b815260206004820152602960248201527f4552433732313a2061646472657373207a65726f206973206e6f7420612076616044820152683634b21037bbb732b960b91b606482015260840161079d565b506001600160a01b03166000908152609a602052604090205490565b610f6f61148f565b610f7960006119ab565b565b600054610100900460ff1615808015610f9b5750600054600160ff909116105b80610fbc5750610faa306115a0565b158015610fbc575060005460ff166001145b610fd85760405162461bcd60e51b815260040161079d906130e7565b6000805460ff191660011790558015610ffb576000805461ff0019166101001790555b6110036115af565b61100b6115af565b61103360405180602001604052806000815250604051806020016040528060008152506115d6565b61103b6115af565b6110436115af565b61104b611624565b6110536115af565b61106d6000805160206134a7833981519152610929611523565b8015610c66576000805461ff0019169055604051600181526000805160206134878339815191529060200160405180910390a150565b6033546001600160a01b031690565b600091825260c9602090815260408084206001600160a01b0393909316845291905290205460ff1690565b60606098805461067e906130ac565b6111066000805160206134a78339815191526104f9611523565b6111225760405162461bcd60e51b815260040161079d90613135565b6108508383836119fd565b61113561148f565b610c666000805160206134a78339815191528261165b565b6000836001600160a01b03166111638484611a95565b6001600160a01b031614949350505050565b6109b1611180611523565b8383611ab9565b610100546001600160a01b031690565b6111a86111a2611523565b8361169c565b6111c45760405162461bcd60e51b815260040161079d9061315a565b61096b84848484611b84565b6111ea6000805160206134a78339815191526104f9611523565b61122d5760405162461bcd60e51b81526020600482015260146024820152731bdb9b1e481b5a5b9d195c8818d85b881b5a5b9d60621b604482015260640161079d565b60006112396101655490565b905061124a61016580546001019055565b6112548482611bb7565b61125e8184611bd1565b600090815261016660205260409020555050565b606061063e82611c5d565b600080611288611187565b90506001600160a01b0381166112a057600091505090565b806001600160a01b031663ce1b815f6040518163ffffffff1660e01b815260040160206040518083038186803b1580156112d957600080fd5b505afa1580156112ed573d6000803e3d6000fd5b505050506040513d601f19601f82011682018060405250810190611311919061327a565b91505090565b61131f61148f565b80516109b19060ff9060208401906129e2565b61133a61148f565b6001600160a01b038216600090815260fb60205260409020805460ff19168215151790557f54a2d072b66160727a2315e14c742bbb303a32e6dee78d245f1fccf8c94cc419611387611523565b604080516001600160a01b03928316815291851660208301528315159082015260600160405180910390a15050565b6113bf826109ed565b6113c881611885565b610850838361191d565b606060ff805461067e906130ac565b60006113ed8383611d67565b9392505050565b6113fc61148f565b6001600160a01b0381166114615760405162461bcd60e51b815260206004820152602660248201527f4f776e61626c653a206e6577206f776e657220697320746865207a65726f206160448201526564647265737360d01b606482015260840161079d565b610c66816119ab565b60006001600160e01b0319821663780e9d6360e01b148061063e575061063e82611db9565b611497611523565b6001600160a01b03166114a86110a3565b6001600160a01b031614610f795760405162461bcd60e51b815260206004820181905260248201527f4f776e61626c653a2063616c6c6572206973206e6f7420746865206f776e6572604482015260640161079d565b61150781611df3565b610c665760405162461bcd60e51b815260040161079d90613248565b600061152d611e10565b905090565b6000818152609b6020526040902080546001600160a01b0319166001600160a01b038416908117909155819061156782610eac565b6001600160a01b03167f8c5be1e5ebec7d5bd14f71427d1e84f3dd0314c0f7b2291e5b200ac8c7c3b92560405160405180910390a45050565b6001600160a01b03163b151590565b600054610100900460ff16610f795760405162461bcd60e51b815260040161079d90613297565b600054610100900460ff166115fd5760405162461bcd60e51b815260040161079d90613297565b81516116109060979060208501906129e2565b5080516108509060989060208401906129e2565b600054610100900460ff1661164b5760405162461bcd60e51b815260040161079d90613297565b610f79611656611523565b6119ab565b6109b18282611896565b6040805160208082018352838252600085815260fd825292909220815180519293919261169592849201906129e2565b5050505050565b6000806116a883610eac565b9050806001600160a01b0316846001600160a01b031614806116cf57506116cf81856113e1565b806116e85750836001600160a01b031661116384610701565b949350505050565b826001600160a01b031661170382610eac565b6001600160a01b0316146117675760405162461bcd60e51b815260206004820152602560248201527f4552433732313a207472616e736665722066726f6d20696e636f72726563742060448201526437bbb732b960d91b606482015260840161079d565b6001600160a01b0382166117c95760405162461bcd60e51b8152602060048201526024808201527f4552433732313a207472616e7366657220746f20746865207a65726f206164646044820152637265737360e01b606482015260840161079d565b6117d4838383611e3e565b6117df600082611532565b6001600160a01b0383166000908152609a602052604081208054600192906118089084906132e2565b90915550506001600160a01b0382166000908152609a60205260408120805460019290611836908490613230565b909155505060008181526099602052604080822080546001600160a01b0319166001600160a01b0386811691821790925591518493918716916000805160206134c783398151915291a4505050565b610c6681611891611523565b611e49565b6118a082826110b2565b6109b157600082815260c9602090815260408083206001600160a01b03851684529091529020805460ff191660011790556118d9611523565b6001600160a01b0316816001600160a01b0316837f2f8788117e7eff1d82e926ec794901d17c78024a50270940304540a733656f0d60405160405180910390a45050565b61192782826110b2565b156109b157600082815260c9602090815260408083206001600160a01b03851684529091529020805460ff1916905561195e611523565b6001600160a01b0316816001600160a01b0316837ff6391f5c32d9c69d2a47ea670b442974b53935d1edc7fd64eb21e047a839171b60405160405180910390a45050565b610c6681611ead565b603380546001600160a01b038381166001600160a01b0319831681179093556040519116919082907f8be0079c531659141344cd1fd0a4f28419497f9722a3daafe3b4186f6b6457e090600090a35050565b620f4240811115611a4d5760405162461bcd60e51b815260206004820152601a60248201527908aa48664727062a4def2c2d8e8d2cae67440a8dede40d0d2ced60331b604482015260640161079d565b6040805180820182526001600160a01b0393841681526020808201938452600095865260fc90529320925183546001600160a01b031916921691909117825551600190910155565b6000806000611aa48585611eef565b91509150611ab181611f35565b509392505050565b816001600160a01b0316836001600160a01b03161415611b175760405162461bcd60e51b815260206004820152601960248201527822a9219b99189d1030b8383937bb32903a379031b0b63632b960391b604482015260640161079d565b6001600160a01b038381166000818152609c6020908152604080832094871680845294825291829020805460ff191686151590811790915591519182527f17307eab39ab6107e8899845ad3d59bd9653f200f220920489ca2b5937696c31910160405180910390a3505050565b611b8f8484846116f0565b611b9b848484846120eb565b61096b5760405162461bcd60e51b815260040161079d906132f9565b6109b1828260405180602001604052806000815250612206565b611bda82611df3565b611c3d5760405162461bcd60e51b815260206004820152602e60248201527f45524337323155524953746f726167653a2055524920736574206f66206e6f6e60448201526d32bc34b9ba32b73a103a37b5b2b760911b606482015260840161079d565b6000828152610101602090815260409091208251610850928401906129e2565b6060611c68826114fe565b6000828152610101602052604081208054611c82906130ac565b80601f0160208091040260200160405190810160405280929190818152602001828054611cae906130ac565b8015611cfb5780601f10611cd057610100808354040283529160200191611cfb565b820191906000526020600020905b815481529060010190602001808311611cde57829003601f168201915b505050505090506000611d1960408051602081019091526000815290565b9050805160001415611d2c575092915050565b815115611d5e578082604051602001611d4692919061334b565b60405160208183030381529060405292505050919050565b6116e884612239565b6001600160a01b038083166000908152609c6020908152604080832093851683529290529081205460ff16806113ed5750506001600160a01b0316600090815260fb602052604090205460ff16919050565b6000611dc4826122db565b80611dd35750611dd3826122fc565b8061063e57506001600160e01b0319821663152a902d60e11b1492915050565b6000908152609960205260409020546001600160a01b0316151590565b600060143610801590611e275750611e2733610e38565b15611e39575060131936013560601c90565b503390565b61085083838361234c565b611e5382826110b2565b6109b157611e6b816001600160a01b03166014612406565b611e76836020612406565b604051602001611e8792919061337a565b60408051601f198184030181529082905262461bcd60e51b825261079d91600401612b6e565b611eb6816125a1565b6000818152610101602052604090208054611ed0906130ac565b159050610c6657600081815261010160205260408120610c6691612a66565b600080825160411415611f265760208301516040840151606085015160001a611f1a87828585612636565b94509450505050611f2e565b506000905060025b9250929050565b6000816004811115611f4957611f496133e9565b1415611f525750565b6001816004811115611f6657611f666133e9565b1415611faf5760405162461bcd60e51b815260206004820152601860248201527745434453413a20696e76616c6964207369676e617475726560401b604482015260640161079d565b6002816004811115611fc357611fc36133e9565b14156120115760405162461bcd60e51b815260206004820152601f60248201527f45434453413a20696e76616c6964207369676e6174757265206c656e67746800604482015260640161079d565b6003816004811115612025576120256133e9565b141561207e5760405162461bcd60e51b815260206004820152602260248201527f45434453413a20696e76616c6964207369676e6174757265202773272076616c604482015261756560f01b606482015260840161079d565b6004816004811115612092576120926133e9565b1415610c665760405162461bcd60e51b815260206004820152602260248201527f45434453413a20696e76616c6964207369676e6174757265202776272076616c604482015261756560f01b606482015260840161079d565b60006120ff846001600160a01b03166115a0565b156121fb57836001600160a01b031663150b7a0261211b611523565b8786866040518563ffffffff1660e01b815260040161213d94939291906133ff565b602060405180830381600087803b15801561215757600080fd5b505af1925050508015612187575060408051601f3d908101601f191682019092526121849181019061343c565b60015b6121e1573d8080156121b5576040519150601f19603f3d011682016040523d82523d6000602084013e6121ba565b606091505b5080516121d95760405162461bcd60e51b815260040161079d906132f9565b805181602001fd5b6001600160e01b031916630a85bd0160e11b1490506116e8565b506001949350505050565b6122108383612719565b61221d60008484846120eb565b6108505760405162461bcd60e51b815260040161079d906132f9565b600081815260fd60205260409020805460609190612256906130ac565b80601f0160208091040260200160405190810160405280929190818152602001828054612282906130ac565b80156122cf5780601f106122a4576101008083540402835291602001916122cf565b820191906000526020600020905b8154815290600101906020018083116122b257829003601f168201915b50505050509050919050565b60006001600160e01b03198216637965db0b60e01b148061063e575061063e825b60006001600160e01b031982166380ac58cd60e01b148061232d57506001600160e01b03198216635b5e139f60e01b145b8061063e57506301ffc9a760e01b6001600160e01b031983161461063e565b6001600160a01b0383166123a9576123a4816101358054600083815261013660205260408120829055600182018355919091527fdf37d27e88e3bd0b85262482997e409a463f5be0ebb19232abf994dd8474090d0155565b6123cc565b816001600160a01b0316836001600160a01b0316146123cc576123cc8382612845565b6001600160a01b0382166123e357610850816128e7565b826001600160a01b0316826001600160a01b03161461085057610850828261299c565b606060006124158360026131be565b612420906002613230565b6001600160401b0381111561243757612437612bc6565b6040519080825280601f01601f191660200182016040528015612461576020820181803683370190505b509050600360fc1b8160008151811061247c5761247c6131ff565b60200101906001600160f81b031916908160001a905350600f60fb1b816001815181106124ab576124ab6131ff565b60200101906001600160f81b031916908160001a90535060006124cf8460026131be565b6124da906001613230565b90505b6001811115612552576f181899199a1a9b1b9c1cb0b131b232b360811b85600f166010811061250e5761250e6131ff565b1a60f81b828281518110612524576125246131ff565b60200101906001600160f81b031916908160001a90535060049490941c9361254b81613459565b90506124dd565b5083156113ed5760405162461bcd60e51b815260206004820181905260248201527f537472696e67733a20686578206c656e67746820696e73756666696369656e74604482015260640161079d565b60006125ac82610eac565b90506125ba81600084611e3e565b6125c5600083611532565b6001600160a01b0381166000908152609a602052604081208054600192906125ee9084906132e2565b909155505060008281526099602052604080822080546001600160a01b0319169055518391906001600160a01b038416906000805160206134c7833981519152908390a45050565b6000806fa2a8918ca85bafe22016d0b997e4df60600160ff1b038311156126635750600090506003612710565b8460ff16601b1415801561267b57508460ff16601c14155b1561268c5750600090506004612710565b6040805160008082526020820180845289905260ff881692820192909252606081018690526080810185905260019060a0016020604051602081039080840390855afa1580156126e0573d6000803e3d6000fd5b5050604051601f1901519150506001600160a01b03811661270957600060019250925050612710565b9150600090505b94509492505050565b6001600160a01b03821661276f5760405162461bcd60e51b815260206004820181905260248201527f4552433732313a206d696e7420746f20746865207a65726f2061646472657373604482015260640161079d565b61277881611df3565b156127c45760405162461bcd60e51b815260206004820152601c60248201527b115490cdcc8c4e881d1bdad95b88185b1c9958591e481b5a5b9d195960221b604482015260640161079d565b6127d060008383611e3e565b6001600160a01b0382166000908152609a602052604081208054600192906127f9908490613230565b909155505060008181526099602052604080822080546001600160a01b0319166001600160a01b03861690811790915590518392906000805160206134c7833981519152908290a45050565b6000600161285284610ee1565b61285c91906132e2565b600083815261013460205260409020549091508082146128b2576001600160a01b038416600090815261013360209081526040808320858452825280832054848452818420819055835261013490915290208190555b506000918252610134602090815260408084208490556001600160a01b03909416835261013381528383209183525290812055565b610135546000906128fa906001906132e2565b600083815261013660205260408120546101358054939450909284908110612924576129246131ff565b90600052602060002001549050806101358381548110612946576129466131ff565b6000918252602080832090910192909255828152610136909152604080822084905585825281205561013580548061298057612980613470565b6001900381819060005260206000200160009055905550505050565b60006129a783610ee1565b6001600160a01b0390931660009081526101336020908152604080832086845282528083208590559382526101349052919091209190915550565b8280546129ee906130ac565b90600052602060002090601f016020900481019282612a105760008555612a56565b82601f10612a2957805160ff1916838001178555612a56565b82800160010185558215612a56579182015b82811115612a56578251825591602001919060010190612a3b565b50612a62929150612a9c565b5090565b508054612a72906130ac565b6000825580601f10612a82575050565b601f016020900490600052602060002090810190610c6691905b5b80821115612a625760008155600101612a9d565b6001600160e01b031981168114610c6657600080fd5b600060208284031215612ad957600080fd5b81356113ed81612ab1565b6001600160a01b0381168114610c6657600080fd5b600060208284031215612b0b57600080fd5b81356113ed81612ae4565b60005b83811015612b31578181015183820152602001612b19565b8381111561096b5750506000910152565b60008151808452612b5a816020860160208601612b16565b601f01601f19169290920160200192915050565b6020815260006113ed6020830184612b42565b600060208284031215612b9357600080fd5b5035919050565b60008060408385031215612bad57600080fd5b8235612bb881612ae4565b946020939093013593505050565b634e487b7160e01b600052604160045260246000fd5b604051601f8201601f191681016001600160401b0381118282101715612c0457612c04612bc6565b604052919050565b600082601f830112612c1d57600080fd5b81356001600160401b03811115612c3657612c36612bc6565b612c49601f8201601f1916602001612bdc565b818152846020838601011115612c5e57600080fd5b816020850160208301376000918101602001919091529392505050565b600080600060608486031215612c9057600080fd5b83356001600160401b0380821115612ca757600080fd5b612cb387838801612c0c565b94506020860135915080821115612cc957600080fd5b612cd587838801612c0c565b93506040860135915080821115612ceb57600080fd5b50612cf886828701612c0c565b9150509250925092565b60008060408385031215612d1557600080fd5b8235915060208301356001600160401b03811115612d3257600080fd5b610a4e85828601612c0c565b600080600060608486031215612d5357600080fd5b8335612d5e81612ae4565b92506020840135612d6e81612ae4565b929592945050506040919091013590565b60008060408385031215612d9257600080fd5b50508035926020909101359150565b60008060408385031215612db457600080fd5b823591506020830135612dc681612ae4565b809150509250929050565b600081518084526020808501945080840160005b83811015612e0157815187529582019590820190600101612de5565b509495945050505050565b604081526000612e1f6040830185612dd1565b8281036020840152612e318185612dd1565b95945050505050565b60006020808385031215612e4d57600080fd5b82356001600160401b0380821115612e6457600080fd5b818501915085601f830112612e7857600080fd5b813581811115612e8a57612e8a612bc6565b8060051b9150612e9b848301612bdc565b8181529183018401918481019088841115612eb557600080fd5b938501935b83851015612ed357843582529385019390850190612eba565b98975050505050505050565b600080600060608486031215612ef457600080fd5b833592506020840135612d6e81612ae4565b600080600060608486031215612f1b57600080fd5b8335612f2681612ae4565b92506020840135915060408401356001600160401b03811115612f4857600080fd5b612cf886828701612c0c565b60008060408385031215612f6757600080fd5b8235612f7281612ae4565b915060208301358015158114612dc657600080fd5b60008060008060808587031215612f9d57600080fd5b8435612fa881612ae4565b93506020850135612fb881612ae4565b92506040850135915060608501356001600160401b03811115612fda57600080fd5b612fe687828801612c0c565b91505092959194509250565b60008060006060848603121561300757600080fd5b833561301281612ae4565b925060208401356001600160401b0381111561302d57600080fd5b61303986828701612c0c565b925050604084013590509250925092565b60006020828403121561305c57600080fd5b81356001600160401b0381111561307257600080fd5b6116e884828501612c0c565b6000806040838503121561309157600080fd5b823561309c81612ae4565b91506020830135612dc681612ae4565b600181811c908216806130c057607f821691505b602082108114156130e157634e487b7160e01b600052602260045260246000fd5b50919050565b6020808252602e908201527f496e697469616c697a61626c653a20636f6e747261637420697320616c72656160408201526d191e481a5b9a5d1a585b1a5e995960921b606082015260800190565b6020808252600b908201526a37b7363c9036b4b73a32b960a91b604082015260600190565b6020808252602e908201527f4552433732313a2063616c6c6572206973206e6f7420746f6b656e206f776e6560408201526d1c881b9bdc88185c1c1c9bdd995960921b606082015260800190565b634e487b7160e01b600052601160045260246000fd5b60008160001904831182151516156131d8576131d86131a8565b500290565b6000826131fa57634e487b7160e01b600052601260045260246000fd5b500490565b634e487b7160e01b600052603260045260246000fd5b6000600019821415613229576132296131a8565b5060010190565b60008219821115613243576132436131a8565b500190565b602080825260189082015277115490cdcc8c4e881a5b9d985b1a59081d1bdad95b88125160421b604082015260600190565b60006020828403121561328c57600080fd5b81516113ed81612ae4565b6020808252602b908201527f496e697469616c697a61626c653a20636f6e7472616374206973206e6f74206960408201526a6e697469616c697a696e6760a81b606082015260800190565b6000828210156132f4576132f46131a8565b500390565b60208082526032908201527f4552433732313a207472616e7366657220746f206e6f6e20455243373231526560408201527131b2b4bb32b91034b6b83632b6b2b73a32b960711b606082015260800190565b6000835161335d818460208801612b16565b835190830190613371818360208801612b16565b01949350505050565b76020b1b1b2b9b9a1b7b73a3937b61d1030b1b1b7bab73a1604d1b8152600083516133ac816017850160208801612b16565b7001034b99036b4b9b9b4b733903937b6329607d1b60179184019182015283516133dd816028840160208801612b16565b01602801949350505050565b634e487b7160e01b600052602160045260246000fd5b6001600160a01b038581168252841660208201526040810183905260806060820181905260009061343290830184612b42565b9695505050505050565b60006020828403121561344e57600080fd5b81516113ed81612ab1565b600081613468576134686131a8565b506000190190565b634e487b7160e01b600052603160045260246000fdfe7f26b83ff96e1f2b6a682f133852f6798a09c465da95921460cefb38474024989f2df0fed2c77648de5860a4cc508cd0818c85b8b8a1ab4ceeef8d981c8956a6ddf252ad1be2c89b69c2b068fc378daa952ba7f163c4a11628f55a4df523b3efa26469706673582212201264d4c5333fa7db50a0050e681c1674e70bb4ccf73140ad0f50a58eba4e55be64736f6c63430008090033",
  "linkReferences": {},
  "deployedLinkReferences": {}
}