{
  "_format": "hh-sol-artifact-1",
  "contractName": "POAPUpgradeable",
  "sourceName": "contracts/token/erc721/POAPUpgradeable.sol",
  "abi": [
    {
      "anonymous": false,
      "inputs": [
        {
          "indexed": true,
          "internalType": "address",
          "name": "owner",
          "type": "address"
        },
        {
          "indexed": true,
          "internalType": "address",
          "name": "approved",
          "type": "address"
        },
        {
          "indexed": true,
          "internalType": "uint256",
          "name": "tokenId",
          "type": "uint256"
        }
      ],
      "name": "Approval",
      "type": "event"
    },
    {
      "anonymous": false,
      "inputs": [
        {
          "indexed": true,
          "internalType": "address",
          "name": "owner",
          "type": "address"
        },
        {
          "indexed": true,
          "internalType": "address",
          "name": "operator",
          "type": "address"
        },
        {
          "indexed": false,
          "internalType": "bool",
          "name": "approved",
          "type": "bool"
        }
      ],
      "name": "ApprovalForAll",
      "type": "event"
    },
    {
      "anonymous": false,
      "inputs": [
        {
          "indexed": false,
          "internalType": "uint8",
          "name": "version",
          "type": "uint8"
        }
      ],
      "name": "Initialized",
      "type": "event"
    },
    {
      "anonymous": false,
      "inputs": [
        {
          "indexed": true,
          "internalType": "address",
          "name": "_newAddress",
          "type": "address"
        },
        {
          "indexed": true,
          "internalType": "address",
          "name": "_fromAddress",
          "type": "address"
        },
        {
          "indexed": false,
          "internalType": "uint256",
          "name": "_ercType",
          "type": "uint256"
        }
      ],
      "name": "NFTCloned",
      "type": "event"
    },
    {
      "anonymous": false,
      "inputs": [
        {
          "indexed": true,
          "internalType": "address",
          "name": "previousOwner",
          "type": "address"
        },
        {
          "indexed": true,
          "internalType": "address",
          "name": "newOwner",
          "type": "address"
        }
      ],
      "name": "OwnershipTransferred",
      "type": "event"
    },
    {
      "anonymous": false,
      "inputs": [
        {
          "indexed": true,
          "internalType": "bytes32",
          "name": "role",
          "type": "bytes32"
        },
        {
          "indexed": true,
          "internalType": "bytes32",
          "name": "previousAdminRole",
          "type": "bytes32"
        },
        {
          "indexed": true,
          "internalType": "bytes32",
          "name": "newAdminRole",
          "type": "bytes32"
        }
      ],
      "name": "RoleAdminChanged",
      "type": "event"
    },
    {
      "anonymous": false,
      "inputs": [
        {
          "indexed": true,
          "internalType": "bytes32",
          "name": "role",
          "type": "bytes32"
        },
        {
          "indexed": true,
          "internalType": "address",
          "name": "account",
          "type": "address"
        },
        {
          "indexed": true,
          "internalType": "address",
          "name": "sender",
          "type": "address"
        }
      ],
      "name": "RoleGranted",
      "type": "event"
    },
    {
      "anonymous": false,
      "inputs": [
        {
          "indexed": true,
          "internalType": "bytes32",
          "name": "role",
          "type": "bytes32"
        },
        {
          "indexed": true,
          "internalType": "address",
          "name": "account",
          "type": "address"
        },
        {
          "indexed": true,
          "internalType": "address",
          "name": "sender",
          "type": "address"
        }
      ],
      "name": "RoleRevoked",
      "type": "event"
    },
    {
      "anonymous": false,
      "inputs": [
        {
          "indexed": true,
          "internalType": "address",
          "name": "from",
          "type": "address"
        },
        {
          "indexed": true,
          "internalType": "address",
          "name": "to",
          "type": "address"
        },
        {
          "indexed": true,
          "internalType": "uint256",
          "name": "tokenId",
          "type": "uint256"
        }
      ],
      "name": "Transfer",
      "type": "event"
    },
    {
      "inputs": [],
      "name": "DEFAULT_ADMIN_ROLE",
      "outputs": [
        {
          "internalType": "bytes32",
          "name": "",
          "type": "bytes32"
        }
      ],
      "stateMutability": "view",
      "type": "function"
    },
    {
      "inputs": [],
      "name": "NVM_OPERATOR_ROLE",
      "outputs": [
        {
          "internalType": "bytes32",
          "name": "",
          "type": "bytes32"
        }
      ],
      "stateMutability": "view",
      "type": "function"
    },
    {
      "inputs": [
        {
          "internalType": "address",
          "name": "_addr",
          "type": "address"
        }
      ],
      "name": "addressToBytes32",
      "outputs": [
        {
          "internalType": "bytes32",
          "name": "",
          "type": "bytes32"
        }
      ],
      "stateMutability": "pure",
      "type": "function"
    },
    {
      "inputs": [
        {
          "internalType": "address",
          "name": "to",
          "type": "address"
        },
        {
          "internalType": "uint256",
          "name": "tokenId",
          "type": "uint256"
        }
      ],
      "name": "approve",
      "outputs": [],
      "stateMutability": "nonpayable",
      "type": "function"
    },
    {
      "inputs": [
        {
          "internalType": "address",
          "name": "owner",
          "type": "address"
        }
      ],
      "name": "balanceOf",
      "outputs": [
        {
          "internalType": "uint256",
          "name": "",
          "type": "uint256"
        }
      ],
      "stateMutability": "view",
      "type": "function"
    },
    {
      "inputs": [
        {
          "internalType": "uint256",
          "name": "tokenId",
          "type": "uint256"
        }
      ],
      "name": "burn",
      "outputs": [],
      "stateMutability": "nonpayable",
      "type": "function"
    },
    {
      "inputs": [
        {
          "internalType": "uint256[]",
          "name": "tokenIds",
          "type": "uint256[]"
        }
      ],
      "name": "burnBatch",
      "outputs": [],
      "stateMutability": "nonpayable",
      "type": "function"
    },
    {
      "inputs": [
        {
          "internalType": "bytes32",
          "name": "_b32",
          "type": "bytes32"
        }
      ],
      "name": "bytes32ToAddress",
      "outputs": [
        {
          "internalType": "address",
          "name": "",
          "type": "address"
        }
      ],
      "stateMutability": "pure",
      "type": "function"
    },
    {
      "inputs": [
        {
          "internalType": "uint256[]",
          "name": "_amounts",
          "type": "uint256[]"
        }
      ],
      "name": "calculateTotalAmount",
      "outputs": [
        {
          "internalType": "uint256",
          "name": "",
          "type": "uint256"
        }
      ],
      "stateMutability": "pure",
      "type": "function"
    },
    {
      "inputs": [],
      "name": "contractURI",
      "outputs": [
        {
          "internalType": "string",
          "name": "",
          "type": "string"
        }
      ],
      "stateMutability": "view",
      "type": "function"
    },
    {
      "inputs": [
        {
          "internalType": "string",
          "name": "name",
          "type": "string"
        },
        {
          "internalType": "string",
          "name": "symbol",
          "type": "string"
        },
        {
          "internalType": "string",
          "name": "uri",
          "type": "string"
        },
        {
          "internalType": "uint256",
          "name": "cap",
          "type": "uint256"
        }
      ],
      "name": "createClone",
      "outputs": [
        {
          "internalType": "address",
          "name": "",
          "type": "address"
        }
      ],
      "stateMutability": "nonpayable",
      "type": "function"
    },
    {
      "inputs": [
        {
          "internalType": "uint256",
          "name": "tokenId",
          "type": "uint256"
        }
      ],
      "name": "getApproved",
      "outputs": [
        {
          "internalType": "address",
          "name": "",
          "type": "address"
        }
      ],
      "stateMutability": "view",
      "type": "function"
    },
    {
      "inputs": [],
      "name": "getCurrentBlockNumber",
      "outputs": [
        {
          "internalType": "uint256",
          "name": "",
          "type": "uint256"
        }
      ],
      "stateMutability": "view",
      "type": "function"
    },
    {
      "inputs": [],
      "name": "getHowManyMinted",
      "outputs": [
        {
          "internalType": "uint256",
          "name": "",
          "type": "uint256"
        }
      ],
      "stateMutability": "view",
      "type": "function"
    },
    {
      "inputs": [],
      "name": "getNvmConfigAddress",
      "outputs": [
        {
          "internalType": "address",
          "name": "",
          "type": "address"
        }
      ],
      "stateMutability": "view",
      "type": "function"
    },
    {
      "inputs": [
        {
          "internalType": "bytes32",
          "name": "role",
          "type": "bytes32"
        }
      ],
      "name": "getRoleAdmin",
      "outputs": [
        {
          "internalType": "bytes32",
          "name": "",
          "type": "bytes32"
        }
      ],
      "stateMutability": "view",
      "type": "function"
    },
    {
      "inputs": [],
      "name": "getTrustedForwarder",
      "outputs": [
        {
          "internalType": "address",
          "name": "",
          "type": "address"
        }
      ],
      "stateMutability": "view",
      "type": "function"
    },
    {
      "inputs": [
        {
          "internalType": "address",
          "name": "account",
          "type": "address"
        }
      ],
      "name": "grantOperatorRole",
      "outputs": [],
      "stateMutability": "nonpayable",
      "type": "function"
    },
    {
      "inputs": [
        {
          "internalType": "bytes32",
          "name": "role",
          "type": "bytes32"
        },
        {
          "internalType": "address",
          "name": "account",
          "type": "address"
        }
      ],
      "name": "grantRole",
      "outputs": [],
      "stateMutability": "nonpayable",
      "type": "function"
    },
    {
      "inputs": [
        {
          "internalType": "bytes32",
          "name": "role",
          "type": "bytes32"
        },
        {
          "internalType": "address",
          "name": "account",
          "type": "address"
        }
      ],
      "name": "hasRole",
      "outputs": [
        {
          "internalType": "bool",
          "name": "",
          "type": "bool"
        }
      ],
      "stateMutability": "view",
      "type": "function"
    },
    {
      "inputs": [],
      "name": "initialize",
      "outputs": [],
      "stateMutability": "nonpayable",
      "type": "function"
    },
    {
      "inputs": [
        {
          "internalType": "address",
          "name": "owner",
          "type": "address"
        },
        {
          "internalType": "string",
          "name": "name",
          "type": "string"
        },
        {
          "internalType": "string",
          "name": "symbol",
          "type": "string"
        },
        {
          "internalType": "string",
          "name": "uri",
          "type": "string"
        },
        {
          "internalType": "uint256",
          "name": "cap",
          "type": "uint256"
        }
      ],
      "name": "initializeWithAttributes",
      "outputs": [],
      "stateMutability": "nonpayable",
      "type": "function"
    },
    {
      "inputs": [
        {
          "internalType": "string",
          "name": "name",
          "type": "string"
        },
        {
          "internalType": "string",
          "name": "symbol",
          "type": "string"
        }
      ],
      "name": "initializeWithName",
      "outputs": [],
      "stateMutability": "nonpayable",
      "type": "function"
    },
    {
      "inputs": [
        {
          "internalType": "address",
          "name": "account",
          "type": "address"
        },
        {
          "internalType": "address",
          "name": "operator",
          "type": "address"
        }
      ],
      "name": "isApprovedForAll",
      "outputs": [
        {
          "internalType": "bool",
          "name": "",
          "type": "bool"
        }
      ],
      "stateMutability": "view",
      "type": "function"
    },
    {
      "inputs": [
        {
          "internalType": "address",
          "name": "addr",
          "type": "address"
        }
      ],
      "name": "isContract",
      "outputs": [
        {
          "internalType": "bool",
          "name": "",
          "type": "bool"
        }
      ],
      "stateMutability": "view",
      "type": "function"
    },
    {
      "inputs": [
        {
          "internalType": "address",
          "name": "operator",
          "type": "address"
        }
      ],
      "name": "isOperator",
      "outputs": [
        {
          "internalType": "bool",
          "name": "",
          "type": "bool"
        }
      ],
      "stateMutability": "view",
      "type": "function"
    },
    {
      "inputs": [
        {
          "internalType": "address",
          "name": "forwarder",
          "type": "address"
        }
      ],
      "name": "isTrustedForwarder",
      "outputs": [
        {
          "internalType": "bool",
          "name": "",
          "type": "bool"
        }
      ],
      "stateMutability": "view",
      "type": "function"
    },
    {
      "inputs": [
        {
          "internalType": "address",
          "name": "to",
          "type": "address"
        },
        {
          "internalType": "uint256",
          "name": "tokenId",
          "type": "uint256"
        },
        {
          "internalType": "uint256",
          "name": "eventId",
          "type": "uint256"
        }
      ],
      "name": "mint",
      "outputs": [],
      "stateMutability": "nonpayable",
      "type": "function"
    },
    {
      "inputs": [
        {
          "internalType": "address",
          "name": "to",
          "type": "address"
        },
        {
          "internalType": "uint256",
          "name": "eventId",
          "type": "uint256"
        }
      ],
      "name": "mint",
      "outputs": [],
      "stateMutability": "nonpayable",
      "type": "function"
    },
    {
      "inputs": [
        {
          "internalType": "address",
          "name": "to",
          "type": "address"
        }
      ],
      "name": "mint",
      "outputs": [],
      "stateMutability": "nonpayable",
      "type": "function"
    },
    {
      "inputs": [
        {
          "internalType": "uint256",
          "name": "tokenId",
          "type": "uint256"
        }
      ],
      "name": "mint",
      "outputs": [],
      "stateMutability": "nonpayable",
      "type": "function"
    },
    {
      "inputs": [
        {
          "internalType": "address[]",
          "name": "to",
          "type": "address[]"
        },
        {
          "internalType": "uint256[]",
          "name": "tokenIds",
          "type": "uint256[]"
        },
        {
          "internalType": "uint256[]",
          "name": "eventIds",
          "type": "uint256[]"
        }
      ],
      "name": "mintBatch",
      "outputs": [],
      "stateMutability": "nonpayable",
      "type": "function"
    },
    {
      "inputs": [],
      "name": "name",
      "outputs": [
        {
          "internalType": "string",
          "name": "",
          "type": "string"
        }
      ],
      "stateMutability": "view",
      "type": "function"
    },
    {
      "inputs": [],
      "name": "nvmConfig",
      "outputs": [
        {
          "internalType": "address",
          "name": "",
          "type": "address"
        }
      ],
      "stateMutability": "view",
      "type": "function"
    },
    {
      "inputs": [],
      "name": "owner",
      "outputs": [
        {
          "internalType": "address",
          "name": "",
          "type": "address"
        }
      ],
      "stateMutability": "view",
      "type": "function"
    },
    {
      "inputs": [
        {
          "internalType": "uint256",
          "name": "tokenId",
          "type": "uint256"
        }
      ],
      "name": "ownerOf",
      "outputs": [
        {
          "internalType": "address",
          "name": "",
          "type": "address"
        }
      ],
      "stateMutability": "view",
      "type": "function"
    },
    {
      "inputs": [],
      "name": "renounceOwnership",
      "outputs": [],
      "stateMutability": "nonpayable",
      "type": "function"
    },
    {
      "inputs": [
        {
          "internalType": "bytes32",
          "name": "role",
          "type": "bytes32"
        },
        {
          "internalType": "address",
          "name": "account",
          "type": "address"
        }
      ],
      "name": "renounceRole",
      "outputs": [],
      "stateMutability": "nonpayable",
      "type": "function"
    },
    {
      "inputs": [
        {
          "internalType": "address",
          "name": "account",
          "type": "address"
        }
      ],
      "name": "revokeOperatorRole",
      "outputs": [],
      "stateMutability": "nonpayable",
      "type": "function"
    },
    {
      "inputs": [
        {
          "internalType": "bytes32",
          "name": "role",
          "type": "bytes32"
        },
        {
          "internalType": "address",
          "name": "account",
          "type": "address"
        }
      ],
      "name": "revokeRole",
      "outputs": [],
      "stateMutability": "nonpayable",
      "type": "function"
    },
    {
      "inputs": [
        {
          "internalType": "uint256",
          "name": "tokenId",
          "type": "uint256"
        },
        {
          "internalType": "uint256",
          "name": "value",
          "type": "uint256"
        }
      ],
      "name": "royaltyInfo",
      "outputs": [
        {
          "internalType": "address",
          "name": "receiver",
          "type": "address"
        },
        {
          "internalType": "uint256",
          "name": "royaltyAmount",
          "type": "uint256"
        }
      ],
      "stateMutability": "view",
      "type": "function"
    },
    {
      "inputs": [
        {
          "internalType": "address",
          "name": "from",
          "type": "address"
        },
        {
          "internalType": "address",
          "name": "to",
          "type": "address"
        },
        {
          "internalType": "uint256",
          "name": "tokenId",
          "type": "uint256"
        }
      ],
      "name": "safeTransferFrom",
      "outputs": [],
      "stateMutability": "nonpayable",
      "type": "function"
    },
    {
      "inputs": [
        {
          "internalType": "address",
          "name": "from",
          "type": "address"
        },
        {
          "internalType": "address",
          "name": "to",
          "type": "address"
        },
        {
          "internalType": "uint256",
          "name": "tokenId",
          "type": "uint256"
        },
        {
          "internalType": "bytes",
          "name": "data",
          "type": "bytes"
        }
      ],
      "name": "safeTransferFrom",
      "outputs": [],
      "stateMutability": "nonpayable",
      "type": "function"
    },
    {
      "inputs": [
        {
          "internalType": "address",
          "name": "operator",
          "type": "address"
        },
        {
          "internalType": "bool",
          "name": "approved",
          "type": "bool"
        }
      ],
      "name": "setApprovalForAll",
      "outputs": [],
      "stateMutability": "nonpayable",
      "type": "function"
    },
    {
      "inputs": [
        {
          "internalType": "string",
          "name": "_uri",
          "type": "string"
        }
      ],
      "name": "setContractMetadataUri",
      "outputs": [],
      "stateMutability": "nonpayable",
      "type": "function"
    },
    {
      "inputs": [
        {
          "internalType": "uint256",
          "name": "tokenId",
          "type": "uint256"
        },
        {
          "internalType": "string",
          "name": "nftURI",
          "type": "string"
        }
      ],
      "name": "setNFTMetadata",
      "outputs": [],
      "stateMutability": "nonpayable",
      "type": "function"
    },
    {
      "inputs": [
        {
          "internalType": "address",
          "name": "_addr",
          "type": "address"
        }
      ],
      "name": "setNvmConfigAddress",
      "outputs": [],
      "stateMutability": "nonpayable",
      "type": "function"
    },
    {
      "inputs": [
        {
          "internalType": "uint256",
          "name": "tokenId",
          "type": "uint256"
        },
        {
          "internalType": "address",
          "name": "receiver",
          "type": "address"
        },
        {
          "internalType": "uint256",
          "name": "royaltyAmount",
          "type": "uint256"
        }
      ],
      "name": "setTokenRoyalty",
      "outputs": [],
      "stateMutability": "nonpayable",
      "type": "function"
    },
    {
      "inputs": [
        {
          "internalType": "bytes4",
          "name": "interfaceId",
          "type": "bytes4"
        }
      ],
      "name": "supportsInterface",
      "outputs": [
        {
          "internalType": "bool",
          "name": "",
          "type": "bool"
        }
      ],
      "stateMutability": "view",
      "type": "function"
    },
    {
      "inputs": [],
      "name": "symbol",
      "outputs": [
        {
          "internalType": "string",
          "name": "",
          "type": "string"
        }
      ],
      "stateMutability": "view",
      "type": "function"
    },
    {
      "inputs": [
        {
          "internalType": "uint256",
          "name": "index",
          "type": "uint256"
        }
      ],
      "name": "tokenByIndex",
      "outputs": [
        {
          "internalType": "uint256",
          "name": "",
          "type": "uint256"
        }
      ],
      "stateMutability": "view",
      "type": "function"
    },
    {
      "inputs": [
        {
          "internalType": "address",
          "name": "owner",
          "type": "address"
        }
      ],
      "name": "tokenDetailsOfOwner",
      "outputs": [
        {
          "internalType": "uint256[]",
          "name": "tokenIds",
          "type": "uint256[]"
        },
        {
          "internalType": "uint256[]",
          "name": "eventIds",
          "type": "uint256[]"
        }
      ],
      "stateMutability": "view",
      "type": "function"
    },
    {
      "inputs": [
        {
          "internalType": "uint256",
          "name": "tokenId",
          "type": "uint256"
        }
      ],
      "name": "tokenEvent",
      "outputs": [
        {
          "internalType": "uint256",
          "name": "",
          "type": "uint256"
        }
      ],
      "stateMutability": "view",
      "type": "function"
    },
    {
      "inputs": [
        {
          "internalType": "address",
          "name": "owner",
          "type": "address"
        },
        {
          "internalType": "uint256",
          "name": "index",
          "type": "uint256"
        }
      ],
      "name": "tokenOfOwnerByIndex",
      "outputs": [
        {
          "internalType": "uint256",
          "name": "",
          "type": "uint256"
        }
      ],
      "stateMutability": "view",
      "type": "function"
    },
    {
      "inputs": [
        {
          "internalType": "uint256",
          "name": "tokenId",
          "type": "uint256"
        }
      ],
      "name": "tokenURI",
      "outputs": [
        {
          "internalType": "string",
          "name": "",
          "type": "string"
        }
      ],
      "stateMutability": "view",
      "type": "function"
    },
    {
      "inputs": [],
      "name": "totalSupply",
      "outputs": [
        {
          "internalType": "uint256",
          "name": "",
          "type": "uint256"
        }
      ],
      "stateMutability": "view",
      "type": "function"
    },
    {
      "inputs": [
        {
          "internalType": "address",
          "name": "from",
          "type": "address"
        },
        {
          "internalType": "address",
          "name": "to",
          "type": "address"
        },
        {
          "internalType": "uint256",
          "name": "tokenId",
          "type": "uint256"
        }
      ],
      "name": "transferFrom",
      "outputs": [],
      "stateMutability": "nonpayable",
      "type": "function"
    },
    {
      "inputs": [
        {
          "internalType": "address",
          "name": "newOwner",
          "type": "address"
        }
      ],
      "name": "transferOwnership",
      "outputs": [],
      "stateMutability": "nonpayable",
      "type": "function"
    }
  ],
  "bytecode": "0x608060405234801561001057600080fd5b506138ed806100206000396000f3fe608060405234801561001057600080fd5b506004361061029e5760003560e01c806301ffc9a7146102a357806302acb9a6146102cb57806306fdde03146102e0578063081812fc146102f5578063095ea7b314610320578063127a529814610333578063156e29f614610362578063162790551461037557806318160ddd1461038957806322e8e1e014610392578063237c49191461039a57806323b872dd146103ad578063248a9ca3146103c0578063248f8e49146103d357806327ac0c58146103e65780632a55205a146103f95780632f2ff15d1461042b5780632f745c591461043e57806336568abe1461045157806340c10f191461046457806342842e0e1461047757806342966c681461048a5780634f5e32e41461049d5780634f6ccce7146104be57806357128683146104d1578063572b6c05146104e45780635ced058e146104f75780635ea3ab85146105085780636352211e1461051b5780636a6278421461052e5780636d70f7ae146105415780636e428b83146105545780636fd902e11461056757806370a082311461056d578063715018a6146105805780638129fc1c1461058857806382c947b71461059057806385be5724146105aa5780638da5cb5b146105bf57806391d14854146105c757806395d89b41146105da5780639713c807146105e2578063a0712d68146105f5578063a217fddf14610608578063a22cb46514610610578063ab9de23014610623578063b219f7d71461062b578063b628b0fc1461063e578063b88d4fde14610651578063c87b56dd14610664578063ce1b815f14610677578063d24231051461067f578063d547741f14610692578063e4623c1b146106a5578063e8a3d485146106b8578063e985e9c5146106c0578063e9c1e045146106d3578063f2fde38b146106e6575b600080fd5b6102b66102b1366004612b22565b6106f9565b60405190151581526020015b60405180910390f35b6102de6102d9366004612b54565b610743565b005b6102e861076d565b6040516102c29190612bc1565b610308610303366004612bd4565b6107ff565b6040516001600160a01b0390911681526020016102c2565b6102de61032e366004612bed565b610826565b610354610341366004612bd4565b6000908152610134602052604090205490565b6040519081526020016102c2565b6102de610370366004612c19565b610952565b6102b6610383366004612b54565b3b151590565b61010454610354565b610354610970565b6102de6103a8366004612d0b565b610981565b6102de6103bb366004612d47565b6109b6565b6103546103ce366004612bd4565b6109ee565b6102de6103e1366004612d88565b610a03565b6102de6103f4366004612b54565b610b40565b61040c610407366004612e2a565b610b63565b604080516001600160a01b0390931683526020830191909152016102c2565b6102de610439366004612e4c565b610bb9565b61035461044c366004612bed565b610bd5565b6102de61045f366004612e4c565b610c6c565b6102de610472366004612bed565b610cf6565b6102de610485366004612d47565b610d18565b6102de610498366004612bd4565b610d33565b6104b06104ab366004612b54565b610dc0565b6040516102c2929190612eb7565b6103546104cc366004612bd4565b610efa565b6102de6104df366004612f73565b610f8f565b6102b66104f2366004612b54565b61107a565b610308610505366004612bd4565b90565b610354610516366004613058565b61109f565b610308610529366004612bd4565b6110ee565b6102de61053c366004612b54565b611122565b6102b661054f366004612b54565b611140565b6102de61056236600461308c565b61115a565b43610354565b61035461057b366004612b54565b611256565b6102de6112dc565b6102de6112f0565b61035461059e366004612b54565b6001600160a01b031690565b61035460008051602061385883398151915281565b610308611431565b6102b66105d5366004612e4c565b611440565b6102e861146b565b6102de6105f03660046130e5565b61147a565b6102de610603366004612bd4565b6114ac565b610354600081565b6102de61061e36600461310c565b6114bd565b6103086114cf565b6102de610639366004612b54565b6114de565b61030861064c36600461313f565b6114fe565b6102de61065f3660046131ce565b611609565b6102e8610672366004612bd4565b611642565b61030861164d565b6102de61068d36600461324d565b6116d8565b6102de6106a0366004612e4c565b6116ec565b6102de6106b3366004613058565b611708565b6102e8611748565b6102b66106ce366004613281565b611757565b60ff54610308906001600160a01b031681565b6102de6106f4366004612b54565b61176a565b6000610704826117e0565b80610713575061071382611801565b80610722575061072282611851565b8061073d57506001600160e01b0319821663152a902d60e11b145b92915050565b61074b611876565b60ff80546001600160a01b0319166001600160a01b0392909216919091179055565b60606097805461077c906132af565b80601f01602080910402602001604051908101604052809291908181526020018280546107a8906132af565b80156107f55780601f106107ca576101008083540402835291602001916107f5565b820191906000526020600020905b8154815290600101906020018083116107d857829003601f168201915b5050505050905090565b600061080a826118e5565b506000908152609b60205260409020546001600160a01b031690565b6000610831826110ee565b9050806001600160a01b0316836001600160a01b0316036108a35760405162461bcd60e51b815260206004820152602160248201527f4552433732313a20617070726f76616c20746f2063757272656e74206f776e656044820152603960f91b60648201526084015b60405180910390fd5b806001600160a01b03166108b561190a565b6001600160a01b031614806108d157506108d1816106ce61190a565b6109435760405162461bcd60e51b815260206004820152603d60248201527f4552433732313a20617070726f76652063616c6c6572206973206e6f7420746f60448201527f6b656e206f776e6572206f7220617070726f76656420666f7220616c6c000000606482015260840161089a565b61094d8383611914565b505050565b61095c8383611982565b600091825261013460205260409091205550565b600061097c6101015490565b905090565b61098c61054f61190a565b6109a85760405162461bcd60e51b815260040161089a906132e3565b6109b28282611a45565b5050565b6109c76109c161190a565b82611a76565b6109e35760405162461bcd60e51b815260040161089a9061330e565b61094d838383611ad4565b600090815260c9602052604090206001015490565b600054610100900460ff1615808015610a235750600054600160ff909116105b80610a445750610a3230611c33565b158015610a44575060005460ff166001145b610a605760405162461bcd60e51b815260040161089a9061335b565b6000805460ff191660011790558015610a83576000805461ff0019166101001790555b610a8b611c42565b610a93611c42565b610a9d8585611c69565b610aa5611ca9565b610aad611c42565b610acc600080516020613858833981519152610ac761190a565b611ce0565b610ad5836116d8565b610100829055610ae361190a565b6001600160a01b0316866001600160a01b031614610b0457610b048661176a565b8015610b38576000805461ff0019169055604051600181526000805160206138788339815191529060200160405180910390a15b505050505050565b610b48611876565b610b6060008051602061385883398151915282611ce0565b50565b600082815260fb60209081526040808320815180830190925280546001600160a01b03168083526001909101549282018390529291606490610ba590866133bf565b610baf91906133d6565b9150509250929050565b610bc2826109ee565b610bcb81611cea565b61094d8383611cfb565b6000610be083611256565b8210610c425760405162461bcd60e51b815260206004820152602b60248201527f455243373231456e756d657261626c653a206f776e657220696e646578206f7560448201526a74206f6620626f756e647360a81b606482015260840161089a565b506001600160a01b0391909116600090815261010260209081526040808320938352929052205490565b610c7461190a565b6001600160a01b0316816001600160a01b031614610cec5760405162461bcd60e51b815260206004820152602f60248201527f416363657373436f6e74726f6c3a2063616e206f6e6c792072656e6f756e636560448201526e103937b632b9903337b91039b2b63360891b606482015260840161089a565b6109b28282611d82565b6000610d00610970565b610d0b9060016133f8565b905061094d838284610952565b61094d83838360405180602001604052806000815250611609565b610d3e61054f61190a565b80610d5357506000610d5161057b61190a565b115b610db75760405162461bcd60e51b815260206004820152602f60248201527f4552433732313a2063616c6c6572206973206e6f74206f776e6572206f72206e60448201526e6f7420686176652062616c616e636560881b606482015260840161089a565b610b6081611e07565b6060806000610dce84611256565b90506000816001600160401b03811115610dea57610dea612c4e565b604051908082528060200260200182016040528015610e13578160200160208202803683370190505b5090506000826001600160401b03811115610e3057610e30612c4e565b604051908082528060200260200182016040528015610e59578160200160208202803683370190505b50905060005b83811015610eee57610e718782610bd5565b838281518110610e8357610e8361340b565b602002602001018181525050610ebf838281518110610ea457610ea461340b565b60200260200101516000908152610134602052604090205490565b828281518110610ed157610ed161340b565b602090810291909101015280610ee681613421565b915050610e5f565b50909590945092505050565b6000610f066101045490565b8210610f695760405162461bcd60e51b815260206004820152602c60248201527f455243373231456e756d657261626c653a20676c6f62616c20696e646578206f60448201526b7574206f6620626f756e647360a01b606482015260840161089a565b6101048281548110610f7d57610f7d61340b565b90600052602060002001549050919050565b80518351148015610fa1575081518351145b6110005760405162461bcd60e51b815260206004820152602a60248201527f746f20616e64206576656e74496420617267756d656e747320686176652077726044820152690dedcce40d8cadccee8d60b31b606482015260840161089a565b60005b8351811015611074576110628482815181106110215761102161340b565b602002602001015184838151811061103b5761103b61340b565b60200260200101518484815181106110555761105561340b565b6020026020010151610952565b8061106c81613421565b915050611003565b50505050565b600061108461164d565b6001600160a01b0316826001600160a01b0316149050919050565b60008060005b83518110156110e7578381815181106110c0576110c061340b565b6020026020010151826110d391906133f8565b9150806110df81613421565b9150506110a5565b5092915050565b6000806110fa83611e10565b90506001600160a01b03811661073d5760405162461bcd60e51b815260040161089a9061343a565b610b608161112e610970565b6111399060016133f8565b6000610952565b600061073d60008051602061385883398151915283611440565b600054610100900460ff161580801561117a5750600054600160ff909116105b8061119b575061118930611c33565b15801561119b575060005460ff166001145b6111b75760405162461bcd60e51b815260040161089a9061335b565b6000805460ff1916600117905580156111da576000805461ff0019166101001790555b6111e2611c42565b6111ea611c42565b6111f48383611c69565b6111fc611ca9565b611204611c42565b61121e600080516020613858833981519152610ac761190a565b801561094d576000805461ff0019169055604051600181526000805160206138788339815191529060200160405180910390a1505050565b60006001600160a01b0382166112c05760405162461bcd60e51b815260206004820152602960248201527f4552433732313a2061646472657373207a65726f206973206e6f7420612076616044820152683634b21037bbb732b960b91b606482015260840161089a565b506001600160a01b03166000908152609a602052604090205490565b6112e4611876565b6112ee6000611e2b565b565b600054610100900460ff16158080156113105750600054600160ff909116105b80611331575061131f30611c33565b158015611331575060005460ff166001145b61134d5760405162461bcd60e51b815260040161089a9061335b565b6000805460ff191660011790558015611370576000805461ff0019166101001790555b611378611c42565b611380611c42565b6113d1604051806040016040528060118152602001704e657665726d696e65642045524337323160781b815250604051806040016040528060068152602001654e564d37323160d01b815250611c69565b6113d9611ca9565b6113e1611c42565b6113fb600080516020613858833981519152610ac761190a565b8015610b60576000805461ff0019169055604051600181526000805160206138788339815191529060200160405180910390a150565b6033546001600160a01b031690565b600091825260c9602090815260408084206001600160a01b0393909316845291905290205460ff1690565b60606098805461077c906132af565b61148561054f61190a565b6114a15760405162461bcd60e51b815260040161089a906132e3565b61094d838383611e7d565b610b606114b761190a565b82610cf6565b6109b26114c861190a565b8383611f15565b60ff546001600160a01b031690565b6114e6611876565b610b6060008051602061385883398151915282611d82565b7f360894a13ba1a3210667c828492db98dca3e2076cc3735a920a3ca505d382bbc546000906001600160a01b0316806115345750305b600061153f82611fdf565b9050806001600160a01b031663248f8e4961155861190a565b898989896040518663ffffffff1660e01b815260040161157c95949392919061346c565b600060405180830381600087803b15801561159657600080fd5b505af11580156115aa573d6000803e3d6000fd5b50505050816001600160a01b0316816001600160a01b03167f60b02f0439b830955522ba890ebaeed1012ac175aba5742b6032a7b79d0cd7346102d16040516115f591815260200190565b60405180910390a39150505b949350505050565b61161a61161461190a565b83611a76565b6116365760405162461bcd60e51b815260040161089a9061330e565b61107484848484612079565b606061073d826120ac565b6000806116586114cf565b90506001600160a01b03811661167057600091505090565b806001600160a01b031663ce1b815f6040518163ffffffff1660e01b8152600401602060405180830381865afa1580156116ae573d6000803e3d6000fd5b505050506040513d601f19601f820116820180604052508101906116d291906134c9565b91505090565b6116e0611876565b60fe6109b2828261352c565b6116f5826109ee565b6116fe81611cea565b61094d8383611d82565b60005b81518110156109b2576117368282815181106117295761172961340b565b6020026020010151610d33565b8061174081613421565b91505061170b565b606060fe805461077c906132af565b6000611763838361214c565b9392505050565b611772611876565b6001600160a01b0381166117d75760405162461bcd60e51b815260206004820152602660248201527f4f776e61626c653a206e6577206f776e657220697320746865207a65726f206160448201526564647265737360d01b606482015260840161089a565b610b6081611e2b565b60006001600160e01b03198216637965db0b60e01b148061073d575061073d825b60006001600160e01b031982166380ac58cd60e01b148061183257506001600160e01b03198216635b5e139f60e01b145b8061073d57506301ffc9a760e01b6001600160e01b031983161461073d565b60006001600160e01b0319821663780e9d6360e01b148061073d575061073d82612186565b61187e61190a565b6001600160a01b031661188f611431565b6001600160a01b0316146112ee5760405162461bcd60e51b815260206004820181905260248201527f4f776e61626c653a2063616c6c6572206973206e6f7420746865206f776e6572604482015260640161089a565b6118ee816121a0565b610b605760405162461bcd60e51b815260040161089a9061343a565b600061097c6121bd565b6000818152609b6020526040902080546001600160a01b0319166001600160a01b0384169081179091558190611949826110ee565b6001600160a01b03167f8c5be1e5ebec7d5bd14f71427d1e84f3dd0314c0f7b2291e5b200ac8c7c3b92560405160405180910390a45050565b61198d61054f61190a565b6119d65760405162461bcd60e51b815260206004820152601a6024820152791bdb9b1e481b999d081bdc195c985d1bdc8818d85b881b5a5b9d60321b604482015260640161089a565b6101005415806119eb57506101005461010154105b611a2c5760405162461bcd60e51b8152602060048201526012602482015271115490cdcc8c4e8810d85c08195e18d9595960721b604482015260640161089a565b611a3b61010180546001019055565b6109b282826121eb565b6040805160208082018352838252600085815260fc9091529190912081518190611a6f908261352c565b5050505050565b600080611a82836110ee565b9050806001600160a01b0316846001600160a01b03161480611aa95750611aa98185611757565b806116015750836001600160a01b0316611ac2846107ff565b6001600160a01b031614949350505050565b826001600160a01b0316611ae7826110ee565b6001600160a01b031614611b0d5760405162461bcd60e51b815260040161089a906135eb565b6001600160a01b038216611b6f5760405162461bcd60e51b8152602060048201526024808201527f4552433732313a207472616e7366657220746f20746865207a65726f206164646044820152637265737360e01b606482015260840161089a565b611b7c83838360016122f4565b826001600160a01b0316611b8f826110ee565b6001600160a01b031614611bb55760405162461bcd60e51b815260040161089a906135eb565b6000818152609b6020908152604080832080546001600160a01b03199081169091556001600160a01b03878116808652609a85528386208054600019019055908716808652838620805460010190558686526099909452828520805490921684179091559051849360008051602061389883398151915291a4505050565b6001600160a01b03163b151590565b600054610100900460ff166112ee5760405162461bcd60e51b815260040161089a90613630565b600054610100900460ff16611c905760405162461bcd60e51b815260040161089a90613630565b6097611c9c838261352c565b50609861094d828261352c565b600054610100900460ff16611cd05760405162461bcd60e51b815260040161089a90613630565b6112ee611cdb61190a565b611e2b565b6109b28282611cfb565b610b6081611cf661190a565b612300565b611d058282611440565b6109b257600082815260c9602090815260408083206001600160a01b03851684529091529020805460ff19166001179055611d3e61190a565b6001600160a01b0316816001600160a01b0316837f2f8788117e7eff1d82e926ec794901d17c78024a50270940304540a733656f0d60405160405180910390a45050565b611d8c8282611440565b156109b257600082815260c9602090815260408083206001600160a01b03851684529091529020805460ff19169055611dc361190a565b6001600160a01b0316816001600160a01b0316837ff6391f5c32d9c69d2a47ea670b442974b53935d1edc7fd64eb21e047a839171b60405160405180910390a45050565b610b6081612359565b6000908152609960205260409020546001600160a01b031690565b603380546001600160a01b038381166001600160a01b0319831681179093556040519116919082907f8be0079c531659141344cd1fd0a4f28419497f9722a3daafe3b4186f6b6457e090600090a35050565b620f4240811115611ecd5760405162461bcd60e51b815260206004820152601a60248201527908aa48664727062a4def2c2d8e8d2cae67440a8dede40d0d2ced60331b604482015260640161089a565b6040805180820182526001600160a01b0393841681526020808201938452600095865260fb90529320925183546001600160a01b031916921691909117825551600190910155565b816001600160a01b0316836001600160a01b031603611f725760405162461bcd60e51b815260206004820152601960248201527822a9219b99189d1030b8383937bb32903a379031b0b63632b960391b604482015260640161089a565b6001600160a01b038381166000818152609c6020908152604080832094871680845294825291829020805460ff191686151590811790915591519182527f17307eab39ab6107e8899845ad3d59bd9653f200f220920489ca2b5937696c31910160405180910390a3505050565b6000763d602d80600a3d3981f3363d3d373d3d3d363d730000008260601b60e81c176000526e5af43d82803e903d91602b57fd5bf38260781b17602052603760096000f090506001600160a01b0381166120745760405162461bcd60e51b8152602060048201526016602482015275115490cc4c4d8dce8818dc99585d194819985a5b195960521b604482015260640161089a565b919050565b612084848484611ad4565b612090848484846123ea565b6110745760405162461bcd60e51b815260040161089a9061367b565b606060006120b86124f6565b90506120c3836121a0565b156121175760008151116120e65760405180602001604052806000815250611763565b806120f084612500565b6040516020016121019291906136cd565b6040516020818303038152906040529392505050565b60008151116121355760405180602001604052806000815250611763565b8060405160200161210191906136fc565b50919050565b6001600160a01b038083166000908152609c6020908152604080832093851683529290529081205460ff1680611763575061176382611140565b6000612191826117e0565b80610722575061072282611801565b6000806121ac83611e10565b6001600160a01b0316141592915050565b6000601436108015906121d457506121d43361107a565b156121e6575060131936013560601c90565b503390565b6001600160a01b0382166122415760405162461bcd60e51b815260206004820181905260248201527f4552433732313a206d696e7420746f20746865207a65726f2061646472657373604482015260640161089a565b61224a816121a0565b156122675760405162461bcd60e51b815260040161089a90613718565b6122756000838360016122f4565b61227e816121a0565b1561229b5760405162461bcd60e51b815260040161089a90613718565b6001600160a01b0382166000818152609a6020908152604080832080546001019055848352609990915280822080546001600160a01b031916841790555183929190600080516020613898833981519152908290a45050565b61107484848484612517565b61230a8282611440565b6109b25761231781612652565b612322836020612664565b60405160200161233392919061374e565b60408051601f198184030181529082905262461bcd60e51b825261089a91600401612bc1565b6000612364826110ee565b90506123748160008460016122f4565b61237d826110ee565b6000838152609b6020908152604080832080546001600160a01b03199081169091556001600160a01b038516808552609a84528285208054600019019055878552609990935281842080549091169055519293508492600080516020613898833981519152908390a45050565b60006123fe846001600160a01b0316611c33565b156124ee57836001600160a01b031663150b7a0261241a61190a565b8786866040518563ffffffff1660e01b815260040161243c94939291906137bd565b6020604051808303816000875af1925050508015612477575060408051601f3d908101601f19168201909252612474918101906137fa565b60015b6124d4573d8080156124a5576040519150601f19603f3d011682016040523d82523d6000602084013e6124aa565b606091505b5080516000036124cc5760405162461bcd60e51b815260040161089a9061367b565b805181602001fd5b6001600160e01b031916630a85bd0160e11b149050611601565b506001611601565b606061097c6127ff565b606061073d8261250f84612809565b600101612664565b61252384848484612873565b60018111156125925760405162461bcd60e51b815260206004820152603560248201527f455243373231456e756d657261626c653a20636f6e7365637574697665207472604482015274185b9cd9995c9cc81b9bdd081cdd5c1c1bdc9d1959605a1b606482015260840161089a565b816001600160a01b0385166125f0576125eb816101048054600083815261010560205260408120829055600182018355919091527f4c0be60200faa20559308cb7b5a1bb3255c16cb1cab91f525b5ae7a03d02fabe0155565b612613565b836001600160a01b0316856001600160a01b0316146126135761261385826128e7565b6001600160a01b03841661262f5761262a81612989565b611a6f565b846001600160a01b0316846001600160a01b031614611a6f57611a6f8482612a3e565b606061073d6001600160a01b03831660145b606060006126738360026133bf565b61267e9060026133f8565b6001600160401b0381111561269557612695612c4e565b6040519080825280601f01601f1916602001820160405280156126bf576020820181803683370190505b509050600360fc1b816000815181106126da576126da61340b565b60200101906001600160f81b031916908160001a905350600f60fb1b816001815181106127095761270961340b565b60200101906001600160f81b031916908160001a905350600061272d8460026133bf565b6127389060016133f8565b90505b60018111156127b0576f181899199a1a9b1b9c1cb0b131b232b360811b85600f166010811061276c5761276c61340b565b1a60f81b8282815181106127825761278261340b565b60200101906001600160f81b031916908160001a90535060049490941c936127a981613817565b905061273b565b5083156117635760405162461bcd60e51b815260206004820181905260248201527f537472696e67733a20686578206c656e67746820696e73756666696369656e74604482015260640161089a565b606061097c611748565b600080608083901c156128215760809290921c916010015b604083901c156128365760409290921c916008015b602083901c1561284b5760209290921c916004015b601083901c156128605760109290921c916002015b600883901c1561073d5760010192915050565b6001600160a01b038416158061289057506001600160a01b038316155b806128a157506128a161054f61190a565b6128da5760405162461bcd60e51b815260206004820152600a6024820152696f6e6c792070726f787960b01b604482015260640161089a565b6110748484600084612a84565b600060016128f484611256565b6128fe919061382e565b60008381526101036020526040902054909150808214612954576001600160a01b038416600090815261010260209081526040808320858452825280832054848452818420819055835261010390915290208190555b506000918252610103602090815260408084208490556001600160a01b03909416835261010281528383209183525290812055565b6101045460009061299c9060019061382e565b6000838152610105602052604081205461010480549394509092849081106129c6576129c661340b565b906000526020600020015490508061010483815481106129e8576129e861340b565b60009182526020808320909101929092558281526101059091526040808220849055858252812055610104805480612a2257612a22613841565b6001900381819060005260206000200160009055905550505050565b6000612a4983611256565b6001600160a01b0390931660009081526101026020908152604080832086845282528083208590559382526101039052919091209190915550565b6001811115611074576001600160a01b03841615612aca576001600160a01b0384166000908152609a602052604081208054839290612ac490849061382e565b90915550505b6001600160a01b03831615611074576001600160a01b0383166000908152609a602052604081208054839290612b019084906133f8565b909155505050505050565b6001600160e01b031981168114610b6057600080fd5b600060208284031215612b3457600080fd5b813561176381612b0c565b6001600160a01b0381168114610b6057600080fd5b600060208284031215612b6657600080fd5b813561176381612b3f565b60005b83811015612b8c578181015183820152602001612b74565b50506000910152565b60008151808452612bad816020860160208601612b71565b601f01601f19169290920160200192915050565b6020815260006117636020830184612b95565b600060208284031215612be657600080fd5b5035919050565b60008060408385031215612c0057600080fd5b8235612c0b81612b3f565b946020939093013593505050565b600080600060608486031215612c2e57600080fd5b8335612c3981612b3f565b95602085013595506040909401359392505050565b634e487b7160e01b600052604160045260246000fd5b604051601f8201601f191681016001600160401b0381118282101715612c8c57612c8c612c4e565b604052919050565b60006001600160401b03831115612cad57612cad612c4e565b612cc0601f8401601f1916602001612c64565b9050828152838383011115612cd457600080fd5b828260208301376000602084830101529392505050565b600082601f830112612cfc57600080fd5b61176383833560208501612c94565b60008060408385031215612d1e57600080fd5b8235915060208301356001600160401b03811115612d3b57600080fd5b610baf85828601612ceb565b600080600060608486031215612d5c57600080fd5b8335612d6781612b3f565b92506020840135612d7781612b3f565b929592945050506040919091013590565b600080600080600060a08688031215612da057600080fd5b8535612dab81612b3f565b945060208601356001600160401b0380821115612dc757600080fd5b612dd389838a01612ceb565b95506040880135915080821115612de957600080fd5b612df589838a01612ceb565b94506060880135915080821115612e0b57600080fd5b50612e1888828901612ceb565b95989497509295608001359392505050565b60008060408385031215612e3d57600080fd5b50508035926020909101359150565b60008060408385031215612e5f57600080fd5b823591506020830135612e7181612b3f565b809150509250929050565b600081518084526020808501945080840160005b83811015612eac57815187529582019590820190600101612e90565b509495945050505050565b604081526000612eca6040830185612e7c565b8281036020840152612edc8185612e7c565b95945050505050565b60006001600160401b03821115612efe57612efe612c4e565b5060051b60200190565b600082601f830112612f1957600080fd5b81356020612f2e612f2983612ee5565b612c64565b82815260059290921b84018101918181019086841115612f4d57600080fd5b8286015b84811015612f685780358352918301918301612f51565b509695505050505050565b600080600060608486031215612f8857600080fd5b83356001600160401b0380821115612f9f57600080fd5b818601915086601f830112612fb357600080fd5b81356020612fc3612f2983612ee5565b82815260059290921b8401810191818101908a841115612fe257600080fd5b948201945b83861015613009578535612ffa81612b3f565b82529482019490820190612fe7565b9750508701359250508082111561301f57600080fd5b61302b87838801612f08565b9350604086013591508082111561304157600080fd5b5061304e86828701612f08565b9150509250925092565b60006020828403121561306a57600080fd5b81356001600160401b0381111561308057600080fd5b61160184828501612f08565b6000806040838503121561309f57600080fd5b82356001600160401b03808211156130b657600080fd5b6130c286838701612ceb565b935060208501359150808211156130d857600080fd5b50610baf85828601612ceb565b6000806000606084860312156130fa57600080fd5b833592506020840135612d7781612b3f565b6000806040838503121561311f57600080fd5b823561312a81612b3f565b915060208301358015158114612e7157600080fd5b6000806000806080858703121561315557600080fd5b84356001600160401b038082111561316c57600080fd5b61317888838901612ceb565b9550602087013591508082111561318e57600080fd5b61319a88838901612ceb565b945060408701359150808211156131b057600080fd5b506131bd87828801612ceb565b949793965093946060013593505050565b600080600080608085870312156131e457600080fd5b84356131ef81612b3f565b935060208501356131ff81612b3f565b92506040850135915060608501356001600160401b0381111561322157600080fd5b8501601f8101871361323257600080fd5b61324187823560208401612c94565b91505092959194509250565b60006020828403121561325f57600080fd5b81356001600160401b0381111561327557600080fd5b61160184828501612ceb565b6000806040838503121561329457600080fd5b823561329f81612b3f565b91506020830135612e7181612b3f565b600181811c908216806132c357607f821691505b60208210810361214657634e487b7160e01b600052602260045260246000fd5b60208082526011908201527037b7363c9037333a1037b832b930ba37b960791b604082015260600190565b6020808252602d908201527f4552433732313a2063616c6c6572206973206e6f7420746f6b656e206f776e6560408201526c1c881bdc88185c1c1c9bdd9959609a1b606082015260800190565b6020808252602e908201527f496e697469616c697a61626c653a20636f6e747261637420697320616c72656160408201526d191e481a5b9a5d1a585b1a5e995960921b606082015260800190565b634e487b7160e01b600052601160045260246000fd5b808202811582820484141761073d5761073d6133a9565b6000826133f357634e487b7160e01b600052601260045260246000fd5b500490565b8082018082111561073d5761073d6133a9565b634e487b7160e01b600052603260045260246000fd5b600060018201613433576134336133a9565b5060010190565b602080825260189082015277115490cdcc8c4e881a5b9d985b1a59081d1bdad95b88125160421b604082015260600190565b6001600160a01b038616815260a06020820181905260009061349090830187612b95565b82810360408401526134a28187612b95565b905082810360608401526134b68186612b95565b9150508260808301529695505050505050565b6000602082840312156134db57600080fd5b815161176381612b3f565b601f82111561094d57600081815260208120601f850160051c8101602086101561350d5750805b601f850160051c820191505b81811015610b3857828155600101613519565b81516001600160401b0381111561354557613545612c4e565b6135598161355384546132af565b846134e6565b602080601f83116001811461358e57600084156135765750858301515b600019600386901b1c1916600185901b178555610b38565b600085815260208120601f198616915b828110156135bd5788860151825594840194600190910190840161359e565b50858210156135db5787850151600019600388901b60f8161c191681555b5050505050600190811b01905550565b60208082526025908201527f4552433732313a207472616e736665722066726f6d20696e636f72726563742060408201526437bbb732b960d91b606082015260800190565b6020808252602b908201527f496e697469616c697a61626c653a20636f6e7472616374206973206e6f74206960408201526a6e697469616c697a696e6760a81b606082015260800190565b60208082526032908201527f4552433732313a207472616e7366657220746f206e6f6e20455243373231526560408201527131b2b4bb32b91034b6b83632b6b2b73a32b960711b606082015260800190565b600083516136df818460208801612b71565b8351908301906136f3818360208801612b71565b01949350505050565b6000825161370e818460208701612b71565b9190910192915050565b6020808252601c908201527b115490cdcc8c4e881d1bdad95b88185b1c9958591e481b5a5b9d195960221b604082015260600190565b76020b1b1b2b9b9a1b7b73a3937b61d1030b1b1b7bab73a1604d1b815260008351613780816017850160208801612b71565b7001034b99036b4b9b9b4b733903937b6329607d1b60179184019182015283516137b1816028840160208801612b71565b01602801949350505050565b6001600160a01b03858116825284166020820152604081018390526080606082018190526000906137f090830184612b95565b9695505050505050565b60006020828403121561380c57600080fd5b815161176381612b0c565b600081613826576138266133a9565b506000190190565b8181038181111561073d5761073d6133a9565b634e487b7160e01b600052603160045260246000fdfef7a17991623d7e30ebf9bd089b2f4dcf33b0aa34727454bfa3dbc351ed7d68357f26b83ff96e1f2b6a682f133852f6798a09c465da95921460cefb3847402498ddf252ad1be2c89b69c2b068fc378daa952ba7f163c4a11628f55a4df523b3efa2646970667358221220cc5674fae9d810c519cc9ddf778086034f03fd80fef47ef0cff831ceff66daaf64736f6c63430008110033",
  "linkReferences": {},
  "deployedLinkReferences": {}
}