{
  "_format": "hh-sol-artifact-1",
  "contractName": "NFT1155SubscriptionUpgradeable",
  "sourceName": "contracts/token/erc1155/NFT1155SubcriptionUpgradeable.sol",
  "abi": [
    {
      "anonymous": false,
      "inputs": [
        {
          "indexed": true,
          "internalType": "address",
          "name": "account",
          "type": "address"
        },
        {
          "indexed": true,
          "internalType": "address",
          "name": "operator",
          "type": "address"
        },
        {
          "indexed": false,
          "internalType": "bool",
          "name": "approved",
          "type": "bool"
        }
      ],
      "name": "ApprovalForAll",
      "type": "event"
    },
    {
      "anonymous": false,
      "inputs": [
        {
          "indexed": false,
          "internalType": "uint8",
          "name": "version",
          "type": "uint8"
        }
      ],
      "name": "Initialized",
      "type": "event"
    },
    {
      "anonymous": false,
      "inputs": [
        {
          "indexed": true,
          "internalType": "address",
          "name": "_newAddress",
          "type": "address"
        },
        {
          "indexed": true,
          "internalType": "address",
          "name": "_fromAddress",
          "type": "address"
        },
        {
          "indexed": false,
          "internalType": "uint256",
          "name": "_ercType",
          "type": "uint256"
        }
      ],
      "name": "NFTCloned",
      "type": "event"
    },
    {
      "anonymous": false,
      "inputs": [
        {
          "indexed": true,
          "internalType": "address",
          "name": "previousOwner",
          "type": "address"
        },
        {
          "indexed": true,
          "internalType": "address",
          "name": "newOwner",
          "type": "address"
        }
      ],
      "name": "OwnershipTransferred",
      "type": "event"
    },
    {
      "anonymous": false,
      "inputs": [
        {
          "indexed": true,
          "internalType": "bytes32",
          "name": "role",
          "type": "bytes32"
        },
        {
          "indexed": true,
          "internalType": "bytes32",
          "name": "previousAdminRole",
          "type": "bytes32"
        },
        {
          "indexed": true,
          "internalType": "bytes32",
          "name": "newAdminRole",
          "type": "bytes32"
        }
      ],
      "name": "RoleAdminChanged",
      "type": "event"
    },
    {
      "anonymous": false,
      "inputs": [
        {
          "indexed": true,
          "internalType": "bytes32",
          "name": "role",
          "type": "bytes32"
        },
        {
          "indexed": true,
          "internalType": "address",
          "name": "account",
          "type": "address"
        },
        {
          "indexed": true,
          "internalType": "address",
          "name": "sender",
          "type": "address"
        }
      ],
      "name": "RoleGranted",
      "type": "event"
    },
    {
      "anonymous": false,
      "inputs": [
        {
          "indexed": true,
          "internalType": "bytes32",
          "name": "role",
          "type": "bytes32"
        },
        {
          "indexed": true,
          "internalType": "address",
          "name": "account",
          "type": "address"
        },
        {
          "indexed": true,
          "internalType": "address",
          "name": "sender",
          "type": "address"
        }
      ],
      "name": "RoleRevoked",
      "type": "event"
    },
    {
      "anonymous": false,
      "inputs": [
        {
          "indexed": true,
          "internalType": "address",
          "name": "operator",
          "type": "address"
        },
        {
          "indexed": true,
          "internalType": "address",
          "name": "from",
          "type": "address"
        },
        {
          "indexed": true,
          "internalType": "address",
          "name": "to",
          "type": "address"
        },
        {
          "indexed": false,
          "internalType": "uint256[]",
          "name": "ids",
          "type": "uint256[]"
        },
        {
          "indexed": false,
          "internalType": "uint256[]",
          "name": "values",
          "type": "uint256[]"
        }
      ],
      "name": "TransferBatch",
      "type": "event"
    },
    {
      "anonymous": false,
      "inputs": [
        {
          "indexed": true,
          "internalType": "address",
          "name": "operator",
          "type": "address"
        },
        {
          "indexed": true,
          "internalType": "address",
          "name": "from",
          "type": "address"
        },
        {
          "indexed": true,
          "internalType": "address",
          "name": "to",
          "type": "address"
        },
        {
          "indexed": false,
          "internalType": "uint256",
          "name": "id",
          "type": "uint256"
        },
        {
          "indexed": false,
          "internalType": "uint256",
          "name": "value",
          "type": "uint256"
        }
      ],
      "name": "TransferSingle",
      "type": "event"
    },
    {
      "anonymous": false,
      "inputs": [
        {
          "indexed": false,
          "internalType": "string",
          "name": "value",
          "type": "string"
        },
        {
          "indexed": true,
          "internalType": "uint256",
          "name": "id",
          "type": "uint256"
        }
      ],
      "name": "URI",
      "type": "event"
    },
    {
      "inputs": [],
      "name": "DEFAULT_ADMIN_ROLE",
      "outputs": [
        {
          "internalType": "bytes32",
          "name": "",
          "type": "bytes32"
        }
      ],
      "stateMutability": "view",
      "type": "function"
    },
    {
      "inputs": [],
      "name": "NVM_OPERATOR_ROLE",
      "outputs": [
        {
          "internalType": "bytes32",
          "name": "",
          "type": "bytes32"
        }
      ],
      "stateMutability": "view",
      "type": "function"
    },
    {
      "inputs": [
        {
          "internalType": "address",
          "name": "owner",
          "type": "address"
        },
        {
          "internalType": "address",
          "name": "didRegistryAddress",
          "type": "address"
        },
        {
          "internalType": "string",
          "name": "name_",
          "type": "string"
        },
        {
          "internalType": "string",
          "name": "symbol_",
          "type": "string"
        },
        {
          "internalType": "string",
          "name": "uri_",
          "type": "string"
        }
      ],
      "name": "__NFT1155Upgradeable_init",
      "outputs": [],
      "stateMutability": "nonpayable",
      "type": "function"
    },
    {
      "inputs": [
        {
          "internalType": "address",
          "name": "owner",
          "type": "address"
        },
        {
          "internalType": "address",
          "name": "didRegistryAddress",
          "type": "address"
        },
        {
          "internalType": "string",
          "name": "name_",
          "type": "string"
        },
        {
          "internalType": "string",
          "name": "symbol_",
          "type": "string"
        },
        {
          "internalType": "string",
          "name": "uri_",
          "type": "string"
        }
      ],
      "name": "__NFT1155Upgradeable_unchained",
      "outputs": [],
      "stateMutability": "nonpayable",
      "type": "function"
    },
    {
      "inputs": [
        {
          "internalType": "address",
          "name": "_addr",
          "type": "address"
        }
      ],
      "name": "addressToBytes32",
      "outputs": [
        {
          "internalType": "bytes32",
          "name": "",
          "type": "bytes32"
        }
      ],
      "stateMutability": "pure",
      "type": "function"
    },
    {
      "inputs": [
        {
          "internalType": "address",
          "name": "account",
          "type": "address"
        },
        {
          "internalType": "uint256",
          "name": "tokenId",
          "type": "uint256"
        }
      ],
      "name": "balanceOf",
      "outputs": [
        {
          "internalType": "uint256",
          "name": "",
          "type": "uint256"
        }
      ],
      "stateMutability": "view",
      "type": "function"
    },
    {
      "inputs": [
        {
          "internalType": "address[]",
          "name": "accounts",
          "type": "address[]"
        },
        {
          "internalType": "uint256[]",
          "name": "ids",
          "type": "uint256[]"
        }
      ],
      "name": "balanceOfBatch",
      "outputs": [
        {
          "internalType": "uint256[]",
          "name": "",
          "type": "uint256[]"
        }
      ],
      "stateMutability": "view",
      "type": "function"
    },
    {
      "inputs": [
        {
          "internalType": "uint256",
          "name": "id",
          "type": "uint256"
        },
        {
          "internalType": "uint256",
          "name": "amount",
          "type": "uint256"
        }
      ],
      "name": "burn",
      "outputs": [],
      "stateMutability": "nonpayable",
      "type": "function"
    },
    {
      "inputs": [
        {
          "internalType": "address",
          "name": "to",
          "type": "address"
        },
        {
          "internalType": "uint256",
          "name": "id",
          "type": "uint256"
        },
        {
          "internalType": "uint256",
          "name": "amount",
          "type": "uint256"
        }
      ],
      "name": "burn",
      "outputs": [],
      "stateMutability": "nonpayable",
      "type": "function"
    },
    {
      "inputs": [
        {
          "internalType": "bytes32",
          "name": "_b32",
          "type": "bytes32"
        }
      ],
      "name": "bytes32ToAddress",
      "outputs": [
        {
          "internalType": "address",
          "name": "",
          "type": "address"
        }
      ],
      "stateMutability": "pure",
      "type": "function"
    },
    {
      "inputs": [
        {
          "internalType": "uint256[]",
          "name": "_amounts",
          "type": "uint256[]"
        }
      ],
      "name": "calculateTotalAmount",
      "outputs": [
        {
          "internalType": "uint256",
          "name": "",
          "type": "uint256"
        }
      ],
      "stateMutability": "pure",
      "type": "function"
    },
    {
      "inputs": [],
      "name": "contractURI",
      "outputs": [
        {
          "internalType": "string",
          "name": "",
          "type": "string"
        }
      ],
      "stateMutability": "view",
      "type": "function"
    },
    {
      "inputs": [
        {
          "internalType": "string",
          "name": "_name",
          "type": "string"
        },
        {
          "internalType": "string",
          "name": "_symbol",
          "type": "string"
        },
        {
          "internalType": "string",
          "name": "_uri",
          "type": "string"
        },
        {
          "internalType": "address[]",
          "name": "_operators",
          "type": "address[]"
        }
      ],
      "name": "createClone",
      "outputs": [
        {
          "internalType": "address",
          "name": "",
          "type": "address"
        }
      ],
      "stateMutability": "nonpayable",
      "type": "function"
    },
    {
      "inputs": [],
      "name": "getCurrentBlockNumber",
      "outputs": [
        {
          "internalType": "uint256",
          "name": "",
          "type": "uint256"
        }
      ],
      "stateMutability": "view",
      "type": "function"
    },
    {
      "inputs": [
        {
          "internalType": "address",
          "name": "owner",
          "type": "address"
        },
        {
          "internalType": "uint256",
          "name": "tokenId",
          "type": "uint256"
        }
      ],
      "name": "getMintedEntries",
      "outputs": [
        {
          "components": [
            {
              "internalType": "uint256",
              "name": "amountMinted",
              "type": "uint256"
            },
            {
              "internalType": "uint256",
              "name": "expirationBlock",
              "type": "uint256"
            },
            {
              "internalType": "uint256",
              "name": "mintBlock",
              "type": "uint256"
            }
          ],
          "internalType": "struct NFT1155SubscriptionUpgradeable.MintedTokens[]",
          "name": "",
          "type": "tuple[]"
        }
      ],
      "stateMutability": "view",
      "type": "function"
    },
    {
      "inputs": [
        {
          "internalType": "uint256",
          "name": "tokenId",
          "type": "uint256"
        }
      ],
      "name": "getNFTAttributes",
      "outputs": [
        {
          "internalType": "bool",
          "name": "nftInitialized",
          "type": "bool"
        },
        {
          "internalType": "uint256",
          "name": "nftSupply",
          "type": "uint256"
        },
        {
          "internalType": "uint256",
          "name": "mintCap",
          "type": "uint256"
        },
        {
          "internalType": "string",
          "name": "nftURI",
          "type": "string"
        }
      ],
      "stateMutability": "view",
      "type": "function"
    },
    {
      "inputs": [],
      "name": "getNvmConfigAddress",
      "outputs": [
        {
          "internalType": "address",
          "name": "",
          "type": "address"
        }
      ],
      "stateMutability": "view",
      "type": "function"
    },
    {
      "inputs": [
        {
          "internalType": "bytes32",
          "name": "role",
          "type": "bytes32"
        }
      ],
      "name": "getRoleAdmin",
      "outputs": [
        {
          "internalType": "bytes32",
          "name": "",
          "type": "bytes32"
        }
      ],
      "stateMutability": "view",
      "type": "function"
    },
    {
      "inputs": [],
      "name": "getTrustedForwarder",
      "outputs": [
        {
          "internalType": "address",
          "name": "",
          "type": "address"
        }
      ],
      "stateMutability": "view",
      "type": "function"
    },
    {
      "inputs": [
        {
          "internalType": "address",
          "name": "account",
          "type": "address"
        }
      ],
      "name": "grantOperatorRole",
      "outputs": [],
      "stateMutability": "nonpayable",
      "type": "function"
    },
    {
      "inputs": [
        {
          "internalType": "bytes32",
          "name": "role",
          "type": "bytes32"
        },
        {
          "internalType": "address",
          "name": "account",
          "type": "address"
        }
      ],
      "name": "grantRole",
      "outputs": [],
      "stateMutability": "nonpayable",
      "type": "function"
    },
    {
      "inputs": [
        {
          "internalType": "bytes32",
          "name": "role",
          "type": "bytes32"
        },
        {
          "internalType": "address",
          "name": "account",
          "type": "address"
        }
      ],
      "name": "hasRole",
      "outputs": [
        {
          "internalType": "bool",
          "name": "",
          "type": "bool"
        }
      ],
      "stateMutability": "view",
      "type": "function"
    },
    {
      "inputs": [
        {
          "internalType": "address",
          "name": "owner",
          "type": "address"
        },
        {
          "internalType": "address",
          "name": "didRegistryAddress",
          "type": "address"
        },
        {
          "internalType": "string",
          "name": "name_",
          "type": "string"
        },
        {
          "internalType": "string",
          "name": "symbol_",
          "type": "string"
        },
        {
          "internalType": "string",
          "name": "uri_",
          "type": "string"
        },
        {
          "internalType": "address",
          "name": "nvmConfig",
          "type": "address"
        }
      ],
      "name": "initialize",
      "outputs": [],
      "stateMutability": "nonpayable",
      "type": "function"
    },
    {
      "inputs": [
        {
          "internalType": "address",
          "name": "account",
          "type": "address"
        },
        {
          "internalType": "address",
          "name": "operator",
          "type": "address"
        }
      ],
      "name": "isApprovedForAll",
      "outputs": [
        {
          "internalType": "bool",
          "name": "",
          "type": "bool"
        }
      ],
      "stateMutability": "view",
      "type": "function"
    },
    {
      "inputs": [
        {
          "internalType": "address",
          "name": "addr",
          "type": "address"
        }
      ],
      "name": "isContract",
      "outputs": [
        {
          "internalType": "bool",
          "name": "",
          "type": "bool"
        }
      ],
      "stateMutability": "view",
      "type": "function"
    },
    {
      "inputs": [
        {
          "internalType": "address",
          "name": "operator",
          "type": "address"
        }
      ],
      "name": "isOperator",
      "outputs": [
        {
          "internalType": "bool",
          "name": "",
          "type": "bool"
        }
      ],
      "stateMutability": "view",
      "type": "function"
    },
    {
      "inputs": [
        {
          "internalType": "address",
          "name": "forwarder",
          "type": "address"
        }
      ],
      "name": "isTrustedForwarder",
      "outputs": [
        {
          "internalType": "bool",
          "name": "",
          "type": "bool"
        }
      ],
      "stateMutability": "view",
      "type": "function"
    },
    {
      "inputs": [
        {
          "internalType": "uint256",
          "name": "id",
          "type": "uint256"
        },
        {
          "internalType": "uint256",
          "name": "amount",
          "type": "uint256"
        }
      ],
      "name": "mint",
      "outputs": [],
      "stateMutability": "nonpayable",
      "type": "function"
    },
    {
      "inputs": [
        {
          "internalType": "address",
          "name": "to",
          "type": "address"
        },
        {
          "internalType": "uint256",
          "name": "tokenId",
          "type": "uint256"
        },
        {
          "internalType": "uint256",
          "name": "amount",
          "type": "uint256"
        },
        {
          "internalType": "bytes",
          "name": "data",
          "type": "bytes"
        }
      ],
      "name": "mint",
      "outputs": [],
      "stateMutability": "nonpayable",
      "type": "function"
    },
    {
      "inputs": [
        {
          "internalType": "address",
          "name": "to",
          "type": "address"
        },
        {
          "internalType": "uint256",
          "name": "tokenId",
          "type": "uint256"
        },
        {
          "internalType": "uint256",
          "name": "amount",
          "type": "uint256"
        },
        {
          "internalType": "uint256",
          "name": "expirationBlock",
          "type": "uint256"
        },
        {
          "internalType": "bytes",
          "name": "data",
          "type": "bytes"
        }
      ],
      "name": "mint",
      "outputs": [],
      "stateMutability": "nonpayable",
      "type": "function"
    },
    {
      "inputs": [],
      "name": "name",
      "outputs": [
        {
          "internalType": "string",
          "name": "",
          "type": "string"
        }
      ],
      "stateMutability": "view",
      "type": "function"
    },
    {
      "inputs": [],
      "name": "nftType",
      "outputs": [
        {
          "internalType": "bytes32",
          "name": "",
          "type": "bytes32"
        }
      ],
      "stateMutability": "view",
      "type": "function"
    },
    {
      "inputs": [],
      "name": "nvmConfig",
      "outputs": [
        {
          "internalType": "address",
          "name": "",
          "type": "address"
        }
      ],
      "stateMutability": "view",
      "type": "function"
    },
    {
      "inputs": [],
      "name": "owner",
      "outputs": [
        {
          "internalType": "address",
          "name": "",
          "type": "address"
        }
      ],
      "stateMutability": "view",
      "type": "function"
    },
    {
      "inputs": [],
      "name": "renounceOperatorRole",
      "outputs": [],
      "stateMutability": "nonpayable",
      "type": "function"
    },
    {
      "inputs": [],
      "name": "renounceOwnership",
      "outputs": [],
      "stateMutability": "nonpayable",
      "type": "function"
    },
    {
      "inputs": [
        {
          "internalType": "bytes32",
          "name": "role",
          "type": "bytes32"
        },
        {
          "internalType": "address",
          "name": "account",
          "type": "address"
        }
      ],
      "name": "renounceRole",
      "outputs": [],
      "stateMutability": "nonpayable",
      "type": "function"
    },
    {
      "inputs": [
        {
          "internalType": "address",
          "name": "account",
          "type": "address"
        }
      ],
      "name": "revokeOperatorRole",
      "outputs": [],
      "stateMutability": "nonpayable",
      "type": "function"
    },
    {
      "inputs": [
        {
          "internalType": "bytes32",
          "name": "role",
          "type": "bytes32"
        },
        {
          "internalType": "address",
          "name": "account",
          "type": "address"
        }
      ],
      "name": "revokeRole",
      "outputs": [],
      "stateMutability": "nonpayable",
      "type": "function"
    },
    {
      "inputs": [
        {
          "internalType": "uint256",
          "name": "tokenId",
          "type": "uint256"
        },
        {
          "internalType": "uint256",
          "name": "value",
          "type": "uint256"
        }
      ],
      "name": "royaltyInfo",
      "outputs": [
        {
          "internalType": "address",
          "name": "receiver",
          "type": "address"
        },
        {
          "internalType": "uint256",
          "name": "royaltyAmount",
          "type": "uint256"
        }
      ],
      "stateMutability": "view",
      "type": "function"
    },
    {
      "inputs": [
        {
          "internalType": "address",
          "name": "from",
          "type": "address"
        },
        {
          "internalType": "address",
          "name": "to",
          "type": "address"
        },
        {
          "internalType": "uint256[]",
          "name": "ids",
          "type": "uint256[]"
        },
        {
          "internalType": "uint256[]",
          "name": "amounts",
          "type": "uint256[]"
        },
        {
          "internalType": "bytes",
          "name": "data",
          "type": "bytes"
        }
      ],
      "name": "safeBatchTransferFrom",
      "outputs": [],
      "stateMutability": "nonpayable",
      "type": "function"
    },
    {
      "inputs": [
        {
          "internalType": "address",
          "name": "from",
          "type": "address"
        },
        {
          "internalType": "address",
          "name": "to",
          "type": "address"
        },
        {
          "internalType": "uint256",
          "name": "id",
          "type": "uint256"
        },
        {
          "internalType": "uint256",
          "name": "amount",
          "type": "uint256"
        },
        {
          "internalType": "bytes",
          "name": "data",
          "type": "bytes"
        }
      ],
      "name": "safeTransferFrom",
      "outputs": [],
      "stateMutability": "nonpayable",
      "type": "function"
    },
    {
      "inputs": [
        {
          "internalType": "address",
          "name": "operator",
          "type": "address"
        },
        {
          "internalType": "bool",
          "name": "approved",
          "type": "bool"
        }
      ],
      "name": "setApprovalForAll",
      "outputs": [],
      "stateMutability": "nonpayable",
      "type": "function"
    },
    {
      "inputs": [
        {
          "internalType": "string",
          "name": "_uri",
          "type": "string"
        }
      ],
      "name": "setContractMetadataUri",
      "outputs": [],
      "stateMutability": "nonpayable",
      "type": "function"
    },
    {
      "inputs": [
        {
          "internalType": "uint256",
          "name": "tokenId",
          "type": "uint256"
        },
        {
          "internalType": "uint256",
          "name": "nftSupply",
          "type": "uint256"
        },
        {
          "internalType": "uint256",
          "name": "mintCap",
          "type": "uint256"
        },
        {
          "internalType": "string",
          "name": "nftURI",
          "type": "string"
        }
      ],
      "name": "setNFTAttributes",
      "outputs": [],
      "stateMutability": "nonpayable",
      "type": "function"
    },
    {
      "inputs": [
        {
          "internalType": "uint256",
          "name": "tokenId",
          "type": "uint256"
        },
        {
          "internalType": "string",
          "name": "nftURI",
          "type": "string"
        }
      ],
      "name": "setNFTMetadata",
      "outputs": [],
      "stateMutability": "nonpayable",
      "type": "function"
    },
    {
      "inputs": [
        {
          "internalType": "address",
          "name": "_addr",
          "type": "address"
        }
      ],
      "name": "setNvmConfigAddress",
      "outputs": [],
      "stateMutability": "nonpayable",
      "type": "function"
    },
    {
      "inputs": [
        {
          "internalType": "uint256",
          "name": "tokenId",
          "type": "uint256"
        },
        {
          "internalType": "address",
          "name": "receiver",
          "type": "address"
        },
        {
          "internalType": "uint256",
          "name": "royaltyAmount",
          "type": "uint256"
        }
      ],
      "name": "setTokenRoyalty",
      "outputs": [],
      "stateMutability": "nonpayable",
      "type": "function"
    },
    {
      "inputs": [
        {
          "internalType": "bytes4",
          "name": "interfaceId",
          "type": "bytes4"
        }
      ],
      "name": "supportsInterface",
      "outputs": [
        {
          "internalType": "bool",
          "name": "",
          "type": "bool"
        }
      ],
      "stateMutability": "view",
      "type": "function"
    },
    {
      "inputs": [],
      "name": "symbol",
      "outputs": [
        {
          "internalType": "string",
          "name": "",
          "type": "string"
        }
      ],
      "stateMutability": "view",
      "type": "function"
    },
    {
      "inputs": [
        {
          "internalType": "address",
          "name": "newOwner",
          "type": "address"
        }
      ],
      "name": "transferOwnership",
      "outputs": [],
      "stateMutability": "nonpayable",
      "type": "function"
    },
    {
      "inputs": [
        {
          "internalType": "uint256",
          "name": "tokenId",
          "type": "uint256"
        }
      ],
      "name": "uri",
      "outputs": [
        {
          "internalType": "string",
          "name": "",
          "type": "string"
        }
      ],
      "stateMutability": "view",
      "type": "function"
    },
    {
      "inputs": [
        {
          "internalType": "address",
          "name": "owner",
          "type": "address"
        },
        {
          "internalType": "uint256",
          "name": "tokenId",
          "type": "uint256"
        }
      ],
      "name": "whenWasMinted",
      "outputs": [
        {
          "internalType": "uint256[]",
          "name": "",
          "type": "uint256[]"
        }
      ],
      "stateMutability": "view",
      "type": "function"
    }
  ],
  "bytecode": "0x608060405234801561001057600080fd5b50613f5b806100206000396000f3fe608060405234801561001057600080fd5b50600436106102665760003560e01c8062fdd58e1461026b57806301ffc9a71461029157806302acb9a6146102b457806306fdde03146102c95780630e89341c146102de57806316279055146102f15780631b2ef1ca146103055780631e5c2b3414610318578063237c491914610338578063248a9ca31461034b57806327ac0c581461035e5780632a55205a146103715780632eb2c2d6146103925780632f2ff15d146103a557806336568abe146103b85780633d6d3598146103cb5780633f2f5ee2146103d357806347c4ef25146103e65780634e1273f414610409578063572b6c05146104295780635ced058e1461043c5780635ea3ab851461044d5780636d70f7ae146104605780636fac889b146104735780636fd902e11461049a578063715018a6146104a0578063731133e9146104a857806382c947b7146104bb57806385be5724146104d55780638da5cb5b146104ea57806391d14854146104f257806395d89b41146105055780639713c8071461050d57806397cfb1a914610520578063a217fddf14610533578063a22cb4651461053b578063ab9de2301461054e578063b219f7d714610556578063b390c0ab14610569578063b49c99b81461057c578063ce1b815f1461058f578063d242310514610597578063d547741f146105aa578063d70cf7af146105bd578063e8a3d485146105d0578063e985e9c5146105d8578063e9c1e045146105eb578063ebf3c87b146105fe578063ed5b59311461061e578063f242432a14610631578063f2fde38b14610644578063f5298aca14610657578063f80795f81461066a575b600080fd5b61027e610279366004612e89565b61067d565b6040519081526020015b60405180910390f35b6102a461029f366004612ecb565b6107b9565b6040519015158152602001610288565b6102c76102c2366004612ee8565b6107f3565b005b6102d161081d565b6040516102889190612f55565b6102d16102ec366004612f68565b6108ac565b6102a46102ff366004612ee8565b3b151590565b6102c7610313366004612f81565b610951565b61032b6103263660046130f5565b610977565b60405161028891906131a1565b6102c76103463660046131b5565b610b7d565b61027e610359366004612f68565b610bb7565b6102c761036c366004612ee8565b610bcc565b61038461037f366004612f81565b610c37565b6040516102889291906131f1565b6102c76103a0366004613270565b610c8d565b6102c76103b336600461331d565b610ceb565b6102c76103c636600461331d565b610d0c565b6102c7610d96565b6102c76103e136600461334d565b610db7565b6103f96103f4366004612f68565b610ed9565b60405161028894939291906133ca565b61041c6104173660046133fb565b610fd6565b604051610288919061348f565b6102a4610437366004612ee8565b6110ff565b61032b61044a366004612f68565b90565b61027e61045b3660046134a2565b611124565b6102a461046e366004612ee8565b611173565b61027e7f10db2492ff913239dc46d6f79a35650744688d5f5cb6fa1c310d84fc745b0b7581565b4361027e565b6102c761118d565b6102c76104b63660046134de565b61119f565b61027e6104c9366004612ee8565b6001600160a01b031690565b61027e600080516020613ee683398151915281565b61032b6111b3565b6102a461050036600461331d565b6111c2565b6102d16111ed565b6102c761051b366004613534565b6111fb565b6102c761052e36600461356c565b61122d565b61027e600081565b6102c76105493660046135bb565b611260565b61032b611272565b6102c7610564366004612ee8565b611281565b6102c7610577366004612f81565b6112e9565b6102c761058a3660046135e9565b6112fb565b61032b61136e565b6102c76105a5366004613648565b6113f9565b6102c76105b836600461331d565b611455565b6102c76105cb36600461334d565b611471565b6102d1611551565b6102a46105e636600461367c565b6115e3565b60ff5461032b906001600160a01b031681565b61061161060c366004612e89565b611624565b60405161028891906136aa565b61041c61062c366004612e89565b6116bf565b6102c761063f366004613703565b6117a0565b6102c7610652366004612ee8565b6117f7565b6102c761066536600461375f565b61186d565b6102c761067836600461334d565b611baf565b60008061068a8484611c0c565b90506000805b600083815261010360205260409020548110156107ae576000838152610103602052604081208054839081106106c8576106c8613794565b906000526020600020906003020160020154118015610756575060008381526101036020526040902080548290811061070357610703613794565b90600052602060002090600302016001015460001480610756575060008381526101036020526040902080544391908390811061074257610742613794565b906000526020600020906003020160010154115b1561079c5760008381526101036020526040902080548290811061077c5761077c613794565b9060005260206000209060030201600001548261079991906137c0565b91505b806107a6816137d3565b915050610690565b509150505b92915050565b60006107c482611c3f565b806107d357506107d382611c60565b806107b357506001600160e01b0319821663152a902d60e11b1492915050565b6107fb611cb0565b60ff80546001600160a01b0319166001600160a01b0392909216919091179055565b610100805461082b906137ec565b80601f0160208091040260200160405190810160405280929190818152602001828054610857906137ec565b80156108a45780601f10610879576101008083540402835291602001916108a4565b820191906000526020600020905b81548152906001019060200180831161088757829003601f168201915b505050505081565b600081815260fc602052604090206003018054606091906108cc906137ec565b80601f01602080910402602001604051908101604052809291908181526020018280546108f8906137ec565b80156109455780601f1061091a57610100808354040283529160200191610945565b820191906000526020600020905b81548152906001019060200180831161092857829003601f168201915b50505050509050919050565b61097361095c611d1f565b83836040518060200160405280600081525061119f565b5050565b7f360894a13ba1a3210667c828492db98dca3e2076cc3735a920a3ca505d382bbc546000906001600160a01b0316806109ad5750305b60006109b882611d2e565b9050806001600160a01b038116633f2f5ee26109d2611d1f565b610102546040516001600160e01b031960e085901b168152610a0792916001600160a01b0316908d908d908d90600401613826565b600060405180830381600087803b158015610a2157600080fd5b505af1158015610a35573d6000803e3d6000fd5b5050505060005b8551811015610acf57816001600160a01b03166327ac0c58878381518110610a6657610a66613794565b60200260200101516040518263ffffffff1660e01b8152600401610a8a91906131a1565b600060405180830381600087803b158015610aa457600080fd5b505af1158015610ab8573d6000803e3d6000fd5b505050508080610ac7906137d3565b915050610a3c565b50806001600160a01b0316633d6d35986040518163ffffffff1660e01b8152600401600060405180830381600087803b158015610b0b57600080fd5b505af1158015610b1f573d6000803e3d6000fd5b50505050826001600160a01b0316826001600160a01b03167f60b02f0439b830955522ba890ebaeed1012ac175aba5742b6032a7b79d0cd734610483604051610b6a91815260200190565b60405180910390a3509695505050505050565b610b8861046e611d1f565b610bad5760405162461bcd60e51b8152600401610ba490613884565b60405180910390fd5b6109738282611dc8565b600090815260c9602052604090206001015490565b610bd4611d1f565b6001600160a01b0316610be56111b3565b6001600160a01b03161480610c005750610c0061046e611d1f565b610c1c5760405162461bcd60e51b8152600401610ba4906138af565b610c34600080516020613ee683398151915282611dee565b50565b600082815260fb60209081526040808320815180830190925280546001600160a01b03168083526001909101549282018390529291606490610c7990866138df565b610c8391906138f6565b9150509250929050565b610c95611d1f565b6001600160a01b0316856001600160a01b03161480610cbb5750610cbb856105e6611d1f565b610cd75760405162461bcd60e51b8152600401610ba490613918565b610ce48585858585611df8565b5050505050565b610cf482610bb7565b610cfd81611fe9565b610d078383611ffa565b505050565b610d14611d1f565b6001600160a01b0316816001600160a01b031614610d8c5760405162461bcd60e51b815260206004820152602f60248201527f416363657373436f6e74726f6c3a2063616e206f6e6c792072656e6f756e636560448201526e103937b632b9903337b91039b2b63360891b6064820152608401610ba4565b6109738282612081565b610db5600080516020613ee6833981519152610db0611d1f565b612081565b565b600054610100900460ff1615808015610dd75750600054600160ff909116105b80610df85750610de630612106565b158015610df8575060005460ff166001145b610e5b5760405162461bcd60e51b815260206004820152602e60248201527f496e697469616c697a61626c653a20636f6e747261637420697320616c72656160448201526d191e481a5b9a5d1a585b1a5e995960921b6064820152608401610ba4565b6000805460ff191660011790558015610e7e576000805461ff0019166101001790555b610e8b8686868686611baf565b8015610ed1576000805461ff0019169055604051600181527f7f26b83ff96e1f2b6a682f133852f6798a09c465da95921460cefb38474024989060200160405180910390a15b505050505050565b600081815260fc602090815260408083208151608081018352815460ff16151581526001820154938101939093526002810154918301919091526003810180548493849360609385938386019190610f30906137ec565b80601f0160208091040260200160405190810160405280929190818152602001828054610f5c906137ec565b8015610fa95780601f10610f7e57610100808354040283529160200191610fa9565b820191906000526020600020905b815481529060010190602001808311610f8c57829003601f168201915b505050919092525050815160208301516040840151606090940151919a9099509297509550909350505050565b6060815183511461103b5760405162461bcd60e51b815260206004820152602960248201527f455243313135353a206163636f756e747320616e6420696473206c656e677468604482015268040dad2e6dac2e8c6d60bb1b6064820152608401610ba4565b600083516001600160401b0381111561105657611056612fa3565b60405190808252806020026020018201604052801561107f578160200160208202803683370190505b50905060005b84518110156110f7576110ca8582815181106110a3576110a3613794565b60200260200101518583815181106110bd576110bd613794565b602002602001015161067d565b8282815181106110dc576110dc613794565b60209081029190910101526110f0816137d3565b9050611085565b509392505050565b600061110961136e565b6001600160a01b0316826001600160a01b0316149050919050565b60008060005b835181101561116c5783818151811061114557611145613794565b60200260200101518261115891906137c0565b915080611164816137d3565b91505061112a565b5092915050565b60006107b3600080516020613ee6833981519152836111c2565b611195611cb0565b610db56000612115565b6111ad8484846000856112fb565b50505050565b6033546001600160a01b031690565b600091825260c9602090815260408084206001600160a01b0393909316845291905290205460ff1690565b610101805461082b906137ec565b61120661046e611d1f565b6112225760405162461bcd60e51b8152600401610ba490613884565b610d07838383612167565b61123861046e611d1f565b6112545760405162461bcd60e51b8152600401610ba490613884565b6111ad848484846121ff565b61097361126b611d1f565b8383612233565b60ff546001600160a01b031690565b611289611d1f565b6001600160a01b031661129a6111b3565b6001600160a01b031614806112b557506112b561046e611d1f565b6112d15760405162461bcd60e51b8152600401610ba4906138af565b610c34600080516020613ee683398151915282612081565b6109736112f4611d1f565b838361186d565b61130785858584612313565b60006113138686611c0c565b6000908152610103602090815260408083208151606081018352978852878301968752439188019182528054600181810183559185529290932096516003909202909601908155935190840155505090516002909101555050565b600080611379611272565b90506001600160a01b03811661139157600091505090565b806001600160a01b031663ce1b815f6040518163ffffffff1660e01b8152600401602060405180830381865afa1580156113cf573d6000803e3d6000fd5b505050506040513d601f19601f820116820180604052508101906113f39190613966565b91505090565b611401611d1f565b6001600160a01b03166114126111b3565b6001600160a01b0316148061142d575061142d61046e611d1f565b6114495760405162461bcd60e51b8152600401610ba4906138af565b60fe61097382826139c9565b61145e82610bb7565b61146781611fe9565b610d078383612081565b600054610100900460ff166114985760405162461bcd60e51b8152600401610ba490613a88565b6114b7600080516020613ee68339815191526114b2611d1f565b611dee565b6114cf600080516020613ee683398151915285611dee565b6114e7600080516020613ee683398151915286611dee565b6114f0816113f9565b6101006114fd84826139c9565b5061010161150b83826139c9565b5061010280546001600160a01b0319166001600160a01b038616179055611530611d1f565b6001600160a01b0316856001600160a01b031614610ce457610ce4856117f7565b606060fe8054611560906137ec565b80601f016020809104026020016040519081016040528092919081815260200182805461158c906137ec565b80156115d95780601f106115ae576101008083540402835291602001916115d9565b820191906000526020600020905b8154815290600101906020018083116115bc57829003601f168201915b5050505050905090565b6001600160a01b03808316600090815260986020908152604080832093851683529290529081205460ff168061161d575061161d82611173565b9392505050565b606061010360006116358585611c0c565b8152602001908152602001600020805480602002602001604051908101604052809291908181526020016000905b828210156116b35783829060005260206000209060030201604051806060016040529081600082015481526020016001820154815260200160028201548152505081526020019060010190611663565b50505050905092915050565b606060006116cd8484611c0c565b60008181526101036020526040812054919250906001600160401b038111156116f8576116f8612fa3565b604051908082528060200260200182016040528015611721578160200160208202803683370190505b50905060005b600083815261010360205260409020548110156107ae5760008381526101036020526040902080548290811061175f5761175f613794565b90600052602060002090600302016002015482828151811061178357611783613794565b602090810291909101015280611798816137d3565b915050611727565b6117a8611d1f565b6001600160a01b0316856001600160a01b031614806117ce57506117ce856105e6611d1f565b6117ea5760405162461bcd60e51b8152600401610ba490613918565b610ce485858585856125ea565b6117ff611cb0565b6001600160a01b0381166118645760405162461bcd60e51b815260206004820152602660248201527f4f776e61626c653a206e6577206f776e657220697320746865207a65726f206160448201526564647265737360d01b6064820152608401610ba4565b610c3481612115565b80611878848461271f565b10156118d25760405162461bcd60e51b8152602060048201526024808201527f455243313135353a206275726e20616d6f756e7420657863656564732062616c604482015263616e636560e01b6064820152608401610ba4565b6118dd61046e611d1f565b8061190057506118eb611d1f565b6001600160a01b0316836001600160a01b0316145b806119125750611912836105e6611d1f565b6119705760405162461bcd60e51b815260206004820152602960248201527f455243313135353a2063616c6c6572206973206e6f74206f776e6572206e6f7260448201526808185c1c1c9bdd995960ba1b6064820152608401610ba4565b600082815260fc602052604081206001018054839290611991908490613ad3565b9091555050610102546001600160a01b031663bb794d92836119b1611d1f565b84436040516020016119c69493929190613afd565b604051602081830303815290604052805190602001208460001b6119e8611d1f565b7ff43e8cfd4725c1e28fa4a6e3e468b4fcf75367166b850ac5f04e33ec843e82c16040518563ffffffff1660e01b8152600401611a289493929190613b39565b6020604051808303816000875af1158015611a47573d6000803e3d6000fd5b505050506040513d601f19601f82011682018060405250810190611a6b9190613b79565b506000611a788484611c0c565b90508160005b60008381526101036020526040902054811015610ed157600083815261010360205260409020805482908110611ab657611ab6613794565b9060005260206000209060030201600001548211611b1d57600083815261010360205260409020805483919083908110611af257611af2613794565b90600052602060002090600302016000016000828254611b129190613ad3565b90915550610ed19050565b600083815261010360205260409020805482908110611b3e57611b3e613794565b90600052602060002090600302016000015482611b5b9190613ad3565b60008481526101036020526040902080549193509082908110611b8057611b80613794565b600091825260208220600390910201818155600181018290556002015580611ba7816137d3565b915050611a7e565b600054610100900460ff16611bd65760405162461bcd60e51b8152600401610ba490613a88565b611bde6127b2565b611be66127b2565b611bef816127d9565b611bf7612809565b611bff6127b2565b610ce48585858585611471565b60008282604051602001611c219291906131f1565b60405160208183030381529060405280519060200120905092915050565b60006001600160e01b03198216637965db0b60e01b14806107b357506107b3825b60006001600160e01b03198216636cdb3d1360e11b1480611c9157506001600160e01b031982166303a24d0760e21b145b806107b357506301ffc9a760e01b6001600160e01b03198316146107b3565b611cb8611d1f565b6001600160a01b0316611cc96111b3565b6001600160a01b031614610db55760405162461bcd60e51b815260206004820181905260248201527f4f776e61626c653a2063616c6c6572206973206e6f7420746865206f776e65726044820152606401610ba4565b6000611d29612840565b905090565b6000763d602d80600a3d3981f3363d3d373d3d3d363d730000008260601b60e81c176000526e5af43d82803e903d91602b57fd5bf38260781b17602052603760096000f090506001600160a01b038116611dc35760405162461bcd60e51b8152602060048201526016602482015275115490cc4c4d8dce8818dc99585d194819985a5b195960521b6044820152606401610ba4565b919050565b600082815260fc60205260409020805460ff19166001178155600301610d0782826139c9565b6109738282611ffa565b8151835114611e5a5760405162461bcd60e51b815260206004820152602860248201527f455243313135353a2069647320616e6420616d6f756e7473206c656e677468206044820152670dad2e6dac2e8c6d60c31b6064820152608401610ba4565b6001600160a01b038416611e805760405162461bcd60e51b8152600401610ba490613b96565b6000611e8a611d1f565b9050611e9a81878787878761286e565b60005b8451811015611f83576000858281518110611eba57611eba613794565b602002602001015190506000858381518110611ed857611ed8613794565b60209081029190910181015160008481526097835260408082206001600160a01b038e168352909352919091205490915081811015611f295760405162461bcd60e51b8152600401610ba490613bdb565b60008381526097602090815260408083206001600160a01b038e8116855292528083208585039055908b16825281208054849290611f689084906137c0565b9250508190555050505080611f7c906137d3565b9050611e9d565b50846001600160a01b0316866001600160a01b0316826001600160a01b03167f4a39dc06d4c0dbc64b70af90fd698a233a518aa5d07e595d983b8c0526c8f7fb8787604051611fd3929190613c25565b60405180910390a4610ed18187878787876128d5565b610c3481611ff5611d1f565b612a40565b61200482826111c2565b61097357600082815260c9602090815260408083206001600160a01b03851684529091529020805460ff1916600117905561203d611d1f565b6001600160a01b0316816001600160a01b0316837f2f8788117e7eff1d82e926ec794901d17c78024a50270940304540a733656f0d60405160405180910390a45050565b61208b82826111c2565b1561097357600082815260c9602090815260408083206001600160a01b03851684529091529020805460ff191690556120c2611d1f565b6001600160a01b0316816001600160a01b0316837ff6391f5c32d9c69d2a47ea670b442974b53935d1edc7fd64eb21e047a839171b60405160405180910390a45050565b6001600160a01b03163b151590565b603380546001600160a01b038381166001600160a01b0319831681179093556040519116919082907f8be0079c531659141344cd1fd0a4f28419497f9722a3daafe3b4186f6b6457e090600090a35050565b620f42408111156121b75760405162461bcd60e51b815260206004820152601a60248201527908aa48664727062a4def2c2d8e8d2cae67440a8dede40d0d2ced60331b6044820152606401610ba4565b6040805180820182526001600160a01b0393841681526020808201938452600095865260fb90529320925183546001600160a01b031916921691909117825551600190910155565b600084815260fc60205260409020805460ff191660019081178255810184905560028101839055600301610ce482826139c9565b816001600160a01b0316836001600160a01b0316036122a65760405162461bcd60e51b815260206004820152602960248201527f455243313135353a2073657474696e6720617070726f76616c20737461747573604482015268103337b91039b2b63360b91b6064820152608401610ba4565b6001600160a01b03838116600081815260986020908152604080832094871680845294825291829020805460ff191686151590811790915591519182527f17307eab39ab6107e8899845ad3d59bd9653f200f220920489ca2b5937696c31910160405180910390a3505050565b61231e61046e611d1f565b80612341575061232c6111b3565b6001600160a01b0316846001600160a01b0316145b806123d1575061010254604051631b0bbd4960e21b8152600481018590526001600160a01b0390911690636c2ef52490602401602060405180830381865afa158015612391573d6000803e3d6000fd5b505050506040513d601f19601f820116820180604052508101906123b59190613966565b6001600160a01b03166123c6611d1f565b6001600160a01b0316145b6124165760405162461bcd60e51b81526020600482015260166024820152751bdb9b1e481bdc195c985d1bdc8818d85b881b5a5b9d60521b6044820152606401610ba4565b600083815260fc602052604090205460ff1661246a5760405162461bcd60e51b8152602060048201526013602482015272139195081b9bdd081a5b9a5d1a585b1a5e9959606a1b6044820152606401610ba4565b600083815260fc6020526040902060020154156124e257600083815260fc6020526040902060028101546001909101546124a59084906137c0565b11156124e25760405162461bcd60e51b815260206004820152600c60248201526b10d85c08195e18d95959195960a21b6044820152606401610ba4565b600083815260fc6020526040812060010180548492906125039084906137c0565b9091555050610102546001600160a01b031663bb794d9284612523611d1f565b85436040516020016125389493929190613c6a565b604051602081830303815290604052805190602001208560001b61255a611d1f565b7fdaf0b3c5710379609eb5495f1ecd348cb28167711b73609fe565a727345503546040518563ffffffff1660e01b815260040161259a9493929190613c93565b6020604051808303816000875af11580156125b9573d6000803e3d6000fd5b505050506040513d601f19601f820116820180604052508101906125dd9190613b79565b506111ad84848484612a99565b6001600160a01b0384166126105760405162461bcd60e51b8152600401610ba490613b96565b600061261a611d1f565b9050600061262785612bae565b9050600061263485612bae565b905061264483898985858961286e565b60008681526097602090815260408083206001600160a01b038c168452909152902054858110156126875760405162461bcd60e51b8152600401610ba490613bdb565b60008781526097602090815260408083206001600160a01b038d8116855292528083208985039055908a168252812080548892906126c69084906137c0565b909155505060408051888152602081018890526001600160a01b03808b16928c82169291881691600080516020613f06833981519152910160405180910390a4612714848a8a8a8a8a612bf9565b505050505050505050565b60006001600160a01b03831661278a5760405162461bcd60e51b815260206004820152602a60248201527f455243313135353a2061646472657373207a65726f206973206e6f742061207660448201526930b634b21037bbb732b960b11b6064820152608401610ba4565b5060009081526097602090815260408083206001600160a01b03949094168352929052205490565b600054610100900460ff16610db55760405162461bcd60e51b8152600401610ba490613a88565b600054610100900460ff166128005760405162461bcd60e51b8152600401610ba490613a88565b610c3481612cbb565b600054610100900460ff166128305760405162461bcd60e51b8152600401610ba490613a88565b610db561283b611d1f565b612115565b6000601436108015906128575750612857336110ff565b15612869575060131936013560601c90565b503390565b6001600160a01b038516158061288b57506001600160a01b038416155b8061289c575061289c61046e611d1f565b610ed15760405162461bcd60e51b815260206004820152600a6024820152696f6e6c792070726f787960b01b6044820152606401610ba4565b6128e7846001600160a01b0316612106565b15610ed15760405163bc197c8160e01b81526001600160a01b0385169063bc197c81906129209089908990889088908890600401613cd3565b6020604051808303816000875af192505050801561295b575060408051601f3d908101601f1916820190925261295891810190613d11565b60015b612a0757612967613d2e565b806308c379a0036129a0575061297b613d49565b8061298657506129a2565b8060405162461bcd60e51b8152600401610ba49190612f55565b505b60405162461bcd60e51b815260206004820152603460248201527f455243313135353a207472616e7366657220746f206e6f6e2d455243313135356044820152732932b1b2b4bb32b91034b6b83632b6b2b73a32b960611b6064820152608401610ba4565b6001600160e01b0319811663bc197c8160e01b14612a375760405162461bcd60e51b8152600401610ba490613dd2565b50505050505050565b612a4a82826111c2565b61097357612a5781612cc7565b612a62836020612cd9565b604051602001612a73929190613e1a565b60408051601f198184030181529082905262461bcd60e51b8252610ba491600401612f55565b6001600160a01b038416612af95760405162461bcd60e51b815260206004820152602160248201527f455243313135353a206d696e7420746f20746865207a65726f206164647265736044820152607360f81b6064820152608401610ba4565b6000612b03611d1f565b90506000612b1085612bae565b90506000612b1d85612bae565b9050612b2e8360008985858961286e565b60008681526097602090815260408083206001600160a01b038b16845290915281208054879290612b609084906137c0565b909155505060408051878152602081018790526001600160a01b03808a169260009291871691600080516020613f06833981519152910160405180910390a4612a3783600089898989612bf9565b60408051600180825281830190925260609160009190602080830190803683370190505090508281600081518110612be857612be8613794565b602090810291909101015292915050565b612c0b846001600160a01b0316612106565b15610ed15760405163f23a6e6160e01b81526001600160a01b0385169063f23a6e6190612c449089908990889088908890600401613e89565b6020604051808303816000875af1925050508015612c7f575060408051601f3d908101601f19168201909252612c7c91810190613d11565b60015b612c8b57612967613d2e565b6001600160e01b0319811663f23a6e6160e01b14612a375760405162461bcd60e51b8152600401610ba490613dd2565b609961097382826139c9565b60606107b36001600160a01b03831660145b60606000612ce88360026138df565b612cf39060026137c0565b6001600160401b03811115612d0a57612d0a612fa3565b6040519080825280601f01601f191660200182016040528015612d34576020820181803683370190505b509050600360fc1b81600081518110612d4f57612d4f613794565b60200101906001600160f81b031916908160001a905350600f60fb1b81600181518110612d7e57612d7e613794565b60200101906001600160f81b031916908160001a9053506000612da28460026138df565b612dad9060016137c0565b90505b6001811115612e25576f181899199a1a9b1b9c1cb0b131b232b360811b85600f1660108110612de157612de1613794565b1a60f81b828281518110612df757612df7613794565b60200101906001600160f81b031916908160001a90535060049490941c93612e1e81613ece565b9050612db0565b50831561161d5760405162461bcd60e51b815260206004820181905260248201527f537472696e67733a20686578206c656e67746820696e73756666696369656e746044820152606401610ba4565b6001600160a01b0381168114610c3457600080fd5b60008060408385031215612e9c57600080fd5b8235612ea781612e74565b946020939093013593505050565b6001600160e01b031981168114610c3457600080fd5b600060208284031215612edd57600080fd5b813561161d81612eb5565b600060208284031215612efa57600080fd5b813561161d81612e74565b60005b83811015612f20578181015183820152602001612f08565b50506000910152565b60008151808452612f41816020860160208601612f05565b601f01601f19169290920160200192915050565b60208152600061161d6020830184612f29565b600060208284031215612f7a57600080fd5b5035919050565b60008060408385031215612f9457600080fd5b50508035926020909101359150565b634e487b7160e01b600052604160045260246000fd5b601f8201601f191681016001600160401b0381118282101715612fde57612fde612fa3565b6040525050565b600082601f830112612ff657600080fd5b81356001600160401b0381111561300f5761300f612fa3565b604051613026601f8301601f191660200182612fb9565b81815284602083860101111561303b57600080fd5b816020850160208301376000918101602001919091529392505050565b60006001600160401b0382111561307157613071612fa3565b5060051b60200190565b600082601f83011261308c57600080fd5b8135602061309982613058565b6040516130a68282612fb9565b83815260059390931b85018201928281019150868411156130c657600080fd5b8286015b848110156130ea5780356130dd81612e74565b83529183019183016130ca565b509695505050505050565b6000806000806080858703121561310b57600080fd5b84356001600160401b038082111561312257600080fd5b61312e88838901612fe5565b9550602087013591508082111561314457600080fd5b61315088838901612fe5565b9450604087013591508082111561316657600080fd5b61317288838901612fe5565b9350606087013591508082111561318857600080fd5b506131958782880161307b565b91505092959194509250565b6001600160a01b0391909116815260200190565b600080604083850312156131c857600080fd5b8235915060208301356001600160401b038111156131e557600080fd5b610c8385828601612fe5565b6001600160a01b03929092168252602082015260400190565b600082601f83011261321b57600080fd5b8135602061322882613058565b6040516132358282612fb9565b83815260059390931b850182019282810191508684111561325557600080fd5b8286015b848110156130ea5780358352918301918301613259565b600080600080600060a0868803121561328857600080fd5b853561329381612e74565b945060208601356132a381612e74565b935060408601356001600160401b03808211156132bf57600080fd5b6132cb89838a0161320a565b945060608801359150808211156132e157600080fd5b6132ed89838a0161320a565b9350608088013591508082111561330357600080fd5b5061331088828901612fe5565b9150509295509295909350565b6000806040838503121561333057600080fd5b82359150602083013561334281612e74565b809150509250929050565b600080600080600060a0868803121561336557600080fd5b853561337081612e74565b9450602086013561338081612e74565b935060408601356001600160401b038082111561339c57600080fd5b6133a889838a01612fe5565b945060608801359150808211156133be57600080fd5b6132ed89838a01612fe5565b84151581528360208201528260408201526080606082015260006133f16080830184612f29565b9695505050505050565b6000806040838503121561340e57600080fd5b82356001600160401b038082111561342557600080fd5b6134318683870161307b565b9350602085013591508082111561344757600080fd5b50610c838582860161320a565b600081518084526020808501945080840160005b8381101561348457815187529582019590820190600101613468565b509495945050505050565b60208152600061161d6020830184613454565b6000602082840312156134b457600080fd5b81356001600160401b038111156134ca57600080fd5b6134d68482850161320a565b949350505050565b600080600080608085870312156134f457600080fd5b84356134ff81612e74565b9350602085013592506040850135915060608501356001600160401b0381111561352857600080fd5b61319587828801612fe5565b60008060006060848603121561354957600080fd5b83359250602084013561355b81612e74565b929592945050506040919091013590565b6000806000806080858703121561358257600080fd5b84359350602085013592506040850135915060608501356001600160401b0381111561352857600080fd5b8015158114610c3457600080fd5b600080604083850312156135ce57600080fd5b82356135d981612e74565b91506020830135613342816135ad565b600080600080600060a0868803121561360157600080fd5b853561360c81612e74565b945060208601359350604086013592506060860135915060808601356001600160401b0381111561363c57600080fd5b61331088828901612fe5565b60006020828403121561365a57600080fd5b81356001600160401b0381111561367057600080fd5b6134d684828501612fe5565b6000806040838503121561368f57600080fd5b823561369a81612e74565b9150602083013561334281612e74565b602080825282518282018190526000919060409081850190868401855b828110156136f657815180518552868101518786015285015185850152606090930192908501906001016136c7565b5091979650505050505050565b600080600080600060a0868803121561371b57600080fd5b853561372681612e74565b9450602086013561373681612e74565b9350604086013592506060860135915060808601356001600160401b0381111561363c57600080fd5b60008060006060848603121561377457600080fd5b833561377f81612e74565b95602085013595506040909401359392505050565b634e487b7160e01b600052603260045260246000fd5b634e487b7160e01b600052601160045260246000fd5b808201808211156107b3576107b36137aa565b6000600182016137e5576137e56137aa565b5060010190565b600181811c9082168061380057607f821691505b60208210810361382057634e487b7160e01b600052602260045260246000fd5b50919050565b6001600160a01b0386811682528516602082015260a06040820181905260009061385290830186612f29565b82810360608401526138648186612f29565b905082810360808401526138788185612f29565b98975050505050505050565b60208082526011908201527037b7363c9037333a1037b832b930ba37b960791b604082015260600190565b60208082526016908201527527b7363c9037b832b930ba37b91037b91037bbb732b960511b604082015260600190565b80820281158282048414176107b3576107b36137aa565b60008261391357634e487b7160e01b600052601260045260246000fd5b500490565b6020808252602e908201527f455243313135353a2063616c6c6572206973206e6f7420746f6b656e206f776e60408201526d195c881bdc88185c1c1c9bdd995960921b606082015260800190565b60006020828403121561397857600080fd5b815161161d81612e74565b601f821115610d0757600081815260208120601f850160051c810160208610156139aa5750805b601f850160051c820191505b81811015610ed1578281556001016139b6565b81516001600160401b038111156139e2576139e2612fa3565b6139f6816139f084546137ec565b84613983565b602080601f831160018114613a2b5760008415613a135750858301515b600019600386901b1c1916600185901b178555610ed1565b600085815260208120601f198616915b82811015613a5a57888601518255948401946001909101908401613a3b565b5085821015613a785787850151600019600388901b60f8161c191681555b5050505050600190811b01905550565b6020808252602b908201527f496e697469616c697a61626c653a20636f6e7472616374206973206e6f74206960408201526a6e697469616c697a696e6760a81b606082015260800190565b818103818111156107b3576107b36137aa565b6004815263313ab93760e11b602082015260400190565b8481526001600160a01b038416602082015260a060408201819052600090613b26908301613ae6565b6060830194909452506080015292915050565b84815283602082015260018060a01b038316604082015281606082015260c06080820152600060c082015260e060a082015260006133f160e08301613ae6565b600060208284031215613b8b57600080fd5b815161161d816135ad565b60208082526025908201527f455243313135353a207472616e7366657220746f20746865207a65726f206164604082015264647265737360d81b606082015260800190565b6020808252602a908201527f455243313135353a20696e73756666696369656e742062616c616e636520666f60408201526939103a3930b739b332b960b11b606082015260800190565b604081526000613c386040830185613454565b8281036020840152613c4a8185613454565b95945050505050565b60048152631b5a5b9d60e21b602082015260400190565b8481526001600160a01b038416602082015260a060408201819052600090613b26908301613c53565b84815283602082015260018060a01b038316604082015281606082015260c06080820152600060c082015260e060a082015260006133f160e08301613c53565b6001600160a01b0386811682528516602082015260a060408201819052600090613cff90830186613454565b82810360608401526138648186613454565b600060208284031215613d2357600080fd5b815161161d81612eb5565b600060033d111561044a5760046000803e5060005160e01c90565b600060443d1015613d575790565b6040516003193d81016004833e81513d6001600160401b038083116024840183101715613d8657505050505090565b8285019150815181811115613d9e5750505050505090565b843d8701016020828501011115613db85750505050505090565b613dc760208286010187612fb9565b509095945050505050565b60208082526028908201527f455243313135353a204552433131353552656365697665722072656a656374656040820152676420746f6b656e7360c01b606082015260800190565b76020b1b1b2b9b9a1b7b73a3937b61d1030b1b1b7bab73a1604d1b815260008351613e4c816017850160208801612f05565b7001034b99036b4b9b9b4b733903937b6329607d1b6017918401918201528351613e7d816028840160208801612f05565b01602801949350505050565b6001600160a01b03868116825285166020820152604081018490526060810183905260a060808201819052600090613ec390830184612f29565b979650505050505050565b600081613edd57613edd6137aa565b50600019019056fef7a17991623d7e30ebf9bd089b2f4dcf33b0aa34727454bfa3dbc351ed7d6835c3d58168c5ae7397731d063d5bbf3d657854427343f4c083240f7aacaa2d0f62a2646970667358221220edbfbd9cc36d0fc29f921a0c11f618778549fd5e870483e010354e8e9f57524a64736f6c63430008110033",
  "linkReferences": {},
  "deployedLinkReferences": {}
}