{
  "_format": "hh-sol-artifact-1",
  "contractName": "NFT1155SubscriptionUpgradeable",
  "sourceName": "contracts/token/erc1155/NFT1155SubcriptionUpgradeable.sol",
  "abi": [
    {
      "anonymous": false,
      "inputs": [
        {
          "indexed": true,
          "internalType": "address",
          "name": "account",
          "type": "address"
        },
        {
          "indexed": true,
          "internalType": "address",
          "name": "operator",
          "type": "address"
        },
        {
          "indexed": false,
          "internalType": "bool",
          "name": "approved",
          "type": "bool"
        }
      ],
      "name": "ApprovalForAll",
      "type": "event"
    },
    {
      "anonymous": false,
      "inputs": [
        {
          "indexed": false,
          "internalType": "uint8",
          "name": "version",
          "type": "uint8"
        }
      ],
      "name": "Initialized",
      "type": "event"
    },
    {
      "anonymous": false,
      "inputs": [
        {
          "indexed": true,
          "internalType": "address",
          "name": "_newAddress",
          "type": "address"
        },
        {
          "indexed": true,
          "internalType": "address",
          "name": "_fromAddress",
          "type": "address"
        },
        {
          "indexed": false,
          "internalType": "uint256",
          "name": "_ercType",
          "type": "uint256"
        }
      ],
      "name": "NFTCloned",
      "type": "event"
    },
    {
      "anonymous": false,
      "inputs": [
        {
          "indexed": true,
          "internalType": "address",
          "name": "previousOwner",
          "type": "address"
        },
        {
          "indexed": true,
          "internalType": "address",
          "name": "newOwner",
          "type": "address"
        }
      ],
      "name": "OwnershipTransferred",
      "type": "event"
    },
    {
      "anonymous": false,
      "inputs": [
        {
          "indexed": true,
          "internalType": "bytes32",
          "name": "role",
          "type": "bytes32"
        },
        {
          "indexed": true,
          "internalType": "bytes32",
          "name": "previousAdminRole",
          "type": "bytes32"
        },
        {
          "indexed": true,
          "internalType": "bytes32",
          "name": "newAdminRole",
          "type": "bytes32"
        }
      ],
      "name": "RoleAdminChanged",
      "type": "event"
    },
    {
      "anonymous": false,
      "inputs": [
        {
          "indexed": true,
          "internalType": "bytes32",
          "name": "role",
          "type": "bytes32"
        },
        {
          "indexed": true,
          "internalType": "address",
          "name": "account",
          "type": "address"
        },
        {
          "indexed": true,
          "internalType": "address",
          "name": "sender",
          "type": "address"
        }
      ],
      "name": "RoleGranted",
      "type": "event"
    },
    {
      "anonymous": false,
      "inputs": [
        {
          "indexed": true,
          "internalType": "bytes32",
          "name": "role",
          "type": "bytes32"
        },
        {
          "indexed": true,
          "internalType": "address",
          "name": "account",
          "type": "address"
        },
        {
          "indexed": true,
          "internalType": "address",
          "name": "sender",
          "type": "address"
        }
      ],
      "name": "RoleRevoked",
      "type": "event"
    },
    {
      "anonymous": false,
      "inputs": [
        {
          "indexed": true,
          "internalType": "address",
          "name": "operator",
          "type": "address"
        },
        {
          "indexed": true,
          "internalType": "address",
          "name": "from",
          "type": "address"
        },
        {
          "indexed": true,
          "internalType": "address",
          "name": "to",
          "type": "address"
        },
        {
          "indexed": false,
          "internalType": "uint256[]",
          "name": "ids",
          "type": "uint256[]"
        },
        {
          "indexed": false,
          "internalType": "uint256[]",
          "name": "values",
          "type": "uint256[]"
        }
      ],
      "name": "TransferBatch",
      "type": "event"
    },
    {
      "anonymous": false,
      "inputs": [
        {
          "indexed": true,
          "internalType": "address",
          "name": "operator",
          "type": "address"
        },
        {
          "indexed": true,
          "internalType": "address",
          "name": "from",
          "type": "address"
        },
        {
          "indexed": true,
          "internalType": "address",
          "name": "to",
          "type": "address"
        },
        {
          "indexed": false,
          "internalType": "uint256",
          "name": "id",
          "type": "uint256"
        },
        {
          "indexed": false,
          "internalType": "uint256",
          "name": "value",
          "type": "uint256"
        }
      ],
      "name": "TransferSingle",
      "type": "event"
    },
    {
      "anonymous": false,
      "inputs": [
        {
          "indexed": false,
          "internalType": "string",
          "name": "value",
          "type": "string"
        },
        {
          "indexed": true,
          "internalType": "uint256",
          "name": "id",
          "type": "uint256"
        }
      ],
      "name": "URI",
      "type": "event"
    },
    {
      "inputs": [],
      "name": "DEFAULT_ADMIN_ROLE",
      "outputs": [
        {
          "internalType": "bytes32",
          "name": "",
          "type": "bytes32"
        }
      ],
      "stateMutability": "view",
      "type": "function"
    },
    {
      "inputs": [],
      "name": "NVM_OPERATOR_ROLE",
      "outputs": [
        {
          "internalType": "bytes32",
          "name": "",
          "type": "bytes32"
        }
      ],
      "stateMutability": "view",
      "type": "function"
    },
    {
      "inputs": [
        {
          "internalType": "address",
          "name": "owner",
          "type": "address"
        },
        {
          "internalType": "address",
          "name": "didRegistryAddress",
          "type": "address"
        },
        {
          "internalType": "string",
          "name": "name_",
          "type": "string"
        },
        {
          "internalType": "string",
          "name": "symbol_",
          "type": "string"
        },
        {
          "internalType": "string",
          "name": "uri_",
          "type": "string"
        }
      ],
      "name": "__NFT1155Upgradeable_init",
      "outputs": [],
      "stateMutability": "nonpayable",
      "type": "function"
    },
    {
      "inputs": [
        {
          "internalType": "address",
          "name": "owner",
          "type": "address"
        },
        {
          "internalType": "address",
          "name": "didRegistryAddress",
          "type": "address"
        },
        {
          "internalType": "string",
          "name": "name_",
          "type": "string"
        },
        {
          "internalType": "string",
          "name": "symbol_",
          "type": "string"
        },
        {
          "internalType": "string",
          "name": "uri_",
          "type": "string"
        }
      ],
      "name": "__NFT1155Upgradeable_unchained",
      "outputs": [],
      "stateMutability": "nonpayable",
      "type": "function"
    },
    {
      "inputs": [
        {
          "internalType": "address",
          "name": "_addr",
          "type": "address"
        }
      ],
      "name": "addressToBytes32",
      "outputs": [
        {
          "internalType": "bytes32",
          "name": "",
          "type": "bytes32"
        }
      ],
      "stateMutability": "pure",
      "type": "function"
    },
    {
      "inputs": [
        {
          "internalType": "address",
          "name": "account",
          "type": "address"
        },
        {
          "internalType": "uint256",
          "name": "tokenId",
          "type": "uint256"
        }
      ],
      "name": "balanceOf",
      "outputs": [
        {
          "internalType": "uint256",
          "name": "",
          "type": "uint256"
        }
      ],
      "stateMutability": "view",
      "type": "function"
    },
    {
      "inputs": [
        {
          "internalType": "address[]",
          "name": "accounts",
          "type": "address[]"
        },
        {
          "internalType": "uint256[]",
          "name": "ids",
          "type": "uint256[]"
        }
      ],
      "name": "balanceOfBatch",
      "outputs": [
        {
          "internalType": "uint256[]",
          "name": "",
          "type": "uint256[]"
        }
      ],
      "stateMutability": "view",
      "type": "function"
    },
    {
      "inputs": [
        {
          "internalType": "uint256",
          "name": "id",
          "type": "uint256"
        },
        {
          "internalType": "uint256",
          "name": "amount",
          "type": "uint256"
        }
      ],
      "name": "burn",
      "outputs": [],
      "stateMutability": "nonpayable",
      "type": "function"
    },
    {
      "inputs": [
        {
          "internalType": "address",
          "name": "to",
          "type": "address"
        },
        {
          "internalType": "uint256",
          "name": "id",
          "type": "uint256"
        },
        {
          "internalType": "uint256",
          "name": "amount",
          "type": "uint256"
        }
      ],
      "name": "burn",
      "outputs": [],
      "stateMutability": "nonpayable",
      "type": "function"
    },
    {
      "inputs": [
        {
          "internalType": "bytes32",
          "name": "_b32",
          "type": "bytes32"
        }
      ],
      "name": "bytes32ToAddress",
      "outputs": [
        {
          "internalType": "address",
          "name": "",
          "type": "address"
        }
      ],
      "stateMutability": "pure",
      "type": "function"
    },
    {
      "inputs": [
        {
          "internalType": "uint256[]",
          "name": "_amounts",
          "type": "uint256[]"
        }
      ],
      "name": "calculateTotalAmount",
      "outputs": [
        {
          "internalType": "uint256",
          "name": "",
          "type": "uint256"
        }
      ],
      "stateMutability": "pure",
      "type": "function"
    },
    {
      "inputs": [],
      "name": "contractURI",
      "outputs": [
        {
          "internalType": "string",
          "name": "",
          "type": "string"
        }
      ],
      "stateMutability": "view",
      "type": "function"
    },
    {
      "inputs": [
        {
          "internalType": "string",
          "name": "_name",
          "type": "string"
        },
        {
          "internalType": "string",
          "name": "_symbol",
          "type": "string"
        },
        {
          "internalType": "string",
          "name": "_uri",
          "type": "string"
        },
        {
          "internalType": "address[]",
          "name": "_operators",
          "type": "address[]"
        }
      ],
      "name": "createClone",
      "outputs": [
        {
          "internalType": "address",
          "name": "",
          "type": "address"
        }
      ],
      "stateMutability": "nonpayable",
      "type": "function"
    },
    {
      "inputs": [],
      "name": "getCurrentBlockNumber",
      "outputs": [
        {
          "internalType": "uint256",
          "name": "",
          "type": "uint256"
        }
      ],
      "stateMutability": "view",
      "type": "function"
    },
    {
      "inputs": [
        {
          "internalType": "address",
          "name": "owner",
          "type": "address"
        },
        {
          "internalType": "uint256",
          "name": "tokenId",
          "type": "uint256"
        }
      ],
      "name": "getMintedEntries",
      "outputs": [
        {
          "components": [
            {
              "internalType": "uint256",
              "name": "amountMinted",
              "type": "uint256"
            },
            {
              "internalType": "uint256",
              "name": "expirationBlock",
              "type": "uint256"
            },
            {
              "internalType": "uint256",
              "name": "mintBlock",
              "type": "uint256"
            }
          ],
          "internalType": "struct NFT1155SubscriptionUpgradeable.MintedTokens[]",
          "name": "",
          "type": "tuple[]"
        }
      ],
      "stateMutability": "view",
      "type": "function"
    },
    {
      "inputs": [
        {
          "internalType": "uint256",
          "name": "tokenId",
          "type": "uint256"
        }
      ],
      "name": "getNFTAttributes",
      "outputs": [
        {
          "internalType": "bool",
          "name": "nftInitialized",
          "type": "bool"
        },
        {
          "internalType": "uint256",
          "name": "nftSupply",
          "type": "uint256"
        },
        {
          "internalType": "uint256",
          "name": "mintCap",
          "type": "uint256"
        },
        {
          "internalType": "string",
          "name": "nftURI",
          "type": "string"
        }
      ],
      "stateMutability": "view",
      "type": "function"
    },
    {
      "inputs": [],
      "name": "getNvmConfigAddress",
      "outputs": [
        {
          "internalType": "address",
          "name": "",
          "type": "address"
        }
      ],
      "stateMutability": "view",
      "type": "function"
    },
    {
      "inputs": [
        {
          "internalType": "bytes32",
          "name": "role",
          "type": "bytes32"
        }
      ],
      "name": "getRoleAdmin",
      "outputs": [
        {
          "internalType": "bytes32",
          "name": "",
          "type": "bytes32"
        }
      ],
      "stateMutability": "view",
      "type": "function"
    },
    {
      "inputs": [],
      "name": "getTrustedForwarder",
      "outputs": [
        {
          "internalType": "address",
          "name": "",
          "type": "address"
        }
      ],
      "stateMutability": "view",
      "type": "function"
    },
    {
      "inputs": [
        {
          "internalType": "address",
          "name": "account",
          "type": "address"
        }
      ],
      "name": "grantOperatorRole",
      "outputs": [],
      "stateMutability": "nonpayable",
      "type": "function"
    },
    {
      "inputs": [
        {
          "internalType": "bytes32",
          "name": "role",
          "type": "bytes32"
        },
        {
          "internalType": "address",
          "name": "account",
          "type": "address"
        }
      ],
      "name": "grantRole",
      "outputs": [],
      "stateMutability": "nonpayable",
      "type": "function"
    },
    {
      "inputs": [
        {
          "internalType": "bytes32",
          "name": "role",
          "type": "bytes32"
        },
        {
          "internalType": "address",
          "name": "account",
          "type": "address"
        }
      ],
      "name": "hasRole",
      "outputs": [
        {
          "internalType": "bool",
          "name": "",
          "type": "bool"
        }
      ],
      "stateMutability": "view",
      "type": "function"
    },
    {
      "inputs": [
        {
          "internalType": "address",
          "name": "owner",
          "type": "address"
        },
        {
          "internalType": "address",
          "name": "didRegistryAddress",
          "type": "address"
        },
        {
          "internalType": "string",
          "name": "name_",
          "type": "string"
        },
        {
          "internalType": "string",
          "name": "symbol_",
          "type": "string"
        },
        {
          "internalType": "string",
          "name": "uri_",
          "type": "string"
        }
      ],
      "name": "initialize",
      "outputs": [],
      "stateMutability": "nonpayable",
      "type": "function"
    },
    {
      "inputs": [
        {
          "internalType": "address",
          "name": "account",
          "type": "address"
        },
        {
          "internalType": "address",
          "name": "operator",
          "type": "address"
        }
      ],
      "name": "isApprovedForAll",
      "outputs": [
        {
          "internalType": "bool",
          "name": "",
          "type": "bool"
        }
      ],
      "stateMutability": "view",
      "type": "function"
    },
    {
      "inputs": [
        {
          "internalType": "address",
          "name": "addr",
          "type": "address"
        }
      ],
      "name": "isContract",
      "outputs": [
        {
          "internalType": "bool",
          "name": "",
          "type": "bool"
        }
      ],
      "stateMutability": "view",
      "type": "function"
    },
    {
      "inputs": [
        {
          "internalType": "address",
          "name": "operator",
          "type": "address"
        }
      ],
      "name": "isOperator",
      "outputs": [
        {
          "internalType": "bool",
          "name": "",
          "type": "bool"
        }
      ],
      "stateMutability": "view",
      "type": "function"
    },
    {
      "inputs": [
        {
          "internalType": "address",
          "name": "forwarder",
          "type": "address"
        }
      ],
      "name": "isTrustedForwarder",
      "outputs": [
        {
          "internalType": "bool",
          "name": "",
          "type": "bool"
        }
      ],
      "stateMutability": "view",
      "type": "function"
    },
    {
      "inputs": [
        {
          "internalType": "uint256",
          "name": "id",
          "type": "uint256"
        },
        {
          "internalType": "uint256",
          "name": "amount",
          "type": "uint256"
        }
      ],
      "name": "mint",
      "outputs": [],
      "stateMutability": "nonpayable",
      "type": "function"
    },
    {
      "inputs": [
        {
          "internalType": "address",
          "name": "to",
          "type": "address"
        },
        {
          "internalType": "uint256",
          "name": "id",
          "type": "uint256"
        },
        {
          "internalType": "uint256",
          "name": "amount",
          "type": "uint256"
        },
        {
          "internalType": "bytes",
          "name": "data",
          "type": "bytes"
        }
      ],
      "name": "mint",
      "outputs": [],
      "stateMutability": "nonpayable",
      "type": "function"
    },
    {
      "inputs": [
        {
          "internalType": "address",
          "name": "to",
          "type": "address"
        },
        {
          "internalType": "uint256",
          "name": "tokenId",
          "type": "uint256"
        },
        {
          "internalType": "uint256",
          "name": "amount",
          "type": "uint256"
        },
        {
          "internalType": "uint256",
          "name": "expirationBlock",
          "type": "uint256"
        },
        {
          "internalType": "bytes",
          "name": "data",
          "type": "bytes"
        }
      ],
      "name": "mint",
      "outputs": [],
      "stateMutability": "nonpayable",
      "type": "function"
    },
    {
      "inputs": [],
      "name": "name",
      "outputs": [
        {
          "internalType": "string",
          "name": "",
          "type": "string"
        }
      ],
      "stateMutability": "view",
      "type": "function"
    },
    {
      "inputs": [],
      "name": "nftType",
      "outputs": [
        {
          "internalType": "bytes32",
          "name": "",
          "type": "bytes32"
        }
      ],
      "stateMutability": "view",
      "type": "function"
    },
    {
      "inputs": [],
      "name": "nvmConfig",
      "outputs": [
        {
          "internalType": "address",
          "name": "",
          "type": "address"
        }
      ],
      "stateMutability": "view",
      "type": "function"
    },
    {
      "inputs": [],
      "name": "owner",
      "outputs": [
        {
          "internalType": "address",
          "name": "",
          "type": "address"
        }
      ],
      "stateMutability": "view",
      "type": "function"
    },
    {
      "inputs": [],
      "name": "renounceOperatorRole",
      "outputs": [],
      "stateMutability": "nonpayable",
      "type": "function"
    },
    {
      "inputs": [],
      "name": "renounceOwnership",
      "outputs": [],
      "stateMutability": "nonpayable",
      "type": "function"
    },
    {
      "inputs": [
        {
          "internalType": "bytes32",
          "name": "role",
          "type": "bytes32"
        },
        {
          "internalType": "address",
          "name": "account",
          "type": "address"
        }
      ],
      "name": "renounceRole",
      "outputs": [],
      "stateMutability": "nonpayable",
      "type": "function"
    },
    {
      "inputs": [
        {
          "internalType": "address",
          "name": "account",
          "type": "address"
        }
      ],
      "name": "revokeOperatorRole",
      "outputs": [],
      "stateMutability": "nonpayable",
      "type": "function"
    },
    {
      "inputs": [
        {
          "internalType": "bytes32",
          "name": "role",
          "type": "bytes32"
        },
        {
          "internalType": "address",
          "name": "account",
          "type": "address"
        }
      ],
      "name": "revokeRole",
      "outputs": [],
      "stateMutability": "nonpayable",
      "type": "function"
    },
    {
      "inputs": [
        {
          "internalType": "uint256",
          "name": "tokenId",
          "type": "uint256"
        },
        {
          "internalType": "uint256",
          "name": "value",
          "type": "uint256"
        }
      ],
      "name": "royaltyInfo",
      "outputs": [
        {
          "internalType": "address",
          "name": "receiver",
          "type": "address"
        },
        {
          "internalType": "uint256",
          "name": "royaltyAmount",
          "type": "uint256"
        }
      ],
      "stateMutability": "view",
      "type": "function"
    },
    {
      "inputs": [
        {
          "internalType": "address",
          "name": "from",
          "type": "address"
        },
        {
          "internalType": "address",
          "name": "to",
          "type": "address"
        },
        {
          "internalType": "uint256[]",
          "name": "ids",
          "type": "uint256[]"
        },
        {
          "internalType": "uint256[]",
          "name": "amounts",
          "type": "uint256[]"
        },
        {
          "internalType": "bytes",
          "name": "data",
          "type": "bytes"
        }
      ],
      "name": "safeBatchTransferFrom",
      "outputs": [],
      "stateMutability": "nonpayable",
      "type": "function"
    },
    {
      "inputs": [
        {
          "internalType": "address",
          "name": "from",
          "type": "address"
        },
        {
          "internalType": "address",
          "name": "to",
          "type": "address"
        },
        {
          "internalType": "uint256",
          "name": "id",
          "type": "uint256"
        },
        {
          "internalType": "uint256",
          "name": "amount",
          "type": "uint256"
        },
        {
          "internalType": "bytes",
          "name": "data",
          "type": "bytes"
        }
      ],
      "name": "safeTransferFrom",
      "outputs": [],
      "stateMutability": "nonpayable",
      "type": "function"
    },
    {
      "inputs": [
        {
          "internalType": "address",
          "name": "operator",
          "type": "address"
        },
        {
          "internalType": "bool",
          "name": "approved",
          "type": "bool"
        }
      ],
      "name": "setApprovalForAll",
      "outputs": [],
      "stateMutability": "nonpayable",
      "type": "function"
    },
    {
      "inputs": [
        {
          "internalType": "string",
          "name": "_uri",
          "type": "string"
        }
      ],
      "name": "setContractMetadataUri",
      "outputs": [],
      "stateMutability": "nonpayable",
      "type": "function"
    },
    {
      "inputs": [
        {
          "internalType": "uint256",
          "name": "tokenId",
          "type": "uint256"
        },
        {
          "internalType": "uint256",
          "name": "nftSupply",
          "type": "uint256"
        },
        {
          "internalType": "uint256",
          "name": "mintCap",
          "type": "uint256"
        },
        {
          "internalType": "string",
          "name": "nftURI",
          "type": "string"
        }
      ],
      "name": "setNFTAttributes",
      "outputs": [],
      "stateMutability": "nonpayable",
      "type": "function"
    },
    {
      "inputs": [
        {
          "internalType": "uint256",
          "name": "tokenId",
          "type": "uint256"
        },
        {
          "internalType": "string",
          "name": "nftURI",
          "type": "string"
        }
      ],
      "name": "setNFTMetadata",
      "outputs": [],
      "stateMutability": "nonpayable",
      "type": "function"
    },
    {
      "inputs": [
        {
          "internalType": "address",
          "name": "_addr",
          "type": "address"
        }
      ],
      "name": "setNvmConfigAddress",
      "outputs": [],
      "stateMutability": "nonpayable",
      "type": "function"
    },
    {
      "inputs": [
        {
          "internalType": "uint256",
          "name": "tokenId",
          "type": "uint256"
        },
        {
          "internalType": "address",
          "name": "receiver",
          "type": "address"
        },
        {
          "internalType": "uint256",
          "name": "royaltyAmount",
          "type": "uint256"
        }
      ],
      "name": "setTokenRoyalty",
      "outputs": [],
      "stateMutability": "nonpayable",
      "type": "function"
    },
    {
      "inputs": [
        {
          "internalType": "bytes4",
          "name": "interfaceId",
          "type": "bytes4"
        }
      ],
      "name": "supportsInterface",
      "outputs": [
        {
          "internalType": "bool",
          "name": "",
          "type": "bool"
        }
      ],
      "stateMutability": "view",
      "type": "function"
    },
    {
      "inputs": [],
      "name": "symbol",
      "outputs": [
        {
          "internalType": "string",
          "name": "",
          "type": "string"
        }
      ],
      "stateMutability": "view",
      "type": "function"
    },
    {
      "inputs": [
        {
          "internalType": "address",
          "name": "newOwner",
          "type": "address"
        }
      ],
      "name": "transferOwnership",
      "outputs": [],
      "stateMutability": "nonpayable",
      "type": "function"
    },
    {
      "inputs": [
        {
          "internalType": "uint256",
          "name": "tokenId",
          "type": "uint256"
        }
      ],
      "name": "uri",
      "outputs": [
        {
          "internalType": "string",
          "name": "",
          "type": "string"
        }
      ],
      "stateMutability": "view",
      "type": "function"
    },
    {
      "inputs": [
        {
          "internalType": "address",
          "name": "owner",
          "type": "address"
        },
        {
          "internalType": "uint256",
          "name": "tokenId",
          "type": "uint256"
        }
      ],
      "name": "whenWasMinted",
      "outputs": [
        {
          "internalType": "uint256[]",
          "name": "",
          "type": "uint256[]"
        }
      ],
      "stateMutability": "view",
      "type": "function"
    }
  ],
  "bytecode": "0x608060405234801561001057600080fd5b50613f4d806100206000396000f3fe608060405234801561001057600080fd5b50600436106102665760003560e01c8062fdd58e1461026b57806301ffc9a71461029157806302acb9a6146102b457806306fdde03146102c95780630e89341c146102de57806316279055146102f15780631b2ef1ca146103055780631e5c2b3414610318578063237c491914610338578063248a9ca31461034b57806327ac0c581461035e5780632a55205a146103715780632eb2c2d6146103925780632f2ff15d146103a557806336568abe146103b85780633d6d3598146103cb5780633f2f5ee2146103d357806347c4ef25146103e65780634e1273f414610409578063572b6c05146104295780635ced058e1461043c5780635ea3ab851461044d5780636d70f7ae146104605780636fac889b146104735780636fd902e11461049a578063715018a6146104a0578063731133e9146104a857806382c947b7146104bb57806385be5724146104d55780638da5cb5b146104ea57806391d14854146104f257806395d89b41146105055780639713c8071461050d57806397cfb1a914610520578063a217fddf14610533578063a22cb4651461053b578063ab9de2301461054e578063b219f7d714610556578063b390c0ab14610569578063b49c99b81461057c578063ce1b815f1461058f578063d242310514610597578063d547741f146105aa578063d70cf7af146105bd578063e8a3d485146105d0578063e985e9c5146105d8578063e9c1e045146105eb578063ebf3c87b146105fe578063ed5b59311461061e578063f242432a14610631578063f2fde38b14610644578063f5298aca14610657578063f80795f81461066a575b600080fd5b61027e610279366004612e7b565b61067d565b6040519081526020015b60405180910390f35b6102a461029f366004612ebd565b6107b9565b6040519015158152602001610288565b6102c76102c2366004612eda565b6107f3565b005b6102d161081d565b6040516102889190612f47565b6102d16102ec366004612f5a565b6108ac565b6102a46102ff366004612eda565b3b151590565b6102c7610313366004612f73565b610951565b61032b6103263660046130e7565b610977565b6040516102889190613193565b6102c76103463660046131a7565b610b7d565b61027e610359366004612f5a565b610bb7565b6102c761036c366004612eda565b610bcc565b61038461037f366004612f73565b610c37565b6040516102889291906131e3565b6102c76103a0366004613262565b610c8d565b6102c76103b336600461330f565b610ceb565b6102c76103c636600461330f565b610d0c565b6102c7610d96565b6102c76103e136600461333f565b610db7565b6103f96103f4366004612f5a565b610ed9565b60405161028894939291906133bc565b61041c6104173660046133ed565b610fd6565b6040516102889190613481565b6102a4610437366004612eda565b6110ff565b61032b61044a366004612f5a565b90565b61027e61045b366004613494565b611124565b6102a461046e366004612eda565b611173565b61027e7f10db2492ff913239dc46d6f79a35650744688d5f5cb6fa1c310d84fc745b0b7581565b4361027e565b6102c761118d565b6102c76104b63660046134d0565b61119f565b61027e6104c9366004612eda565b6001600160a01b031690565b61027e600080516020613ed883398151915281565b61032b61147c565b6102a461050036600461330f565b61148b565b6102d16114b6565b6102c761051b366004613526565b6114c4565b6102c761052e36600461355e565b6114f6565b61027e600081565b6102c76105493660046135ad565b611529565b61032b61153b565b6102c7610564366004612eda565b61154a565b6102c7610577366004612f73565b6115b2565b6102c761058a3660046135db565b6115c4565b61032b611637565b6102c76105a536600461363a565b6116c2565b6102c76105b836600461330f565b61171e565b6102c76105cb36600461333f565b61173a565b6102d161181a565b6102a46105e636600461366e565b6118ac565b60ff5461032b906001600160a01b031681565b61061161060c366004612e7b565b6118ed565b604051610288919061369c565b61041c61062c366004612e7b565b611988565b6102c761063f3660046136f5565b611a69565b6102c7610652366004612eda565b611ac0565b6102c7610665366004613751565b611b36565b6102c761067836600461333f565b611e78565b60008061068a8484611ed5565b90506000805b600083815261010360205260409020548110156107ae576000838152610103602052604081208054839081106106c8576106c8613786565b906000526020600020906003020160020154118015610756575060008381526101036020526040902080548290811061070357610703613786565b90600052602060002090600302016001015460001480610756575060008381526101036020526040902080544391908390811061074257610742613786565b906000526020600020906003020160010154115b1561079c5760008381526101036020526040902080548290811061077c5761077c613786565b9060005260206000209060030201600001548261079991906137b2565b91505b806107a6816137c5565b915050610690565b509150505b92915050565b60006107c482611f08565b806107d357506107d382611f29565b806107b357506001600160e01b0319821663152a902d60e11b1492915050565b6107fb611f79565b60ff80546001600160a01b0319166001600160a01b0392909216919091179055565b610100805461082b906137de565b80601f0160208091040260200160405190810160405280929190818152602001828054610857906137de565b80156108a45780601f10610879576101008083540402835291602001916108a4565b820191906000526020600020905b81548152906001019060200180831161088757829003601f168201915b505050505081565b600081815260fc602052604090206003018054606091906108cc906137de565b80601f01602080910402602001604051908101604052809291908181526020018280546108f8906137de565b80156109455780601f1061091a57610100808354040283529160200191610945565b820191906000526020600020905b81548152906001019060200180831161092857829003601f168201915b50505050509050919050565b61097361095c611fe8565b83836040518060200160405280600081525061119f565b5050565b7f360894a13ba1a3210667c828492db98dca3e2076cc3735a920a3ca505d382bbc546000906001600160a01b0316806109ad5750305b60006109b882611ff7565b9050806001600160a01b038116633f2f5ee26109d2611fe8565b610102546040516001600160e01b031960e085901b168152610a0792916001600160a01b0316908d908d908d90600401613818565b600060405180830381600087803b158015610a2157600080fd5b505af1158015610a35573d6000803e3d6000fd5b5050505060005b8551811015610acf57816001600160a01b03166327ac0c58878381518110610a6657610a66613786565b60200260200101516040518263ffffffff1660e01b8152600401610a8a9190613193565b600060405180830381600087803b158015610aa457600080fd5b505af1158015610ab8573d6000803e3d6000fd5b505050508080610ac7906137c5565b915050610a3c565b50806001600160a01b0316633d6d35986040518163ffffffff1660e01b8152600401600060405180830381600087803b158015610b0b57600080fd5b505af1158015610b1f573d6000803e3d6000fd5b50505050826001600160a01b0316826001600160a01b03167f60b02f0439b830955522ba890ebaeed1012ac175aba5742b6032a7b79d0cd734610483604051610b6a91815260200190565b60405180910390a3509695505050505050565b610b8861046e611fe8565b610bad5760405162461bcd60e51b8152600401610ba490613876565b60405180910390fd5b6109738282612091565b600090815260c9602052604090206001015490565b610bd4611fe8565b6001600160a01b0316610be561147c565b6001600160a01b03161480610c005750610c0061046e611fe8565b610c1c5760405162461bcd60e51b8152600401610ba4906138a1565b610c34600080516020613ed8833981519152826120b7565b50565b600082815260fb60209081526040808320815180830190925280546001600160a01b03168083526001909101549282018390529291606490610c7990866138d1565b610c8391906138e8565b9150509250929050565b610c95611fe8565b6001600160a01b0316856001600160a01b03161480610cbb5750610cbb856105e6611fe8565b610cd75760405162461bcd60e51b8152600401610ba49061390a565b610ce485858585856120c1565b5050505050565b610cf482610bb7565b610cfd816122b2565b610d0783836122c3565b505050565b610d14611fe8565b6001600160a01b0316816001600160a01b031614610d8c5760405162461bcd60e51b815260206004820152602f60248201527f416363657373436f6e74726f6c3a2063616e206f6e6c792072656e6f756e636560448201526e103937b632b9903337b91039b2b63360891b6064820152608401610ba4565b610973828261234a565b610db5600080516020613ed8833981519152610db0611fe8565b61234a565b565b600054610100900460ff1615808015610dd75750600054600160ff909116105b80610df85750610de6306123cf565b158015610df8575060005460ff166001145b610e5b5760405162461bcd60e51b815260206004820152602e60248201527f496e697469616c697a61626c653a20636f6e747261637420697320616c72656160448201526d191e481a5b9a5d1a585b1a5e995960921b6064820152608401610ba4565b6000805460ff191660011790558015610e7e576000805461ff0019166101001790555b610e8b8686868686611e78565b8015610ed1576000805461ff0019169055604051600181527f7f26b83ff96e1f2b6a682f133852f6798a09c465da95921460cefb38474024989060200160405180910390a15b505050505050565b600081815260fc602090815260408083208151608081018352815460ff16151581526001820154938101939093526002810154918301919091526003810180548493849360609385938386019190610f30906137de565b80601f0160208091040260200160405190810160405280929190818152602001828054610f5c906137de565b8015610fa95780601f10610f7e57610100808354040283529160200191610fa9565b820191906000526020600020905b815481529060010190602001808311610f8c57829003601f168201915b505050919092525050815160208301516040840151606090940151919a9099509297509550909350505050565b6060815183511461103b5760405162461bcd60e51b815260206004820152602960248201527f455243313135353a206163636f756e747320616e6420696473206c656e677468604482015268040dad2e6dac2e8c6d60bb1b6064820152608401610ba4565b600083516001600160401b0381111561105657611056612f95565b60405190808252806020026020018201604052801561107f578160200160208202803683370190505b50905060005b84518110156110f7576110ca8582815181106110a3576110a3613786565b60200260200101518583815181106110bd576110bd613786565b602002602001015161067d565b8282815181106110dc576110dc613786565b60209081029190910101526110f0816137c5565b9050611085565b509392505050565b6000611109611637565b6001600160a01b0316826001600160a01b0316149050919050565b60008060005b835181101561116c5783818151811061114557611145613786565b60200260200101518261115891906137b2565b915080611164816137c5565b91505061112a565b5092915050565b60006107b3600080516020613ed88339815191528361148b565b611195611f79565b610db560006123de565b6111aa61046e611fe8565b806111cd57506111b861147c565b6001600160a01b0316846001600160a01b0316145b8061125d575061010254604051631b0bbd4960e21b8152600481018590526001600160a01b0390911690636c2ef52490602401602060405180830381865afa15801561121d573d6000803e3d6000fd5b505050506040513d601f19601f820116820180604052508101906112419190613958565b6001600160a01b0316611252611fe8565b6001600160a01b0316145b6112a25760405162461bcd60e51b81526020600482015260166024820152751bdb9b1e481bdc195c985d1bdc8818d85b881b5a5b9d60521b6044820152606401610ba4565b600083815260fc602052604090205460ff166112f65760405162461bcd60e51b8152602060048201526013602482015272139195081b9bdd081a5b9a5d1a585b1a5e9959606a1b6044820152606401610ba4565b600083815260fc60205260409020600201541561136e57600083815260fc6020526040902060028101546001909101546113319084906137b2565b111561136e5760405162461bcd60e51b815260206004820152600c60248201526b10d85c08195e18d95959195960a21b6044820152606401610ba4565b600083815260fc60205260408120600101805484929061138f9084906137b2565b9091555050610102546001600160a01b031663bb794d92846113af611fe8565b85436040516020016113c4949392919061398c565b604051602081830303815290604052805190602001208560001b6113e6611fe8565b7fdaf0b3c5710379609eb5495f1ecd348cb28167711b73609fe565a727345503546040518563ffffffff1660e01b815260040161142694939291906139c8565b6020604051808303816000875af1158015611445573d6000803e3d6000fd5b505050506040513d601f19601f820116820180604052508101906114699190613a08565b5061147684848484612430565b50505050565b6033546001600160a01b031690565b600091825260c9602090815260408084206001600160a01b0393909316845291905290205460ff1690565b610101805461082b906137de565b6114cf61046e611fe8565b6114eb5760405162461bcd60e51b8152600401610ba490613876565b610d0783838361254e565b61150161046e611fe8565b61151d5760405162461bcd60e51b8152600401610ba490613876565b611476848484846125e6565b610973611534611fe8565b838361261a565b60ff546001600160a01b031690565b611552611fe8565b6001600160a01b031661156361147c565b6001600160a01b0316148061157e575061157e61046e611fe8565b61159a5760405162461bcd60e51b8152600401610ba4906138a1565b610c34600080516020613ed88339815191528261234a565b6109736115bd611fe8565b8383611b36565b6115d08585858461119f565b60006115dc8686611ed5565b6000908152610103602090815260408083208151606081018352978852878301968752439188019182528054600181810183559185529290932096516003909202909601908155935190840155505090516002909101555050565b60008061164261153b565b90506001600160a01b03811661165a57600091505090565b806001600160a01b031663ce1b815f6040518163ffffffff1660e01b8152600401602060405180830381865afa158015611698573d6000803e3d6000fd5b505050506040513d601f19601f820116820180604052508101906116bc9190613958565b91505090565b6116ca611fe8565b6001600160a01b03166116db61147c565b6001600160a01b031614806116f657506116f661046e611fe8565b6117125760405162461bcd60e51b8152600401610ba4906138a1565b60fe6109738282613a6b565b61172782610bb7565b611730816122b2565b610d07838361234a565b600054610100900460ff166117615760405162461bcd60e51b8152600401610ba490613b2a565b611780600080516020613ed883398151915261177b611fe8565b6120b7565b611798600080516020613ed8833981519152856120b7565b6117b0600080516020613ed8833981519152866120b7565b6117b9816116c2565b6101006117c68482613a6b565b506101016117d48382613a6b565b5061010280546001600160a01b0319166001600160a01b0386161790556117f9611fe8565b6001600160a01b0316856001600160a01b031614610ce457610ce485611ac0565b606060fe8054611829906137de565b80601f0160208091040260200160405190810160405280929190818152602001828054611855906137de565b80156118a25780601f10611877576101008083540402835291602001916118a2565b820191906000526020600020905b81548152906001019060200180831161188557829003601f168201915b5050505050905090565b6001600160a01b03808316600090815260986020908152604080832093851683529290529081205460ff16806118e657506118e682611173565b9392505050565b606061010360006118fe8585611ed5565b8152602001908152602001600020805480602002602001604051908101604052809291908181526020016000905b8282101561197c578382906000526020600020906003020160405180606001604052908160008201548152602001600182015481526020016002820154815250508152602001906001019061192c565b50505050905092915050565b606060006119968484611ed5565b60008181526101036020526040812054919250906001600160401b038111156119c1576119c1612f95565b6040519080825280602002602001820160405280156119ea578160200160208202803683370190505b50905060005b600083815261010360205260409020548110156107ae57600083815261010360205260409020805482908110611a2857611a28613786565b906000526020600020906003020160020154828281518110611a4c57611a4c613786565b602090810291909101015280611a61816137c5565b9150506119f0565b611a71611fe8565b6001600160a01b0316856001600160a01b03161480611a975750611a97856105e6611fe8565b611ab35760405162461bcd60e51b8152600401610ba49061390a565b610ce485858585856126fa565b611ac8611f79565b6001600160a01b038116611b2d5760405162461bcd60e51b815260206004820152602660248201527f4f776e61626c653a206e6577206f776e657220697320746865207a65726f206160448201526564647265737360d01b6064820152608401610ba4565b610c34816123de565b80611b41848461282f565b1015611b9b5760405162461bcd60e51b8152602060048201526024808201527f455243313135353a206275726e20616d6f756e7420657863656564732062616c604482015263616e636560e01b6064820152608401610ba4565b611ba661046e611fe8565b80611bc95750611bb4611fe8565b6001600160a01b0316836001600160a01b0316145b80611bdb5750611bdb836105e6611fe8565b611c395760405162461bcd60e51b815260206004820152602960248201527f455243313135353a2063616c6c6572206973206e6f74206f776e6572206e6f7260448201526808185c1c1c9bdd995960ba1b6064820152608401610ba4565b600082815260fc602052604081206001018054839290611c5a908490613b75565b9091555050610102546001600160a01b031663bb794d9283611c7a611fe8565b8443604051602001611c8f9493929190613b9f565b604051602081830303815290604052805190602001208460001b611cb1611fe8565b7ff43e8cfd4725c1e28fa4a6e3e468b4fcf75367166b850ac5f04e33ec843e82c16040518563ffffffff1660e01b8152600401611cf19493929190613bc8565b6020604051808303816000875af1158015611d10573d6000803e3d6000fd5b505050506040513d601f19601f82011682018060405250810190611d349190613a08565b506000611d418484611ed5565b90508160005b60008381526101036020526040902054811015610ed157600083815261010360205260409020805482908110611d7f57611d7f613786565b9060005260206000209060030201600001548211611de657600083815261010360205260409020805483919083908110611dbb57611dbb613786565b90600052602060002090600302016000016000828254611ddb9190613b75565b90915550610ed19050565b600083815261010360205260409020805482908110611e0757611e07613786565b90600052602060002090600302016000015482611e249190613b75565b60008481526101036020526040902080549193509082908110611e4957611e49613786565b600091825260208220600390910201818155600181018290556002015580611e70816137c5565b915050611d47565b600054610100900460ff16611e9f5760405162461bcd60e51b8152600401610ba490613b2a565b611ea76128c2565b611eaf6128c2565b611eb8816128e9565b611ec0612919565b611ec86128c2565b610ce4858585858561173a565b60008282604051602001611eea9291906131e3565b60405160208183030381529060405280519060200120905092915050565b60006001600160e01b03198216637965db0b60e01b14806107b357506107b3825b60006001600160e01b03198216636cdb3d1360e11b1480611f5a57506001600160e01b031982166303a24d0760e21b145b806107b357506301ffc9a760e01b6001600160e01b03198316146107b3565b611f81611fe8565b6001600160a01b0316611f9261147c565b6001600160a01b031614610db55760405162461bcd60e51b815260206004820181905260248201527f4f776e61626c653a2063616c6c6572206973206e6f7420746865206f776e65726044820152606401610ba4565b6000611ff2612950565b905090565b6000763d602d80600a3d3981f3363d3d373d3d3d363d730000008260601b60e81c176000526e5af43d82803e903d91602b57fd5bf38260781b17602052603760096000f090506001600160a01b03811661208c5760405162461bcd60e51b8152602060048201526016602482015275115490cc4c4d8dce8818dc99585d194819985a5b195960521b6044820152606401610ba4565b919050565b600082815260fc60205260409020805460ff19166001178155600301610d078282613a6b565b61097382826122c3565b81518351146121235760405162461bcd60e51b815260206004820152602860248201527f455243313135353a2069647320616e6420616d6f756e7473206c656e677468206044820152670dad2e6dac2e8c6d60c31b6064820152608401610ba4565b6001600160a01b0384166121495760405162461bcd60e51b8152600401610ba490613c08565b6000612153611fe8565b905061216381878787878761297e565b60005b845181101561224c57600085828151811061218357612183613786565b6020026020010151905060008583815181106121a1576121a1613786565b60209081029190910181015160008481526097835260408082206001600160a01b038e1683529093529190912054909150818110156121f25760405162461bcd60e51b8152600401610ba490613c4d565b60008381526097602090815260408083206001600160a01b038e8116855292528083208585039055908b168252812080548492906122319084906137b2565b9250508190555050505080612245906137c5565b9050612166565b50846001600160a01b0316866001600160a01b0316826001600160a01b03167f4a39dc06d4c0dbc64b70af90fd698a233a518aa5d07e595d983b8c0526c8f7fb878760405161229c929190613c97565b60405180910390a4610ed18187878787876129e5565b610c34816122be611fe8565b612b47565b6122cd828261148b565b61097357600082815260c9602090815260408083206001600160a01b03851684529091529020805460ff19166001179055612306611fe8565b6001600160a01b0316816001600160a01b0316837f2f8788117e7eff1d82e926ec794901d17c78024a50270940304540a733656f0d60405160405180910390a45050565b612354828261148b565b1561097357600082815260c9602090815260408083206001600160a01b03851684529091529020805460ff1916905561238b611fe8565b6001600160a01b0316816001600160a01b0316837ff6391f5c32d9c69d2a47ea670b442974b53935d1edc7fd64eb21e047a839171b60405160405180910390a45050565b6001600160a01b03163b151590565b603380546001600160a01b038381166001600160a01b0319831681179093556040519116919082907f8be0079c531659141344cd1fd0a4f28419497f9722a3daafe3b4186f6b6457e090600090a35050565b6001600160a01b0384166124905760405162461bcd60e51b815260206004820152602160248201527f455243313135353a206d696e7420746f20746865207a65726f206164647265736044820152607360f81b6064820152608401610ba4565b600061249a611fe8565b905060006124a785612ba0565b905060006124b485612ba0565b90506124c58360008985858961297e565b60008681526097602090815260408083206001600160a01b038b168452909152812080548792906124f79084906137b2565b909155505060408051878152602081018790526001600160a01b03808a169260009291871691600080516020613ef8833981519152910160405180910390a461254583600089898989612beb565b50505050505050565b620f424081111561259e5760405162461bcd60e51b815260206004820152601a60248201527908aa48664727062a4def2c2d8e8d2cae67440a8dede40d0d2ced60331b6044820152606401610ba4565b6040805180820182526001600160a01b0393841681526020808201938452600095865260fb90529320925183546001600160a01b031916921691909117825551600190910155565b600084815260fc60205260409020805460ff191660019081178255810184905560028101839055600301610ce48282613a6b565b816001600160a01b0316836001600160a01b03160361268d5760405162461bcd60e51b815260206004820152602960248201527f455243313135353a2073657474696e6720617070726f76616c20737461747573604482015268103337b91039b2b63360b91b6064820152608401610ba4565b6001600160a01b03838116600081815260986020908152604080832094871680845294825291829020805460ff191686151590811790915591519182527f17307eab39ab6107e8899845ad3d59bd9653f200f220920489ca2b5937696c31910160405180910390a3505050565b6001600160a01b0384166127205760405162461bcd60e51b8152600401610ba490613c08565b600061272a611fe8565b9050600061273785612ba0565b9050600061274485612ba0565b905061275483898985858961297e565b60008681526097602090815260408083206001600160a01b038c168452909152902054858110156127975760405162461bcd60e51b8152600401610ba490613c4d565b60008781526097602090815260408083206001600160a01b038d8116855292528083208985039055908a168252812080548892906127d69084906137b2565b909155505060408051888152602081018890526001600160a01b03808b16928c82169291881691600080516020613ef8833981519152910160405180910390a4612824848a8a8a8a8a612beb565b505050505050505050565b60006001600160a01b03831661289a5760405162461bcd60e51b815260206004820152602a60248201527f455243313135353a2061646472657373207a65726f206973206e6f742061207660448201526930b634b21037bbb732b960b11b6064820152608401610ba4565b5060009081526097602090815260408083206001600160a01b03949094168352929052205490565b600054610100900460ff16610db55760405162461bcd60e51b8152600401610ba490613b2a565b600054610100900460ff166129105760405162461bcd60e51b8152600401610ba490613b2a565b610c3481612cad565b600054610100900460ff166129405760405162461bcd60e51b8152600401610ba490613b2a565b610db561294b611fe8565b6123de565b6000601436108015906129675750612967336110ff565b15612979575060131936013560601c90565b503390565b6001600160a01b038516158061299b57506001600160a01b038416155b806129ac57506129ac61046e611fe8565b610ed15760405162461bcd60e51b815260206004820152600a6024820152696f6e6c792070726f787960b01b6044820152606401610ba4565b6129f7846001600160a01b03166123cf565b15610ed15760405163bc197c8160e01b81526001600160a01b0385169063bc197c8190612a309089908990889088908890600401613cc5565b6020604051808303816000875af1925050508015612a6b575060408051601f3d908101601f19168201909252612a6891810190613d03565b60015b612b1757612a77613d20565b806308c379a003612ab05750612a8b613d3b565b80612a965750612ab2565b8060405162461bcd60e51b8152600401610ba49190612f47565b505b60405162461bcd60e51b815260206004820152603460248201527f455243313135353a207472616e7366657220746f206e6f6e2d455243313135356044820152732932b1b2b4bb32b91034b6b83632b6b2b73a32b960611b6064820152608401610ba4565b6001600160e01b0319811663bc197c8160e01b146125455760405162461bcd60e51b8152600401610ba490613dc4565b612b51828261148b565b61097357612b5e81612cb9565b612b69836020612ccb565b604051602001612b7a929190613e0c565b60408051601f198184030181529082905262461bcd60e51b8252610ba491600401612f47565b60408051600180825281830190925260609160009190602080830190803683370190505090508281600081518110612bda57612bda613786565b602090810291909101015292915050565b612bfd846001600160a01b03166123cf565b15610ed15760405163f23a6e6160e01b81526001600160a01b0385169063f23a6e6190612c369089908990889088908890600401613e7b565b6020604051808303816000875af1925050508015612c71575060408051601f3d908101601f19168201909252612c6e91810190613d03565b60015b612c7d57612a77613d20565b6001600160e01b0319811663f23a6e6160e01b146125455760405162461bcd60e51b8152600401610ba490613dc4565b60996109738282613a6b565b60606107b36001600160a01b03831660145b60606000612cda8360026138d1565b612ce59060026137b2565b6001600160401b03811115612cfc57612cfc612f95565b6040519080825280601f01601f191660200182016040528015612d26576020820181803683370190505b509050600360fc1b81600081518110612d4157612d41613786565b60200101906001600160f81b031916908160001a905350600f60fb1b81600181518110612d7057612d70613786565b60200101906001600160f81b031916908160001a9053506000612d948460026138d1565b612d9f9060016137b2565b90505b6001811115612e17576f181899199a1a9b1b9c1cb0b131b232b360811b85600f1660108110612dd357612dd3613786565b1a60f81b828281518110612de957612de9613786565b60200101906001600160f81b031916908160001a90535060049490941c93612e1081613ec0565b9050612da2565b5083156118e65760405162461bcd60e51b815260206004820181905260248201527f537472696e67733a20686578206c656e67746820696e73756666696369656e746044820152606401610ba4565b6001600160a01b0381168114610c3457600080fd5b60008060408385031215612e8e57600080fd5b8235612e9981612e66565b946020939093013593505050565b6001600160e01b031981168114610c3457600080fd5b600060208284031215612ecf57600080fd5b81356118e681612ea7565b600060208284031215612eec57600080fd5b81356118e681612e66565b60005b83811015612f12578181015183820152602001612efa565b50506000910152565b60008151808452612f33816020860160208601612ef7565b601f01601f19169290920160200192915050565b6020815260006118e66020830184612f1b565b600060208284031215612f6c57600080fd5b5035919050565b60008060408385031215612f8657600080fd5b50508035926020909101359150565b634e487b7160e01b600052604160045260246000fd5b601f8201601f191681016001600160401b0381118282101715612fd057612fd0612f95565b6040525050565b600082601f830112612fe857600080fd5b81356001600160401b0381111561300157613001612f95565b604051613018601f8301601f191660200182612fab565b81815284602083860101111561302d57600080fd5b816020850160208301376000918101602001919091529392505050565b60006001600160401b0382111561306357613063612f95565b5060051b60200190565b600082601f83011261307e57600080fd5b8135602061308b8261304a565b6040516130988282612fab565b83815260059390931b85018201928281019150868411156130b857600080fd5b8286015b848110156130dc5780356130cf81612e66565b83529183019183016130bc565b509695505050505050565b600080600080608085870312156130fd57600080fd5b84356001600160401b038082111561311457600080fd5b61312088838901612fd7565b9550602087013591508082111561313657600080fd5b61314288838901612fd7565b9450604087013591508082111561315857600080fd5b61316488838901612fd7565b9350606087013591508082111561317a57600080fd5b506131878782880161306d565b91505092959194509250565b6001600160a01b0391909116815260200190565b600080604083850312156131ba57600080fd5b8235915060208301356001600160401b038111156131d757600080fd5b610c8385828601612fd7565b6001600160a01b03929092168252602082015260400190565b600082601f83011261320d57600080fd5b8135602061321a8261304a565b6040516132278282612fab565b83815260059390931b850182019282810191508684111561324757600080fd5b8286015b848110156130dc578035835291830191830161324b565b600080600080600060a0868803121561327a57600080fd5b853561328581612e66565b9450602086013561329581612e66565b935060408601356001600160401b03808211156132b157600080fd5b6132bd89838a016131fc565b945060608801359150808211156132d357600080fd5b6132df89838a016131fc565b935060808801359150808211156132f557600080fd5b5061330288828901612fd7565b9150509295509295909350565b6000806040838503121561332257600080fd5b82359150602083013561333481612e66565b809150509250929050565b600080600080600060a0868803121561335757600080fd5b853561336281612e66565b9450602086013561337281612e66565b935060408601356001600160401b038082111561338e57600080fd5b61339a89838a01612fd7565b945060608801359150808211156133b057600080fd5b6132df89838a01612fd7565b84151581528360208201528260408201526080606082015260006133e36080830184612f1b565b9695505050505050565b6000806040838503121561340057600080fd5b82356001600160401b038082111561341757600080fd5b6134238683870161306d565b9350602085013591508082111561343957600080fd5b50610c83858286016131fc565b600081518084526020808501945080840160005b838110156134765781518752958201959082019060010161345a565b509495945050505050565b6020815260006118e66020830184613446565b6000602082840312156134a657600080fd5b81356001600160401b038111156134bc57600080fd5b6134c8848285016131fc565b949350505050565b600080600080608085870312156134e657600080fd5b84356134f181612e66565b9350602085013592506040850135915060608501356001600160401b0381111561351a57600080fd5b61318787828801612fd7565b60008060006060848603121561353b57600080fd5b83359250602084013561354d81612e66565b929592945050506040919091013590565b6000806000806080858703121561357457600080fd5b84359350602085013592506040850135915060608501356001600160401b0381111561351a57600080fd5b8015158114610c3457600080fd5b600080604083850312156135c057600080fd5b82356135cb81612e66565b915060208301356133348161359f565b600080600080600060a086880312156135f357600080fd5b85356135fe81612e66565b945060208601359350604086013592506060860135915060808601356001600160401b0381111561362e57600080fd5b61330288828901612fd7565b60006020828403121561364c57600080fd5b81356001600160401b0381111561366257600080fd5b6134c884828501612fd7565b6000806040838503121561368157600080fd5b823561368c81612e66565b9150602083013561333481612e66565b602080825282518282018190526000919060409081850190868401855b828110156136e857815180518552868101518786015285015185850152606090930192908501906001016136b9565b5091979650505050505050565b600080600080600060a0868803121561370d57600080fd5b853561371881612e66565b9450602086013561372881612e66565b9350604086013592506060860135915060808601356001600160401b0381111561362e57600080fd5b60008060006060848603121561376657600080fd5b833561377181612e66565b95602085013595506040909401359392505050565b634e487b7160e01b600052603260045260246000fd5b634e487b7160e01b600052601160045260246000fd5b808201808211156107b3576107b361379c565b6000600182016137d7576137d761379c565b5060010190565b600181811c908216806137f257607f821691505b60208210810361381257634e487b7160e01b600052602260045260246000fd5b50919050565b6001600160a01b0386811682528516602082015260a06040820181905260009061384490830186612f1b565b82810360608401526138568186612f1b565b9050828103608084015261386a8185612f1b565b98975050505050505050565b60208082526011908201527037b7363c9037333a1037b832b930ba37b960791b604082015260600190565b60208082526016908201527527b7363c9037b832b930ba37b91037b91037bbb732b960511b604082015260600190565b80820281158282048414176107b3576107b361379c565b60008261390557634e487b7160e01b600052601260045260246000fd5b500490565b6020808252602e908201527f455243313135353a2063616c6c6572206973206e6f7420746f6b656e206f776e60408201526d195c881bdc88185c1c1c9bdd995960921b606082015260800190565b60006020828403121561396a57600080fd5b81516118e681612e66565b60048152631b5a5b9d60e21b602082015260400190565b8481526001600160a01b038416602082015260a0604082018190526000906139b5908301613975565b6060830194909452506080015292915050565b84815283602082015260018060a01b038316604082015281606082015260c06080820152600060c082015260e060a082015260006133e360e08301613975565b600060208284031215613a1a57600080fd5b81516118e68161359f565b601f821115610d0757600081815260208120601f850160051c81016020861015613a4c5750805b601f850160051c820191505b81811015610ed157828155600101613a58565b81516001600160401b03811115613a8457613a84612f95565b613a9881613a9284546137de565b84613a25565b602080601f831160018114613acd5760008415613ab55750858301515b600019600386901b1c1916600185901b178555610ed1565b600085815260208120601f198616915b82811015613afc57888601518255948401946001909101908401613add565b5085821015613b1a5787850151600019600388901b60f8161c191681555b5050505050600190811b01905550565b6020808252602b908201527f496e697469616c697a61626c653a20636f6e7472616374206973206e6f74206960408201526a6e697469616c697a696e6760a81b606082015260800190565b818103818111156107b3576107b361379c565b6004815263313ab93760e11b602082015260400190565b8481526001600160a01b038416602082015260a0604082018190526000906139b5908301613b88565b84815283602082015260018060a01b038316604082015281606082015260c06080820152600060c082015260e060a082015260006133e360e08301613b88565b60208082526025908201527f455243313135353a207472616e7366657220746f20746865207a65726f206164604082015264647265737360d81b606082015260800190565b6020808252602a908201527f455243313135353a20696e73756666696369656e742062616c616e636520666f60408201526939103a3930b739b332b960b11b606082015260800190565b604081526000613caa6040830185613446565b8281036020840152613cbc8185613446565b95945050505050565b6001600160a01b0386811682528516602082015260a060408201819052600090613cf190830186613446565b82810360608401526138568186613446565b600060208284031215613d1557600080fd5b81516118e681612ea7565b600060033d111561044a5760046000803e5060005160e01c90565b600060443d1015613d495790565b6040516003193d81016004833e81513d6001600160401b038083116024840183101715613d7857505050505090565b8285019150815181811115613d905750505050505090565b843d8701016020828501011115613daa5750505050505090565b613db960208286010187612fab565b509095945050505050565b60208082526028908201527f455243313135353a204552433131353552656365697665722072656a656374656040820152676420746f6b656e7360c01b606082015260800190565b76020b1b1b2b9b9a1b7b73a3937b61d1030b1b1b7bab73a1604d1b815260008351613e3e816017850160208801612ef7565b7001034b99036b4b9b9b4b733903937b6329607d1b6017918401918201528351613e6f816028840160208801612ef7565b01602801949350505050565b6001600160a01b03868116825285166020820152604081018490526060810183905260a060808201819052600090613eb590830184612f1b565b979650505050505050565b600081613ecf57613ecf61379c565b50600019019056fef7a17991623d7e30ebf9bd089b2f4dcf33b0aa34727454bfa3dbc351ed7d6835c3d58168c5ae7397731d063d5bbf3d657854427343f4c083240f7aacaa2d0f62a2646970667358221220acddfb70104e79f1ac2b78e25c39a2d66eeec2fe68b7ba2188c38257a7cfd96264736f6c63430008110033",
  "linkReferences": {},
  "deployedLinkReferences": {}
}