{
  "_format": "hh-sol-artifact-1",
  "contractName": "NFT721SubscriptionUpgradeable",
  "sourceName": "contracts/token/erc721/NFT721SubscriptionUpgradeable.sol",
  "abi": [
    {
      "anonymous": false,
      "inputs": [
        {
          "indexed": true,
          "internalType": "address",
          "name": "owner",
          "type": "address"
        },
        {
          "indexed": true,
          "internalType": "address",
          "name": "approved",
          "type": "address"
        },
        {
          "indexed": true,
          "internalType": "uint256",
          "name": "tokenId",
          "type": "uint256"
        }
      ],
      "name": "Approval",
      "type": "event"
    },
    {
      "anonymous": false,
      "inputs": [
        {
          "indexed": true,
          "internalType": "address",
          "name": "owner",
          "type": "address"
        },
        {
          "indexed": true,
          "internalType": "address",
          "name": "operator",
          "type": "address"
        },
        {
          "indexed": false,
          "internalType": "bool",
          "name": "approved",
          "type": "bool"
        }
      ],
      "name": "ApprovalForAll",
      "type": "event"
    },
    {
      "anonymous": false,
      "inputs": [
        {
          "indexed": false,
          "internalType": "uint8",
          "name": "version",
          "type": "uint8"
        }
      ],
      "name": "Initialized",
      "type": "event"
    },
    {
      "anonymous": false,
      "inputs": [
        {
          "indexed": true,
          "internalType": "address",
          "name": "previousOwner",
          "type": "address"
        },
        {
          "indexed": true,
          "internalType": "address",
          "name": "newOwner",
          "type": "address"
        }
      ],
      "name": "OwnershipTransferred",
      "type": "event"
    },
    {
      "anonymous": false,
      "inputs": [
        {
          "indexed": false,
          "internalType": "address",
          "name": "sender",
          "type": "address"
        },
        {
          "indexed": false,
          "internalType": "address",
          "name": "operator",
          "type": "address"
        },
        {
          "indexed": false,
          "internalType": "bool",
          "name": "approved",
          "type": "bool"
        }
      ],
      "name": "ProxyApproval",
      "type": "event"
    },
    {
      "anonymous": false,
      "inputs": [
        {
          "indexed": true,
          "internalType": "bytes32",
          "name": "role",
          "type": "bytes32"
        },
        {
          "indexed": true,
          "internalType": "bytes32",
          "name": "previousAdminRole",
          "type": "bytes32"
        },
        {
          "indexed": true,
          "internalType": "bytes32",
          "name": "newAdminRole",
          "type": "bytes32"
        }
      ],
      "name": "RoleAdminChanged",
      "type": "event"
    },
    {
      "anonymous": false,
      "inputs": [
        {
          "indexed": true,
          "internalType": "bytes32",
          "name": "role",
          "type": "bytes32"
        },
        {
          "indexed": true,
          "internalType": "address",
          "name": "account",
          "type": "address"
        },
        {
          "indexed": true,
          "internalType": "address",
          "name": "sender",
          "type": "address"
        }
      ],
      "name": "RoleGranted",
      "type": "event"
    },
    {
      "anonymous": false,
      "inputs": [
        {
          "indexed": true,
          "internalType": "bytes32",
          "name": "role",
          "type": "bytes32"
        },
        {
          "indexed": true,
          "internalType": "address",
          "name": "account",
          "type": "address"
        },
        {
          "indexed": true,
          "internalType": "address",
          "name": "sender",
          "type": "address"
        }
      ],
      "name": "RoleRevoked",
      "type": "event"
    },
    {
      "anonymous": false,
      "inputs": [
        {
          "indexed": true,
          "internalType": "address",
          "name": "from",
          "type": "address"
        },
        {
          "indexed": true,
          "internalType": "address",
          "name": "to",
          "type": "address"
        },
        {
          "indexed": true,
          "internalType": "uint256",
          "name": "tokenId",
          "type": "uint256"
        }
      ],
      "name": "Transfer",
      "type": "event"
    },
    {
      "inputs": [],
      "name": "DEFAULT_ADMIN_ROLE",
      "outputs": [
        {
          "internalType": "bytes32",
          "name": "",
          "type": "bytes32"
        }
      ],
      "stateMutability": "view",
      "type": "function"
    },
    {
      "inputs": [],
      "name": "MINTER_ROLE",
      "outputs": [
        {
          "internalType": "bytes32",
          "name": "",
          "type": "bytes32"
        }
      ],
      "stateMutability": "view",
      "type": "function"
    },
    {
      "inputs": [
        {
          "internalType": "address",
          "name": "account",
          "type": "address"
        }
      ],
      "name": "addMinter",
      "outputs": [],
      "stateMutability": "nonpayable",
      "type": "function"
    },
    {
      "inputs": [
        {
          "internalType": "address",
          "name": "to",
          "type": "address"
        },
        {
          "internalType": "uint256",
          "name": "tokenId",
          "type": "uint256"
        }
      ],
      "name": "approve",
      "outputs": [],
      "stateMutability": "nonpayable",
      "type": "function"
    },
    {
      "inputs": [
        {
          "internalType": "address",
          "name": "owner",
          "type": "address"
        }
      ],
      "name": "balanceOf",
      "outputs": [
        {
          "internalType": "uint256",
          "name": "",
          "type": "uint256"
        }
      ],
      "stateMutability": "view",
      "type": "function"
    },
    {
      "inputs": [
        {
          "internalType": "uint256",
          "name": "id",
          "type": "uint256"
        }
      ],
      "name": "burn",
      "outputs": [],
      "stateMutability": "nonpayable",
      "type": "function"
    },
    {
      "inputs": [
        {
          "internalType": "uint256",
          "name": "tokenId",
          "type": "uint256"
        }
      ],
      "name": "getApproved",
      "outputs": [
        {
          "internalType": "address",
          "name": "",
          "type": "address"
        }
      ],
      "stateMutability": "view",
      "type": "function"
    },
    {
      "inputs": [
        {
          "internalType": "bytes32",
          "name": "role",
          "type": "bytes32"
        }
      ],
      "name": "getRoleAdmin",
      "outputs": [
        {
          "internalType": "bytes32",
          "name": "",
          "type": "bytes32"
        }
      ],
      "stateMutability": "view",
      "type": "function"
    },
    {
      "inputs": [
        {
          "internalType": "bytes32",
          "name": "role",
          "type": "bytes32"
        },
        {
          "internalType": "address",
          "name": "account",
          "type": "address"
        }
      ],
      "name": "grantRole",
      "outputs": [],
      "stateMutability": "nonpayable",
      "type": "function"
    },
    {
      "inputs": [
        {
          "internalType": "bytes32",
          "name": "role",
          "type": "bytes32"
        },
        {
          "internalType": "address",
          "name": "account",
          "type": "address"
        }
      ],
      "name": "hasRole",
      "outputs": [
        {
          "internalType": "bool",
          "name": "",
          "type": "bool"
        }
      ],
      "stateMutability": "view",
      "type": "function"
    },
    {
      "inputs": [
        {
          "internalType": "string",
          "name": "name",
          "type": "string"
        },
        {
          "internalType": "string",
          "name": "symbol",
          "type": "string"
        }
      ],
      "name": "initialize",
      "outputs": [],
      "stateMutability": "nonpayable",
      "type": "function"
    },
    {
      "inputs": [],
      "name": "initialize",
      "outputs": [],
      "stateMutability": "nonpayable",
      "type": "function"
    },
    {
      "inputs": [
        {
          "internalType": "address",
          "name": "account",
          "type": "address"
        },
        {
          "internalType": "address",
          "name": "operator",
          "type": "address"
        }
      ],
      "name": "isApprovedForAll",
      "outputs": [
        {
          "internalType": "bool",
          "name": "",
          "type": "bool"
        }
      ],
      "stateMutability": "view",
      "type": "function"
    },
    {
      "inputs": [
        {
          "internalType": "address",
          "name": "to",
          "type": "address"
        },
        {
          "internalType": "uint256",
          "name": "id",
          "type": "uint256"
        },
        {
          "internalType": "uint256",
          "name": "expirationBlock",
          "type": "uint256"
        }
      ],
      "name": "mint",
      "outputs": [],
      "stateMutability": "nonpayable",
      "type": "function"
    },
    {
      "inputs": [
        {
          "internalType": "address",
          "name": "to",
          "type": "address"
        },
        {
          "internalType": "uint256",
          "name": "id",
          "type": "uint256"
        }
      ],
      "name": "mint",
      "outputs": [],
      "stateMutability": "nonpayable",
      "type": "function"
    },
    {
      "inputs": [],
      "name": "name",
      "outputs": [
        {
          "internalType": "string",
          "name": "",
          "type": "string"
        }
      ],
      "stateMutability": "view",
      "type": "function"
    },
    {
      "inputs": [],
      "name": "owner",
      "outputs": [
        {
          "internalType": "address",
          "name": "",
          "type": "address"
        }
      ],
      "stateMutability": "view",
      "type": "function"
    },
    {
      "inputs": [
        {
          "internalType": "uint256",
          "name": "tokenId",
          "type": "uint256"
        }
      ],
      "name": "ownerOf",
      "outputs": [
        {
          "internalType": "address",
          "name": "",
          "type": "address"
        }
      ],
      "stateMutability": "view",
      "type": "function"
    },
    {
      "inputs": [],
      "name": "renounceOwnership",
      "outputs": [],
      "stateMutability": "nonpayable",
      "type": "function"
    },
    {
      "inputs": [
        {
          "internalType": "bytes32",
          "name": "role",
          "type": "bytes32"
        },
        {
          "internalType": "address",
          "name": "account",
          "type": "address"
        }
      ],
      "name": "renounceRole",
      "outputs": [],
      "stateMutability": "nonpayable",
      "type": "function"
    },
    {
      "inputs": [
        {
          "internalType": "bytes32",
          "name": "role",
          "type": "bytes32"
        },
        {
          "internalType": "address",
          "name": "account",
          "type": "address"
        }
      ],
      "name": "revokeRole",
      "outputs": [],
      "stateMutability": "nonpayable",
      "type": "function"
    },
    {
      "inputs": [
        {
          "internalType": "uint256",
          "name": "tokenId",
          "type": "uint256"
        },
        {
          "internalType": "uint256",
          "name": "value",
          "type": "uint256"
        }
      ],
      "name": "royaltyInfo",
      "outputs": [
        {
          "internalType": "address",
          "name": "receiver",
          "type": "address"
        },
        {
          "internalType": "uint256",
          "name": "royaltyAmount",
          "type": "uint256"
        }
      ],
      "stateMutability": "view",
      "type": "function"
    },
    {
      "inputs": [
        {
          "internalType": "address",
          "name": "from",
          "type": "address"
        },
        {
          "internalType": "address",
          "name": "to",
          "type": "address"
        },
        {
          "internalType": "uint256",
          "name": "tokenId",
          "type": "uint256"
        }
      ],
      "name": "safeTransferFrom",
      "outputs": [],
      "stateMutability": "nonpayable",
      "type": "function"
    },
    {
      "inputs": [
        {
          "internalType": "address",
          "name": "from",
          "type": "address"
        },
        {
          "internalType": "address",
          "name": "to",
          "type": "address"
        },
        {
          "internalType": "uint256",
          "name": "tokenId",
          "type": "uint256"
        },
        {
          "internalType": "bytes",
          "name": "_data",
          "type": "bytes"
        }
      ],
      "name": "safeTransferFrom",
      "outputs": [],
      "stateMutability": "nonpayable",
      "type": "function"
    },
    {
      "inputs": [
        {
          "internalType": "address",
          "name": "operator",
          "type": "address"
        },
        {
          "internalType": "bool",
          "name": "approved",
          "type": "bool"
        }
      ],
      "name": "setApprovalForAll",
      "outputs": [],
      "stateMutability": "nonpayable",
      "type": "function"
    },
    {
      "inputs": [
        {
          "internalType": "uint256",
          "name": "tokenId",
          "type": "uint256"
        },
        {
          "internalType": "string",
          "name": "nftURI",
          "type": "string"
        }
      ],
      "name": "setNFTMetadata",
      "outputs": [],
      "stateMutability": "nonpayable",
      "type": "function"
    },
    {
      "inputs": [
        {
          "internalType": "address",
          "name": "operator",
          "type": "address"
        },
        {
          "internalType": "bool",
          "name": "approved",
          "type": "bool"
        }
      ],
      "name": "setProxyApproval",
      "outputs": [],
      "stateMutability": "nonpayable",
      "type": "function"
    },
    {
      "inputs": [
        {
          "internalType": "uint256",
          "name": "tokenId",
          "type": "uint256"
        },
        {
          "internalType": "address",
          "name": "receiver",
          "type": "address"
        },
        {
          "internalType": "uint256",
          "name": "royaltyAmount",
          "type": "uint256"
        }
      ],
      "name": "setTokenRoyalty",
      "outputs": [],
      "stateMutability": "nonpayable",
      "type": "function"
    },
    {
      "inputs": [
        {
          "internalType": "bytes4",
          "name": "interfaceId",
          "type": "bytes4"
        }
      ],
      "name": "supportsInterface",
      "outputs": [
        {
          "internalType": "bool",
          "name": "",
          "type": "bool"
        }
      ],
      "stateMutability": "view",
      "type": "function"
    },
    {
      "inputs": [],
      "name": "symbol",
      "outputs": [
        {
          "internalType": "string",
          "name": "",
          "type": "string"
        }
      ],
      "stateMutability": "view",
      "type": "function"
    },
    {
      "inputs": [
        {
          "internalType": "uint256",
          "name": "tokenId",
          "type": "uint256"
        }
      ],
      "name": "tokenURI",
      "outputs": [
        {
          "internalType": "string",
          "name": "",
          "type": "string"
        }
      ],
      "stateMutability": "view",
      "type": "function"
    },
    {
      "inputs": [
        {
          "internalType": "address",
          "name": "from",
          "type": "address"
        },
        {
          "internalType": "address",
          "name": "to",
          "type": "address"
        },
        {
          "internalType": "uint256",
          "name": "tokenId",
          "type": "uint256"
        }
      ],
      "name": "transferFrom",
      "outputs": [],
      "stateMutability": "nonpayable",
      "type": "function"
    },
    {
      "inputs": [
        {
          "internalType": "address",
          "name": "newOwner",
          "type": "address"
        }
      ],
      "name": "transferOwnership",
      "outputs": [],
      "stateMutability": "nonpayable",
      "type": "function"
    }
  ],
  "bytecode": "0x608060405234801561001057600080fd5b506124e5806100206000396000f3fe608060405234801561001057600080fd5b506004361061018b5760003560e01c806301ffc9a71461019057806306fdde03146101b8578063081812fc146101cd578063095ea7b3146101f8578063156e29f61461020d578063237c49191461022057806323b872dd14610233578063248a9ca3146102465780632a55205a146102675780632f2ff15d1461029957806336568abe146102ac57806340c10f19146102bf57806342842e0e146102d257806342966c68146102e55780634cd88b76146102f85780636352211e1461030b57806370a082311461031e578063715018a6146103315780638129fc1c146103395780638da5cb5b1461034157806391d148541461034957806395d89b411461035c5780639713c80714610364578063983b2d5614610377578063a217fddf1461038a578063a22cb46514610392578063b88d4fde146103a5578063c87b56dd146103b8578063d416a27d146103cb578063d5391393146103de578063d547741f146103f3578063e985e9c514610406578063f2fde38b14610419575b600080fd5b6101a361019e366004611cd4565b61042c565b60405190151581526020015b60405180910390f35b6101c0610467565b6040516101af9190611d49565b6101e06101db366004611d5c565b6104f9565b6040516001600160a01b0390911681526020016101af565b61020b610206366004611d8c565b610586565b005b61020b61021b366004611db6565b610697565b61020b61022e366004611e94565b6106f5565b61020b610241366004611ed0565b610737565b610259610254366004611d5c565b610768565b6040519081526020016101af565b61027a610275366004611f0c565b61077d565b604080516001600160a01b0390931683526020830191909152016101af565b61020b6102a7366004611f2e565b6107d3565b61020b6102ba366004611f2e565b6107ef565b61020b6102cd366004611d8c565b610869565b61020b6102e0366004611ed0565b6108a7565b61020b6102f3366004611d5c565b6108c2565b61020b610306366004611f5a565b61095d565b6101e0610319366004611d5c565b6109fb565b61025961032c366004611fb3565b610a72565b61020b610ac4565b61020b610aff565b6101e0610b81565b6101a3610357366004611f2e565b610b90565b6101c0610bbb565b61020b610372366004611fce565b610bca565b61020b610385366004611fb3565b610c09565b610259600081565b61020b6103a0366004611ff3565b610c50565b61020b6103b336600461202f565b610c5b565b6101c06103c6366004611d5c565b610c93565b61020b6103d9366004611ff3565b610d35565b61025960008051602061247083398151915281565b61020b610401366004611f2e565b610dd9565b6101a36104143660046120aa565b610df5565b61020b610427366004611fb3565b610e4a565b600061043782610ee7565b80610446575061044682610f08565b8061046157506001600160e01b0319821663152a902d60e11b145b92915050565b606060978054610476906120d4565b80601f01602080910402602001604051908101604052809291908181526020018280546104a2906120d4565b80156104ef5780601f106104c4576101008083540402835291602001916104ef565b820191906000526020600020905b8154815290600101906020018083116104d257829003601f168201915b5050505050905090565b600061050482610f58565b61056a5760405162461bcd60e51b815260206004820152602c60248201527f4552433732313a20617070726f76656420717565727920666f72206e6f6e657860448201526b34b9ba32b73a103a37b5b2b760a11b60648201526084015b60405180910390fd5b506000908152609b60205260409020546001600160a01b031690565b6000610591826109fb565b9050806001600160a01b0316836001600160a01b031614156105ff5760405162461bcd60e51b815260206004820152602160248201527f4552433732313a20617070726f76616c20746f2063757272656e74206f776e656044820152603960f91b6064820152608401610561565b336001600160a01b038216148061061b575061061b8133610df5565b6106885760405162461bcd60e51b815260206004820152603860248201527f4552433732313a20617070726f76652063616c6c6572206973206e6f74206f776044820152771b995c881b9bdc88185c1c1c9bdd995908199bdc88185b1b60421b6064820152608401610561565b6106928383610f75565b505050565b6106af60008051602061247083398151915233610b90565b6106cb5760405162461bcd60e51b81526004016105619061210f565b6106d58383610fe3565b6001600160a01b03909216600090815260fe602052604090209190915550565b61070d60008051602061247083398151915233610b90565b6107295760405162461bcd60e51b81526004016105619061213d565b6107338282610ffd565b5050565b6107413382611034565b61075d5760405162461bcd60e51b815260040161056190612162565b6106928383836110fe565b600090815260c9602052604090206001015490565b600082815260fc60209081526040808320815180830190925280546001600160a01b031680835260019091015492820183905292916064906107bf90866121c9565b6107c991906121e8565b9150509250929050565b6107dc82610768565b6107e581611288565b6106928383611292565b6001600160a01b038116331461085f5760405162461bcd60e51b815260206004820152602f60248201527f416363657373436f6e74726f6c3a2063616e206f6e6c792072656e6f756e636560448201526e103937b632b9903337b91039b2b63360891b6064820152608401610561565b6107338282611318565b61088160008051602061247083398151915233610b90565b61089d5760405162461bcd60e51b81526004016105619061210f565b610733828261137f565b61069283838360405180602001604052806000815250610c5b565b6108da60008051602061247083398151915233610b90565b806108ed575060006108eb33610a72565b115b6109515760405162461bcd60e51b815260206004820152602f60248201527f4552433732313a2063616c6c6572206973206e6f74206f776e6572206f72206e60448201526e6f7420686176652062616c616e636560881b6064820152608401610561565b61095a8161149f565b50565b60006109696001611528565b90508015610981576000805461ff0019166101001790555b6109896115b4565b6109916115b4565b61099b83836115db565b6109a3611629565b6109ab6115b4565b6109c360008051602061247083398151915233611659565b8015610692576000805461ff0019169055604051600181526000805160206124508339815191529060200160405180910390a1505050565b6000818152609960205260408120546001600160a01b0316806104615760405162461bcd60e51b815260206004820152602960248201527f4552433732313a206f776e657220717565727920666f72206e6f6e657869737460448201526832b73a103a37b5b2b760b91b6064820152608401610561565b6001600160a01b038116600090815260fe60205260408120541580610aae57506001600160a01b038216600090815260fe602052604090205443105b15610abc5761046182611663565b506000919050565b33610acd610b81565b6001600160a01b031614610af35760405162461bcd60e51b81526004016105619061220a565b610afd60006116ea565b565b6000610b0b6001611528565b90508015610b23576000805461ff0019166101001790555b610b4b604051806020016040528060008152506040518060200160405280600081525061095d565b801561095a576000805461ff0019169055604051600181526000805160206124508339815191529060200160405180910390a150565b6033546001600160a01b031690565b600091825260c9602090815260408084206001600160a01b0393909316845291905290205460ff1690565b606060988054610476906120d4565b610be260008051602061247083398151915233610b90565b610bfe5760405162461bcd60e51b81526004016105619061213d565b61069283838361173c565b33610c12610b81565b6001600160a01b031614610c385760405162461bcd60e51b81526004016105619061220a565b61095a60008051602061247083398151915282611659565b6107333383836117d2565b610c653383611034565b610c815760405162461bcd60e51b815260040161056190612162565b610c8d8484848461189d565b50505050565b600081815260fd60205260409020805460609190610cb0906120d4565b80601f0160208091040260200160405190810160405280929190818152602001828054610cdc906120d4565b8015610d295780601f10610cfe57610100808354040283529160200191610d29565b820191906000526020600020905b815481529060010190602001808311610d0c57829003601f168201915b50505050509050919050565b33610d3e610b81565b6001600160a01b031614610d645760405162461bcd60e51b81526004016105619061220a565b6001600160a01b038216600090815260fb60205260409020805460ff19168215151790557f54a2d072b66160727a2315e14c742bbb303a32e6dee78d245f1fccf8c94cc41933604080516001600160a01b03928316815291851660208301528315159082015260600160405180910390a15050565b610de282610768565b610deb81611288565b6106928383611318565b6001600160a01b038083166000908152609c6020908152604080832093851683529290529081205460ff1680610e4357506001600160a01b038216600090815260fb602052604090205460ff165b9392505050565b33610e53610b81565b6001600160a01b031614610e795760405162461bcd60e51b81526004016105619061220a565b6001600160a01b038116610ede5760405162461bcd60e51b815260206004820152602660248201527f4f776e61626c653a206e6577206f776e657220697320746865207a65726f206160448201526564647265737360d01b6064820152608401610561565b61095a816116ea565b60006001600160e01b03198216637965db0b60e01b14806104615750610461825b60006001600160e01b031982166380ac58cd60e01b1480610f3957506001600160e01b03198216635b5e139f60e01b145b8061046157506301ffc9a760e01b6001600160e01b0319831614610461565b6000908152609960205260409020546001600160a01b0316151590565b6000818152609b6020526040902080546001600160a01b0319166001600160a01b0384169081179091558190610faa826109fb565b6001600160a01b03167f8c5be1e5ebec7d5bd14f71427d1e84f3dd0314c0f7b2291e5b200ac8c7c3b92560405160405180910390a45050565b6107338282604051806020016040528060008152506118d0565b6040805160208082018352838252600085815260fd825292909220815180519293919261102d9284920190611c25565b5050505050565b600061103f82610f58565b6110a05760405162461bcd60e51b815260206004820152602c60248201527f4552433732313a206f70657261746f7220717565727920666f72206e6f6e657860448201526b34b9ba32b73a103a37b5b2b760a11b6064820152608401610561565b60006110ab836109fb565b9050806001600160a01b0316846001600160a01b031614806110d257506110d28185610df5565b806110f65750836001600160a01b03166110eb846104f9565b6001600160a01b0316145b949350505050565b826001600160a01b0316611111826109fb565b6001600160a01b0316146111755760405162461bcd60e51b815260206004820152602560248201527f4552433732313a207472616e736665722066726f6d20696e636f72726563742060448201526437bbb732b960d91b6064820152608401610561565b6001600160a01b0382166111d75760405162461bcd60e51b8152602060048201526024808201527f4552433732313a207472616e7366657220746f20746865207a65726f206164646044820152637265737360e01b6064820152608401610561565b6111e2600082610f75565b6001600160a01b0383166000908152609a6020526040812080546001929061120b90849061223f565b90915550506001600160a01b0382166000908152609a60205260408120805460019290611239908490612256565b909155505060008181526099602052604080822080546001600160a01b0319166001600160a01b03868116918217909255915184939187169160008051602061249083398151915291a4505050565b61095a8133611903565b61129c8282610b90565b61073357600082815260c9602090815260408083206001600160a01b03851684529091529020805460ff191660011790556112d43390565b6001600160a01b0316816001600160a01b0316837f2f8788117e7eff1d82e926ec794901d17c78024a50270940304540a733656f0d60405160405180910390a45050565b6113228282610b90565b1561073357600082815260c9602090815260408083206001600160a01b0385168085529252808320805460ff1916905551339285917ff6391f5c32d9c69d2a47ea670b442974b53935d1edc7fd64eb21e047a839171b9190a45050565b6001600160a01b0382166113d55760405162461bcd60e51b815260206004820181905260248201527f4552433732313a206d696e7420746f20746865207a65726f20616464726573736044820152606401610561565b6113de81610f58565b1561142a5760405162461bcd60e51b815260206004820152601c60248201527b115490cdcc8c4e881d1bdad95b88185b1c9958591e481b5a5b9d195960221b6044820152606401610561565b6001600160a01b0382166000908152609a60205260408120805460019290611453908490612256565b909155505060008181526099602052604080822080546001600160a01b0319166001600160a01b0386169081179091559051839290600080516020612490833981519152908290a45050565b60006114aa826109fb565b90506114b7600083610f75565b6001600160a01b0381166000908152609a602052604081208054600192906114e090849061223f565b909155505060008281526099602052604080822080546001600160a01b0319169055518391906001600160a01b03841690600080516020612490833981519152908390a45050565b60008054610100900460ff161561156e578160ff166001148015611552575061155030611967565b155b610abc5760405162461bcd60e51b81526004016105619061226e565b60005460ff8084169116106115955760405162461bcd60e51b81526004016105619061226e565b506000805460ff191660ff92909216919091179055600190565b919050565b600054610100900460ff16610afd5760405162461bcd60e51b8152600401610561906122bc565b600054610100900460ff166116025760405162461bcd60e51b8152600401610561906122bc565b8151611615906097906020850190611c25565b508051610692906098906020840190611c25565b600054610100900460ff166116505760405162461bcd60e51b8152600401610561906122bc565b610afd336116ea565b6107338282611292565b60006001600160a01b0382166116ce5760405162461bcd60e51b815260206004820152602a60248201527f4552433732313a2062616c616e636520717565727920666f7220746865207a65604482015269726f206164647265737360b01b6064820152608401610561565b506001600160a01b03166000908152609a602052604090205490565b603380546001600160a01b038381166001600160a01b0319831681179093556040519116919082907f8be0079c531659141344cd1fd0a4f28419497f9722a3daafe3b4186f6b6457e090600090a35050565b606481111561178a5760405162461bcd60e51b815260206004820152601a60248201527908aa48664727062a4def2c2d8e8d2cae67440a8dede40d0d2ced60331b6044820152606401610561565b6040805180820182526001600160a01b0393841681526020808201938452600095865260fc90529320925183546001600160a01b031916921691909117825551600190910155565b816001600160a01b0316836001600160a01b031614156118305760405162461bcd60e51b815260206004820152601960248201527822a9219b99189d1030b8383937bb32903a379031b0b63632b960391b6044820152606401610561565b6001600160a01b038381166000818152609c6020908152604080832094871680845294825291829020805460ff191686151590811790915591519182527f17307eab39ab6107e8899845ad3d59bd9653f200f220920489ca2b5937696c31910160405180910390a3505050565b6118a88484846110fe565b6118b484848484611976565b610c8d5760405162461bcd60e51b815260040161056190612307565b6118da838361137f565b6118e76000848484611976565b6106925760405162461bcd60e51b815260040161056190612307565b61190d8282610b90565b61073357611925816001600160a01b03166014611a8a565b611930836020611a8a565b604051602001611941929190612359565b60408051601f198184030181529082905262461bcd60e51b825261056191600401611d49565b6001600160a01b03163b151590565b600061198a846001600160a01b0316611967565b15611a7f57604051630a85bd0160e11b81526001600160a01b0385169063150b7a02906119c19033908990889088906004016123c8565b602060405180830381600087803b1580156119db57600080fd5b505af1925050508015611a0b575060408051601f3d908101601f19168201909252611a0891810190612405565b60015b611a65573d808015611a39576040519150601f19603f3d011682016040523d82523d6000602084013e611a3e565b606091505b508051611a5d5760405162461bcd60e51b815260040161056190612307565b805181602001fd5b6001600160e01b031916630a85bd0160e11b1490506110f6565b506001949350505050565b60606000611a998360026121c9565b611aa4906002612256565b6001600160401b03811115611abb57611abb611de9565b6040519080825280601f01601f191660200182016040528015611ae5576020820181803683370190505b509050600360fc1b81600081518110611b0057611b00612422565b60200101906001600160f81b031916908160001a905350600f60fb1b81600181518110611b2f57611b2f612422565b60200101906001600160f81b031916908160001a9053506000611b538460026121c9565b611b5e906001612256565b90505b6001811115611bd6576f181899199a1a9b1b9c1cb0b131b232b360811b85600f1660108110611b9257611b92612422565b1a60f81b828281518110611ba857611ba8612422565b60200101906001600160f81b031916908160001a90535060049490941c93611bcf81612438565b9050611b61565b508315610e435760405162461bcd60e51b815260206004820181905260248201527f537472696e67733a20686578206c656e67746820696e73756666696369656e746044820152606401610561565b828054611c31906120d4565b90600052602060002090601f016020900481019282611c535760008555611c99565b82601f10611c6c57805160ff1916838001178555611c99565b82800160010185558215611c99579182015b82811115611c99578251825591602001919060010190611c7e565b50611ca5929150611ca9565b5090565b5b80821115611ca55760008155600101611caa565b6001600160e01b03198116811461095a57600080fd5b600060208284031215611ce657600080fd5b8135610e4381611cbe565b60005b83811015611d0c578181015183820152602001611cf4565b83811115610c8d5750506000910152565b60008151808452611d35816020860160208601611cf1565b601f01601f19169290920160200192915050565b602081526000610e436020830184611d1d565b600060208284031215611d6e57600080fd5b5035919050565b80356001600160a01b03811681146115af57600080fd5b60008060408385031215611d9f57600080fd5b611da883611d75565b946020939093013593505050565b600080600060608486031215611dcb57600080fd5b611dd484611d75565b95602085013595506040909401359392505050565b634e487b7160e01b600052604160045260246000fd5b60006001600160401b0380841115611e1957611e19611de9565b604051601f8501601f19908116603f01168101908282118183101715611e4157611e41611de9565b81604052809350858152868686011115611e5a57600080fd5b858560208301376000602087830101525050509392505050565b600082601f830112611e8557600080fd5b610e4383833560208501611dff565b60008060408385031215611ea757600080fd5b8235915060208301356001600160401b03811115611ec457600080fd5b6107c985828601611e74565b600080600060608486031215611ee557600080fd5b611eee84611d75565b9250611efc60208501611d75565b9150604084013590509250925092565b60008060408385031215611f1f57600080fd5b50508035926020909101359150565b60008060408385031215611f4157600080fd5b82359150611f5160208401611d75565b90509250929050565b60008060408385031215611f6d57600080fd5b82356001600160401b0380821115611f8457600080fd5b611f9086838701611e74565b93506020850135915080821115611fa657600080fd5b506107c985828601611e74565b600060208284031215611fc557600080fd5b610e4382611d75565b600080600060608486031215611fe357600080fd5b83359250611efc60208501611d75565b6000806040838503121561200657600080fd5b61200f83611d75565b91506020830135801515811461202457600080fd5b809150509250929050565b6000806000806080858703121561204557600080fd5b61204e85611d75565b935061205c60208601611d75565b92506040850135915060608501356001600160401b0381111561207e57600080fd5b8501601f8101871361208f57600080fd5b61209e87823560208401611dff565b91505092959194509250565b600080604083850312156120bd57600080fd5b6120c683611d75565b9150611f5160208401611d75565b600181811c908216806120e857607f821691505b6020821081141561210957634e487b7160e01b600052602260045260246000fd5b50919050565b6020808252601490820152731bdb9b1e481b5a5b9d195c8818d85b881b5a5b9d60621b604082015260600190565b6020808252600b908201526a37b7363c9036b4b73a32b960a91b604082015260600190565b60208082526031908201527f4552433732313a207472616e736665722063616c6c6572206973206e6f74206f6040820152701ddb995c881b9bdc88185c1c1c9bdd9959607a1b606082015260800190565b634e487b7160e01b600052601160045260246000fd5b60008160001904831182151516156121e3576121e36121b3565b500290565b60008261220557634e487b7160e01b600052601260045260246000fd5b500490565b6020808252818101527f4f776e61626c653a2063616c6c6572206973206e6f7420746865206f776e6572604082015260600190565b600082821015612251576122516121b3565b500390565b60008219821115612269576122696121b3565b500190565b6020808252602e908201527f496e697469616c697a61626c653a20636f6e747261637420697320616c72656160408201526d191e481a5b9a5d1a585b1a5e995960921b606082015260800190565b6020808252602b908201527f496e697469616c697a61626c653a20636f6e7472616374206973206e6f74206960408201526a6e697469616c697a696e6760a81b606082015260800190565b60208082526032908201527f4552433732313a207472616e7366657220746f206e6f6e20455243373231526560408201527131b2b4bb32b91034b6b83632b6b2b73a32b960711b606082015260800190565b76020b1b1b2b9b9a1b7b73a3937b61d1030b1b1b7bab73a1604d1b81526000835161238b816017850160208801611cf1565b7001034b99036b4b9b9b4b733903937b6329607d1b60179184019182015283516123bc816028840160208801611cf1565b01602801949350505050565b6001600160a01b03858116825284166020820152604081018390526080606082018190526000906123fb90830184611d1d565b9695505050505050565b60006020828403121561241757600080fd5b8151610e4381611cbe565b634e487b7160e01b600052603260045260246000fd5b600081612447576124476121b3565b50600019019056fe7f26b83ff96e1f2b6a682f133852f6798a09c465da95921460cefb38474024989f2df0fed2c77648de5860a4cc508cd0818c85b8b8a1ab4ceeef8d981c8956a6ddf252ad1be2c89b69c2b068fc378daa952ba7f163c4a11628f55a4df523b3efa26469706673582212208f045f6c5fdd98289c4f3df01178077677778dc0a8ba0b9488c170ac42c5b54b64736f6c63430008090033",
  "linkReferences": {},
  "deployedLinkReferences": {}
}