{
  "_format": "hh-sol-artifact-1",
  "contractName": "NFT721SubscriptionUpgradeable",
  "sourceName": "contracts/token/erc721/NFT721SubscriptionUpgradeable.sol",
  "abi": [
    {
      "anonymous": false,
      "inputs": [
        {
          "indexed": true,
          "internalType": "address",
          "name": "owner",
          "type": "address"
        },
        {
          "indexed": true,
          "internalType": "address",
          "name": "approved",
          "type": "address"
        },
        {
          "indexed": true,
          "internalType": "uint256",
          "name": "tokenId",
          "type": "uint256"
        }
      ],
      "name": "Approval",
      "type": "event"
    },
    {
      "anonymous": false,
      "inputs": [
        {
          "indexed": true,
          "internalType": "address",
          "name": "owner",
          "type": "address"
        },
        {
          "indexed": true,
          "internalType": "address",
          "name": "operator",
          "type": "address"
        },
        {
          "indexed": false,
          "internalType": "bool",
          "name": "approved",
          "type": "bool"
        }
      ],
      "name": "ApprovalForAll",
      "type": "event"
    },
    {
      "anonymous": false,
      "inputs": [
        {
          "indexed": false,
          "internalType": "uint8",
          "name": "version",
          "type": "uint8"
        }
      ],
      "name": "Initialized",
      "type": "event"
    },
    {
      "anonymous": false,
      "inputs": [
        {
          "indexed": true,
          "internalType": "address",
          "name": "_newAddress",
          "type": "address"
        },
        {
          "indexed": true,
          "internalType": "address",
          "name": "_fromAddress",
          "type": "address"
        },
        {
          "indexed": false,
          "internalType": "uint256",
          "name": "_ercType",
          "type": "uint256"
        }
      ],
      "name": "NFTCloned",
      "type": "event"
    },
    {
      "anonymous": false,
      "inputs": [
        {
          "indexed": true,
          "internalType": "address",
          "name": "previousOwner",
          "type": "address"
        },
        {
          "indexed": true,
          "internalType": "address",
          "name": "newOwner",
          "type": "address"
        }
      ],
      "name": "OwnershipTransferred",
      "type": "event"
    },
    {
      "anonymous": false,
      "inputs": [
        {
          "indexed": true,
          "internalType": "bytes32",
          "name": "role",
          "type": "bytes32"
        },
        {
          "indexed": true,
          "internalType": "bytes32",
          "name": "previousAdminRole",
          "type": "bytes32"
        },
        {
          "indexed": true,
          "internalType": "bytes32",
          "name": "newAdminRole",
          "type": "bytes32"
        }
      ],
      "name": "RoleAdminChanged",
      "type": "event"
    },
    {
      "anonymous": false,
      "inputs": [
        {
          "indexed": true,
          "internalType": "bytes32",
          "name": "role",
          "type": "bytes32"
        },
        {
          "indexed": true,
          "internalType": "address",
          "name": "account",
          "type": "address"
        },
        {
          "indexed": true,
          "internalType": "address",
          "name": "sender",
          "type": "address"
        }
      ],
      "name": "RoleGranted",
      "type": "event"
    },
    {
      "anonymous": false,
      "inputs": [
        {
          "indexed": true,
          "internalType": "bytes32",
          "name": "role",
          "type": "bytes32"
        },
        {
          "indexed": true,
          "internalType": "address",
          "name": "account",
          "type": "address"
        },
        {
          "indexed": true,
          "internalType": "address",
          "name": "sender",
          "type": "address"
        }
      ],
      "name": "RoleRevoked",
      "type": "event"
    },
    {
      "anonymous": false,
      "inputs": [
        {
          "indexed": true,
          "internalType": "address",
          "name": "from",
          "type": "address"
        },
        {
          "indexed": true,
          "internalType": "address",
          "name": "to",
          "type": "address"
        },
        {
          "indexed": true,
          "internalType": "uint256",
          "name": "tokenId",
          "type": "uint256"
        }
      ],
      "name": "Transfer",
      "type": "event"
    },
    {
      "inputs": [],
      "name": "DEFAULT_ADMIN_ROLE",
      "outputs": [
        {
          "internalType": "bytes32",
          "name": "",
          "type": "bytes32"
        }
      ],
      "stateMutability": "view",
      "type": "function"
    },
    {
      "inputs": [],
      "name": "NVM_OPERATOR_ROLE",
      "outputs": [
        {
          "internalType": "bytes32",
          "name": "",
          "type": "bytes32"
        }
      ],
      "stateMutability": "view",
      "type": "function"
    },
    {
      "inputs": [
        {
          "internalType": "address",
          "name": "_addr",
          "type": "address"
        }
      ],
      "name": "addressToBytes32",
      "outputs": [
        {
          "internalType": "bytes32",
          "name": "",
          "type": "bytes32"
        }
      ],
      "stateMutability": "pure",
      "type": "function"
    },
    {
      "inputs": [
        {
          "internalType": "address",
          "name": "to",
          "type": "address"
        },
        {
          "internalType": "uint256",
          "name": "tokenId",
          "type": "uint256"
        }
      ],
      "name": "approve",
      "outputs": [],
      "stateMutability": "nonpayable",
      "type": "function"
    },
    {
      "inputs": [
        {
          "internalType": "address",
          "name": "owner",
          "type": "address"
        }
      ],
      "name": "balanceOf",
      "outputs": [
        {
          "internalType": "uint256",
          "name": "",
          "type": "uint256"
        }
      ],
      "stateMutability": "view",
      "type": "function"
    },
    {
      "inputs": [
        {
          "internalType": "uint256",
          "name": "tokenId",
          "type": "uint256"
        }
      ],
      "name": "burn",
      "outputs": [],
      "stateMutability": "nonpayable",
      "type": "function"
    },
    {
      "inputs": [
        {
          "internalType": "bytes32",
          "name": "_b32",
          "type": "bytes32"
        }
      ],
      "name": "bytes32ToAddress",
      "outputs": [
        {
          "internalType": "address",
          "name": "",
          "type": "address"
        }
      ],
      "stateMutability": "pure",
      "type": "function"
    },
    {
      "inputs": [
        {
          "internalType": "uint256[]",
          "name": "_amounts",
          "type": "uint256[]"
        }
      ],
      "name": "calculateTotalAmount",
      "outputs": [
        {
          "internalType": "uint256",
          "name": "",
          "type": "uint256"
        }
      ],
      "stateMutability": "pure",
      "type": "function"
    },
    {
      "inputs": [],
      "name": "contractURI",
      "outputs": [
        {
          "internalType": "string",
          "name": "",
          "type": "string"
        }
      ],
      "stateMutability": "view",
      "type": "function"
    },
    {
      "inputs": [
        {
          "internalType": "string",
          "name": "name",
          "type": "string"
        },
        {
          "internalType": "string",
          "name": "symbol",
          "type": "string"
        },
        {
          "internalType": "string",
          "name": "uri",
          "type": "string"
        },
        {
          "internalType": "uint256",
          "name": "cap",
          "type": "uint256"
        },
        {
          "internalType": "address[]",
          "name": "_operators",
          "type": "address[]"
        }
      ],
      "name": "createClone",
      "outputs": [
        {
          "internalType": "address",
          "name": "",
          "type": "address"
        }
      ],
      "stateMutability": "nonpayable",
      "type": "function"
    },
    {
      "inputs": [
        {
          "internalType": "uint256",
          "name": "tokenId",
          "type": "uint256"
        }
      ],
      "name": "getApproved",
      "outputs": [
        {
          "internalType": "address",
          "name": "",
          "type": "address"
        }
      ],
      "stateMutability": "view",
      "type": "function"
    },
    {
      "inputs": [],
      "name": "getCurrentBlockNumber",
      "outputs": [
        {
          "internalType": "uint256",
          "name": "",
          "type": "uint256"
        }
      ],
      "stateMutability": "view",
      "type": "function"
    },
    {
      "inputs": [],
      "name": "getHowManyMinted",
      "outputs": [
        {
          "internalType": "uint256",
          "name": "",
          "type": "uint256"
        }
      ],
      "stateMutability": "view",
      "type": "function"
    },
    {
      "inputs": [
        {
          "internalType": "uint256",
          "name": "tokenId",
          "type": "uint256"
        }
      ],
      "name": "getNFTAttributes",
      "outputs": [
        {
          "internalType": "bool",
          "name": "nftInitialized",
          "type": "bool"
        },
        {
          "internalType": "uint256",
          "name": "nftSupply",
          "type": "uint256"
        },
        {
          "internalType": "uint256",
          "name": "mintCap",
          "type": "uint256"
        },
        {
          "internalType": "string",
          "name": "nftURI",
          "type": "string"
        }
      ],
      "stateMutability": "view",
      "type": "function"
    },
    {
      "inputs": [],
      "name": "getNvmConfigAddress",
      "outputs": [
        {
          "internalType": "address",
          "name": "",
          "type": "address"
        }
      ],
      "stateMutability": "view",
      "type": "function"
    },
    {
      "inputs": [
        {
          "internalType": "bytes32",
          "name": "role",
          "type": "bytes32"
        }
      ],
      "name": "getRoleAdmin",
      "outputs": [
        {
          "internalType": "bytes32",
          "name": "",
          "type": "bytes32"
        }
      ],
      "stateMutability": "view",
      "type": "function"
    },
    {
      "inputs": [],
      "name": "getTrustedForwarder",
      "outputs": [
        {
          "internalType": "address",
          "name": "",
          "type": "address"
        }
      ],
      "stateMutability": "view",
      "type": "function"
    },
    {
      "inputs": [
        {
          "internalType": "address",
          "name": "account",
          "type": "address"
        }
      ],
      "name": "grantOperatorRole",
      "outputs": [],
      "stateMutability": "nonpayable",
      "type": "function"
    },
    {
      "inputs": [
        {
          "internalType": "bytes32",
          "name": "role",
          "type": "bytes32"
        },
        {
          "internalType": "address",
          "name": "account",
          "type": "address"
        }
      ],
      "name": "grantRole",
      "outputs": [],
      "stateMutability": "nonpayable",
      "type": "function"
    },
    {
      "inputs": [
        {
          "internalType": "bytes32",
          "name": "role",
          "type": "bytes32"
        },
        {
          "internalType": "address",
          "name": "account",
          "type": "address"
        }
      ],
      "name": "hasRole",
      "outputs": [
        {
          "internalType": "bool",
          "name": "",
          "type": "bool"
        }
      ],
      "stateMutability": "view",
      "type": "function"
    },
    {
      "inputs": [
        {
          "internalType": "address",
          "name": "owner",
          "type": "address"
        },
        {
          "internalType": "address",
          "name": "didRegistryAddress",
          "type": "address"
        },
        {
          "internalType": "string",
          "name": "name",
          "type": "string"
        },
        {
          "internalType": "string",
          "name": "symbol",
          "type": "string"
        },
        {
          "internalType": "string",
          "name": "uri",
          "type": "string"
        },
        {
          "internalType": "uint256",
          "name": "cap",
          "type": "uint256"
        }
      ],
      "name": "initialize",
      "outputs": [],
      "stateMutability": "nonpayable",
      "type": "function"
    },
    {
      "inputs": [
        {
          "internalType": "address",
          "name": "account",
          "type": "address"
        },
        {
          "internalType": "address",
          "name": "operator",
          "type": "address"
        }
      ],
      "name": "isApprovedForAll",
      "outputs": [
        {
          "internalType": "bool",
          "name": "",
          "type": "bool"
        }
      ],
      "stateMutability": "view",
      "type": "function"
    },
    {
      "inputs": [
        {
          "internalType": "address",
          "name": "addr",
          "type": "address"
        }
      ],
      "name": "isContract",
      "outputs": [
        {
          "internalType": "bool",
          "name": "",
          "type": "bool"
        }
      ],
      "stateMutability": "view",
      "type": "function"
    },
    {
      "inputs": [
        {
          "internalType": "address",
          "name": "operator",
          "type": "address"
        }
      ],
      "name": "isOperator",
      "outputs": [
        {
          "internalType": "bool",
          "name": "",
          "type": "bool"
        }
      ],
      "stateMutability": "view",
      "type": "function"
    },
    {
      "inputs": [
        {
          "internalType": "address",
          "name": "forwarder",
          "type": "address"
        }
      ],
      "name": "isTrustedForwarder",
      "outputs": [
        {
          "internalType": "bool",
          "name": "",
          "type": "bool"
        }
      ],
      "stateMutability": "view",
      "type": "function"
    },
    {
      "inputs": [
        {
          "internalType": "address",
          "name": "to",
          "type": "address"
        },
        {
          "internalType": "uint256",
          "name": "tokenId",
          "type": "uint256"
        },
        {
          "internalType": "uint256",
          "name": "expirationBlock",
          "type": "uint256"
        }
      ],
      "name": "mint",
      "outputs": [],
      "stateMutability": "nonpayable",
      "type": "function"
    },
    {
      "inputs": [
        {
          "internalType": "address",
          "name": "to",
          "type": "address"
        },
        {
          "internalType": "uint256",
          "name": "tokenId",
          "type": "uint256"
        }
      ],
      "name": "mint",
      "outputs": [],
      "stateMutability": "nonpayable",
      "type": "function"
    },
    {
      "inputs": [
        {
          "internalType": "uint256",
          "name": "tokenId",
          "type": "uint256"
        }
      ],
      "name": "mint",
      "outputs": [],
      "stateMutability": "nonpayable",
      "type": "function"
    },
    {
      "inputs": [],
      "name": "name",
      "outputs": [
        {
          "internalType": "string",
          "name": "",
          "type": "string"
        }
      ],
      "stateMutability": "view",
      "type": "function"
    },
    {
      "inputs": [],
      "name": "nvmConfig",
      "outputs": [
        {
          "internalType": "address",
          "name": "",
          "type": "address"
        }
      ],
      "stateMutability": "view",
      "type": "function"
    },
    {
      "inputs": [],
      "name": "owner",
      "outputs": [
        {
          "internalType": "address",
          "name": "",
          "type": "address"
        }
      ],
      "stateMutability": "view",
      "type": "function"
    },
    {
      "inputs": [
        {
          "internalType": "uint256",
          "name": "tokenId",
          "type": "uint256"
        }
      ],
      "name": "ownerOf",
      "outputs": [
        {
          "internalType": "address",
          "name": "",
          "type": "address"
        }
      ],
      "stateMutability": "view",
      "type": "function"
    },
    {
      "inputs": [],
      "name": "renounceOwnership",
      "outputs": [],
      "stateMutability": "nonpayable",
      "type": "function"
    },
    {
      "inputs": [
        {
          "internalType": "bytes32",
          "name": "role",
          "type": "bytes32"
        },
        {
          "internalType": "address",
          "name": "account",
          "type": "address"
        }
      ],
      "name": "renounceRole",
      "outputs": [],
      "stateMutability": "nonpayable",
      "type": "function"
    },
    {
      "inputs": [
        {
          "internalType": "address",
          "name": "account",
          "type": "address"
        }
      ],
      "name": "revokeOperatorRole",
      "outputs": [],
      "stateMutability": "nonpayable",
      "type": "function"
    },
    {
      "inputs": [
        {
          "internalType": "bytes32",
          "name": "role",
          "type": "bytes32"
        },
        {
          "internalType": "address",
          "name": "account",
          "type": "address"
        }
      ],
      "name": "revokeRole",
      "outputs": [],
      "stateMutability": "nonpayable",
      "type": "function"
    },
    {
      "inputs": [
        {
          "internalType": "uint256",
          "name": "tokenId",
          "type": "uint256"
        },
        {
          "internalType": "uint256",
          "name": "value",
          "type": "uint256"
        }
      ],
      "name": "royaltyInfo",
      "outputs": [
        {
          "internalType": "address",
          "name": "receiver",
          "type": "address"
        },
        {
          "internalType": "uint256",
          "name": "royaltyAmount",
          "type": "uint256"
        }
      ],
      "stateMutability": "view",
      "type": "function"
    },
    {
      "inputs": [
        {
          "internalType": "address",
          "name": "from",
          "type": "address"
        },
        {
          "internalType": "address",
          "name": "to",
          "type": "address"
        },
        {
          "internalType": "uint256",
          "name": "tokenId",
          "type": "uint256"
        }
      ],
      "name": "safeTransferFrom",
      "outputs": [],
      "stateMutability": "nonpayable",
      "type": "function"
    },
    {
      "inputs": [
        {
          "internalType": "address",
          "name": "from",
          "type": "address"
        },
        {
          "internalType": "address",
          "name": "to",
          "type": "address"
        },
        {
          "internalType": "uint256",
          "name": "tokenId",
          "type": "uint256"
        },
        {
          "internalType": "bytes",
          "name": "data",
          "type": "bytes"
        }
      ],
      "name": "safeTransferFrom",
      "outputs": [],
      "stateMutability": "nonpayable",
      "type": "function"
    },
    {
      "inputs": [
        {
          "internalType": "address",
          "name": "operator",
          "type": "address"
        },
        {
          "internalType": "bool",
          "name": "approved",
          "type": "bool"
        }
      ],
      "name": "setApprovalForAll",
      "outputs": [],
      "stateMutability": "nonpayable",
      "type": "function"
    },
    {
      "inputs": [
        {
          "internalType": "string",
          "name": "_uri",
          "type": "string"
        }
      ],
      "name": "setContractMetadataUri",
      "outputs": [],
      "stateMutability": "nonpayable",
      "type": "function"
    },
    {
      "inputs": [
        {
          "internalType": "uint256",
          "name": "tokenId",
          "type": "uint256"
        },
        {
          "internalType": "string",
          "name": "nftURI",
          "type": "string"
        }
      ],
      "name": "setNFTMetadata",
      "outputs": [],
      "stateMutability": "nonpayable",
      "type": "function"
    },
    {
      "inputs": [
        {
          "internalType": "address",
          "name": "_addr",
          "type": "address"
        }
      ],
      "name": "setNvmConfigAddress",
      "outputs": [],
      "stateMutability": "nonpayable",
      "type": "function"
    },
    {
      "inputs": [
        {
          "internalType": "uint256",
          "name": "tokenId",
          "type": "uint256"
        },
        {
          "internalType": "address",
          "name": "receiver",
          "type": "address"
        },
        {
          "internalType": "uint256",
          "name": "royaltyAmount",
          "type": "uint256"
        }
      ],
      "name": "setTokenRoyalty",
      "outputs": [],
      "stateMutability": "nonpayable",
      "type": "function"
    },
    {
      "inputs": [
        {
          "internalType": "bytes4",
          "name": "interfaceId",
          "type": "bytes4"
        }
      ],
      "name": "supportsInterface",
      "outputs": [
        {
          "internalType": "bool",
          "name": "",
          "type": "bool"
        }
      ],
      "stateMutability": "view",
      "type": "function"
    },
    {
      "inputs": [],
      "name": "symbol",
      "outputs": [
        {
          "internalType": "string",
          "name": "",
          "type": "string"
        }
      ],
      "stateMutability": "view",
      "type": "function"
    },
    {
      "inputs": [
        {
          "internalType": "uint256",
          "name": "tokenId",
          "type": "uint256"
        }
      ],
      "name": "tokenURI",
      "outputs": [
        {
          "internalType": "string",
          "name": "",
          "type": "string"
        }
      ],
      "stateMutability": "view",
      "type": "function"
    },
    {
      "inputs": [
        {
          "internalType": "address",
          "name": "from",
          "type": "address"
        },
        {
          "internalType": "address",
          "name": "to",
          "type": "address"
        },
        {
          "internalType": "uint256",
          "name": "tokenId",
          "type": "uint256"
        }
      ],
      "name": "transferFrom",
      "outputs": [],
      "stateMutability": "nonpayable",
      "type": "function"
    },
    {
      "inputs": [
        {
          "internalType": "address",
          "name": "newOwner",
          "type": "address"
        }
      ],
      "name": "transferOwnership",
      "outputs": [],
      "stateMutability": "nonpayable",
      "type": "function"
    }
  ],
  "bytecode": "0x608060405234801561001057600080fd5b50613469806100206000396000f3fe608060405234801561001057600080fd5b506004361061023b5760003560e01c806301ffc9a71461024057806302acb9a61461026857806305a148721461027d57806306fdde031461029d578063081812fc146102b2578063095ea7b3146102c5578063156e29f6146102d857806316279055146102eb57806322e8e1e0146102ff578063237c49191461031557806323b872dd14610328578063248a9ca31461033b57806327ac0c581461034e5780632a55205a146103615780632f2ff15d1461039357806336568abe146103a657806340c10f19146103b957806342842e0e146103cc57806342966c68146103df57806347c4ef25146103f2578063572b6c05146104155780635ced058e146104285780635ea3ab85146104395780636352211e1461044c5780636d70f7ae1461045f5780636fd902e11461047257806370a0823114610478578063715018a61461048b57806382c947b71461049357806385be5724146104ad5780638da5cb5b146104c257806391d14854146104ca57806395d89b41146104dd5780639713c807146104e5578063a0712d68146104f8578063a217fddf1461050b578063a22cb46514610513578063ab9de23014610526578063b219f7d71461052e578063b88d4fde14610541578063c87b56dd14610554578063ce1b815f14610567578063d24231051461056f578063d547741f14610582578063ded96d4814610595578063e8a3d485146105a8578063e985e9c5146105b0578063e9c1e045146105c3578063f2fde38b146105d6575b600080fd5b61025361024e366004612683565b6105e9565b60405190151581526020015b60405180910390f35b61027b6102763660046126b5565b610624565b005b61029061028b3660046127b2565b61064e565b60405161025f91906128cb565b6102a5610804565b60405161025f919061292f565b6102906102c0366004612942565b610896565b61027b6102d336600461295b565b6108bd565b61027b6102e6366004612987565b6109e9565b6102536102f93660046126b5565b3b151590565b610307610a13565b60405190815260200161025f565b61027b6103233660046129bc565b610a24565b61027b6103363660046129f8565b610a59565b610307610349366004612942565b610a91565b61027b61035c3660046126b5565b610aa6565b61037461036f366004612a39565b610b11565b604080516001600160a01b03909316835260208301919091520161025f565b61027b6103a1366004612a5b565b610b67565b61027b6103b4366004612a5b565b610b83565b61027b6103c736600461295b565b610c0d565b61027b6103da3660046129f8565b610e08565b61027b6103ed366004612942565b610e23565b610405610400366004612942565b610fb3565b60405161025f9493929190612a8b565b6102536104233660046126b5565b6110b0565b610290610436366004612942565b90565b610307610447366004612abc565b6110d5565b61029061045a366004612942565b611124565b61025361046d3660046126b5565b611158565b43610307565b6103076104863660046126b5565b611172565b61027b6111c4565b6103076104a13660046126b5565b6001600160a01b031690565b6103076000805160206133f483398151915281565b6102906111d8565b6102536104d8366004612a5b565b6111e7565b6102a5611212565b61027b6104f3366004612b4c565b611221565b61027b610506366004612942565b611253565b610307600081565b61027b610521366004612b81565b611264565b610290611276565b61027b61053c3660046126b5565b611285565b61027b61054f366004612baf565b6112ed565b6102a5610562366004612942565b61132c565b6102906113cd565b61027b61057d366004612c2e565b611458565b61027b610590366004612a5b565b6114b4565b61027b6105a3366004612c62565b6114d0565b6102a56116d2565b6102536105be366004612d17565b6116e1565b60ff54610290906001600160a01b031681565b61027b6105e43660046126b5565b61171b565b60006105f482611791565b806106035750610603826117b2565b8061061e57506001600160e01b0319821663152a902d60e11b145b92915050565b61062c611802565b60ff80546001600160a01b0319166001600160a01b0392909216919091179055565b7f360894a13ba1a3210667c828492db98dca3e2076cc3735a920a3ca505d382bbc546000906001600160a01b0316806106845750305b600061068f82611871565b9050806001600160a01b03811663ded96d486106a961190b565b610101546040516001600160e01b031960e085901b1681526106e092916001600160a01b0316908e908e908e908e90600401612d45565b600060405180830381600087803b1580156106fa57600080fd5b505af115801561070e573d6000803e3d6000fd5b5050505060005b85518110156107a857816001600160a01b03166327ac0c5887838151811061073f5761073f612dab565b60200260200101516040518263ffffffff1660e01b815260040161076391906128cb565b600060405180830381600087803b15801561077d57600080fd5b505af1158015610791573d6000803e3d6000fd5b5050505080806107a090612dd7565b915050610715565b50826001600160a01b0316826001600160a01b03167f60b02f0439b830955522ba890ebaeed1012ac175aba5742b6032a7b79d0cd7346102d16040516107f091815260200190565b60405180910390a350979650505050505050565b60606097805461081390612df0565b80601f016020809104026020016040519081016040528092919081815260200182805461083f90612df0565b801561088c5780601f106108615761010080835404028352916020019161088c565b820191906000526020600020905b81548152906001019060200180831161086f57829003601f168201915b5050505050905090565b60006108a182611915565b506000908152609b60205260409020546001600160a01b031690565b60006108c882611124565b9050806001600160a01b0316836001600160a01b03160361093a5760405162461bcd60e51b815260206004820152602160248201527f4552433732313a20617070726f76616c20746f2063757272656e74206f776e656044820152603960f91b60648201526084015b60405180910390fd5b806001600160a01b031661094c61190b565b6001600160a01b031614806109685750610968816105be61190b565b6109da5760405162461bcd60e51b815260206004820152603d60248201527f4552433732313a20617070726f76652063616c6c6572206973206e6f7420746f60448201527f6b656e206f776e6572206f7220617070726f76656420666f7220616c6c0000006064820152608401610931565b6109e4838361193a565b505050565b6109f38383610c0d565b6001600160a01b03909216600090815260fd602052604090209190915550565b6000610a1f6101025490565b905090565b610a2f61046d61190b565b610a4b5760405162461bcd60e51b815260040161093190612e24565b610a5582826119a8565b5050565b610a6a610a6461190b565b826119ce565b610a865760405162461bcd60e51b815260040161093190612e4f565b6109e4838383611a2d565b600090815260c9602052604090206001015490565b610aae61190b565b6001600160a01b0316610abf6111d8565b6001600160a01b03161480610ada5750610ada61046d61190b565b610af65760405162461bcd60e51b815260040161093190612e9c565b610b0e6000805160206133f483398151915282611b8c565b50565b600082815260fb60209081526040808320815180830190925280546001600160a01b03168083526001909101549282018390529291606490610b539086612ecc565b610b5d9190612ee3565b9150509250929050565b610b7082610a91565b610b7981611b96565b6109e48383611ba7565b610b8b61190b565b6001600160a01b0316816001600160a01b031614610c035760405162461bcd60e51b815260206004820152602f60248201527f416363657373436f6e74726f6c3a2063616e206f6e6c792072656e6f756e636560448201526e103937b632b9903337b91039b2b63360891b6064820152608401610931565b610a558282611c2e565b610c1861046d61190b565b80610c3b5750610c266111d8565b6001600160a01b0316826001600160a01b0316145b610c845760405162461bcd60e51b815260206004820152601a6024820152791bdb9b1e481b999d081bdc195c985d1bdc8818d85b881b5a5b9d60321b6044820152606401610931565b610100541580610c9957506101005461010254105b610cda5760405162461bcd60e51b8152602060048201526012602482015271115490cdcc8c4e8810d85c08195e18d9595960721b6044820152606401610931565b610ce961010280546001019055565b61010254600082815260fc60208181526040808420600181019590955580518083019091528381529285905252600390910190610d269082612f53565b50610101546001600160a01b031663bb794d9282610d4261190b565b600143604051602001610d589493929190613029565b604051602081830303815290604052805190602001208360001b610d7a61190b565b7fdaf0b3c5710379609eb5495f1ecd348cb28167711b73609fe565a727345503546040518563ffffffff1660e01b8152600401610dba9493929190613068565b6020604051808303816000875af1158015610dd9573d6000803e3d6000fd5b505050506040513d601f19601f82011682018060405250810190610dfd91906130a8565b50610a558282611cb3565b6109e4838383604051806020016040528060008152506112ed565b610e2e61046d61190b565b80610e4357506000610e4161048661190b565b115b610ea75760405162461bcd60e51b815260206004820152602f60248201527f4552433732313a2063616c6c6572206973206e6f74206f776e6572206f72206e60448201526e6f7420686176652062616c616e636560881b6064820152608401610931565b600160fc60008381526020019081526020016000206001016000828254610ece91906130c5565b9091555050610101546001600160a01b031663bb794d9282610eee61190b565b600143604051602001610f0494939291906130ef565b604051602081830303815290604052805190602001208360001b610f2661190b565b7ff43e8cfd4725c1e28fa4a6e3e468b4fcf75367166b850ac5f04e33ec843e82c16040518563ffffffff1660e01b8152600401610f669493929190613118565b6020604051808303816000875af1158015610f85573d6000803e3d6000fd5b505050506040513d601f19601f82011682018060405250810190610fa991906130a8565b50610b0e81611dbc565b600081815260fc602090815260408083208151608081018352815460ff1615158152600182015493810193909352600281015491830191909152600381018054849384936060938593838601919061100a90612df0565b80601f016020809104026020016040519081016040528092919081815260200182805461103690612df0565b80156110835780601f1061105857610100808354040283529160200191611083565b820191906000526020600020905b81548152906001019060200180831161106657829003601f168201915b505050919092525050815160208301516040840151606090940151919a9099509297509550909350505050565b60006110ba6113cd565b6001600160a01b0316826001600160a01b0316149050919050565b60008060005b835181101561111d578381815181106110f6576110f6612dab565b6020026020010151826111099190613158565b91508061111581612dd7565b9150506110db565b5092915050565b60008061113083611e4d565b90506001600160a01b03811661061e5760405162461bcd60e51b81526004016109319061316b565b600061061e6000805160206133f4833981519152836111e7565b6001600160a01b038116600090815260fd602052604081205415806111ae57506001600160a01b038216600090815260fd602052604090205443105b156111bc5761061e82611e68565b506000919050565b6111cc611802565b6111d66000611eee565b565b6033546001600160a01b031690565b600091825260c9602090815260408084206001600160a01b0393909316845291905290205460ff1690565b60606098805461081390612df0565b61122c61046d61190b565b6112485760405162461bcd60e51b815260040161093190612e24565b6109e4838383611f40565b610b0e61125e61190b565b82610c0d565b610a5561126f61190b565b8383611fd8565b60ff546001600160a01b031690565b61128d61190b565b6001600160a01b031661129e6111d8565b6001600160a01b031614806112b957506112b961046d61190b565b6112d55760405162461bcd60e51b815260040161093190612e9c565b610b0e6000805160206133f483398151915282611c2e565b6112fe6112f861190b565b836119ce565b61131a5760405162461bcd60e51b815260040161093190612e4f565b611326848484846120a2565b50505050565b606060006113386120d5565b9050611343836120df565b156113985760008151116113665760405180602001604052806000815250611391565b80611370846120fc565b60405160200161138192919061319d565b6040516020818303038152906040525b9392505050565b60008151116113b65760405180602001604052806000815250611391565b8060405160200161138191906131cc565b50919050565b6000806113d8611276565b90506001600160a01b0381166113f057600091505090565b806001600160a01b031663ce1b815f6040518163ffffffff1660e01b8152600401602060405180830381865afa15801561142e573d6000803e3d6000fd5b505050506040513d601f19601f8201168201806040525081019061145291906131e8565b91505090565b61146061190b565b6001600160a01b03166114716111d8565b6001600160a01b0316148061148c575061148c61046d61190b565b6114a85760405162461bcd60e51b815260040161093190612e9c565b60fe610a558282612f53565b6114bd82610a91565b6114c681611b96565b6109e48383611c2e565b600054610100900460ff16158080156114f05750600054600160ff909116105b8061151157506114ff30612113565b158015611511575060005460ff166001145b6115745760405162461bcd60e51b815260206004820152602e60248201527f496e697469616c697a61626c653a20636f6e747261637420697320616c72656160448201526d191e481a5b9a5d1a585b1a5e995960921b6064820152608401610931565b6000805460ff191660011790558015611597576000805461ff0019166101001790555b61159f612122565b6115a7612122565b6115b18585612149565b6115b9612189565b6115c1612122565b6115e06000805160206133f48339815191526115db61190b565b611b8c565b6115f86000805160206133f483398151915287611b8c565b6116106000805160206133f483398151915288611b8c565b61161983611458565b61010082905561010180546001600160a01b0319166001600160a01b03881617905561164361190b565b6001600160a01b0316876001600160a01b031614611683576116648761171b565b6116836000805160206133f483398151915261167e61190b565b611c2e565b80156116c9576000805461ff0019169055604051600181527f7f26b83ff96e1f2b6a682f133852f6798a09c465da95921460cefb38474024989060200160405180910390a15b50505050505050565b606060fe805461081390612df0565b6001600160a01b038083166000908152609c6020908152604080832093851683529290529081205460ff1680611391575061139182611158565b611723611802565b6001600160a01b0381166117885760405162461bcd60e51b815260206004820152602660248201527f4f776e61626c653a206e6577206f776e657220697320746865207a65726f206160448201526564647265737360d01b6064820152608401610931565b610b0e81611eee565b60006001600160e01b03198216637965db0b60e01b148061061e575061061e825b60006001600160e01b031982166380ac58cd60e01b14806117e357506001600160e01b03198216635b5e139f60e01b145b8061061e57506301ffc9a760e01b6001600160e01b031983161461061e565b61180a61190b565b6001600160a01b031661181b6111d8565b6001600160a01b0316146111d65760405162461bcd60e51b815260206004820181905260248201527f4f776e61626c653a2063616c6c6572206973206e6f7420746865206f776e65726044820152606401610931565b6000763d602d80600a3d3981f3363d3d373d3d3d363d730000008260601b60e81c176000526e5af43d82803e903d91602b57fd5bf38260781b17602052603760096000f090506001600160a01b0381166119065760405162461bcd60e51b8152602060048201526016602482015275115490cc4c4d8dce8818dc99585d194819985a5b195960521b6044820152606401610931565b919050565b6000610a1f6121c0565b61191e816120df565b610b0e5760405162461bcd60e51b81526004016109319061316b565b6000818152609b6020526040902080546001600160a01b0319166001600160a01b038416908117909155819061196f82611124565b6001600160a01b03167f8c5be1e5ebec7d5bd14f71427d1e84f3dd0314c0f7b2291e5b200ac8c7c3b92560405160405180910390a45050565b600082815260fc60205260409020805460ff191660011781556003016109e48282612f53565b6000806119da83611124565b9050806001600160a01b0316846001600160a01b03161480611a015750611a0181856116e1565b80611a255750836001600160a01b0316611a1a84610896565b6001600160a01b0316145b949350505050565b826001600160a01b0316611a4082611124565b6001600160a01b031614611a665760405162461bcd60e51b815260040161093190613205565b6001600160a01b038216611ac85760405162461bcd60e51b8152602060048201526024808201527f4552433732313a207472616e7366657220746f20746865207a65726f206164646044820152637265737360e01b6064820152608401610931565b611ad583838360016121ee565b826001600160a01b0316611ae882611124565b6001600160a01b031614611b0e5760405162461bcd60e51b815260040161093190613205565b6000818152609b6020908152604080832080546001600160a01b03199081169091556001600160a01b03878116808652609a85528386208054600019019055908716808652838620805460010190558686526099909452828520805490921684179091559051849360008051602061341483398151915291a4505050565b610a558282611ba7565b610b0e81611ba261190b565b612262565b611bb182826111e7565b610a5557600082815260c9602090815260408083206001600160a01b03851684529091529020805460ff19166001179055611bea61190b565b6001600160a01b0316816001600160a01b0316837f2f8788117e7eff1d82e926ec794901d17c78024a50270940304540a733656f0d60405160405180910390a45050565b611c3882826111e7565b15610a5557600082815260c9602090815260408083206001600160a01b03851684529091529020805460ff19169055611c6f61190b565b6001600160a01b0316816001600160a01b0316837ff6391f5c32d9c69d2a47ea670b442974b53935d1edc7fd64eb21e047a839171b60405160405180910390a45050565b6001600160a01b038216611d095760405162461bcd60e51b815260206004820181905260248201527f4552433732313a206d696e7420746f20746865207a65726f20616464726573736044820152606401610931565b611d12816120df565b15611d2f5760405162461bcd60e51b81526004016109319061324a565b611d3d6000838360016121ee565b611d46816120df565b15611d635760405162461bcd60e51b81526004016109319061324a565b6001600160a01b0382166000818152609a6020908152604080832080546001019055848352609990915280822080546001600160a01b031916841790555183929190600080516020613414833981519152908290a45050565b6000611dc782611124565b9050611dd78160008460016121ee565b611de082611124565b6000838152609b6020908152604080832080546001600160a01b03199081169091556001600160a01b038516808552609a84528285208054600019019055878552609990935281842080549091169055519293508492600080516020613414833981519152908390a45050565b6000908152609960205260409020546001600160a01b031690565b60006001600160a01b038216611ed25760405162461bcd60e51b815260206004820152602960248201527f4552433732313a2061646472657373207a65726f206973206e6f7420612076616044820152683634b21037bbb732b960b91b6064820152608401610931565b506001600160a01b03166000908152609a602052604090205490565b603380546001600160a01b038381166001600160a01b0319831681179093556040519116919082907f8be0079c531659141344cd1fd0a4f28419497f9722a3daafe3b4186f6b6457e090600090a35050565b620f4240811115611f905760405162461bcd60e51b815260206004820152601a60248201527908aa48664727062a4def2c2d8e8d2cae67440a8dede40d0d2ced60331b6044820152606401610931565b6040805180820182526001600160a01b0393841681526020808201938452600095865260fb90529320925183546001600160a01b031916921691909117825551600190910155565b816001600160a01b0316836001600160a01b0316036120355760405162461bcd60e51b815260206004820152601960248201527822a9219b99189d1030b8383937bb32903a379031b0b63632b960391b6044820152606401610931565b6001600160a01b038381166000818152609c6020908152604080832094871680845294825291829020805460ff191686151590811790915591519182527f17307eab39ab6107e8899845ad3d59bd9653f200f220920489ca2b5937696c31910160405180910390a3505050565b6120ad848484611a2d565b6120b9848484846122bb565b6113265760405162461bcd60e51b815260040161093190613280565b6060610a1f6116d2565b6000806120eb83611e4d565b6001600160a01b0316141592915050565b606061061e8261210b846123ca565b600101612434565b6001600160a01b03163b151590565b600054610100900460ff166111d65760405162461bcd60e51b8152600401610931906132d2565b600054610100900460ff166121705760405162461bcd60e51b8152600401610931906132d2565b609761217c8382612f53565b5060986109e48282612f53565b600054610100900460ff166121b05760405162461bcd60e51b8152600401610931906132d2565b6111d66121bb61190b565b611eee565b6000601436108015906121d757506121d7336110b0565b156121e9575060131936013560601c90565b503390565b6001600160a01b038416158061220b57506001600160a01b038316155b8061221c575061221c61046d61190b565b6122555760405162461bcd60e51b815260206004820152600a6024820152696f6e6c792070726f787960b01b6044820152606401610931565b61132684846000846125cf565b61226c82826111e7565b610a555761227981612657565b612284836020612434565b60405160200161229592919061331d565b60408051601f198184030181529082905262461bcd60e51b82526109319160040161292f565b60006122cf846001600160a01b0316612113565b156123bf57836001600160a01b031663150b7a026122eb61190b565b8786866040518563ffffffff1660e01b815260040161230d949392919061338c565b6020604051808303816000875af1925050508015612348575060408051601f3d908101601f19168201909252612345918101906133bf565b60015b6123a5573d808015612376576040519150601f19603f3d011682016040523d82523d6000602084013e61237b565b606091505b50805160000361239d5760405162461bcd60e51b815260040161093190613280565b805181602001fd5b6001600160e01b031916630a85bd0160e11b149050611a25565b506001949350505050565b600080608083901c156123e25760809290921c916010015b604083901c156123f75760409290921c916008015b602083901c1561240c5760209290921c916004015b601083901c156124215760109290921c916002015b600883901c1561061e5760010192915050565b60606000612443836002612ecc565b61244e906002613158565b6001600160401b03811115612465576124656126d2565b6040519080825280601f01601f19166020018201604052801561248f576020820181803683370190505b509050600360fc1b816000815181106124aa576124aa612dab565b60200101906001600160f81b031916908160001a905350600f60fb1b816001815181106124d9576124d9612dab565b60200101906001600160f81b031916908160001a90535060006124fd846002612ecc565b612508906001613158565b90505b6001811115612580576f181899199a1a9b1b9c1cb0b131b232b360811b85600f166010811061253c5761253c612dab565b1a60f81b82828151811061255257612552612dab565b60200101906001600160f81b031916908160001a90535060049490941c93612579816133dc565b905061250b565b5083156113915760405162461bcd60e51b815260206004820181905260248201527f537472696e67733a20686578206c656e67746820696e73756666696369656e746044820152606401610931565b6001811115611326576001600160a01b03841615612615576001600160a01b0384166000908152609a60205260408120805483929061260f9084906130c5565b90915550505b6001600160a01b03831615611326576001600160a01b0383166000908152609a60205260408120805483929061264c908490613158565b909155505050505050565b606061061e6001600160a01b0383166014612434565b6001600160e01b031981168114610b0e57600080fd5b60006020828403121561269557600080fd5b81356113918161266d565b6001600160a01b0381168114610b0e57600080fd5b6000602082840312156126c757600080fd5b8135611391816126a0565b634e487b7160e01b600052604160045260246000fd5b604051601f8201601f191681016001600160401b0381118282101715612710576127106126d2565b604052919050565b60006001600160401b03831115612731576127316126d2565b612744601f8401601f19166020016126e8565b905082815283838301111561275857600080fd5b828260208301376000602084830101529392505050565b600082601f83011261278057600080fd5b61139183833560208501612718565b60006001600160401b038211156127a8576127a86126d2565b5060051b60200190565b600080600080600060a086880312156127ca57600080fd5b85356001600160401b03808211156127e157600080fd5b6127ed89838a0161276f565b965060209150818801358181111561280457600080fd5b6128108a828b0161276f565b96505060408801358181111561282557600080fd5b6128318a828b0161276f565b9550506060880135935060808801358181111561284d57600080fd5b88019050601f8101891361286057600080fd5b803561287361286e8261278f565b6126e8565b81815260059190911b8201830190838101908b83111561289257600080fd5b928401925b828410156128b95783356128aa816126a0565b82529284019290840190612897565b80955050505050509295509295909350565b6001600160a01b0391909116815260200190565b60005b838110156128fa5781810151838201526020016128e2565b50506000910152565b6000815180845261291b8160208601602086016128df565b601f01601f19169290920160200192915050565b6020815260006113916020830184612903565b60006020828403121561295457600080fd5b5035919050565b6000806040838503121561296e57600080fd5b8235612979816126a0565b946020939093013593505050565b60008060006060848603121561299c57600080fd5b83356129a7816126a0565b95602085013595506040909401359392505050565b600080604083850312156129cf57600080fd5b8235915060208301356001600160401b038111156129ec57600080fd5b610b5d8582860161276f565b600080600060608486031215612a0d57600080fd5b8335612a18816126a0565b92506020840135612a28816126a0565b929592945050506040919091013590565b60008060408385031215612a4c57600080fd5b50508035926020909101359150565b60008060408385031215612a6e57600080fd5b823591506020830135612a80816126a0565b809150509250929050565b8415158152836020820152826040820152608060608201526000612ab26080830184612903565b9695505050505050565b60006020808385031215612acf57600080fd5b82356001600160401b03811115612ae557600080fd5b8301601f81018513612af657600080fd5b8035612b0461286e8261278f565b81815260059190911b82018301908381019087831115612b2357600080fd5b928401925b82841015612b4157833582529284019290840190612b28565b979650505050505050565b600080600060608486031215612b6157600080fd5b833592506020840135612a28816126a0565b8015158114610b0e57600080fd5b60008060408385031215612b9457600080fd5b8235612b9f816126a0565b91506020830135612a8081612b73565b60008060008060808587031215612bc557600080fd5b8435612bd0816126a0565b93506020850135612be0816126a0565b92506040850135915060608501356001600160401b03811115612c0257600080fd5b8501601f81018713612c1357600080fd5b612c2287823560208401612718565b91505092959194509250565b600060208284031215612c4057600080fd5b81356001600160401b03811115612c5657600080fd5b611a258482850161276f565b60008060008060008060c08789031215612c7b57600080fd5b8635612c86816126a0565b95506020870135612c96816126a0565b945060408701356001600160401b0380821115612cb257600080fd5b612cbe8a838b0161276f565b95506060890135915080821115612cd457600080fd5b612ce08a838b0161276f565b94506080890135915080821115612cf657600080fd5b50612d0389828a0161276f565b92505060a087013590509295509295509295565b60008060408385031215612d2a57600080fd5b8235612d35816126a0565b91506020830135612a80816126a0565b6001600160a01b0387811682528616602082015260c060408201819052600090612d7190830187612903565b8281036060840152612d838187612903565b90508281036080840152612d978186612903565b9150508260a0830152979650505050505050565b634e487b7160e01b600052603260045260246000fd5b634e487b7160e01b600052601160045260246000fd5b600060018201612de957612de9612dc1565b5060010190565b600181811c90821680612e0457607f821691505b6020821081036113c757634e487b7160e01b600052602260045260246000fd5b60208082526011908201527037b7363c9037333a1037b832b930ba37b960791b604082015260600190565b6020808252602d908201527f4552433732313a2063616c6c6572206973206e6f7420746f6b656e206f776e6560408201526c1c881bdc88185c1c1c9bdd9959609a1b606082015260800190565b60208082526016908201527527b7363c9037b832b930ba37b91037b91037bbb732b960511b604082015260600190565b808202811582820484141761061e5761061e612dc1565b600082612f0057634e487b7160e01b600052601260045260246000fd5b500490565b601f8211156109e457600081815260208120601f850160051c81016020861015612f2c5750805b601f850160051c820191505b81811015612f4b57828155600101612f38565b505050505050565b81516001600160401b03811115612f6c57612f6c6126d2565b612f8081612f7a8454612df0565b84612f05565b602080601f831160018114612fb55760008415612f9d5750858301515b600019600386901b1c1916600185901b178555612f4b565b600085815260208120601f198616915b82811015612fe457888601518255948401946001909101908401612fc5565b50858210156130025787850151600019600388901b60f8161c191681555b5050505050600190811b01905550565b60048152631b5a5b9d60e21b602082015260400190565b8481526001600160a01b038416602082015260a060408201819052600090613052908301613012565b60ff949094166060830152506080015292915050565b84815283602082015260018060a01b038316604082015281606082015260c06080820152600060c082015260e060a08201526000612ab260e08301613012565b6000602082840312156130ba57600080fd5b815161139181612b73565b8181038181111561061e5761061e612dc1565b6004815263313ab93760e11b602082015260400190565b8481526001600160a01b038416602082015260a0604082018190526000906130529083016130d8565b84815283602082015260018060a01b038316604082015281606082015260c06080820152600060c082015260e060a08201526000612ab260e083016130d8565b8082018082111561061e5761061e612dc1565b602080825260189082015277115490cdcc8c4e881a5b9d985b1a59081d1bdad95b88125160421b604082015260600190565b600083516131af8184602088016128df565b8351908301906131c38183602088016128df565b01949350505050565b600082516131de8184602087016128df565b9190910192915050565b6000602082840312156131fa57600080fd5b8151611391816126a0565b60208082526025908201527f4552433732313a207472616e736665722066726f6d20696e636f72726563742060408201526437bbb732b960d91b606082015260800190565b6020808252601c908201527b115490cdcc8c4e881d1bdad95b88185b1c9958591e481b5a5b9d195960221b604082015260600190565b60208082526032908201527f4552433732313a207472616e7366657220746f206e6f6e20455243373231526560408201527131b2b4bb32b91034b6b83632b6b2b73a32b960711b606082015260800190565b6020808252602b908201527f496e697469616c697a61626c653a20636f6e7472616374206973206e6f74206960408201526a6e697469616c697a696e6760a81b606082015260800190565b76020b1b1b2b9b9a1b7b73a3937b61d1030b1b1b7bab73a1604d1b81526000835161334f8160178501602088016128df565b7001034b99036b4b9b9b4b733903937b6329607d1b60179184019182015283516133808160288401602088016128df565b01602801949350505050565b6001600160a01b0385811682528416602082015260408101839052608060608201819052600090612ab290830184612903565b6000602082840312156133d157600080fd5b81516113918161266d565b6000816133eb576133eb612dc1565b50600019019056fef7a17991623d7e30ebf9bd089b2f4dcf33b0aa34727454bfa3dbc351ed7d6835ddf252ad1be2c89b69c2b068fc378daa952ba7f163c4a11628f55a4df523b3efa26469706673582212206f17710c2b8f3fd4c99a1e0b9fc448968661e1ba04c90dee24ec0fcfd756952264736f6c63430008110033",
  "linkReferences": {},
  "deployedLinkReferences": {}
}