{
  "_format": "hh-sol-artifact-1",
  "contractName": "NFT721SubscriptionUpgradeable",
  "sourceName": "contracts/token/erc721/NFT721SubscriptionUpgradeable.sol",
  "abi": [
    {
      "anonymous": false,
      "inputs": [
        {
          "indexed": true,
          "internalType": "address",
          "name": "owner",
          "type": "address"
        },
        {
          "indexed": true,
          "internalType": "address",
          "name": "approved",
          "type": "address"
        },
        {
          "indexed": true,
          "internalType": "uint256",
          "name": "tokenId",
          "type": "uint256"
        }
      ],
      "name": "Approval",
      "type": "event"
    },
    {
      "anonymous": false,
      "inputs": [
        {
          "indexed": true,
          "internalType": "address",
          "name": "owner",
          "type": "address"
        },
        {
          "indexed": true,
          "internalType": "address",
          "name": "operator",
          "type": "address"
        },
        {
          "indexed": false,
          "internalType": "bool",
          "name": "approved",
          "type": "bool"
        }
      ],
      "name": "ApprovalForAll",
      "type": "event"
    },
    {
      "anonymous": false,
      "inputs": [
        {
          "indexed": false,
          "internalType": "uint8",
          "name": "version",
          "type": "uint8"
        }
      ],
      "name": "Initialized",
      "type": "event"
    },
    {
      "anonymous": false,
      "inputs": [
        {
          "indexed": true,
          "internalType": "address",
          "name": "_newAddress",
          "type": "address"
        },
        {
          "indexed": true,
          "internalType": "address",
          "name": "_fromAddress",
          "type": "address"
        },
        {
          "indexed": false,
          "internalType": "uint256",
          "name": "_ercType",
          "type": "uint256"
        }
      ],
      "name": "NFTCloned",
      "type": "event"
    },
    {
      "anonymous": false,
      "inputs": [
        {
          "indexed": true,
          "internalType": "address",
          "name": "previousOwner",
          "type": "address"
        },
        {
          "indexed": true,
          "internalType": "address",
          "name": "newOwner",
          "type": "address"
        }
      ],
      "name": "OwnershipTransferred",
      "type": "event"
    },
    {
      "anonymous": false,
      "inputs": [
        {
          "indexed": true,
          "internalType": "bytes32",
          "name": "role",
          "type": "bytes32"
        },
        {
          "indexed": true,
          "internalType": "bytes32",
          "name": "previousAdminRole",
          "type": "bytes32"
        },
        {
          "indexed": true,
          "internalType": "bytes32",
          "name": "newAdminRole",
          "type": "bytes32"
        }
      ],
      "name": "RoleAdminChanged",
      "type": "event"
    },
    {
      "anonymous": false,
      "inputs": [
        {
          "indexed": true,
          "internalType": "bytes32",
          "name": "role",
          "type": "bytes32"
        },
        {
          "indexed": true,
          "internalType": "address",
          "name": "account",
          "type": "address"
        },
        {
          "indexed": true,
          "internalType": "address",
          "name": "sender",
          "type": "address"
        }
      ],
      "name": "RoleGranted",
      "type": "event"
    },
    {
      "anonymous": false,
      "inputs": [
        {
          "indexed": true,
          "internalType": "bytes32",
          "name": "role",
          "type": "bytes32"
        },
        {
          "indexed": true,
          "internalType": "address",
          "name": "account",
          "type": "address"
        },
        {
          "indexed": true,
          "internalType": "address",
          "name": "sender",
          "type": "address"
        }
      ],
      "name": "RoleRevoked",
      "type": "event"
    },
    {
      "anonymous": false,
      "inputs": [
        {
          "indexed": true,
          "internalType": "address",
          "name": "from",
          "type": "address"
        },
        {
          "indexed": true,
          "internalType": "address",
          "name": "to",
          "type": "address"
        },
        {
          "indexed": true,
          "internalType": "uint256",
          "name": "tokenId",
          "type": "uint256"
        }
      ],
      "name": "Transfer",
      "type": "event"
    },
    {
      "inputs": [],
      "name": "DEFAULT_ADMIN_ROLE",
      "outputs": [
        {
          "internalType": "bytes32",
          "name": "",
          "type": "bytes32"
        }
      ],
      "stateMutability": "view",
      "type": "function"
    },
    {
      "inputs": [],
      "name": "NVM_OPERATOR_ROLE",
      "outputs": [
        {
          "internalType": "bytes32",
          "name": "",
          "type": "bytes32"
        }
      ],
      "stateMutability": "view",
      "type": "function"
    },
    {
      "inputs": [
        {
          "internalType": "address",
          "name": "_addr",
          "type": "address"
        }
      ],
      "name": "addressToBytes32",
      "outputs": [
        {
          "internalType": "bytes32",
          "name": "",
          "type": "bytes32"
        }
      ],
      "stateMutability": "pure",
      "type": "function"
    },
    {
      "inputs": [
        {
          "internalType": "address",
          "name": "to",
          "type": "address"
        },
        {
          "internalType": "uint256",
          "name": "tokenId",
          "type": "uint256"
        }
      ],
      "name": "approve",
      "outputs": [],
      "stateMutability": "nonpayable",
      "type": "function"
    },
    {
      "inputs": [
        {
          "internalType": "address",
          "name": "owner",
          "type": "address"
        }
      ],
      "name": "balanceOf",
      "outputs": [
        {
          "internalType": "uint256",
          "name": "",
          "type": "uint256"
        }
      ],
      "stateMutability": "view",
      "type": "function"
    },
    {
      "inputs": [
        {
          "internalType": "uint256",
          "name": "tokenId",
          "type": "uint256"
        }
      ],
      "name": "burn",
      "outputs": [],
      "stateMutability": "nonpayable",
      "type": "function"
    },
    {
      "inputs": [
        {
          "internalType": "bytes32",
          "name": "_b32",
          "type": "bytes32"
        }
      ],
      "name": "bytes32ToAddress",
      "outputs": [
        {
          "internalType": "address",
          "name": "",
          "type": "address"
        }
      ],
      "stateMutability": "pure",
      "type": "function"
    },
    {
      "inputs": [
        {
          "internalType": "uint256[]",
          "name": "_amounts",
          "type": "uint256[]"
        }
      ],
      "name": "calculateTotalAmount",
      "outputs": [
        {
          "internalType": "uint256",
          "name": "",
          "type": "uint256"
        }
      ],
      "stateMutability": "pure",
      "type": "function"
    },
    {
      "inputs": [],
      "name": "contractURI",
      "outputs": [
        {
          "internalType": "string",
          "name": "",
          "type": "string"
        }
      ],
      "stateMutability": "view",
      "type": "function"
    },
    {
      "inputs": [
        {
          "internalType": "string",
          "name": "name",
          "type": "string"
        },
        {
          "internalType": "string",
          "name": "symbol",
          "type": "string"
        },
        {
          "internalType": "string",
          "name": "uri",
          "type": "string"
        },
        {
          "internalType": "uint256",
          "name": "cap",
          "type": "uint256"
        },
        {
          "internalType": "address[]",
          "name": "_operators",
          "type": "address[]"
        }
      ],
      "name": "createClone",
      "outputs": [
        {
          "internalType": "address",
          "name": "",
          "type": "address"
        }
      ],
      "stateMutability": "nonpayable",
      "type": "function"
    },
    {
      "inputs": [
        {
          "internalType": "uint256",
          "name": "tokenId",
          "type": "uint256"
        }
      ],
      "name": "getApproved",
      "outputs": [
        {
          "internalType": "address",
          "name": "",
          "type": "address"
        }
      ],
      "stateMutability": "view",
      "type": "function"
    },
    {
      "inputs": [],
      "name": "getCurrentBlockNumber",
      "outputs": [
        {
          "internalType": "uint256",
          "name": "",
          "type": "uint256"
        }
      ],
      "stateMutability": "view",
      "type": "function"
    },
    {
      "inputs": [],
      "name": "getHowManyMinted",
      "outputs": [
        {
          "internalType": "uint256",
          "name": "",
          "type": "uint256"
        }
      ],
      "stateMutability": "view",
      "type": "function"
    },
    {
      "inputs": [
        {
          "internalType": "address",
          "name": "owner",
          "type": "address"
        }
      ],
      "name": "getMintedEntries",
      "outputs": [
        {
          "components": [
            {
              "internalType": "uint256",
              "name": "tokenId",
              "type": "uint256"
            },
            {
              "internalType": "uint256",
              "name": "expirationBlock",
              "type": "uint256"
            },
            {
              "internalType": "uint256",
              "name": "mintBlock",
              "type": "uint256"
            }
          ],
          "internalType": "struct NFT721SubscriptionUpgradeable.MintedTokens[]",
          "name": "",
          "type": "tuple[]"
        }
      ],
      "stateMutability": "view",
      "type": "function"
    },
    {
      "inputs": [
        {
          "internalType": "uint256",
          "name": "tokenId",
          "type": "uint256"
        }
      ],
      "name": "getNFTAttributes",
      "outputs": [
        {
          "internalType": "bool",
          "name": "nftInitialized",
          "type": "bool"
        },
        {
          "internalType": "uint256",
          "name": "nftSupply",
          "type": "uint256"
        },
        {
          "internalType": "uint256",
          "name": "mintCap",
          "type": "uint256"
        },
        {
          "internalType": "string",
          "name": "nftURI",
          "type": "string"
        }
      ],
      "stateMutability": "view",
      "type": "function"
    },
    {
      "inputs": [],
      "name": "getNvmConfigAddress",
      "outputs": [
        {
          "internalType": "address",
          "name": "",
          "type": "address"
        }
      ],
      "stateMutability": "view",
      "type": "function"
    },
    {
      "inputs": [
        {
          "internalType": "bytes32",
          "name": "role",
          "type": "bytes32"
        }
      ],
      "name": "getRoleAdmin",
      "outputs": [
        {
          "internalType": "bytes32",
          "name": "",
          "type": "bytes32"
        }
      ],
      "stateMutability": "view",
      "type": "function"
    },
    {
      "inputs": [],
      "name": "getTrustedForwarder",
      "outputs": [
        {
          "internalType": "address",
          "name": "",
          "type": "address"
        }
      ],
      "stateMutability": "view",
      "type": "function"
    },
    {
      "inputs": [
        {
          "internalType": "address",
          "name": "account",
          "type": "address"
        }
      ],
      "name": "grantOperatorRole",
      "outputs": [],
      "stateMutability": "nonpayable",
      "type": "function"
    },
    {
      "inputs": [
        {
          "internalType": "bytes32",
          "name": "role",
          "type": "bytes32"
        },
        {
          "internalType": "address",
          "name": "account",
          "type": "address"
        }
      ],
      "name": "grantRole",
      "outputs": [],
      "stateMutability": "nonpayable",
      "type": "function"
    },
    {
      "inputs": [
        {
          "internalType": "bytes32",
          "name": "role",
          "type": "bytes32"
        },
        {
          "internalType": "address",
          "name": "account",
          "type": "address"
        }
      ],
      "name": "hasRole",
      "outputs": [
        {
          "internalType": "bool",
          "name": "",
          "type": "bool"
        }
      ],
      "stateMutability": "view",
      "type": "function"
    },
    {
      "inputs": [
        {
          "internalType": "address",
          "name": "owner",
          "type": "address"
        },
        {
          "internalType": "address",
          "name": "didRegistryAddress",
          "type": "address"
        },
        {
          "internalType": "string",
          "name": "name",
          "type": "string"
        },
        {
          "internalType": "string",
          "name": "symbol",
          "type": "string"
        },
        {
          "internalType": "string",
          "name": "uri",
          "type": "string"
        },
        {
          "internalType": "uint256",
          "name": "cap",
          "type": "uint256"
        }
      ],
      "name": "initialize",
      "outputs": [],
      "stateMutability": "nonpayable",
      "type": "function"
    },
    {
      "inputs": [
        {
          "internalType": "address",
          "name": "account",
          "type": "address"
        },
        {
          "internalType": "address",
          "name": "operator",
          "type": "address"
        }
      ],
      "name": "isApprovedForAll",
      "outputs": [
        {
          "internalType": "bool",
          "name": "",
          "type": "bool"
        }
      ],
      "stateMutability": "view",
      "type": "function"
    },
    {
      "inputs": [
        {
          "internalType": "address",
          "name": "addr",
          "type": "address"
        }
      ],
      "name": "isContract",
      "outputs": [
        {
          "internalType": "bool",
          "name": "",
          "type": "bool"
        }
      ],
      "stateMutability": "view",
      "type": "function"
    },
    {
      "inputs": [
        {
          "internalType": "address",
          "name": "operator",
          "type": "address"
        }
      ],
      "name": "isOperator",
      "outputs": [
        {
          "internalType": "bool",
          "name": "",
          "type": "bool"
        }
      ],
      "stateMutability": "view",
      "type": "function"
    },
    {
      "inputs": [
        {
          "internalType": "address",
          "name": "forwarder",
          "type": "address"
        }
      ],
      "name": "isTrustedForwarder",
      "outputs": [
        {
          "internalType": "bool",
          "name": "",
          "type": "bool"
        }
      ],
      "stateMutability": "view",
      "type": "function"
    },
    {
      "inputs": [
        {
          "internalType": "address",
          "name": "to",
          "type": "address"
        },
        {
          "internalType": "uint256",
          "name": "tokenId",
          "type": "uint256"
        },
        {
          "internalType": "uint256",
          "name": "expirationBlock",
          "type": "uint256"
        }
      ],
      "name": "mint",
      "outputs": [],
      "stateMutability": "nonpayable",
      "type": "function"
    },
    {
      "inputs": [
        {
          "internalType": "address",
          "name": "to",
          "type": "address"
        },
        {
          "internalType": "uint256",
          "name": "tokenId",
          "type": "uint256"
        }
      ],
      "name": "mint",
      "outputs": [],
      "stateMutability": "nonpayable",
      "type": "function"
    },
    {
      "inputs": [
        {
          "internalType": "uint256",
          "name": "tokenId",
          "type": "uint256"
        }
      ],
      "name": "mint",
      "outputs": [],
      "stateMutability": "nonpayable",
      "type": "function"
    },
    {
      "inputs": [],
      "name": "name",
      "outputs": [
        {
          "internalType": "string",
          "name": "",
          "type": "string"
        }
      ],
      "stateMutability": "view",
      "type": "function"
    },
    {
      "inputs": [],
      "name": "nftType",
      "outputs": [
        {
          "internalType": "bytes32",
          "name": "",
          "type": "bytes32"
        }
      ],
      "stateMutability": "view",
      "type": "function"
    },
    {
      "inputs": [],
      "name": "nvmConfig",
      "outputs": [
        {
          "internalType": "address",
          "name": "",
          "type": "address"
        }
      ],
      "stateMutability": "view",
      "type": "function"
    },
    {
      "inputs": [],
      "name": "owner",
      "outputs": [
        {
          "internalType": "address",
          "name": "",
          "type": "address"
        }
      ],
      "stateMutability": "view",
      "type": "function"
    },
    {
      "inputs": [
        {
          "internalType": "uint256",
          "name": "tokenId",
          "type": "uint256"
        }
      ],
      "name": "ownerOf",
      "outputs": [
        {
          "internalType": "address",
          "name": "",
          "type": "address"
        }
      ],
      "stateMutability": "view",
      "type": "function"
    },
    {
      "inputs": [],
      "name": "renounceOperatorRole",
      "outputs": [],
      "stateMutability": "nonpayable",
      "type": "function"
    },
    {
      "inputs": [],
      "name": "renounceOwnership",
      "outputs": [],
      "stateMutability": "nonpayable",
      "type": "function"
    },
    {
      "inputs": [
        {
          "internalType": "bytes32",
          "name": "role",
          "type": "bytes32"
        },
        {
          "internalType": "address",
          "name": "account",
          "type": "address"
        }
      ],
      "name": "renounceRole",
      "outputs": [],
      "stateMutability": "nonpayable",
      "type": "function"
    },
    {
      "inputs": [
        {
          "internalType": "address",
          "name": "account",
          "type": "address"
        }
      ],
      "name": "revokeOperatorRole",
      "outputs": [],
      "stateMutability": "nonpayable",
      "type": "function"
    },
    {
      "inputs": [
        {
          "internalType": "bytes32",
          "name": "role",
          "type": "bytes32"
        },
        {
          "internalType": "address",
          "name": "account",
          "type": "address"
        }
      ],
      "name": "revokeRole",
      "outputs": [],
      "stateMutability": "nonpayable",
      "type": "function"
    },
    {
      "inputs": [
        {
          "internalType": "uint256",
          "name": "tokenId",
          "type": "uint256"
        },
        {
          "internalType": "uint256",
          "name": "value",
          "type": "uint256"
        }
      ],
      "name": "royaltyInfo",
      "outputs": [
        {
          "internalType": "address",
          "name": "receiver",
          "type": "address"
        },
        {
          "internalType": "uint256",
          "name": "royaltyAmount",
          "type": "uint256"
        }
      ],
      "stateMutability": "view",
      "type": "function"
    },
    {
      "inputs": [
        {
          "internalType": "address",
          "name": "from",
          "type": "address"
        },
        {
          "internalType": "address",
          "name": "to",
          "type": "address"
        },
        {
          "internalType": "uint256",
          "name": "tokenId",
          "type": "uint256"
        }
      ],
      "name": "safeTransferFrom",
      "outputs": [],
      "stateMutability": "nonpayable",
      "type": "function"
    },
    {
      "inputs": [
        {
          "internalType": "address",
          "name": "from",
          "type": "address"
        },
        {
          "internalType": "address",
          "name": "to",
          "type": "address"
        },
        {
          "internalType": "uint256",
          "name": "tokenId",
          "type": "uint256"
        },
        {
          "internalType": "bytes",
          "name": "data",
          "type": "bytes"
        }
      ],
      "name": "safeTransferFrom",
      "outputs": [],
      "stateMutability": "nonpayable",
      "type": "function"
    },
    {
      "inputs": [
        {
          "internalType": "address",
          "name": "operator",
          "type": "address"
        },
        {
          "internalType": "bool",
          "name": "approved",
          "type": "bool"
        }
      ],
      "name": "setApprovalForAll",
      "outputs": [],
      "stateMutability": "nonpayable",
      "type": "function"
    },
    {
      "inputs": [
        {
          "internalType": "string",
          "name": "_uri",
          "type": "string"
        }
      ],
      "name": "setContractMetadataUri",
      "outputs": [],
      "stateMutability": "nonpayable",
      "type": "function"
    },
    {
      "inputs": [
        {
          "internalType": "uint256",
          "name": "tokenId",
          "type": "uint256"
        },
        {
          "internalType": "string",
          "name": "nftURI",
          "type": "string"
        }
      ],
      "name": "setNFTMetadata",
      "outputs": [],
      "stateMutability": "nonpayable",
      "type": "function"
    },
    {
      "inputs": [
        {
          "internalType": "address",
          "name": "_addr",
          "type": "address"
        }
      ],
      "name": "setNvmConfigAddress",
      "outputs": [],
      "stateMutability": "nonpayable",
      "type": "function"
    },
    {
      "inputs": [
        {
          "internalType": "uint256",
          "name": "tokenId",
          "type": "uint256"
        },
        {
          "internalType": "address",
          "name": "receiver",
          "type": "address"
        },
        {
          "internalType": "uint256",
          "name": "royaltyAmount",
          "type": "uint256"
        }
      ],
      "name": "setTokenRoyalty",
      "outputs": [],
      "stateMutability": "nonpayable",
      "type": "function"
    },
    {
      "inputs": [
        {
          "internalType": "bytes4",
          "name": "interfaceId",
          "type": "bytes4"
        }
      ],
      "name": "supportsInterface",
      "outputs": [
        {
          "internalType": "bool",
          "name": "",
          "type": "bool"
        }
      ],
      "stateMutability": "view",
      "type": "function"
    },
    {
      "inputs": [],
      "name": "symbol",
      "outputs": [
        {
          "internalType": "string",
          "name": "",
          "type": "string"
        }
      ],
      "stateMutability": "view",
      "type": "function"
    },
    {
      "inputs": [
        {
          "internalType": "uint256",
          "name": "tokenId",
          "type": "uint256"
        }
      ],
      "name": "tokenURI",
      "outputs": [
        {
          "internalType": "string",
          "name": "",
          "type": "string"
        }
      ],
      "stateMutability": "view",
      "type": "function"
    },
    {
      "inputs": [
        {
          "internalType": "address",
          "name": "from",
          "type": "address"
        },
        {
          "internalType": "address",
          "name": "to",
          "type": "address"
        },
        {
          "internalType": "uint256",
          "name": "tokenId",
          "type": "uint256"
        }
      ],
      "name": "transferFrom",
      "outputs": [],
      "stateMutability": "nonpayable",
      "type": "function"
    },
    {
      "inputs": [
        {
          "internalType": "address",
          "name": "newOwner",
          "type": "address"
        }
      ],
      "name": "transferOwnership",
      "outputs": [],
      "stateMutability": "nonpayable",
      "type": "function"
    },
    {
      "inputs": [
        {
          "internalType": "address",
          "name": "owner",
          "type": "address"
        }
      ],
      "name": "whenWasMinted",
      "outputs": [
        {
          "internalType": "uint256[]",
          "name": "",
          "type": "uint256[]"
        }
      ],
      "stateMutability": "view",
      "type": "function"
    }
  ],
  "bytecode": "0x608060405234801561001057600080fd5b5061390d806100206000396000f3fe608060405234801561001057600080fd5b50600436106102675760003560e01c806301ffc9a71461026c57806302acb9a61461029457806305a14872146102a957806306fdde03146102c9578063081812fc146102de578063095ea7b3146102f1578063156e29f614610304578063162790551461031757806322e8e1e01461032b578063237c49191461034157806323b872dd14610354578063248a9ca31461036757806327ac0c581461037a5780632a55205a1461038d5780632f2ff15d146103bf57806336568abe146103d25780633d6d3598146103e557806340c10f19146103ed57806342842e0e1461040057806342966c681461041357806347c4ef2514610426578063572b6c05146104495780635ced058e1461045c5780635ea3ab851461046d5780636352211e146104805780636d70f7ae146104935780636fac889b146104a65780636fd902e1146104cd57806370a08231146104d3578063715018a6146104e657806382c947b7146104ee57806385be5724146105085780638da5cb5b1461051d57806391d148541461052557806395d89b41146105385780639713c80714610540578063a0712d6814610553578063a217fddf14610566578063a22cb4651461056e578063ab9de23014610581578063b219f7d714610589578063b88d4fde1461059c578063c87b56dd146105af578063cbd5a40e146105c2578063ce1b815f146105e2578063d2423105146105ea578063d547741f146105fd578063ded96d4814610610578063e271d9ee14610623578063e8a3d48514610643578063e985e9c51461064b578063e9c1e0451461065e578063f2fde38b14610671575b600080fd5b61027f61027a366004612a92565b610684565b60405190151581526020015b60405180910390f35b6102a76102a2366004612ac4565b6106bf565b005b6102bc6102b7366004612bc1565b6106e9565b60405161028b9190612cda565b6102d16108f2565b60405161028b9190612d3e565b6102bc6102ec366004612d51565b610984565b6102a76102ff366004612d6a565b6109ab565b6102a7610312366004612d96565b610ad7565b61027f610325366004612ac4565b3b151590565b610333610b6e565b60405190815260200161028b565b6102a761034f366004612dcb565b610b7f565b6102a7610362366004612e07565b610bb4565b610333610375366004612d51565b610bec565b6102a7610388366004612ac4565b610c01565b6103a061039b366004612e48565b610c6c565b604080516001600160a01b03909316835260208301919091520161028b565b6102a76103cd366004612e6a565b610cc2565b6102a76103e0366004612e6a565b610cde565b6102a7610d68565b6102a76103fb366004612d6a565b610d89565b6102a761040e366004612e07565b610f84565b6102a7610421366004612d51565b610f9f565b610439610434366004612d51565b61123d565b60405161028b9493929190612e9a565b61027f610457366004612ac4565b61133a565b6102bc61046a366004612d51565b90565b61033361047b366004612ecb565b61135f565b6102bc61048e366004612d51565b6113ae565b61027f6104a1366004612ac4565b6113e2565b6103337f3cf8e80a7a55dd870201fe38c468fe694473dbe8d59a63381f1da07dc1c2b65581565b43610333565b6103336104e1366004612ac4565b6113fc565b6102a7611515565b6103336104fc366004612ac4565b6001600160a01b031690565b61033360008051602061389883398151915281565b6102bc611527565b61027f610533366004612e6a565b611536565b6102d1611561565b6102a761054e366004612f5b565b611570565b6102a7610561366004612d51565b6115a2565b610333600081565b6102a761057c366004612f90565b6115b3565b6102bc6115c5565b6102a7610597366004612ac4565b6115d4565b6102a76105aa366004612fbe565b61163c565b6102d16105bd366004612d51565b61167b565b6105d56105d0366004612ac4565b61171c565b60405161028b919061303d565b6102bc6117b0565b6102a76105f8366004613096565b61183b565b6102a761060b366004612e6a565b611897565b6102a761061e3660046130ca565b6118b3565b610636610631366004612ac4565b6119d7565b60405161028b919061317f565b6102d1611ac8565b61027f6106593660046131c3565b611ad7565b60ff546102bc906001600160a01b031681565b6102a761067f366004612ac4565b611b11565b600061068f82611b87565b8061069e575061069e82611ba8565b806106b957506001600160e01b0319821663152a902d60e11b145b92915050565b6106c7611bf8565b60ff80546001600160a01b0319166001600160a01b0392909216919091179055565b7f360894a13ba1a3210667c828492db98dca3e2076cc3735a920a3ca505d382bbc546000906001600160a01b03168061071f5750305b600061072a82611c67565b9050806001600160a01b03811663ded96d48610744611d01565b610101546040516001600160e01b031960e085901b16815261077b92916001600160a01b0316908e908e908e908e906004016131f1565b600060405180830381600087803b15801561079557600080fd5b505af11580156107a9573d6000803e3d6000fd5b5050505060005b855181101561084357816001600160a01b03166327ac0c588783815181106107da576107da613257565b60200260200101516040518263ffffffff1660e01b81526004016107fe9190612cda565b600060405180830381600087803b15801561081857600080fd5b505af115801561082c573d6000803e3d6000fd5b50505050808061083b90613283565b9150506107b0565b50806001600160a01b0316633d6d35986040518163ffffffff1660e01b8152600401600060405180830381600087803b15801561087f57600080fd5b505af1158015610893573d6000803e3d6000fd5b50505050826001600160a01b0316826001600160a01b03167f60b02f0439b830955522ba890ebaeed1012ac175aba5742b6032a7b79d0cd7346102d16040516108de91815260200190565b60405180910390a350979650505050505050565b6060609780546109019061329c565b80601f016020809104026020016040519081016040528092919081815260200182805461092d9061329c565b801561097a5780601f1061094f5761010080835404028352916020019161097a565b820191906000526020600020905b81548152906001019060200180831161095d57829003601f168201915b5050505050905090565b600061098f82611d0b565b506000908152609b60205260409020546001600160a01b031690565b60006109b6826113ae565b9050806001600160a01b0316836001600160a01b031603610a285760405162461bcd60e51b815260206004820152602160248201527f4552433732313a20617070726f76616c20746f2063757272656e74206f776e656044820152603960f91b60648201526084015b60405180910390fd5b806001600160a01b0316610a3a611d01565b6001600160a01b03161480610a565750610a5681610659611d01565b610ac85760405162461bcd60e51b815260206004820152603d60248201527f4552433732313a20617070726f76652063616c6c6572206973206e6f7420746f60448201527f6b656e206f776e6572206f7220617070726f76656420666f7220616c6c0000006064820152608401610a1f565b610ad28383611d30565b505050565b610ae18383610d89565b600160fc60008481526020019081526020016000206001016000828254610b0891906132d0565b90915550506001600160a01b03909216600090815261010360209081526040808320815160608101835294855284830195865243918501918252805460018181018355918552929093209351600390920290930190815592519083015551600290910155565b6000610b7a6101025490565b905090565b610b8a6104a1611d01565b610ba65760405162461bcd60e51b8152600401610a1f906132e3565b610bb08282611d9e565b5050565b610bc5610bbf611d01565b82611dc4565b610be15760405162461bcd60e51b8152600401610a1f9061330e565b610ad2838383611e23565b600090815260c9602052604090206001015490565b610c09611d01565b6001600160a01b0316610c1a611527565b6001600160a01b03161480610c355750610c356104a1611d01565b610c515760405162461bcd60e51b8152600401610a1f9061335b565b610c6960008051602061389883398151915282611f82565b50565b600082815260fb60209081526040808320815180830190925280546001600160a01b03168083526001909101549282018390529291606490610cae908661338b565b610cb891906133a2565b9150509250929050565b610ccb82610bec565b610cd481611f8c565b610ad28383611f9d565b610ce6611d01565b6001600160a01b0316816001600160a01b031614610d5e5760405162461bcd60e51b815260206004820152602f60248201527f416363657373436f6e74726f6c3a2063616e206f6e6c792072656e6f756e636560448201526e103937b632b9903337b91039b2b63360891b6064820152608401610a1f565b610bb08282612024565b610d87600080516020613898833981519152610d82611d01565b612024565b565b610d946104a1611d01565b80610db75750610da2611527565b6001600160a01b0316826001600160a01b0316145b610e005760405162461bcd60e51b815260206004820152601a6024820152791bdb9b1e481b999d081bdc195c985d1bdc8818d85b881b5a5b9d60321b6044820152606401610a1f565b610100541580610e1557506101005461010254105b610e565760405162461bcd60e51b8152602060048201526012602482015271115490cdcc8c4e8810d85c08195e18d9595960721b6044820152606401610a1f565b610e6561010280546001019055565b61010254600082815260fc60208181526040808420600181019590955580518083019091528381529285905252600390910190610ea2908261340a565b50610101546001600160a01b031663bb794d9282610ebe611d01565b600143604051602001610ed494939291906134e0565b604051602081830303815290604052805190602001208360001b610ef6611d01565b7fdaf0b3c5710379609eb5495f1ecd348cb28167711b73609fe565a727345503546040518563ffffffff1660e01b8152600401610f36949392919061351f565b6020604051808303816000875af1158015610f55573d6000803e3d6000fd5b505050506040513d601f19601f82011682018060405250810190610f79919061355f565b50610bb082826120a9565b610ad28383836040518060200160405280600081525061163c565b610faa6104a1611d01565b80610fd55750610fb8611d01565b6001600160a01b0316610fca826113ae565b6001600160a01b0316145b6110395760405162461bcd60e51b815260206004820152602f60248201527f4552433732313a2063616c6c6572206973206e6f74206f776e6572206f72206e60448201526e6f7420686176652062616c616e636560881b6064820152608401610a1f565b600160fc60008381526020019081526020016000206001016000828254611060919061357c565b9091555050610101546001600160a01b031663bb794d9282611080611d01565b60014360405160200161109694939291906135a6565b604051602081830303815290604052805190602001208360001b6110b8611d01565b7ff43e8cfd4725c1e28fa4a6e3e468b4fcf75367166b850ac5f04e33ec843e82c16040518563ffffffff1660e01b81526004016110f894939291906135cf565b6020604051808303816000875af1158015611117573d6000803e3d6000fd5b505050506040513d601f19601f8201168201806040525081019061113b919061355f565b50611145816121b2565b60005b6101036000611155611d01565b6001600160a01b03168152602081019190915260400160002054811015610bb057816101036000611184611d01565b6001600160a01b03166001600160a01b0316815260200190815260200160002082815481106111b5576111b5613257565b9060005260206000209060030201600001540361122b5761010360006111d9611d01565b6001600160a01b03166001600160a01b03168152602001908152602001600020818154811061120a5761120a613257565b60009182526020822060039091020181815560018101829055600201555050565b8061123581613283565b915050611148565b600081815260fc602090815260408083208151608081018352815460ff161515815260018201549381019390935260028101549183019190915260038101805484938493606093859383860191906112949061329c565b80601f01602080910402602001604051908101604052809291908181526020018280546112c09061329c565b801561130d5780601f106112e25761010080835404028352916020019161130d565b820191906000526020600020905b8154815290600101906020018083116112f057829003601f168201915b505050919092525050815160208301516040840151606090940151919a9099509297509550909350505050565b60006113446117b0565b6001600160a01b0316826001600160a01b0316149050919050565b60008060005b83518110156113a75783818151811061138057611380613257565b60200260200101518261139391906132d0565b91508061139f81613283565b915050611365565b5092915050565b6000806113ba83612243565b90506001600160a01b0381166106b95760405162461bcd60e51b8152600401610a1f9061360f565b60006106b960008051602061389883398151915283611536565b60008060005b6001600160a01b038416600090815261010360205260409020548110156113a7576001600160a01b03841660009081526101036020526040812080548390811061144e5761144e613257565b9060005260206000209060030201600201541180156114f057506001600160a01b03841660009081526101036020526040902080548290811061149357611493613257565b906000526020600020906003020160010154600014806114f057506001600160a01b0384166000908152610103602052604090208054439190839081106114dc576114dc613257565b906000526020600020906003020160010154115b15611503576115006001836132d0565b91505b8061150d81613283565b915050611402565b61151d611bf8565b610d87600061225e565b6033546001600160a01b031690565b600091825260c9602090815260408084206001600160a01b0393909316845291905290205460ff1690565b6060609880546109019061329c565b61157b6104a1611d01565b6115975760405162461bcd60e51b8152600401610a1f906132e3565b610ad28383836122b0565b610c696115ad611d01565b82610d89565b610bb06115be611d01565b8383612348565b60ff546001600160a01b031690565b6115dc611d01565b6001600160a01b03166115ed611527565b6001600160a01b0316148061160857506116086104a1611d01565b6116245760405162461bcd60e51b8152600401610a1f9061335b565b610c6960008051602061389883398151915282612024565b61164d611647611d01565b83611dc4565b6116695760405162461bcd60e51b8152600401610a1f9061330e565b61167584848484612412565b50505050565b60606000611687612445565b90506116928361244f565b156116e75760008151116116b557604051806020016040528060008152506116e0565b806116bf8461246c565b6040516020016116d0929190613641565b6040516020818303038152906040525b9392505050565b600081511161170557604051806020016040528060008152506116e0565b806040516020016116d09190613670565b50919050565b6001600160a01b038116600090815261010360209081526040808320805482518185028101850190935280835260609492939192909184015b828210156117a55783829060005260206000209060030201604051806060016040529081600082015481526020016001820154815260200160028201548152505081526020019060010190611755565b505050509050919050565b6000806117bb6115c5565b90506001600160a01b0381166117d357600091505090565b806001600160a01b031663ce1b815f6040518163ffffffff1660e01b8152600401602060405180830381865afa158015611811573d6000803e3d6000fd5b505050506040513d601f19601f82011682018060405250810190611835919061368c565b91505090565b611843611d01565b6001600160a01b0316611854611527565b6001600160a01b0316148061186f575061186f6104a1611d01565b61188b5760405162461bcd60e51b8152600401610a1f9061335b565b60fe610bb0828261340a565b6118a082610bec565b6118a981611f8c565b610ad28383612024565b600054610100900460ff16158080156118d35750600054600160ff909116105b806118f457506118e230612483565b1580156118f4575060005460ff166001145b6119575760405162461bcd60e51b815260206004820152602e60248201527f496e697469616c697a61626c653a20636f6e747261637420697320616c72656160448201526d191e481a5b9a5d1a585b1a5e995960921b6064820152608401610a1f565b6000805460ff19166001179055801561197a576000805461ff0019166101001790555b611988878787878787612492565b80156119ce576000805461ff0019169055604051600181527f7f26b83ff96e1f2b6a682f133852f6798a09c465da95921460cefb38474024989060200160405180910390a15b50505050505050565b6001600160a01b03811660009081526101036020526040812054606091906001600160401b03811115611a0c57611a0c612ae1565b604051908082528060200260200182016040528015611a35578160200160208202803683370190505b50905060005b6001600160a01b038416600090815261010360205260409020548110156113a7576001600160a01b038416600090815261010360205260409020805482908110611a8757611a87613257565b906000526020600020906003020160020154828281518110611aab57611aab613257565b602090810291909101015280611ac081613283565b915050611a3b565b606060fe80546109019061329c565b6001600160a01b038083166000908152609c6020908152604080832093851683529290529081205460ff16806116e057506116e0826113e2565b611b19611bf8565b6001600160a01b038116611b7e5760405162461bcd60e51b815260206004820152602660248201527f4f776e61626c653a206e6577206f776e657220697320746865207a65726f206160448201526564647265737360d01b6064820152608401610a1f565b610c698161225e565b60006001600160e01b03198216637965db0b60e01b14806106b957506106b9825b60006001600160e01b031982166380ac58cd60e01b1480611bd957506001600160e01b03198216635b5e139f60e01b145b806106b957506301ffc9a760e01b6001600160e01b03198316146106b9565b611c00611d01565b6001600160a01b0316611c11611527565b6001600160a01b031614610d875760405162461bcd60e51b815260206004820181905260248201527f4f776e61626c653a2063616c6c6572206973206e6f7420746865206f776e65726044820152606401610a1f565b6000763d602d80600a3d3981f3363d3d373d3d3d363d730000008260601b60e81c176000526e5af43d82803e903d91602b57fd5bf38260781b17602052603760096000f090506001600160a01b038116611cfc5760405162461bcd60e51b8152602060048201526016602482015275115490cc4c4d8dce8818dc99585d194819985a5b195960521b6044820152606401610a1f565b919050565b6000610b7a6124f7565b611d148161244f565b610c695760405162461bcd60e51b8152600401610a1f9061360f565b6000818152609b6020526040902080546001600160a01b0319166001600160a01b0384169081179091558190611d65826113ae565b6001600160a01b03167f8c5be1e5ebec7d5bd14f71427d1e84f3dd0314c0f7b2291e5b200ac8c7c3b92560405160405180910390a45050565b600082815260fc60205260409020805460ff19166001178155600301610ad2828261340a565b600080611dd0836113ae565b9050806001600160a01b0316846001600160a01b03161480611df75750611df78185611ad7565b80611e1b5750836001600160a01b0316611e1084610984565b6001600160a01b0316145b949350505050565b826001600160a01b0316611e36826113ae565b6001600160a01b031614611e5c5760405162461bcd60e51b8152600401610a1f906136a9565b6001600160a01b038216611ebe5760405162461bcd60e51b8152602060048201526024808201527f4552433732313a207472616e7366657220746f20746865207a65726f206164646044820152637265737360e01b6064820152608401610a1f565b611ecb8383836001612525565b826001600160a01b0316611ede826113ae565b6001600160a01b031614611f045760405162461bcd60e51b8152600401610a1f906136a9565b6000818152609b6020908152604080832080546001600160a01b03199081169091556001600160a01b03878116808652609a8552838620805460001901905590871680865283862080546001019055868652609990945282852080549092168417909155905184936000805160206138b883398151915291a4505050565b610bb08282611f9d565b610c6981611f98611d01565b612591565b611fa78282611536565b610bb057600082815260c9602090815260408083206001600160a01b03851684529091529020805460ff19166001179055611fe0611d01565b6001600160a01b0316816001600160a01b0316837f2f8788117e7eff1d82e926ec794901d17c78024a50270940304540a733656f0d60405160405180910390a45050565b61202e8282611536565b15610bb057600082815260c9602090815260408083206001600160a01b03851684529091529020805460ff19169055612065611d01565b6001600160a01b0316816001600160a01b0316837ff6391f5c32d9c69d2a47ea670b442974b53935d1edc7fd64eb21e047a839171b60405160405180910390a45050565b6001600160a01b0382166120ff5760405162461bcd60e51b815260206004820181905260248201527f4552433732313a206d696e7420746f20746865207a65726f20616464726573736044820152606401610a1f565b6121088161244f565b156121255760405162461bcd60e51b8152600401610a1f906136ee565b612133600083836001612525565b61213c8161244f565b156121595760405162461bcd60e51b8152600401610a1f906136ee565b6001600160a01b0382166000818152609a6020908152604080832080546001019055848352609990915280822080546001600160a01b0319168417905551839291906000805160206138b8833981519152908290a45050565b60006121bd826113ae565b90506121cd816000846001612525565b6121d6826113ae565b6000838152609b6020908152604080832080546001600160a01b03199081169091556001600160a01b038516808552609a845282852080546000190190558785526099909352818420805490911690555192935084926000805160206138b8833981519152908390a45050565b6000908152609960205260409020546001600160a01b031690565b603380546001600160a01b038381166001600160a01b0319831681179093556040519116919082907f8be0079c531659141344cd1fd0a4f28419497f9722a3daafe3b4186f6b6457e090600090a35050565b620f42408111156123005760405162461bcd60e51b815260206004820152601a60248201527908aa48664727062a4def2c2d8e8d2cae67440a8dede40d0d2ced60331b6044820152606401610a1f565b6040805180820182526001600160a01b0393841681526020808201938452600095865260fb90529320925183546001600160a01b031916921691909117825551600190910155565b816001600160a01b0316836001600160a01b0316036123a55760405162461bcd60e51b815260206004820152601960248201527822a9219b99189d1030b8383937bb32903a379031b0b63632b960391b6044820152606401610a1f565b6001600160a01b038381166000818152609c6020908152604080832094871680845294825291829020805460ff191686151590811790915591519182527f17307eab39ab6107e8899845ad3d59bd9653f200f220920489ca2b5937696c31910160405180910390a3505050565b61241d848484611e23565b612429848484846125ea565b6116755760405162461bcd60e51b8152600401610a1f90613724565b6060610b7a611ac8565b60008061245b83612243565b6001600160a01b0316141592915050565b60606106b98261247b846126f9565b600101612763565b6001600160a01b03163b151590565b600054610100900460ff166124b95760405162461bcd60e51b8152600401610a1f90613776565b6124c16128fe565b6124c96128fe565b6124d38484612925565b6124db612965565b6124e36128fe565b6124ef8686848461299c565b505050505050565b60006014361080159061250e575061250e3361133a565b15612520575060131936013560601c90565b503390565b6001600160a01b038416158061254257506001600160a01b038316155b8061255357506125536104a1611d01565b61258c5760405162461bcd60e51b815260206004820152600a6024820152696f6e6c792070726f787960b01b6044820152606401610a1f565b611675565b61259b8282611536565b610bb0576125a881612a66565b6125b3836020612763565b6040516020016125c49291906137c1565b60408051601f198184030181529082905262461bcd60e51b8252610a1f91600401612d3e565b60006125fe846001600160a01b0316612483565b156126ee57836001600160a01b031663150b7a0261261a611d01565b8786866040518563ffffffff1660e01b815260040161263c9493929190613830565b6020604051808303816000875af1925050508015612677575060408051601f3d908101601f1916820190925261267491810190613863565b60015b6126d4573d8080156126a5576040519150601f19603f3d011682016040523d82523d6000602084013e6126aa565b606091505b5080516000036126cc5760405162461bcd60e51b8152600401610a1f90613724565b805181602001fd5b6001600160e01b031916630a85bd0160e11b149050611e1b565b506001949350505050565b600080608083901c156127115760809290921c916010015b604083901c156127265760409290921c916008015b602083901c1561273b5760209290921c916004015b601083901c156127505760109290921c916002015b600883901c156106b95760010192915050565b6060600061277283600261338b565b61277d9060026132d0565b6001600160401b0381111561279457612794612ae1565b6040519080825280601f01601f1916602001820160405280156127be576020820181803683370190505b509050600360fc1b816000815181106127d9576127d9613257565b60200101906001600160f81b031916908160001a905350600f60fb1b8160018151811061280857612808613257565b60200101906001600160f81b031916908160001a905350600061282c84600261338b565b6128379060016132d0565b90505b60018111156128af576f181899199a1a9b1b9c1cb0b131b232b360811b85600f166010811061286b5761286b613257565b1a60f81b82828151811061288157612881613257565b60200101906001600160f81b031916908160001a90535060049490941c936128a881613880565b905061283a565b5083156116e05760405162461bcd60e51b815260206004820181905260248201527f537472696e67733a20686578206c656e67746820696e73756666696369656e746044820152606401610a1f565b600054610100900460ff16610d875760405162461bcd60e51b8152600401610a1f90613776565b600054610100900460ff1661294c5760405162461bcd60e51b8152600401610a1f90613776565b6097612958838261340a565b506098610ad2828261340a565b600054610100900460ff1661298c5760405162461bcd60e51b8152600401610a1f90613776565b610d87612997611d01565b61225e565b600054610100900460ff166129c35760405162461bcd60e51b8152600401610a1f90613776565b6129e26000805160206138988339815191526129dd611d01565b611f82565b6129fa60008051602061389883398151915284611f82565b612a1260008051602061389883398151915285611f82565b612a1b8261183b565b61010081905561010180546001600160a01b0319166001600160a01b038516179055612a45611d01565b6001600160a01b0316846001600160a01b0316146116755761167584611b11565b60606106b96001600160a01b0383166014612763565b6001600160e01b031981168114610c6957600080fd5b600060208284031215612aa457600080fd5b81356116e081612a7c565b6001600160a01b0381168114610c6957600080fd5b600060208284031215612ad657600080fd5b81356116e081612aaf565b634e487b7160e01b600052604160045260246000fd5b604051601f8201601f191681016001600160401b0381118282101715612b1f57612b1f612ae1565b604052919050565b60006001600160401b03831115612b4057612b40612ae1565b612b53601f8401601f1916602001612af7565b9050828152838383011115612b6757600080fd5b828260208301376000602084830101529392505050565b600082601f830112612b8f57600080fd5b6116e083833560208501612b27565b60006001600160401b03821115612bb757612bb7612ae1565b5060051b60200190565b600080600080600060a08688031215612bd957600080fd5b85356001600160401b0380821115612bf057600080fd5b612bfc89838a01612b7e565b9650602091508188013581811115612c1357600080fd5b612c1f8a828b01612b7e565b965050604088013581811115612c3457600080fd5b612c408a828b01612b7e565b95505060608801359350608088013581811115612c5c57600080fd5b88019050601f81018913612c6f57600080fd5b8035612c82612c7d82612b9e565b612af7565b81815260059190911b8201830190838101908b831115612ca157600080fd5b928401925b82841015612cc8578335612cb981612aaf565b82529284019290840190612ca6565b80955050505050509295509295909350565b6001600160a01b0391909116815260200190565b60005b83811015612d09578181015183820152602001612cf1565b50506000910152565b60008151808452612d2a816020860160208601612cee565b601f01601f19169290920160200192915050565b6020815260006116e06020830184612d12565b600060208284031215612d6357600080fd5b5035919050565b60008060408385031215612d7d57600080fd5b8235612d8881612aaf565b946020939093013593505050565b600080600060608486031215612dab57600080fd5b8335612db681612aaf565b95602085013595506040909401359392505050565b60008060408385031215612dde57600080fd5b8235915060208301356001600160401b03811115612dfb57600080fd5b610cb885828601612b7e565b600080600060608486031215612e1c57600080fd5b8335612e2781612aaf565b92506020840135612e3781612aaf565b929592945050506040919091013590565b60008060408385031215612e5b57600080fd5b50508035926020909101359150565b60008060408385031215612e7d57600080fd5b823591506020830135612e8f81612aaf565b809150509250929050565b8415158152836020820152826040820152608060608201526000612ec16080830184612d12565b9695505050505050565b60006020808385031215612ede57600080fd5b82356001600160401b03811115612ef457600080fd5b8301601f81018513612f0557600080fd5b8035612f13612c7d82612b9e565b81815260059190911b82018301908381019087831115612f3257600080fd5b928401925b82841015612f5057833582529284019290840190612f37565b979650505050505050565b600080600060608486031215612f7057600080fd5b833592506020840135612e3781612aaf565b8015158114610c6957600080fd5b60008060408385031215612fa357600080fd5b8235612fae81612aaf565b91506020830135612e8f81612f82565b60008060008060808587031215612fd457600080fd5b8435612fdf81612aaf565b93506020850135612fef81612aaf565b92506040850135915060608501356001600160401b0381111561301157600080fd5b8501601f8101871361302257600080fd5b61303187823560208401612b27565b91505092959194509250565b602080825282518282018190526000919060409081850190868401855b82811015613089578151805185528681015187860152850151858501526060909301929085019060010161305a565b5091979650505050505050565b6000602082840312156130a857600080fd5b81356001600160401b038111156130be57600080fd5b611e1b84828501612b7e565b60008060008060008060c087890312156130e357600080fd5b86356130ee81612aaf565b955060208701356130fe81612aaf565b945060408701356001600160401b038082111561311a57600080fd5b6131268a838b01612b7e565b9550606089013591508082111561313c57600080fd5b6131488a838b01612b7e565b9450608089013591508082111561315e57600080fd5b5061316b89828a01612b7e565b92505060a087013590509295509295509295565b6020808252825182820181905260009190848201906040850190845b818110156131b75783518352928401929184019160010161319b565b50909695505050505050565b600080604083850312156131d657600080fd5b82356131e181612aaf565b91506020830135612e8f81612aaf565b6001600160a01b0387811682528616602082015260c06040820181905260009061321d90830187612d12565b828103606084015261322f8187612d12565b905082810360808401526132438186612d12565b9150508260a0830152979650505050505050565b634e487b7160e01b600052603260045260246000fd5b634e487b7160e01b600052601160045260246000fd5b6000600182016132955761329561326d565b5060010190565b600181811c908216806132b057607f821691505b60208210810361171657634e487b7160e01b600052602260045260246000fd5b808201808211156106b9576106b961326d565b60208082526011908201527037b7363c9037333a1037b832b930ba37b960791b604082015260600190565b6020808252602d908201527f4552433732313a2063616c6c6572206973206e6f7420746f6b656e206f776e6560408201526c1c881bdc88185c1c1c9bdd9959609a1b606082015260800190565b60208082526016908201527527b7363c9037b832b930ba37b91037b91037bbb732b960511b604082015260600190565b80820281158282048414176106b9576106b961326d565b6000826133bf57634e487b7160e01b600052601260045260246000fd5b500490565b601f821115610ad257600081815260208120601f850160051c810160208610156133eb5750805b601f850160051c820191505b818110156124ef578281556001016133f7565b81516001600160401b0381111561342357613423612ae1565b61343781613431845461329c565b846133c4565b602080601f83116001811461346c57600084156134545750858301515b600019600386901b1c1916600185901b1785556124ef565b600085815260208120601f198616915b8281101561349b5788860151825594840194600190910190840161347c565b50858210156134b95787850151600019600388901b60f8161c191681555b5050505050600190811b01905550565b60048152631b5a5b9d60e21b602082015260400190565b8481526001600160a01b038416602082015260a0604082018190526000906135099083016134c9565b60ff949094166060830152506080015292915050565b84815283602082015260018060a01b038316604082015281606082015260c06080820152600060c082015260e060a08201526000612ec160e083016134c9565b60006020828403121561357157600080fd5b81516116e081612f82565b818103818111156106b9576106b961326d565b6004815263313ab93760e11b602082015260400190565b8481526001600160a01b038416602082015260a06040820181905260009061350990830161358f565b84815283602082015260018060a01b038316604082015281606082015260c06080820152600060c082015260e060a08201526000612ec160e0830161358f565b602080825260189082015277115490cdcc8c4e881a5b9d985b1a59081d1bdad95b88125160421b604082015260600190565b60008351613653818460208801612cee565b835190830190613667818360208801612cee565b01949350505050565b60008251613682818460208701612cee565b9190910192915050565b60006020828403121561369e57600080fd5b81516116e081612aaf565b60208082526025908201527f4552433732313a207472616e736665722066726f6d20696e636f72726563742060408201526437bbb732b960d91b606082015260800190565b6020808252601c908201527b115490cdcc8c4e881d1bdad95b88185b1c9958591e481b5a5b9d195960221b604082015260600190565b60208082526032908201527f4552433732313a207472616e7366657220746f206e6f6e20455243373231526560408201527131b2b4bb32b91034b6b83632b6b2b73a32b960711b606082015260800190565b6020808252602b908201527f496e697469616c697a61626c653a20636f6e7472616374206973206e6f74206960408201526a6e697469616c697a696e6760a81b606082015260800190565b76020b1b1b2b9b9a1b7b73a3937b61d1030b1b1b7bab73a1604d1b8152600083516137f3816017850160208801612cee565b7001034b99036b4b9b9b4b733903937b6329607d1b6017918401918201528351613824816028840160208801612cee565b01602801949350505050565b6001600160a01b0385811682528416602082015260408101839052608060608201819052600090612ec190830184612d12565b60006020828403121561387557600080fd5b81516116e081612a7c565b60008161388f5761388f61326d565b50600019019056fef7a17991623d7e30ebf9bd089b2f4dcf33b0aa34727454bfa3dbc351ed7d6835ddf252ad1be2c89b69c2b068fc378daa952ba7f163c4a11628f55a4df523b3efa264697066735822122058d193dc4a89936faa0836b7c3c9846ab4945e4f6b027433eff0c9a6b5fe9f9a64736f6c63430008110033",
  "linkReferences": {},
  "deployedLinkReferences": {}
}