{
  "_format": "hh-sol-artifact-1",
  "contractName": "NFT721SubscriptionUpgradeable",
  "sourceName": "contracts/token/erc721/NFT721SubscriptionUpgradeable.sol",
  "abi": [
    {
      "anonymous": false,
      "inputs": [
        {
          "indexed": true,
          "internalType": "address",
          "name": "owner",
          "type": "address"
        },
        {
          "indexed": true,
          "internalType": "address",
          "name": "approved",
          "type": "address"
        },
        {
          "indexed": true,
          "internalType": "uint256",
          "name": "tokenId",
          "type": "uint256"
        }
      ],
      "name": "Approval",
      "type": "event"
    },
    {
      "anonymous": false,
      "inputs": [
        {
          "indexed": true,
          "internalType": "address",
          "name": "owner",
          "type": "address"
        },
        {
          "indexed": true,
          "internalType": "address",
          "name": "operator",
          "type": "address"
        },
        {
          "indexed": false,
          "internalType": "bool",
          "name": "approved",
          "type": "bool"
        }
      ],
      "name": "ApprovalForAll",
      "type": "event"
    },
    {
      "anonymous": false,
      "inputs": [
        {
          "indexed": false,
          "internalType": "uint8",
          "name": "version",
          "type": "uint8"
        }
      ],
      "name": "Initialized",
      "type": "event"
    },
    {
      "anonymous": false,
      "inputs": [
        {
          "indexed": true,
          "internalType": "address",
          "name": "_newAddress",
          "type": "address"
        },
        {
          "indexed": true,
          "internalType": "address",
          "name": "_fromAddress",
          "type": "address"
        },
        {
          "indexed": false,
          "internalType": "uint256",
          "name": "_ercType",
          "type": "uint256"
        }
      ],
      "name": "NFTCloned",
      "type": "event"
    },
    {
      "anonymous": false,
      "inputs": [
        {
          "indexed": true,
          "internalType": "address",
          "name": "previousOwner",
          "type": "address"
        },
        {
          "indexed": true,
          "internalType": "address",
          "name": "newOwner",
          "type": "address"
        }
      ],
      "name": "OwnershipTransferred",
      "type": "event"
    },
    {
      "anonymous": false,
      "inputs": [
        {
          "indexed": true,
          "internalType": "bytes32",
          "name": "role",
          "type": "bytes32"
        },
        {
          "indexed": true,
          "internalType": "bytes32",
          "name": "previousAdminRole",
          "type": "bytes32"
        },
        {
          "indexed": true,
          "internalType": "bytes32",
          "name": "newAdminRole",
          "type": "bytes32"
        }
      ],
      "name": "RoleAdminChanged",
      "type": "event"
    },
    {
      "anonymous": false,
      "inputs": [
        {
          "indexed": true,
          "internalType": "bytes32",
          "name": "role",
          "type": "bytes32"
        },
        {
          "indexed": true,
          "internalType": "address",
          "name": "account",
          "type": "address"
        },
        {
          "indexed": true,
          "internalType": "address",
          "name": "sender",
          "type": "address"
        }
      ],
      "name": "RoleGranted",
      "type": "event"
    },
    {
      "anonymous": false,
      "inputs": [
        {
          "indexed": true,
          "internalType": "bytes32",
          "name": "role",
          "type": "bytes32"
        },
        {
          "indexed": true,
          "internalType": "address",
          "name": "account",
          "type": "address"
        },
        {
          "indexed": true,
          "internalType": "address",
          "name": "sender",
          "type": "address"
        }
      ],
      "name": "RoleRevoked",
      "type": "event"
    },
    {
      "anonymous": false,
      "inputs": [
        {
          "indexed": true,
          "internalType": "address",
          "name": "from",
          "type": "address"
        },
        {
          "indexed": true,
          "internalType": "address",
          "name": "to",
          "type": "address"
        },
        {
          "indexed": true,
          "internalType": "uint256",
          "name": "tokenId",
          "type": "uint256"
        }
      ],
      "name": "Transfer",
      "type": "event"
    },
    {
      "inputs": [],
      "name": "DEFAULT_ADMIN_ROLE",
      "outputs": [
        {
          "internalType": "bytes32",
          "name": "",
          "type": "bytes32"
        }
      ],
      "stateMutability": "view",
      "type": "function"
    },
    {
      "inputs": [],
      "name": "NVM_OPERATOR_ROLE",
      "outputs": [
        {
          "internalType": "bytes32",
          "name": "",
          "type": "bytes32"
        }
      ],
      "stateMutability": "view",
      "type": "function"
    },
    {
      "inputs": [
        {
          "internalType": "address",
          "name": "_addr",
          "type": "address"
        }
      ],
      "name": "addressToBytes32",
      "outputs": [
        {
          "internalType": "bytes32",
          "name": "",
          "type": "bytes32"
        }
      ],
      "stateMutability": "pure",
      "type": "function"
    },
    {
      "inputs": [
        {
          "internalType": "address",
          "name": "to",
          "type": "address"
        },
        {
          "internalType": "uint256",
          "name": "tokenId",
          "type": "uint256"
        }
      ],
      "name": "approve",
      "outputs": [],
      "stateMutability": "nonpayable",
      "type": "function"
    },
    {
      "inputs": [
        {
          "internalType": "address",
          "name": "owner",
          "type": "address"
        }
      ],
      "name": "balanceOf",
      "outputs": [
        {
          "internalType": "uint256",
          "name": "",
          "type": "uint256"
        }
      ],
      "stateMutability": "view",
      "type": "function"
    },
    {
      "inputs": [
        {
          "internalType": "uint256",
          "name": "tokenId",
          "type": "uint256"
        }
      ],
      "name": "burn",
      "outputs": [],
      "stateMutability": "nonpayable",
      "type": "function"
    },
    {
      "inputs": [
        {
          "internalType": "bytes32",
          "name": "_b32",
          "type": "bytes32"
        }
      ],
      "name": "bytes32ToAddress",
      "outputs": [
        {
          "internalType": "address",
          "name": "",
          "type": "address"
        }
      ],
      "stateMutability": "pure",
      "type": "function"
    },
    {
      "inputs": [
        {
          "internalType": "uint256[]",
          "name": "_amounts",
          "type": "uint256[]"
        }
      ],
      "name": "calculateTotalAmount",
      "outputs": [
        {
          "internalType": "uint256",
          "name": "",
          "type": "uint256"
        }
      ],
      "stateMutability": "pure",
      "type": "function"
    },
    {
      "inputs": [],
      "name": "contractURI",
      "outputs": [
        {
          "internalType": "string",
          "name": "",
          "type": "string"
        }
      ],
      "stateMutability": "view",
      "type": "function"
    },
    {
      "inputs": [
        {
          "internalType": "string",
          "name": "name",
          "type": "string"
        },
        {
          "internalType": "string",
          "name": "symbol",
          "type": "string"
        },
        {
          "internalType": "string",
          "name": "uri",
          "type": "string"
        },
        {
          "internalType": "uint256",
          "name": "cap",
          "type": "uint256"
        }
      ],
      "name": "createClone",
      "outputs": [
        {
          "internalType": "address",
          "name": "",
          "type": "address"
        }
      ],
      "stateMutability": "nonpayable",
      "type": "function"
    },
    {
      "inputs": [
        {
          "internalType": "uint256",
          "name": "tokenId",
          "type": "uint256"
        }
      ],
      "name": "getApproved",
      "outputs": [
        {
          "internalType": "address",
          "name": "",
          "type": "address"
        }
      ],
      "stateMutability": "view",
      "type": "function"
    },
    {
      "inputs": [],
      "name": "getCurrentBlockNumber",
      "outputs": [
        {
          "internalType": "uint256",
          "name": "",
          "type": "uint256"
        }
      ],
      "stateMutability": "view",
      "type": "function"
    },
    {
      "inputs": [],
      "name": "getHowManyMinted",
      "outputs": [
        {
          "internalType": "uint256",
          "name": "",
          "type": "uint256"
        }
      ],
      "stateMutability": "view",
      "type": "function"
    },
    {
      "inputs": [],
      "name": "getNvmConfigAddress",
      "outputs": [
        {
          "internalType": "address",
          "name": "",
          "type": "address"
        }
      ],
      "stateMutability": "view",
      "type": "function"
    },
    {
      "inputs": [
        {
          "internalType": "bytes32",
          "name": "role",
          "type": "bytes32"
        }
      ],
      "name": "getRoleAdmin",
      "outputs": [
        {
          "internalType": "bytes32",
          "name": "",
          "type": "bytes32"
        }
      ],
      "stateMutability": "view",
      "type": "function"
    },
    {
      "inputs": [],
      "name": "getTrustedForwarder",
      "outputs": [
        {
          "internalType": "address",
          "name": "",
          "type": "address"
        }
      ],
      "stateMutability": "view",
      "type": "function"
    },
    {
      "inputs": [
        {
          "internalType": "address",
          "name": "account",
          "type": "address"
        }
      ],
      "name": "grantOperatorRole",
      "outputs": [],
      "stateMutability": "nonpayable",
      "type": "function"
    },
    {
      "inputs": [
        {
          "internalType": "bytes32",
          "name": "role",
          "type": "bytes32"
        },
        {
          "internalType": "address",
          "name": "account",
          "type": "address"
        }
      ],
      "name": "grantRole",
      "outputs": [],
      "stateMutability": "nonpayable",
      "type": "function"
    },
    {
      "inputs": [
        {
          "internalType": "bytes32",
          "name": "role",
          "type": "bytes32"
        },
        {
          "internalType": "address",
          "name": "account",
          "type": "address"
        }
      ],
      "name": "hasRole",
      "outputs": [
        {
          "internalType": "bool",
          "name": "",
          "type": "bool"
        }
      ],
      "stateMutability": "view",
      "type": "function"
    },
    {
      "inputs": [],
      "name": "initialize",
      "outputs": [],
      "stateMutability": "nonpayable",
      "type": "function"
    },
    {
      "inputs": [
        {
          "internalType": "address",
          "name": "owner",
          "type": "address"
        },
        {
          "internalType": "string",
          "name": "name",
          "type": "string"
        },
        {
          "internalType": "string",
          "name": "symbol",
          "type": "string"
        },
        {
          "internalType": "string",
          "name": "uri",
          "type": "string"
        },
        {
          "internalType": "uint256",
          "name": "cap",
          "type": "uint256"
        }
      ],
      "name": "initializeWithAttributes",
      "outputs": [],
      "stateMutability": "nonpayable",
      "type": "function"
    },
    {
      "inputs": [
        {
          "internalType": "string",
          "name": "name",
          "type": "string"
        },
        {
          "internalType": "string",
          "name": "symbol",
          "type": "string"
        }
      ],
      "name": "initializeWithName",
      "outputs": [],
      "stateMutability": "nonpayable",
      "type": "function"
    },
    {
      "inputs": [
        {
          "internalType": "address",
          "name": "account",
          "type": "address"
        },
        {
          "internalType": "address",
          "name": "operator",
          "type": "address"
        }
      ],
      "name": "isApprovedForAll",
      "outputs": [
        {
          "internalType": "bool",
          "name": "",
          "type": "bool"
        }
      ],
      "stateMutability": "view",
      "type": "function"
    },
    {
      "inputs": [
        {
          "internalType": "address",
          "name": "addr",
          "type": "address"
        }
      ],
      "name": "isContract",
      "outputs": [
        {
          "internalType": "bool",
          "name": "",
          "type": "bool"
        }
      ],
      "stateMutability": "view",
      "type": "function"
    },
    {
      "inputs": [
        {
          "internalType": "address",
          "name": "operator",
          "type": "address"
        }
      ],
      "name": "isOperator",
      "outputs": [
        {
          "internalType": "bool",
          "name": "",
          "type": "bool"
        }
      ],
      "stateMutability": "view",
      "type": "function"
    },
    {
      "inputs": [
        {
          "internalType": "address",
          "name": "forwarder",
          "type": "address"
        }
      ],
      "name": "isTrustedForwarder",
      "outputs": [
        {
          "internalType": "bool",
          "name": "",
          "type": "bool"
        }
      ],
      "stateMutability": "view",
      "type": "function"
    },
    {
      "inputs": [
        {
          "internalType": "address",
          "name": "to",
          "type": "address"
        },
        {
          "internalType": "uint256",
          "name": "tokenId",
          "type": "uint256"
        },
        {
          "internalType": "uint256",
          "name": "expirationBlock",
          "type": "uint256"
        }
      ],
      "name": "mint",
      "outputs": [],
      "stateMutability": "nonpayable",
      "type": "function"
    },
    {
      "inputs": [
        {
          "internalType": "address",
          "name": "to",
          "type": "address"
        },
        {
          "internalType": "uint256",
          "name": "tokenId",
          "type": "uint256"
        }
      ],
      "name": "mint",
      "outputs": [],
      "stateMutability": "nonpayable",
      "type": "function"
    },
    {
      "inputs": [
        {
          "internalType": "uint256",
          "name": "tokenId",
          "type": "uint256"
        }
      ],
      "name": "mint",
      "outputs": [],
      "stateMutability": "nonpayable",
      "type": "function"
    },
    {
      "inputs": [],
      "name": "name",
      "outputs": [
        {
          "internalType": "string",
          "name": "",
          "type": "string"
        }
      ],
      "stateMutability": "view",
      "type": "function"
    },
    {
      "inputs": [],
      "name": "nvmConfig",
      "outputs": [
        {
          "internalType": "address",
          "name": "",
          "type": "address"
        }
      ],
      "stateMutability": "view",
      "type": "function"
    },
    {
      "inputs": [],
      "name": "owner",
      "outputs": [
        {
          "internalType": "address",
          "name": "",
          "type": "address"
        }
      ],
      "stateMutability": "view",
      "type": "function"
    },
    {
      "inputs": [
        {
          "internalType": "uint256",
          "name": "tokenId",
          "type": "uint256"
        }
      ],
      "name": "ownerOf",
      "outputs": [
        {
          "internalType": "address",
          "name": "",
          "type": "address"
        }
      ],
      "stateMutability": "view",
      "type": "function"
    },
    {
      "inputs": [],
      "name": "renounceOwnership",
      "outputs": [],
      "stateMutability": "nonpayable",
      "type": "function"
    },
    {
      "inputs": [
        {
          "internalType": "bytes32",
          "name": "role",
          "type": "bytes32"
        },
        {
          "internalType": "address",
          "name": "account",
          "type": "address"
        }
      ],
      "name": "renounceRole",
      "outputs": [],
      "stateMutability": "nonpayable",
      "type": "function"
    },
    {
      "inputs": [
        {
          "internalType": "address",
          "name": "account",
          "type": "address"
        }
      ],
      "name": "revokeOperatorRole",
      "outputs": [],
      "stateMutability": "nonpayable",
      "type": "function"
    },
    {
      "inputs": [
        {
          "internalType": "bytes32",
          "name": "role",
          "type": "bytes32"
        },
        {
          "internalType": "address",
          "name": "account",
          "type": "address"
        }
      ],
      "name": "revokeRole",
      "outputs": [],
      "stateMutability": "nonpayable",
      "type": "function"
    },
    {
      "inputs": [
        {
          "internalType": "uint256",
          "name": "tokenId",
          "type": "uint256"
        },
        {
          "internalType": "uint256",
          "name": "value",
          "type": "uint256"
        }
      ],
      "name": "royaltyInfo",
      "outputs": [
        {
          "internalType": "address",
          "name": "receiver",
          "type": "address"
        },
        {
          "internalType": "uint256",
          "name": "royaltyAmount",
          "type": "uint256"
        }
      ],
      "stateMutability": "view",
      "type": "function"
    },
    {
      "inputs": [
        {
          "internalType": "address",
          "name": "from",
          "type": "address"
        },
        {
          "internalType": "address",
          "name": "to",
          "type": "address"
        },
        {
          "internalType": "uint256",
          "name": "tokenId",
          "type": "uint256"
        }
      ],
      "name": "safeTransferFrom",
      "outputs": [],
      "stateMutability": "nonpayable",
      "type": "function"
    },
    {
      "inputs": [
        {
          "internalType": "address",
          "name": "from",
          "type": "address"
        },
        {
          "internalType": "address",
          "name": "to",
          "type": "address"
        },
        {
          "internalType": "uint256",
          "name": "tokenId",
          "type": "uint256"
        },
        {
          "internalType": "bytes",
          "name": "data",
          "type": "bytes"
        }
      ],
      "name": "safeTransferFrom",
      "outputs": [],
      "stateMutability": "nonpayable",
      "type": "function"
    },
    {
      "inputs": [
        {
          "internalType": "address",
          "name": "operator",
          "type": "address"
        },
        {
          "internalType": "bool",
          "name": "approved",
          "type": "bool"
        }
      ],
      "name": "setApprovalForAll",
      "outputs": [],
      "stateMutability": "nonpayable",
      "type": "function"
    },
    {
      "inputs": [
        {
          "internalType": "string",
          "name": "_uri",
          "type": "string"
        }
      ],
      "name": "setContractMetadataUri",
      "outputs": [],
      "stateMutability": "nonpayable",
      "type": "function"
    },
    {
      "inputs": [
        {
          "internalType": "uint256",
          "name": "tokenId",
          "type": "uint256"
        },
        {
          "internalType": "string",
          "name": "nftURI",
          "type": "string"
        }
      ],
      "name": "setNFTMetadata",
      "outputs": [],
      "stateMutability": "nonpayable",
      "type": "function"
    },
    {
      "inputs": [
        {
          "internalType": "address",
          "name": "_addr",
          "type": "address"
        }
      ],
      "name": "setNvmConfigAddress",
      "outputs": [],
      "stateMutability": "nonpayable",
      "type": "function"
    },
    {
      "inputs": [
        {
          "internalType": "uint256",
          "name": "tokenId",
          "type": "uint256"
        },
        {
          "internalType": "address",
          "name": "receiver",
          "type": "address"
        },
        {
          "internalType": "uint256",
          "name": "royaltyAmount",
          "type": "uint256"
        }
      ],
      "name": "setTokenRoyalty",
      "outputs": [],
      "stateMutability": "nonpayable",
      "type": "function"
    },
    {
      "inputs": [
        {
          "internalType": "bytes4",
          "name": "interfaceId",
          "type": "bytes4"
        }
      ],
      "name": "supportsInterface",
      "outputs": [
        {
          "internalType": "bool",
          "name": "",
          "type": "bool"
        }
      ],
      "stateMutability": "view",
      "type": "function"
    },
    {
      "inputs": [],
      "name": "symbol",
      "outputs": [
        {
          "internalType": "string",
          "name": "",
          "type": "string"
        }
      ],
      "stateMutability": "view",
      "type": "function"
    },
    {
      "inputs": [
        {
          "internalType": "uint256",
          "name": "tokenId",
          "type": "uint256"
        }
      ],
      "name": "tokenURI",
      "outputs": [
        {
          "internalType": "string",
          "name": "",
          "type": "string"
        }
      ],
      "stateMutability": "view",
      "type": "function"
    },
    {
      "inputs": [
        {
          "internalType": "address",
          "name": "from",
          "type": "address"
        },
        {
          "internalType": "address",
          "name": "to",
          "type": "address"
        },
        {
          "internalType": "uint256",
          "name": "tokenId",
          "type": "uint256"
        }
      ],
      "name": "transferFrom",
      "outputs": [],
      "stateMutability": "nonpayable",
      "type": "function"
    },
    {
      "inputs": [
        {
          "internalType": "address",
          "name": "newOwner",
          "type": "address"
        }
      ],
      "name": "transferOwnership",
      "outputs": [],
      "stateMutability": "nonpayable",
      "type": "function"
    }
  ],
  "bytecode": "0x608060405234801561001057600080fd5b50612f9f806100206000396000f3fe608060405234801561001057600080fd5b50600436106102465760003560e01c806301ffc9a71461024b57806302acb9a61461027357806306fdde0314610288578063081812fc1461029d578063095ea7b3146102c8578063156e29f6146102db57806316279055146102ee57806322e8e1e014610302578063237c49191461031857806323b872dd1461032b578063248a9ca31461033e578063248f8e491461035157806327ac0c58146103645780632a55205a146103775780632f2ff15d146103a957806336568abe146103bc57806340c10f19146103cf57806342842e0e146103e257806342966c68146103f5578063572b6c05146104085780635ced058e1461041b5780635ea3ab851461042c5780636352211e1461043f5780636d70f7ae146104525780636e428b83146104655780636fd902e11461047857806370a082311461047e578063715018a6146104915780638129fc1c1461049957806382c947b7146104a157806385be5724146104bb5780638da5cb5b146104d057806391d14854146104d857806395d89b41146104eb5780639713c807146104f3578063a0712d6814610506578063a217fddf14610519578063a22cb46514610521578063ab9de23014610534578063b219f7d71461053c578063b628b0fc1461054f578063b88d4fde14610562578063c87b56dd14610575578063ce1b815f14610588578063d242310514610590578063d547741f146105a3578063e8a3d485146105b6578063e985e9c5146105be578063e9c1e045146105d1578063f2fde38b146105e4575b600080fd5b61025e610259366004612355565b6105f7565b60405190151581526020015b60405180910390f35b610286610281366004612387565b610632565b005b61029061065c565b60405161026a91906123f4565b6102b06102ab366004612407565b6106ee565b6040516001600160a01b03909116815260200161026a565b6102866102d6366004612420565b610715565b6102866102e936600461244c565b610841565b61025e6102fc366004612387565b3b151590565b61030a61086b565b60405190815260200161026a565b61028661032636600461253e565b61087c565b61028661033936600461257a565b6108b1565b61030a61034c366004612407565b6108e9565b61028661035f3660046125bb565b6108fe565b610286610372366004612387565b610a3b565b61038a61038536600461265d565b610a5e565b604080516001600160a01b03909316835260208301919091520161026a565b6102866103b736600461267f565b610ab4565b6102866103ca36600461267f565b610ad0565b6102866103dd366004612420565b610b5a565b6102866103f036600461257a565b610c1d565b610286610403366004612407565b610c38565b61025e610416366004612387565b610cc5565b6102b0610429366004612407565b90565b61030a61043a3660046126af565b610cea565b6102b061044d366004612407565b610d39565b61025e610460366004612387565b610d6d565b610286610473366004612754565b610d87565b4361030a565b61030a61048c366004612387565b610e83565b610286610ed5565b610286610ee9565b61030a6104af366004612387565b6001600160a01b031690565b61030a600080516020612f0a83398151915281565b6102b061102a565b61025e6104e636600461267f565b611039565b610290611064565b6102866105013660046127ad565b611073565b610286610514366004612407565b6110a5565b61030a600081565b61028661052f3660046127d4565b6110b6565b6102b06110c8565b61028661054a366004612387565b6110d7565b6102b061055d366004612807565b6110f7565b610286610570366004612896565b611202565b610290610583366004612407565b611241565b6102b06112e2565b61028661059e366004612915565b61136d565b6102866105b136600461267f565b611381565b61029061139d565b61025e6105cc366004612949565b6113ac565b60ff546102b0906001600160a01b031681565b6102866105f2366004612387565b6113e6565b60006106028261145c565b8061061157506106118261147d565b8061062c57506001600160e01b0319821663152a902d60e11b145b92915050565b61063a6114cd565b60ff80546001600160a01b0319166001600160a01b0392909216919091179055565b60606097805461066b90612977565b80601f016020809104026020016040519081016040528092919081815260200182805461069790612977565b80156106e45780601f106106b9576101008083540402835291602001916106e4565b820191906000526020600020905b8154815290600101906020018083116106c757829003601f168201915b5050505050905090565b60006106f98261153c565b506000908152609b60205260409020546001600160a01b031690565b600061072082610d39565b9050806001600160a01b0316836001600160a01b0316036107925760405162461bcd60e51b815260206004820152602160248201527f4552433732313a20617070726f76616c20746f2063757272656e74206f776e656044820152603960f91b60648201526084015b60405180910390fd5b806001600160a01b03166107a4611561565b6001600160a01b031614806107c057506107c0816105cc611561565b6108325760405162461bcd60e51b815260206004820152603d60248201527f4552433732313a20617070726f76652063616c6c6572206973206e6f7420746f60448201527f6b656e206f776e6572206f7220617070726f76656420666f7220616c6c0000006064820152608401610789565b61083c838361156b565b505050565b61084b8383610b5a565b6001600160a01b03909216600090815260fd602052604090209190915550565b60006108776101015490565b905090565b610887610460611561565b6108a35760405162461bcd60e51b8152600401610789906129ab565b6108ad82826115d9565b5050565b6108c26108bc611561565b8261160a565b6108de5760405162461bcd60e51b8152600401610789906129d6565b61083c838383611668565b600090815260c9602052604090206001015490565b600054610100900460ff161580801561091e5750600054600160ff909116105b8061093f575061092d306117c7565b15801561093f575060005460ff166001145b61095b5760405162461bcd60e51b815260040161078990612a23565b6000805460ff19166001179055801561097e576000805461ff0019166101001790555b6109866117d6565b61098e6117d6565b61099885856117fd565b6109a061183d565b6109a86117d6565b6109c7600080516020612f0a8339815191526109c2611561565b611874565b6109d08361136d565b6101008290556109de611561565b6001600160a01b0316866001600160a01b0316146109ff576109ff866113e6565b8015610a33576000805461ff001916905560405160018152600080516020612f2a8339815191529060200160405180910390a15b505050505050565b610a436114cd565b610a5b600080516020612f0a83398151915282611874565b50565b600082815260fb60209081526040808320815180830190925280546001600160a01b03168083526001909101549282018390529291606490610aa09086612a87565b610aaa9190612a9e565b9150509250929050565b610abd826108e9565b610ac68161187e565b61083c838361188f565b610ad8611561565b6001600160a01b0316816001600160a01b031614610b505760405162461bcd60e51b815260206004820152602f60248201527f416363657373436f6e74726f6c3a2063616e206f6e6c792072656e6f756e636560448201526e103937b632b9903337b91039b2b63360891b6064820152608401610789565b6108ad8282611916565b610b65610460611561565b610bae5760405162461bcd60e51b815260206004820152601a6024820152791bdb9b1e481b999d081bdc195c985d1bdc8818d85b881b5a5b9d60321b6044820152606401610789565b610100541580610bc357506101005461010154105b610c045760405162461bcd60e51b8152602060048201526012602482015271115490cdcc8c4e8810d85c08195e18d9595960721b6044820152606401610789565b610c1361010180546001019055565b6108ad828261199b565b61083c83838360405180602001604052806000815250611202565b610c43610460611561565b80610c5857506000610c5661048c611561565b115b610cbc5760405162461bcd60e51b815260206004820152602f60248201527f4552433732313a2063616c6c6572206973206e6f74206f776e6572206f72206e60448201526e6f7420686176652062616c616e636560881b6064820152608401610789565b610a5b81611aa4565b6000610ccf6112e2565b6001600160a01b0316826001600160a01b0316149050919050565b60008060005b8351811015610d3257838181518110610d0b57610d0b612ac0565b602002602001015182610d1e9190612ad6565b915080610d2a81612ae9565b915050610cf0565b5092915050565b600080610d4583611b35565b90506001600160a01b03811661062c5760405162461bcd60e51b815260040161078990612b02565b600061062c600080516020612f0a83398151915283611039565b600054610100900460ff1615808015610da75750600054600160ff909116105b80610dc85750610db6306117c7565b158015610dc8575060005460ff166001145b610de45760405162461bcd60e51b815260040161078990612a23565b6000805460ff191660011790558015610e07576000805461ff0019166101001790555b610e0f6117d6565b610e176117d6565b610e2183836117fd565b610e2961183d565b610e316117d6565b610e4b600080516020612f0a8339815191526109c2611561565b801561083c576000805461ff001916905560405160018152600080516020612f2a8339815191529060200160405180910390a1505050565b6001600160a01b038116600090815260fd60205260408120541580610ebf57506001600160a01b038216600090815260fd602052604090205443105b15610ecd5761062c82611b50565b506000919050565b610edd6114cd565b610ee76000611bd6565b565b600054610100900460ff1615808015610f095750600054600160ff909116105b80610f2a5750610f18306117c7565b158015610f2a575060005460ff166001145b610f465760405162461bcd60e51b815260040161078990612a23565b6000805460ff191660011790558015610f69576000805461ff0019166101001790555b610f716117d6565b610f796117d6565b610fca604051806040016040528060118152602001704e657665726d696e65642045524337323160781b815250604051806040016040528060068152602001654e564d37323160d01b8152506117fd565b610fd261183d565b610fda6117d6565b610ff4600080516020612f0a8339815191526109c2611561565b8015610a5b576000805461ff001916905560405160018152600080516020612f2a8339815191529060200160405180910390a150565b6033546001600160a01b031690565b600091825260c9602090815260408084206001600160a01b0393909316845291905290205460ff1690565b60606098805461066b90612977565b61107e610460611561565b61109a5760405162461bcd60e51b8152600401610789906129ab565b61083c838383611c28565b610a5b6110b0611561565b82610b5a565b6108ad6110c1611561565b8383611cc0565b60ff546001600160a01b031690565b6110df6114cd565b610a5b600080516020612f0a83398151915282611916565b7f360894a13ba1a3210667c828492db98dca3e2076cc3735a920a3ca505d382bbc546000906001600160a01b03168061112d5750305b600061113882611d8a565b9050806001600160a01b031663248f8e49611151611561565b898989896040518663ffffffff1660e01b8152600401611175959493929190612b34565b600060405180830381600087803b15801561118f57600080fd5b505af11580156111a3573d6000803e3d6000fd5b50505050816001600160a01b0316816001600160a01b03167f60b02f0439b830955522ba890ebaeed1012ac175aba5742b6032a7b79d0cd7346102d16040516111ee91815260200190565b60405180910390a39150505b949350505050565b61121361120d611561565b8361160a565b61122f5760405162461bcd60e51b8152600401610789906129d6565b61123b84848484611e24565b50505050565b6060600061124d611e57565b905061125883611e61565b156112ad57600081511161127b57604051806020016040528060008152506112a6565b8061128584611e7e565b604051602001611296929190612b91565b6040516020818303038152906040525b9392505050565b60008151116112cb57604051806020016040528060008152506112a6565b806040516020016112969190612bc0565b50919050565b6000806112ed6110c8565b90506001600160a01b03811661130557600091505090565b806001600160a01b031663ce1b815f6040518163ffffffff1660e01b8152600401602060405180830381865afa158015611343573d6000803e3d6000fd5b505050506040513d601f19601f820116820180604052508101906113679190612bdc565b91505090565b6113756114cd565b60fe6108ad8282612c3f565b61138a826108e9565b6113938161187e565b61083c8383611916565b606060fe805461066b90612977565b6001600160a01b038083166000908152609c6020908152604080832093851683529290529081205460ff16806112a657506112a682610d6d565b6113ee6114cd565b6001600160a01b0381166114535760405162461bcd60e51b815260206004820152602660248201527f4f776e61626c653a206e6577206f776e657220697320746865207a65726f206160448201526564647265737360d01b6064820152608401610789565b610a5b81611bd6565b60006001600160e01b03198216637965db0b60e01b148061062c575061062c825b60006001600160e01b031982166380ac58cd60e01b14806114ae57506001600160e01b03198216635b5e139f60e01b145b8061062c57506301ffc9a760e01b6001600160e01b031983161461062c565b6114d5611561565b6001600160a01b03166114e661102a565b6001600160a01b031614610ee75760405162461bcd60e51b815260206004820181905260248201527f4f776e61626c653a2063616c6c6572206973206e6f7420746865206f776e65726044820152606401610789565b61154581611e61565b610a5b5760405162461bcd60e51b815260040161078990612b02565b6000610877611e95565b6000818152609b6020526040902080546001600160a01b0319166001600160a01b03841690811790915581906115a082610d39565b6001600160a01b03167f8c5be1e5ebec7d5bd14f71427d1e84f3dd0314c0f7b2291e5b200ac8c7c3b92560405160405180910390a45050565b6040805160208082018352838252600085815260fc90915291909120815181906116039082612c3f565b5050505050565b60008061161683610d39565b9050806001600160a01b0316846001600160a01b0316148061163d575061163d81856113ac565b806111fa5750836001600160a01b0316611656846106ee565b6001600160a01b031614949350505050565b826001600160a01b031661167b82610d39565b6001600160a01b0316146116a15760405162461bcd60e51b815260040161078990612cfe565b6001600160a01b0382166117035760405162461bcd60e51b8152602060048201526024808201527f4552433732313a207472616e7366657220746f20746865207a65726f206164646044820152637265737360e01b6064820152608401610789565b6117108383836001611ec3565b826001600160a01b031661172382610d39565b6001600160a01b0316146117495760405162461bcd60e51b815260040161078990612cfe565b6000818152609b6020908152604080832080546001600160a01b03199081169091556001600160a01b03878116808652609a855283862080546000190190559087168086528386208054600101905586865260999094528285208054909216841790915590518493600080516020612f4a83398151915291a4505050565b6001600160a01b03163b151590565b600054610100900460ff16610ee75760405162461bcd60e51b815260040161078990612d43565b600054610100900460ff166118245760405162461bcd60e51b815260040161078990612d43565b60976118308382612c3f565b50609861083c8282612c3f565b600054610100900460ff166118645760405162461bcd60e51b815260040161078990612d43565b610ee761186f611561565b611bd6565b6108ad828261188f565b610a5b8161188a611561565b611f37565b6118998282611039565b6108ad57600082815260c9602090815260408083206001600160a01b03851684529091529020805460ff191660011790556118d2611561565b6001600160a01b0316816001600160a01b0316837f2f8788117e7eff1d82e926ec794901d17c78024a50270940304540a733656f0d60405160405180910390a45050565b6119208282611039565b156108ad57600082815260c9602090815260408083206001600160a01b03851684529091529020805460ff19169055611957611561565b6001600160a01b0316816001600160a01b0316837ff6391f5c32d9c69d2a47ea670b442974b53935d1edc7fd64eb21e047a839171b60405160405180910390a45050565b6001600160a01b0382166119f15760405162461bcd60e51b815260206004820181905260248201527f4552433732313a206d696e7420746f20746865207a65726f20616464726573736044820152606401610789565b6119fa81611e61565b15611a175760405162461bcd60e51b815260040161078990612d8e565b611a25600083836001611ec3565b611a2e81611e61565b15611a4b5760405162461bcd60e51b815260040161078990612d8e565b6001600160a01b0382166000818152609a6020908152604080832080546001019055848352609990915280822080546001600160a01b031916841790555183929190600080516020612f4a833981519152908290a45050565b6000611aaf82610d39565b9050611abf816000846001611ec3565b611ac882610d39565b6000838152609b6020908152604080832080546001600160a01b03199081169091556001600160a01b038516808552609a84528285208054600019019055878552609990935281842080549091169055519293508492600080516020612f4a833981519152908390a45050565b6000908152609960205260409020546001600160a01b031690565b60006001600160a01b038216611bba5760405162461bcd60e51b815260206004820152602960248201527f4552433732313a2061646472657373207a65726f206973206e6f7420612076616044820152683634b21037bbb732b960b91b6064820152608401610789565b506001600160a01b03166000908152609a602052604090205490565b603380546001600160a01b038381166001600160a01b0319831681179093556040519116919082907f8be0079c531659141344cd1fd0a4f28419497f9722a3daafe3b4186f6b6457e090600090a35050565b620f4240811115611c785760405162461bcd60e51b815260206004820152601a60248201527908aa48664727062a4def2c2d8e8d2cae67440a8dede40d0d2ced60331b6044820152606401610789565b6040805180820182526001600160a01b0393841681526020808201938452600095865260fb90529320925183546001600160a01b031916921691909117825551600190910155565b816001600160a01b0316836001600160a01b031603611d1d5760405162461bcd60e51b815260206004820152601960248201527822a9219b99189d1030b8383937bb32903a379031b0b63632b960391b6044820152606401610789565b6001600160a01b038381166000818152609c6020908152604080832094871680845294825291829020805460ff191686151590811790915591519182527f17307eab39ab6107e8899845ad3d59bd9653f200f220920489ca2b5937696c31910160405180910390a3505050565b6000763d602d80600a3d3981f3363d3d373d3d3d363d730000008260601b60e81c176000526e5af43d82803e903d91602b57fd5bf38260781b17602052603760096000f090506001600160a01b038116611e1f5760405162461bcd60e51b8152602060048201526016602482015275115490cc4c4d8dce8818dc99585d194819985a5b195960521b6044820152606401610789565b919050565b611e2f848484611668565b611e3b84848484611f90565b61123b5760405162461bcd60e51b815260040161078990612dc4565b606061087761139d565b600080611e6d83611b35565b6001600160a01b0316141592915050565b606061062c82611e8d8461209c565b600101612106565b600060143610801590611eac5750611eac33610cc5565b15611ebe575060131936013560601c90565b503390565b6001600160a01b0384161580611ee057506001600160a01b038316155b80611ef15750611ef1610460611561565b611f2a5760405162461bcd60e51b815260206004820152600a6024820152696f6e6c792070726f787960b01b6044820152606401610789565b61123b84846000846122a1565b611f418282611039565b6108ad57611f4e81612329565b611f59836020612106565b604051602001611f6a929190612e16565b60408051601f198184030181529082905262461bcd60e51b8252610789916004016123f4565b6000611fa4846001600160a01b03166117c7565b1561209457836001600160a01b031663150b7a02611fc0611561565b8786866040518563ffffffff1660e01b8152600401611fe29493929190612e85565b6020604051808303816000875af192505050801561201d575060408051601f3d908101601f1916820190925261201a91810190612ec2565b60015b61207a573d80801561204b576040519150601f19603f3d011682016040523d82523d6000602084013e612050565b606091505b5080516000036120725760405162461bcd60e51b815260040161078990612dc4565b805181602001fd5b6001600160e01b031916630a85bd0160e11b1490506111fa565b5060016111fa565b600080608083901c156120b45760809290921c916010015b604083901c156120c95760409290921c916008015b602083901c156120de5760209290921c916004015b601083901c156120f35760109290921c916002015b600883901c1561062c5760010192915050565b60606000612115836002612a87565b612120906002612ad6565b6001600160401b0381111561213757612137612481565b6040519080825280601f01601f191660200182016040528015612161576020820181803683370190505b509050600360fc1b8160008151811061217c5761217c612ac0565b60200101906001600160f81b031916908160001a905350600f60fb1b816001815181106121ab576121ab612ac0565b60200101906001600160f81b031916908160001a90535060006121cf846002612a87565b6121da906001612ad6565b90505b6001811115612252576f181899199a1a9b1b9c1cb0b131b232b360811b85600f166010811061220e5761220e612ac0565b1a60f81b82828151811061222457612224612ac0565b60200101906001600160f81b031916908160001a90535060049490941c9361224b81612edf565b90506121dd565b5083156112a65760405162461bcd60e51b815260206004820181905260248201527f537472696e67733a20686578206c656e67746820696e73756666696369656e746044820152606401610789565b600181111561123b576001600160a01b038416156122e7576001600160a01b0384166000908152609a6020526040812080548392906122e1908490612ef6565b90915550505b6001600160a01b0383161561123b576001600160a01b0383166000908152609a60205260408120805483929061231e908490612ad6565b909155505050505050565b606061062c6001600160a01b0383166014612106565b6001600160e01b031981168114610a5b57600080fd5b60006020828403121561236757600080fd5b81356112a68161233f565b6001600160a01b0381168114610a5b57600080fd5b60006020828403121561239957600080fd5b81356112a681612372565b60005b838110156123bf5781810151838201526020016123a7565b50506000910152565b600081518084526123e08160208601602086016123a4565b601f01601f19169290920160200192915050565b6020815260006112a660208301846123c8565b60006020828403121561241957600080fd5b5035919050565b6000806040838503121561243357600080fd5b823561243e81612372565b946020939093013593505050565b60008060006060848603121561246157600080fd5b833561246c81612372565b95602085013595506040909401359392505050565b634e487b7160e01b600052604160045260246000fd5b604051601f8201601f191681016001600160401b03811182821017156124bf576124bf612481565b604052919050565b60006001600160401b038311156124e0576124e0612481565b6124f3601f8401601f1916602001612497565b905082815283838301111561250757600080fd5b828260208301376000602084830101529392505050565b600082601f83011261252f57600080fd5b6112a6838335602085016124c7565b6000806040838503121561255157600080fd5b8235915060208301356001600160401b0381111561256e57600080fd5b610aaa8582860161251e565b60008060006060848603121561258f57600080fd5b833561259a81612372565b925060208401356125aa81612372565b929592945050506040919091013590565b600080600080600060a086880312156125d357600080fd5b85356125de81612372565b945060208601356001600160401b03808211156125fa57600080fd5b61260689838a0161251e565b9550604088013591508082111561261c57600080fd5b61262889838a0161251e565b9450606088013591508082111561263e57600080fd5b5061264b8882890161251e565b95989497509295608001359392505050565b6000806040838503121561267057600080fd5b50508035926020909101359150565b6000806040838503121561269257600080fd5b8235915060208301356126a481612372565b809150509250929050565b600060208083850312156126c257600080fd5b82356001600160401b03808211156126d957600080fd5b818501915085601f8301126126ed57600080fd5b8135818111156126ff576126ff612481565b8060051b9150612710848301612497565b818152918301840191848101908884111561272a57600080fd5b938501935b838510156127485784358252938501939085019061272f565b98975050505050505050565b6000806040838503121561276757600080fd5b82356001600160401b038082111561277e57600080fd5b61278a8683870161251e565b935060208501359150808211156127a057600080fd5b50610aaa8582860161251e565b6000806000606084860312156127c257600080fd5b8335925060208401356125aa81612372565b600080604083850312156127e757600080fd5b82356127f281612372565b9150602083013580151581146126a457600080fd5b6000806000806080858703121561281d57600080fd5b84356001600160401b038082111561283457600080fd5b6128408883890161251e565b9550602087013591508082111561285657600080fd5b6128628883890161251e565b9450604087013591508082111561287857600080fd5b506128858782880161251e565b949793965093946060013593505050565b600080600080608085870312156128ac57600080fd5b84356128b781612372565b935060208501356128c781612372565b92506040850135915060608501356001600160401b038111156128e957600080fd5b8501601f810187136128fa57600080fd5b612909878235602084016124c7565b91505092959194509250565b60006020828403121561292757600080fd5b81356001600160401b0381111561293d57600080fd5b6111fa8482850161251e565b6000806040838503121561295c57600080fd5b823561296781612372565b915060208301356126a481612372565b600181811c9082168061298b57607f821691505b6020821081036112dc57634e487b7160e01b600052602260045260246000fd5b60208082526011908201527037b7363c9037333a1037b832b930ba37b960791b604082015260600190565b6020808252602d908201527f4552433732313a2063616c6c6572206973206e6f7420746f6b656e206f776e6560408201526c1c881bdc88185c1c1c9bdd9959609a1b606082015260800190565b6020808252602e908201527f496e697469616c697a61626c653a20636f6e747261637420697320616c72656160408201526d191e481a5b9a5d1a585b1a5e995960921b606082015260800190565b634e487b7160e01b600052601160045260246000fd5b808202811582820484141761062c5761062c612a71565b600082612abb57634e487b7160e01b600052601260045260246000fd5b500490565b634e487b7160e01b600052603260045260246000fd5b8082018082111561062c5761062c612a71565b600060018201612afb57612afb612a71565b5060010190565b602080825260189082015277115490cdcc8c4e881a5b9d985b1a59081d1bdad95b88125160421b604082015260600190565b6001600160a01b038616815260a060208201819052600090612b58908301876123c8565b8281036040840152612b6a81876123c8565b90508281036060840152612b7e81866123c8565b9150508260808301529695505050505050565b60008351612ba38184602088016123a4565b835190830190612bb78183602088016123a4565b01949350505050565b60008251612bd28184602087016123a4565b9190910192915050565b600060208284031215612bee57600080fd5b81516112a681612372565b601f82111561083c57600081815260208120601f850160051c81016020861015612c205750805b601f850160051c820191505b81811015610a3357828155600101612c2c565b81516001600160401b03811115612c5857612c58612481565b612c6c81612c668454612977565b84612bf9565b602080601f831160018114612ca15760008415612c895750858301515b600019600386901b1c1916600185901b178555610a33565b600085815260208120601f198616915b82811015612cd057888601518255948401946001909101908401612cb1565b5085821015612cee5787850151600019600388901b60f8161c191681555b5050505050600190811b01905550565b60208082526025908201527f4552433732313a207472616e736665722066726f6d20696e636f72726563742060408201526437bbb732b960d91b606082015260800190565b6020808252602b908201527f496e697469616c697a61626c653a20636f6e7472616374206973206e6f74206960408201526a6e697469616c697a696e6760a81b606082015260800190565b6020808252601c908201527b115490cdcc8c4e881d1bdad95b88185b1c9958591e481b5a5b9d195960221b604082015260600190565b60208082526032908201527f4552433732313a207472616e7366657220746f206e6f6e20455243373231526560408201527131b2b4bb32b91034b6b83632b6b2b73a32b960711b606082015260800190565b76020b1b1b2b9b9a1b7b73a3937b61d1030b1b1b7bab73a1604d1b815260008351612e488160178501602088016123a4565b7001034b99036b4b9b9b4b733903937b6329607d1b6017918401918201528351612e798160288401602088016123a4565b01602801949350505050565b6001600160a01b0385811682528416602082015260408101839052608060608201819052600090612eb8908301846123c8565b9695505050505050565b600060208284031215612ed457600080fd5b81516112a68161233f565b600081612eee57612eee612a71565b506000190190565b8181038181111561062c5761062c612a7156fef7a17991623d7e30ebf9bd089b2f4dcf33b0aa34727454bfa3dbc351ed7d68357f26b83ff96e1f2b6a682f133852f6798a09c465da95921460cefb3847402498ddf252ad1be2c89b69c2b068fc378daa952ba7f163c4a11628f55a4df523b3efa26469706673582212207e610173445558c96faefcae17cfcb4499268b5b1c8696e550feaa41e68df1a164736f6c63430008110033",
  "linkReferences": {},
  "deployedLinkReferences": {}
}